{
	"contracts/PatientRecordStorage.sol": {
		"patientRecordStorage": {
			"abi": [
				{
					"inputs": [],
					"stateMutability": "nonpayable",
					"type": "constructor"
				},
				{
					"inputs": [
						{
							"internalType": "address",
							"name": "",
							"type": "address"
						}
					],
					"name": "Doctor_Record",
					"outputs": [
						{
							"internalType": "string",
							"name": "name",
							"type": "string"
						},
						{
							"internalType": "string",
							"name": "qualification",
							"type": "string"
						},
						{
							"internalType": "string",
							"name": "workPlace",
							"type": "string"
						},
						{
							"internalType": "string",
							"name": "specialization",
							"type": "string"
						},
						{
							"internalType": "uint256",
							"name": "reviewers",
							"type": "uint256"
						},
						{
							"internalType": "uint256",
							"name": "totalRatingPoints",
							"type": "uint256"
						},
						{
							"internalType": "bool",
							"name": "exists",
							"type": "bool"
						}
					],
					"stateMutability": "view",
					"type": "function"
				},
				{
					"inputs": [
						{
							"internalType": "address",
							"name": "",
							"type": "address"
						},
						{
							"internalType": "address",
							"name": "",
							"type": "address"
						}
					],
					"name": "Doctors_Rating",
					"outputs": [
						{
							"internalType": "enum patientRecordStorage.reviewDoctor",
							"name": "",
							"type": "uint8"
						}
					],
					"stateMutability": "view",
					"type": "function"
				},
				{
					"inputs": [
						{
							"internalType": "address",
							"name": "",
							"type": "address"
						}
					],
					"name": "MedRecordEditor",
					"outputs": [
						{
							"internalType": "bool",
							"name": "",
							"type": "bool"
						}
					],
					"stateMutability": "view",
					"type": "function"
				},
				{
					"inputs": [
						{
							"internalType": "uint256",
							"name": "",
							"type": "uint256"
						}
					],
					"name": "Medicine_list",
					"outputs": [
						{
							"internalType": "string",
							"name": "name",
							"type": "string"
						},
						{
							"internalType": "bool",
							"name": "continue_status",
							"type": "bool"
						},
						{
							"internalType": "enum patientRecordStorage.medicine_dosage",
							"name": "dosage",
							"type": "uint8"
						},
						{
							"internalType": "enum patientRecordStorage.medicine_timing",
							"name": "dosageTiming",
							"type": "uint8"
						},
						{
							"internalType": "bool",
							"name": "exists",
							"type": "bool"
						}
					],
					"stateMutability": "view",
					"type": "function"
				},
				{
					"inputs": [
						{
							"internalType": "uint256",
							"name": "_id",
							"type": "uint256"
						},
						{
							"internalType": "string",
							"name": "_name",
							"type": "string"
						},
						{
							"internalType": "enum patientRecordStorage.medicine_dosage",
							"name": "_dose",
							"type": "uint8"
						},
						{
							"internalType": "enum patientRecordStorage.medicine_timing",
							"name": "_dosetime",
							"type": "uint8"
						}
					],
					"name": "addMedicine",
					"outputs": [],
					"stateMutability": "nonpayable",
					"type": "function"
				},
				{
					"inputs": [
						{
							"internalType": "string",
							"name": "_disease_name",
							"type": "string"
						},
						{
							"internalType": "address",
							"name": "_patient",
							"type": "address"
						},
						{
							"internalType": "uint256",
							"name": "_treatment_status",
							"type": "uint256"
						}
					],
					"name": "add_Disease",
					"outputs": [
						{
							"internalType": "uint256",
							"name": "_index",
							"type": "uint256"
						}
					],
					"stateMutability": "nonpayable",
					"type": "function"
				},
				{
					"inputs": [
						{
							"internalType": "address",
							"name": "_editor_address",
							"type": "address"
						}
					],
					"name": "approvePatientRecordEditor",
					"outputs": [],
					"stateMutability": "nonpayable",
					"type": "function"
				},
				{
					"inputs": [
						{
							"internalType": "address",
							"name": "_editor_address",
							"type": "address"
						}
					],
					"name": "disapprovePatientRecordEditor",
					"outputs": [],
					"stateMutability": "nonpayable",
					"type": "function"
				},
				{
					"inputs": [
						{
							"internalType": "address",
							"name": "_patient",
							"type": "address"
						}
					],
					"name": "get_Disease_Details_Of_patient",
					"outputs": [
						{
							"components": [
								{
									"internalType": "string",
									"name": "name",
									"type": "string"
								},
								{
									"internalType": "enum patientRecordStorage.RecoveryStatus",
									"name": "recoveryStatus",
									"type": "uint8"
								}
							],
							"internalType": "struct patientRecordStorage.Disease[]",
							"name": "_d",
							"type": "tuple[]"
						}
					],
					"stateMutability": "view",
					"type": "function"
				},
				{
					"inputs": [
						{
							"internalType": "address",
							"name": "_doctor",
							"type": "address"
						},
						{
							"internalType": "uint256",
							"name": "_rate",
							"type": "uint256"
						}
					],
					"name": "giveReviewTotheDoctor",
					"outputs": [],
					"stateMutability": "nonpayable",
					"type": "function"
				},
				{
					"inputs": [
						{
							"internalType": "address",
							"name": "_toPatient",
							"type": "address"
						},
						{
							"internalType": "uint256",
							"name": "_medid",
							"type": "uint256"
						},
						{
							"internalType": "enum patientRecordStorage.medicine_dosage",
							"name": "_dose",
							"type": "uint8"
						},
						{
							"internalType": "enum patientRecordStorage.medicine_timing",
							"name": "_dosetime",
							"type": "uint8"
						}
					],
					"name": "prescribeMedicine",
					"outputs": [],
					"stateMutability": "nonpayable",
					"type": "function"
				},
				{
					"inputs": [
						{
							"internalType": "string",
							"name": "_name",
							"type": "string"
						},
						{
							"internalType": "string",
							"name": "_qualification",
							"type": "string"
						},
						{
							"internalType": "string",
							"name": "_specialization",
							"type": "string"
						},
						{
							"internalType": "string",
							"name": "_workPlace",
							"type": "string"
						}
					],
					"name": "register_as_doctor",
					"outputs": [],
					"stateMutability": "nonpayable",
					"type": "function"
				},
				{
					"inputs": [
						{
							"internalType": "string",
							"name": "_name",
							"type": "string"
						},
						{
							"internalType": "uint256",
							"name": "_dob",
							"type": "uint256"
						},
						{
							"internalType": "uint256",
							"name": "_weight",
							"type": "uint256"
						},
						{
							"internalType": "uint256",
							"name": "_height",
							"type": "uint256"
						}
					],
					"name": "register_as_patient",
					"outputs": [],
					"stateMutability": "nonpayable",
					"type": "function"
				},
				{
					"inputs": [
						{
							"internalType": "address",
							"name": "_patient",
							"type": "address"
						},
						{
							"internalType": "uint256",
							"name": "_treatment_status",
							"type": "uint256"
						},
						{
							"internalType": "uint256",
							"name": "_index",
							"type": "uint256"
						}
					],
					"name": "update_Recovery_Status",
					"outputs": [],
					"stateMutability": "nonpayable",
					"type": "function"
				},
				{
					"inputs": [
						{
							"internalType": "address",
							"name": "_doctor",
							"type": "address"
						}
					],
					"name": "viewDoctorDetails",
					"outputs": [
						{
							"components": [
								{
									"internalType": "string",
									"name": "name",
									"type": "string"
								},
								{
									"internalType": "string",
									"name": "qualification",
									"type": "string"
								},
								{
									"internalType": "string",
									"name": "workPlace",
									"type": "string"
								},
								{
									"internalType": "string",
									"name": "specialization",
									"type": "string"
								},
								{
									"internalType": "uint256",
									"name": "reviewers",
									"type": "uint256"
								},
								{
									"internalType": "uint256",
									"name": "totalRatingPoints",
									"type": "uint256"
								},
								{
									"internalType": "bool",
									"name": "exists",
									"type": "bool"
								}
							],
							"internalType": "struct patientRecordStorage.Doctor",
							"name": "_doc",
							"type": "tuple"
						}
					],
					"stateMutability": "view",
					"type": "function"
				},
				{
					"inputs": [
						{
							"internalType": "address",
							"name": "_doctor",
							"type": "address"
						}
					],
					"name": "viewDoctorRating",
					"outputs": [
						{
							"internalType": "enum patientRecordStorage.reviewDoctor",
							"name": "",
							"type": "uint8"
						}
					],
					"stateMutability": "view",
					"type": "function"
				},
				{
					"inputs": [
						{
							"internalType": "uint256",
							"name": "_medid",
							"type": "uint256"
						}
					],
					"name": "viewMedicineDetails",
					"outputs": [
						{
							"components": [
								{
									"internalType": "string",
									"name": "name",
									"type": "string"
								},
								{
									"internalType": "bool",
									"name": "continue_status",
									"type": "bool"
								},
								{
									"internalType": "enum patientRecordStorage.medicine_dosage",
									"name": "dosage",
									"type": "uint8"
								},
								{
									"internalType": "enum patientRecordStorage.medicine_timing",
									"name": "dosageTiming",
									"type": "uint8"
								},
								{
									"internalType": "bool",
									"name": "exists",
									"type": "bool"
								}
							],
							"internalType": "struct patientRecordStorage.Medicine",
							"name": "_m",
							"type": "tuple"
						}
					],
					"stateMutability": "view",
					"type": "function"
				},
				{
					"inputs": [
						{
							"internalType": "address",
							"name": "_patient",
							"type": "address"
						},
						{
							"internalType": "uint256",
							"name": "_dob",
							"type": "uint256"
						},
						{
							"internalType": "string",
							"name": "_pname",
							"type": "string"
						}
					],
					"name": "viewPatientDiseaseDetails",
					"outputs": [
						{
							"components": [
								{
									"internalType": "string",
									"name": "name",
									"type": "string"
								},
								{
									"internalType": "enum patientRecordStorage.RecoveryStatus",
									"name": "recoveryStatus",
									"type": "uint8"
								}
							],
							"internalType": "struct patientRecordStorage.Disease[]",
							"name": "_d",
							"type": "tuple[]"
						}
					],
					"stateMutability": "view",
					"type": "function"
				},
				{
					"inputs": [
						{
							"internalType": "address",
							"name": "_patient",
							"type": "address"
						},
						{
							"internalType": "string",
							"name": "_pname",
							"type": "string"
						}
					],
					"name": "viewPatientMedicationsByDoctor",
					"outputs": [
						{
							"components": [
								{
									"internalType": "string",
									"name": "name",
									"type": "string"
								},
								{
									"internalType": "bool",
									"name": "continue_status",
									"type": "bool"
								},
								{
									"internalType": "enum patientRecordStorage.medicine_dosage",
									"name": "dosage",
									"type": "uint8"
								},
								{
									"internalType": "enum patientRecordStorage.medicine_timing",
									"name": "dosageTiming",
									"type": "uint8"
								},
								{
									"internalType": "bool",
									"name": "exists",
									"type": "bool"
								}
							],
							"internalType": "struct patientRecordStorage.Medicine[]",
							"name": "_m",
							"type": "tuple[]"
						}
					],
					"stateMutability": "view",
					"type": "function"
				}
			],
			"devdoc": {
				"kind": "dev",
				"methods": {
					"addMedicine(uint256,string,uint8,uint8)": {
						"params": {
							"_dose": "a recommended Dose prescribed to the patient (In general)",
							"_dosetime": "recommended Dose time prescribed to patient (In general)",
							"_id": "Id of the medicine",
							"_name": "name of the medicine"
						}
					},
					"add_Disease(string,address,uint256)": {
						"params": {
							"_disease_name": "Name of the disease",
							"_patient": "address of patient (wallet address is used as unique identification)",
							"_treatment_status": "patient's recovery or treat status like under treatment"
						}
					},
					"approvePatientRecordEditor(address)": {
						"params": {
							"_editor_address": "address to be approved as Patiend Record Editor  "
						}
					},
					"get_Disease_Details_Of_patient(address)": {
						"params": {
							"_patient": "patient's wallet address"
						},
						"returns": {
							"_d": "the disease array of Patient_record[<patient's addess>]"
						}
					},
					"giveReviewTotheDoctor(address,uint256)": {
						"params": {
							"_doctor": "doctor's wallet address",
							"_rate": "review point/rating point (input must be in between 0 and 4)"
						}
					},
					"prescribeMedicine(address,uint256,uint8,uint8)": {
						"params": {
							"_dose": "prescribed dosage  ",
							"_dosetime": "prescribed dose timings",
							"_medid": "medicine id",
							"_toPatient": "prescribed to which patient"
						}
					},
					"register_as_doctor(string,string,string,string)": {
						"params": {
							"_name": "Name of the doctor",
							"_qualification": "Which degree he/she holds as a doctor",
							"_specialization": "If the doctor is a aspecialist",
							"_workPlace": "Address of his/her hospital/clinic"
						}
					},
					"register_as_patient(string,uint256,uint256,uint256)": {
						"params": {
							"_dob": "Age of user",
							"_height": "patient's height in cm",
							"_name": "Name of the user",
							"_weight": "patient's weight in kg"
						}
					},
					"update_Recovery_Status(address,uint256,uint256)": {
						"params": {
							"_index": "disease array index of a particular disease in patient record",
							"_patient": "address of patient (wallet address is used as unique identification)",
							"_treatment_status": "patient's recovery or treat status like under treatment"
						}
					},
					"viewDoctorDetails(address)": {
						"params": {
							"_doctor": "Doctor's wallet address"
						},
						"returns": {
							"_doc": "Doctor's details from Doctor structure"
						}
					},
					"viewDoctorRating(address)": {
						"params": {
							"_doctor": "Doctor's wallet address"
						},
						"returns": {
							"_0": "reviewDoctor "
						}
					},
					"viewMedicineDetails(uint256)": {
						"params": {
							"_medid": "Medicine Id"
						},
						"returns": {
							"_m": "Medicine List array"
						}
					},
					"viewPatientDiseaseDetails(address,uint256,string)": {
						"params": {
							"_dob": "patient's date of bith in timestamp",
							"_patient": "patient's wallet address",
							"_pname": "patient's name"
						},
						"returns": {
							"_d": "Disease array"
						}
					},
					"viewPatientMedicationsByDoctor(address,string)": {
						"params": {
							"_patient": "patient's wallet address",
							"_pname": "patient's name"
						},
						"returns": {
							"_m": "   array of Medicine"
						}
					}
				},
				"version": 1
			},
			"evm": {
				"assembly": "    /* \"contracts/PatientRecordStorage.sol\":67:12261  contract patientRecordStorage{     ... */\n  mstore(0x40, 0x80)\n    /* \"contracts/PatientRecordStorage.sol\":4040:4101  constructor(){... */\n  callvalue\n  dup1\n  iszero\n  tag_1\n  jumpi\n  0x00\n  dup1\n  revert\ntag_1:\n  pop\n    /* \"contracts/PatientRecordStorage.sol\":4091:4095  true */\n  0x01\n    /* \"contracts/PatientRecordStorage.sol\":4061:4076  MedRecordEditor */\n  0x04\n    /* \"contracts/PatientRecordStorage.sol\":4061:4088  MedRecordEditor[msg.sender] */\n  0x00\n    /* \"contracts/PatientRecordStorage.sol\":4077:4087  msg.sender */\n  caller\n    /* \"contracts/PatientRecordStorage.sol\":4061:4088  MedRecordEditor[msg.sender] */\n  0xffffffffffffffffffffffffffffffffffffffff\n  and\n  0xffffffffffffffffffffffffffffffffffffffff\n  and\n  dup2\n  mstore\n  0x20\n  add\n  swap1\n  dup2\n  mstore\n  0x20\n  add\n  0x00\n  keccak256\n  0x00\n    /* \"contracts/PatientRecordStorage.sol\":4061:4095  MedRecordEditor[msg.sender] = true */\n  0x0100\n  exp\n  dup2\n  sload\n  dup2\n  0xff\n  mul\n  not\n  and\n  swap1\n  dup4\n  iszero\n  iszero\n  mul\n  or\n  swap1\n  sstore\n  pop\n    /* \"contracts/PatientRecordStorage.sol\":67:12261  contract patientRecordStorage{     ... */\n  dataSize(sub_0)\n  dup1\n  dataOffset(sub_0)\n  0x00\n  codecopy\n  0x00\n  return\nstop\n\nsub_0: assembly {\n        /* \"contracts/PatientRecordStorage.sol\":67:12261  contract patientRecordStorage{     ... */\n      mstore(0x40, 0x80)\n      callvalue\n      dup1\n      iszero\n      tag_1\n      jumpi\n      0x00\n      dup1\n      revert\n    tag_1:\n      pop\n      jumpi(tag_2, lt(calldatasize, 0x04))\n      shr(0xe0, calldataload(0x00))\n      dup1\n      0xa14d4d4d\n      gt\n      tag_22\n      jumpi\n      dup1\n      0xc140261c\n      gt\n      tag_23\n      jumpi\n      dup1\n      0xc140261c\n      eq\n      tag_17\n      jumpi\n      dup1\n      0xcc7fa220\n      eq\n      tag_18\n      jumpi\n      dup1\n      0xdfba9ad7\n      eq\n      tag_19\n      jumpi\n      dup1\n      0xe565aca3\n      eq\n      tag_20\n      jumpi\n      dup1\n      0xea6b4727\n      eq\n      tag_21\n      jumpi\n      jump(tag_2)\n    tag_23:\n      dup1\n      0xa14d4d4d\n      eq\n      tag_12\n      jumpi\n      dup1\n      0xa211b4b7\n      eq\n      tag_13\n      jumpi\n      dup1\n      0xa3621a76\n      eq\n      tag_14\n      jumpi\n      dup1\n      0xba7b7ba0\n      eq\n      tag_15\n      jumpi\n      dup1\n      0xbeb02ea3\n      eq\n      tag_16\n      jumpi\n      jump(tag_2)\n    tag_22:\n      dup1\n      0x367c1c37\n      gt\n      tag_24\n      jumpi\n      dup1\n      0x367c1c37\n      eq\n      tag_7\n      jumpi\n      dup1\n      0x36eb4a2d\n      eq\n      tag_8\n      jumpi\n      dup1\n      0x5e12fadc\n      eq\n      tag_9\n      jumpi\n      dup1\n      0x6e537004\n      eq\n      tag_10\n      jumpi\n      dup1\n      0x715cc675\n      eq\n      tag_11\n      jumpi\n      jump(tag_2)\n    tag_24:\n      dup1\n      0x109097a0\n      eq\n      tag_3\n      jumpi\n      dup1\n      0x1dfb3602\n      eq\n      tag_4\n      jumpi\n      dup1\n      0x21bdd1bb\n      eq\n      tag_5\n      jumpi\n      dup1\n      0x2ce1bd55\n      eq\n      tag_6\n      jumpi\n    tag_2:\n      0x00\n      dup1\n      revert\n        /* \"contracts/PatientRecordStorage.sol\":2341:2391  mapping (uint256 => Medicine) public Medicine_list */\n    tag_3:\n      tag_25\n      0x04\n      dup1\n      calldatasize\n      sub\n      dup2\n      add\n      swap1\n      tag_26\n      swap2\n      swap1\n      tag_27\n      jump\t// in\n    tag_26:\n      tag_28\n      jump\t// in\n    tag_25:\n      mload(0x40)\n      tag_29\n      swap6\n      swap5\n      swap4\n      swap3\n      swap2\n      swap1\n      tag_30\n      jump\t// in\n    tag_29:\n      mload(0x40)\n      dup1\n      swap2\n      sub\n      swap1\n      return\n        /* \"contracts/PatientRecordStorage.sol\":8881:9092  function addMedicine(uint256 _id, string memory _name, medicine_dosage _dose, medicine_timing _dosetime) public _medRecordEditor... */\n    tag_4:\n      tag_31\n      0x04\n      dup1\n      calldatasize\n      sub\n      dup2\n      add\n      swap1\n      tag_32\n      swap2\n      swap1\n      tag_33\n      jump\t// in\n    tag_32:\n      tag_34\n      jump\t// in\n    tag_31:\n      stop\n        /* \"contracts/PatientRecordStorage.sol\":2215:2263  mapping (address => Doctor) public Doctor_Record */\n    tag_5:\n      tag_35\n      0x04\n      dup1\n      calldatasize\n      sub\n      dup2\n      add\n      swap1\n      tag_36\n      swap2\n      swap1\n      tag_37\n      jump\t// in\n    tag_36:\n      tag_38\n      jump\t// in\n    tag_35:\n      mload(0x40)\n      tag_39\n      swap8\n      swap7\n      swap6\n      swap5\n      swap4\n      swap3\n      swap2\n      swap1\n      tag_40\n      jump\t// in\n    tag_39:\n      mload(0x40)\n      dup1\n      swap2\n      sub\n      swap1\n      return\n        /* \"contracts/PatientRecordStorage.sol\":11990:12258  function viewDoctorRating(address _doctor) public view returns(reviewDoctor){... */\n    tag_6:\n      tag_41\n      0x04\n      dup1\n      calldatasize\n      sub\n      dup2\n      add\n      swap1\n      tag_42\n      swap2\n      swap1\n      tag_37\n      jump\t// in\n    tag_42:\n      tag_43\n      jump\t// in\n    tag_41:\n      mload(0x40)\n      tag_44\n      swap2\n      swap1\n      tag_45\n      jump\t// in\n    tag_44:\n      mload(0x40)\n      dup1\n      swap2\n      sub\n      swap1\n      return\n        /* \"contracts/PatientRecordStorage.sol\":6742:7360  function add_Disease(string memory _disease_name, address _patient, uint256 _treatment_status) public onlyApprovedPersons(_patient) returns(uint256 _index){... */\n    tag_7:\n      tag_46\n      0x04\n      dup1\n      calldatasize\n      sub\n      dup2\n      add\n      swap1\n      tag_47\n      swap2\n      swap1\n      tag_48\n      jump\t// in\n    tag_47:\n      tag_49\n      jump\t// in\n    tag_46:\n      mload(0x40)\n      tag_50\n      swap2\n      swap1\n      tag_51\n      jump\t// in\n    tag_50:\n      mload(0x40)\n      dup1\n      swap2\n      sub\n      swap1\n      return\n        /* \"contracts/PatientRecordStorage.sol\":5063:5712  function register_as_patient(string memory _name, uint256 _dob, uint256 _weight, uint256 _height) public {... */\n    tag_8:\n      tag_52\n      0x04\n      dup1\n      calldatasize\n      sub\n      dup2\n      add\n      swap1\n      tag_53\n      swap2\n      swap1\n      tag_54\n      jump\t// in\n    tag_53:\n      tag_55\n      jump\t// in\n    tag_52:\n      stop\n        /* \"contracts/PatientRecordStorage.sol\":11082:11438  function viewPatientMedicationsByDoctor(address _patient, string memory _pname) public view onlyDoctor onlyApprovedPersons(_patient) returns(Medicine[] memory _m)... */\n    tag_9:\n      tag_56\n      0x04\n      dup1\n      calldatasize\n      sub\n      dup2\n      add\n      swap1\n      tag_57\n      swap2\n      swap1\n      tag_58\n      jump\t// in\n    tag_57:\n      tag_59\n      jump\t// in\n    tag_56:\n      mload(0x40)\n      tag_60\n      swap2\n      swap1\n      tag_61\n      jump\t// in\n    tag_60:\n      mload(0x40)\n      dup1\n      swap2\n      sub\n      swap1\n      return\n        /* \"contracts/PatientRecordStorage.sol\":6261:6479  function disapprovePatientRecordEditor(address _editor_address) public onlyPatient{... */\n    tag_10:\n      tag_62\n      0x04\n      dup1\n      calldatasize\n      sub\n      dup2\n      add\n      swap1\n      tag_63\n      swap2\n      swap1\n      tag_37\n      jump\t// in\n    tag_63:\n      tag_64\n      jump\t// in\n    tag_62:\n      stop\n        /* \"contracts/PatientRecordStorage.sol\":10005:10426  function giveReviewTotheDoctor(address _doctor, uint256 _rate) public onlyPatient{... */\n    tag_11:\n      tag_65\n      0x04\n      dup1\n      calldatasize\n      sub\n      dup2\n      add\n      swap1\n      tag_66\n      swap2\n      swap1\n      tag_67\n      jump\t// in\n    tag_66:\n      tag_68\n      jump\t// in\n    tag_65:\n      stop\n        /* \"contracts/PatientRecordStorage.sol\":2466:2541  mapping (address => mapping(address => reviewDoctor)) public Doctors_Rating */\n    tag_12:\n      tag_69\n      0x04\n      dup1\n      calldatasize\n      sub\n      dup2\n      add\n      swap1\n      tag_70\n      swap2\n      swap1\n      tag_71\n      jump\t// in\n    tag_70:\n      tag_72\n      jump\t// in\n    tag_69:\n      mload(0x40)\n      tag_73\n      swap2\n      swap1\n      tag_45\n      jump\t// in\n    tag_73:\n      mload(0x40)\n      dup1\n      swap2\n      sub\n      swap1\n      return\n        /* \"contracts/PatientRecordStorage.sol\":9281:9863  function prescribeMedicine(address _toPatient,uint256 _medid, medicine_dosage _dose, medicine_timing _dosetime) public onlyDoctor onlyApprovedPersons(_toPatient){... */\n    tag_13:\n      tag_74\n      0x04\n      dup1\n      calldatasize\n      sub\n      dup2\n      add\n      swap1\n      tag_75\n      swap2\n      swap1\n      tag_76\n      jump\t// in\n    tag_75:\n      tag_77\n      jump\t// in\n    tag_74:\n      stop\n        /* \"contracts/PatientRecordStorage.sol\":8289:8611  function get_Disease_Details_Of_patient(address _patient) public view returns(Disease[] memory _d){... */\n    tag_14:\n      tag_78\n      0x04\n      dup1\n      calldatasize\n      sub\n      dup2\n      add\n      swap1\n      tag_79\n      swap2\n      swap1\n      tag_37\n      jump\t// in\n    tag_79:\n      tag_80\n      jump\t// in\n    tag_78:\n      mload(0x40)\n      tag_81\n      swap2\n      swap1\n      tag_82\n      jump\t// in\n    tag_81:\n      mload(0x40)\n      dup1\n      swap2\n      sub\n      swap1\n      return\n        /* \"contracts/PatientRecordStorage.sol\":5928:6093  function approvePatientRecordEditor(address _editor_address) public onlyPatient{... */\n    tag_15:\n      tag_83\n      0x04\n      dup1\n      calldatasize\n      sub\n      dup2\n      add\n      swap1\n      tag_84\n      swap2\n      swap1\n      tag_37\n      jump\t// in\n    tag_84:\n      tag_85\n      jump\t// in\n    tag_83:\n      stop\n        /* \"contracts/PatientRecordStorage.sol\":10603:10949  function viewPatientDiseaseDetails(address _patient, uint256 _dob, string memory _pname) public view returns(Disease[] memory _d)... */\n    tag_16:\n      tag_86\n      0x04\n      dup1\n      calldatasize\n      sub\n      dup2\n      add\n      swap1\n      tag_87\n      swap2\n      swap1\n      tag_88\n      jump\t// in\n    tag_87:\n      tag_89\n      jump\t// in\n    tag_86:\n      mload(0x40)\n      tag_90\n      swap2\n      swap1\n      tag_82\n      jump\t// in\n    tag_90:\n      mload(0x40)\n      dup1\n      swap2\n      sub\n      swap1\n      return\n        /* \"contracts/PatientRecordStorage.sol\":11777:11902  function viewDoctorDetails(address _doctor) public view returns (Doctor memory _doc){... */\n    tag_17:\n      tag_91\n      0x04\n      dup1\n      calldatasize\n      sub\n      dup2\n      add\n      swap1\n      tag_92\n      swap2\n      swap1\n      tag_37\n      jump\t// in\n    tag_92:\n      tag_93\n      jump\t// in\n    tag_91:\n      mload(0x40)\n      tag_94\n      swap2\n      swap1\n      tag_95\n      jump\t// in\n    tag_94:\n      mload(0x40)\n      dup1\n      swap2\n      sub\n      swap1\n      return\n        /* \"contracts/PatientRecordStorage.sol\":11523:11651  function viewMedicineDetails(uint256 _medid) public view returns(Medicine memory _m)... */\n    tag_18:\n      tag_96\n      0x04\n      dup1\n      calldatasize\n      sub\n      dup2\n      add\n      swap1\n      tag_97\n      swap2\n      swap1\n      tag_27\n      jump\t// in\n    tag_97:\n      tag_98\n      jump\t// in\n    tag_96:\n      mload(0x40)\n      tag_99\n      swap2\n      swap1\n      tag_100\n      jump\t// in\n    tag_99:\n      mload(0x40)\n      dup1\n      swap2\n      sub\n      swap1\n      return\n        /* \"contracts/PatientRecordStorage.sol\":7669:8136  function update_Recovery_Status(address _patient, uint256 _treatment_status, uint256 _index) public onlyApprovedPersons(_patient){... */\n    tag_19:\n      tag_101\n      0x04\n      dup1\n      calldatasize\n      sub\n      dup2\n      add\n      swap1\n      tag_102\n      swap2\n      swap1\n      tag_103\n      jump\t// in\n    tag_102:\n      tag_104\n      jump\t// in\n    tag_101:\n      stop\n        /* \"contracts/PatientRecordStorage.sol\":2682:2729  mapping(address => bool) public MedRecordEditor */\n    tag_20:\n      tag_105\n      0x04\n      dup1\n      calldatasize\n      sub\n      dup2\n      add\n      swap1\n      tag_106\n      swap2\n      swap1\n      tag_37\n      jump\t// in\n    tag_106:\n      tag_107\n      jump\t// in\n    tag_105:\n      mload(0x40)\n      tag_108\n      swap2\n      swap1\n      tag_109\n      jump\t// in\n    tag_108:\n      mload(0x40)\n      dup1\n      swap2\n      sub\n      swap1\n      return\n        /* \"contracts/PatientRecordStorage.sol\":4433:4800  function register_as_doctor(string memory _name, string memory _qualification, string memory _specialization,  string memory _workPlace) public {... */\n    tag_21:\n      tag_110\n      0x04\n      dup1\n      calldatasize\n      sub\n      dup2\n      add\n      swap1\n      tag_111\n      swap2\n      swap1\n      tag_112\n      jump\t// in\n    tag_111:\n      tag_113\n      jump\t// in\n    tag_110:\n      stop\n        /* \"contracts/PatientRecordStorage.sol\":2341:2391  mapping (uint256 => Medicine) public Medicine_list */\n    tag_28:\n      mstore(0x20, 0x02)\n      dup1\n      0x00\n      mstore\n      keccak256(0x00, 0x40)\n      0x00\n      swap2\n      pop\n      swap1\n      pop\n      dup1\n      0x00\n      add\n      dup1\n      sload\n      tag_114\n      swap1\n      tag_115\n      jump\t// in\n    tag_114:\n      dup1\n      0x1f\n      add\n      0x20\n      dup1\n      swap2\n      div\n      mul\n      0x20\n      add\n      mload(0x40)\n      swap1\n      dup2\n      add\n      0x40\n      mstore\n      dup1\n      swap3\n      swap2\n      swap1\n      dup2\n      dup2\n      mstore\n      0x20\n      add\n      dup3\n      dup1\n      sload\n      tag_116\n      swap1\n      tag_115\n      jump\t// in\n    tag_116:\n      dup1\n      iszero\n      tag_117\n      jumpi\n      dup1\n      0x1f\n      lt\n      tag_118\n      jumpi\n      0x0100\n      dup1\n      dup4\n      sload\n      div\n      mul\n      dup4\n      mstore\n      swap2\n      0x20\n      add\n      swap2\n      jump(tag_117)\n    tag_118:\n      dup3\n      add\n      swap2\n      swap1\n      0x00\n      mstore\n      keccak256(0x00, 0x20)\n      swap1\n    tag_119:\n      dup2\n      sload\n      dup2\n      mstore\n      swap1\n      0x01\n      add\n      swap1\n      0x20\n      add\n      dup1\n      dup4\n      gt\n      tag_119\n      jumpi\n      dup3\n      swap1\n      sub\n      0x1f\n      and\n      dup3\n      add\n      swap2\n    tag_117:\n      pop\n      pop\n      pop\n      pop\n      pop\n      swap1\n      dup1\n      0x01\n      add\n      0x00\n      swap1\n      sload\n      swap1\n      0x0100\n      exp\n      swap1\n      div\n      0xff\n      and\n      swap1\n      dup1\n      0x01\n      add\n      0x01\n      swap1\n      sload\n      swap1\n      0x0100\n      exp\n      swap1\n      div\n      0xff\n      and\n      swap1\n      dup1\n      0x01\n      add\n      0x02\n      swap1\n      sload\n      swap1\n      0x0100\n      exp\n      swap1\n      div\n      0xff\n      and\n      swap1\n      dup1\n      0x01\n      add\n      0x03\n      swap1\n      sload\n      swap1\n      0x0100\n      exp\n      swap1\n      div\n      0xff\n      and\n      swap1\n      pop\n      dup6\n      jump\t// out\n        /* \"contracts/PatientRecordStorage.sol\":8881:9092  function addMedicine(uint256 _id, string memory _name, medicine_dosage _dose, medicine_timing _dosetime) public _medRecordEditor... */\n    tag_34:\n        /* \"contracts/PatientRecordStorage.sol\":3887:3902  MedRecordEditor */\n      0x04\n        /* \"contracts/PatientRecordStorage.sol\":3887:3914  MedRecordEditor[msg.sender] */\n      0x00\n        /* \"contracts/PatientRecordStorage.sol\":3903:3913  msg.sender */\n      caller\n        /* \"contracts/PatientRecordStorage.sol\":3887:3914  MedRecordEditor[msg.sender] */\n      0xffffffffffffffffffffffffffffffffffffffff\n      and\n      0xffffffffffffffffffffffffffffffffffffffff\n      and\n      dup2\n      mstore\n      0x20\n      add\n      swap1\n      dup2\n      mstore\n      0x20\n      add\n      0x00\n      keccak256\n      0x00\n      swap1\n      sload\n      swap1\n      0x0100\n      exp\n      swap1\n      div\n      0xff\n      and\n        /* \"contracts/PatientRecordStorage.sol\":3879:3915  require(MedRecordEditor[msg.sender]) */\n      tag_121\n      jumpi\n      0x00\n      dup1\n      revert\n    tag_121:\n        /* \"contracts/PatientRecordStorage.sol\":9043:9086  Medicine(_name,false, _dose,_dosetime,true) */\n      mload(0x40)\n      dup1\n      0xa0\n      add\n      0x40\n      mstore\n      dup1\n        /* \"contracts/PatientRecordStorage.sol\":9052:9057  _name */\n      dup5\n        /* \"contracts/PatientRecordStorage.sol\":9043:9086  Medicine(_name,false, _dose,_dosetime,true) */\n      dup2\n      mstore\n      0x20\n      add\n        /* \"contracts/PatientRecordStorage.sol\":9058:9063  false */\n      0x00\n        /* \"contracts/PatientRecordStorage.sol\":9043:9086  Medicine(_name,false, _dose,_dosetime,true) */\n      iszero\n      iszero\n      dup2\n      mstore\n      0x20\n      add\n        /* \"contracts/PatientRecordStorage.sol\":9065:9070  _dose */\n      dup4\n        /* \"contracts/PatientRecordStorage.sol\":9043:9086  Medicine(_name,false, _dose,_dosetime,true) */\n      0x03\n      dup2\n      gt\n      iszero\n      tag_123\n      jumpi\n      tag_124\n      tag_125\n      jump\t// in\n    tag_124:\n    tag_123:\n      dup2\n      mstore\n      0x20\n      add\n        /* \"contracts/PatientRecordStorage.sol\":9071:9080  _dosetime */\n      dup3\n        /* \"contracts/PatientRecordStorage.sol\":9043:9086  Medicine(_name,false, _dose,_dosetime,true) */\n      0x01\n      dup2\n      gt\n      iszero\n      tag_126\n      jumpi\n      tag_127\n      tag_125\n      jump\t// in\n    tag_127:\n    tag_126:\n      dup2\n      mstore\n      0x20\n      add\n        /* \"contracts/PatientRecordStorage.sol\":9081:9085  true */\n      0x01\n        /* \"contracts/PatientRecordStorage.sol\":9043:9086  Medicine(_name,false, _dose,_dosetime,true) */\n      iszero\n      iszero\n      dup2\n      mstore\n      pop\n        /* \"contracts/PatientRecordStorage.sol\":9022:9035  Medicine_list */\n      0x02\n        /* \"contracts/PatientRecordStorage.sol\":9022:9040  Medicine_list[_id] */\n      0x00\n        /* \"contracts/PatientRecordStorage.sol\":9036:9039  _id */\n      dup7\n        /* \"contracts/PatientRecordStorage.sol\":9022:9040  Medicine_list[_id] */\n      dup2\n      mstore\n      0x20\n      add\n      swap1\n      dup2\n      mstore\n      0x20\n      add\n      0x00\n      keccak256\n        /* \"contracts/PatientRecordStorage.sol\":9022:9086  Medicine_list[_id] = Medicine(_name,false, _dose,_dosetime,true) */\n      0x00\n      dup3\n      add\n      mload\n      dup2\n      0x00\n      add\n      swap1\n      dup2\n      tag_128\n      swap2\n      swap1\n      tag_129\n      jump\t// in\n    tag_128:\n      pop\n      0x20\n      dup3\n      add\n      mload\n      dup2\n      0x01\n      add\n      exp(0x0100, 0x00)\n      dup2\n      sload\n      dup2\n      0xff\n      mul\n      not\n      and\n      swap1\n      dup4\n      iszero\n      iszero\n      mul\n      or\n      swap1\n      sstore\n      pop\n      0x40\n      dup3\n      add\n      mload\n      dup2\n      0x01\n      add\n      exp(0x0100, 0x01)\n      dup2\n      sload\n      dup2\n      0xff\n      mul\n      not\n      and\n      swap1\n      dup4\n      0x03\n      dup2\n      gt\n      iszero\n      tag_130\n      jumpi\n      tag_131\n      tag_125\n      jump\t// in\n    tag_131:\n    tag_130:\n      mul\n      or\n      swap1\n      sstore\n      pop\n      0x60\n      dup3\n      add\n      mload\n      dup2\n      0x01\n      add\n      exp(0x0100, 0x02)\n      dup2\n      sload\n      dup2\n      0xff\n      mul\n      not\n      and\n      swap1\n      dup4\n      0x01\n      dup2\n      gt\n      iszero\n      tag_132\n      jumpi\n      tag_133\n      tag_125\n      jump\t// in\n    tag_133:\n    tag_132:\n      mul\n      or\n      swap1\n      sstore\n      pop\n      0x80\n      dup3\n      add\n      mload\n      dup2\n      0x01\n      add\n      exp(0x0100, 0x03)\n      dup2\n      sload\n      dup2\n      0xff\n      mul\n      not\n      and\n      swap1\n      dup4\n      iszero\n      iszero\n      mul\n      or\n      swap1\n      sstore\n      pop\n      swap1\n      pop\n      pop\n        /* \"contracts/PatientRecordStorage.sol\":8881:9092  function addMedicine(uint256 _id, string memory _name, medicine_dosage _dose, medicine_timing _dosetime) public _medRecordEditor... */\n      pop\n      pop\n      pop\n      pop\n      jump\t// out\n        /* \"contracts/PatientRecordStorage.sol\":2215:2263  mapping (address => Doctor) public Doctor_Record */\n    tag_38:\n      mstore(0x20, 0x01)\n      dup1\n      0x00\n      mstore\n      keccak256(0x00, 0x40)\n      0x00\n      swap2\n      pop\n      swap1\n      pop\n      dup1\n      0x00\n      add\n      dup1\n      sload\n      tag_134\n      swap1\n      tag_115\n      jump\t// in\n    tag_134:\n      dup1\n      0x1f\n      add\n      0x20\n      dup1\n      swap2\n      div\n      mul\n      0x20\n      add\n      mload(0x40)\n      swap1\n      dup2\n      add\n      0x40\n      mstore\n      dup1\n      swap3\n      swap2\n      swap1\n      dup2\n      dup2\n      mstore\n      0x20\n      add\n      dup3\n      dup1\n      sload\n      tag_135\n      swap1\n      tag_115\n      jump\t// in\n    tag_135:\n      dup1\n      iszero\n      tag_136\n      jumpi\n      dup1\n      0x1f\n      lt\n      tag_137\n      jumpi\n      0x0100\n      dup1\n      dup4\n      sload\n      div\n      mul\n      dup4\n      mstore\n      swap2\n      0x20\n      add\n      swap2\n      jump(tag_136)\n    tag_137:\n      dup3\n      add\n      swap2\n      swap1\n      0x00\n      mstore\n      keccak256(0x00, 0x20)\n      swap1\n    tag_138:\n      dup2\n      sload\n      dup2\n      mstore\n      swap1\n      0x01\n      add\n      swap1\n      0x20\n      add\n      dup1\n      dup4\n      gt\n      tag_138\n      jumpi\n      dup3\n      swap1\n      sub\n      0x1f\n      and\n      dup3\n      add\n      swap2\n    tag_136:\n      pop\n      pop\n      pop\n      pop\n      pop\n      swap1\n      dup1\n      0x01\n      add\n      dup1\n      sload\n      tag_139\n      swap1\n      tag_115\n      jump\t// in\n    tag_139:\n      dup1\n      0x1f\n      add\n      0x20\n      dup1\n      swap2\n      div\n      mul\n      0x20\n      add\n      mload(0x40)\n      swap1\n      dup2\n      add\n      0x40\n      mstore\n      dup1\n      swap3\n      swap2\n      swap1\n      dup2\n      dup2\n      mstore\n      0x20\n      add\n      dup3\n      dup1\n      sload\n      tag_140\n      swap1\n      tag_115\n      jump\t// in\n    tag_140:\n      dup1\n      iszero\n      tag_141\n      jumpi\n      dup1\n      0x1f\n      lt\n      tag_142\n      jumpi\n      0x0100\n      dup1\n      dup4\n      sload\n      div\n      mul\n      dup4\n      mstore\n      swap2\n      0x20\n      add\n      swap2\n      jump(tag_141)\n    tag_142:\n      dup3\n      add\n      swap2\n      swap1\n      0x00\n      mstore\n      keccak256(0x00, 0x20)\n      swap1\n    tag_143:\n      dup2\n      sload\n      dup2\n      mstore\n      swap1\n      0x01\n      add\n      swap1\n      0x20\n      add\n      dup1\n      dup4\n      gt\n      tag_143\n      jumpi\n      dup3\n      swap1\n      sub\n      0x1f\n      and\n      dup3\n      add\n      swap2\n    tag_141:\n      pop\n      pop\n      pop\n      pop\n      pop\n      swap1\n      dup1\n      0x02\n      add\n      dup1\n      sload\n      tag_144\n      swap1\n      tag_115\n      jump\t// in\n    tag_144:\n      dup1\n      0x1f\n      add\n      0x20\n      dup1\n      swap2\n      div\n      mul\n      0x20\n      add\n      mload(0x40)\n      swap1\n      dup2\n      add\n      0x40\n      mstore\n      dup1\n      swap3\n      swap2\n      swap1\n      dup2\n      dup2\n      mstore\n      0x20\n      add\n      dup3\n      dup1\n      sload\n      tag_145\n      swap1\n      tag_115\n      jump\t// in\n    tag_145:\n      dup1\n      iszero\n      tag_146\n      jumpi\n      dup1\n      0x1f\n      lt\n      tag_147\n      jumpi\n      0x0100\n      dup1\n      dup4\n      sload\n      div\n      mul\n      dup4\n      mstore\n      swap2\n      0x20\n      add\n      swap2\n      jump(tag_146)\n    tag_147:\n      dup3\n      add\n      swap2\n      swap1\n      0x00\n      mstore\n      keccak256(0x00, 0x20)\n      swap1\n    tag_148:\n      dup2\n      sload\n      dup2\n      mstore\n      swap1\n      0x01\n      add\n      swap1\n      0x20\n      add\n      dup1\n      dup4\n      gt\n      tag_148\n      jumpi\n      dup3\n      swap1\n      sub\n      0x1f\n      and\n      dup3\n      add\n      swap2\n    tag_146:\n      pop\n      pop\n      pop\n      pop\n      pop\n      swap1\n      dup1\n      0x03\n      add\n      dup1\n      sload\n      tag_149\n      swap1\n      tag_115\n      jump\t// in\n    tag_149:\n      dup1\n      0x1f\n      add\n      0x20\n      dup1\n      swap2\n      div\n      mul\n      0x20\n      add\n      mload(0x40)\n      swap1\n      dup2\n      add\n      0x40\n      mstore\n      dup1\n      swap3\n      swap2\n      swap1\n      dup2\n      dup2\n      mstore\n      0x20\n      add\n      dup3\n      dup1\n      sload\n      tag_150\n      swap1\n      tag_115\n      jump\t// in\n    tag_150:\n      dup1\n      iszero\n      tag_151\n      jumpi\n      dup1\n      0x1f\n      lt\n      tag_152\n      jumpi\n      0x0100\n      dup1\n      dup4\n      sload\n      div\n      mul\n      dup4\n      mstore\n      swap2\n      0x20\n      add\n      swap2\n      jump(tag_151)\n    tag_152:\n      dup3\n      add\n      swap2\n      swap1\n      0x00\n      mstore\n      keccak256(0x00, 0x20)\n      swap1\n    tag_153:\n      dup2\n      sload\n      dup2\n      mstore\n      swap1\n      0x01\n      add\n      swap1\n      0x20\n      add\n      dup1\n      dup4\n      gt\n      tag_153\n      jumpi\n      dup3\n      swap1\n      sub\n      0x1f\n      and\n      dup3\n      add\n      swap2\n    tag_151:\n      pop\n      pop\n      pop\n      pop\n      pop\n      swap1\n      dup1\n      0x04\n      add\n      sload\n      swap1\n      dup1\n      0x05\n      add\n      sload\n      swap1\n      dup1\n      0x06\n      add\n      0x00\n      swap1\n      sload\n      swap1\n      0x0100\n      exp\n      swap1\n      div\n      0xff\n      and\n      swap1\n      pop\n      dup8\n      jump\t// out\n        /* \"contracts/PatientRecordStorage.sol\":11990:12258  function viewDoctorRating(address _doctor) public view returns(reviewDoctor){... */\n    tag_43:\n        /* \"contracts/PatientRecordStorage.sol\":12053:12065  reviewDoctor */\n      0x00\n        /* \"contracts/PatientRecordStorage.sol\":12119:12120  0 */\n      dup1\n        /* \"contracts/PatientRecordStorage.sol\":12084:12097  Doctor_Record */\n      0x01\n        /* \"contracts/PatientRecordStorage.sol\":12084:12106  Doctor_Record[_doctor] */\n      0x00\n        /* \"contracts/PatientRecordStorage.sol\":12098:12105  _doctor */\n      dup5\n        /* \"contracts/PatientRecordStorage.sol\":12084:12106  Doctor_Record[_doctor] */\n      0xffffffffffffffffffffffffffffffffffffffff\n      and\n      0xffffffffffffffffffffffffffffffffffffffff\n      and\n      dup2\n      mstore\n      0x20\n      add\n      swap1\n      dup2\n      mstore\n      0x20\n      add\n      0x00\n      keccak256\n        /* \"contracts/PatientRecordStorage.sol\":12084:12116  Doctor_Record[_doctor].reviewers */\n      0x04\n      add\n      sload\n        /* \"contracts/PatientRecordStorage.sol\":12084:12120  Doctor_Record[_doctor].reviewers > 0 */\n      gt\n        /* \"contracts/PatientRecordStorage.sol\":12076:12138  require(Doctor_Record[_doctor].reviewers > 0,\"No reviews yet\") */\n      tag_155\n      jumpi\n      mload(0x40)\n      0x08c379a000000000000000000000000000000000000000000000000000000000\n      dup2\n      mstore\n      0x04\n      add\n      tag_156\n      swap1\n      tag_157\n      jump\t// in\n    tag_156:\n      mload(0x40)\n      dup1\n      swap2\n      sub\n      swap1\n      revert\n    tag_155:\n        /* \"contracts/PatientRecordStorage.sol\":12218:12231  Doctor_Record */\n      0x01\n        /* \"contracts/PatientRecordStorage.sol\":12218:12240  Doctor_Record[_doctor] */\n      0x00\n        /* \"contracts/PatientRecordStorage.sol\":12232:12239  _doctor */\n      dup4\n        /* \"contracts/PatientRecordStorage.sol\":12218:12240  Doctor_Record[_doctor] */\n      0xffffffffffffffffffffffffffffffffffffffff\n      and\n      0xffffffffffffffffffffffffffffffffffffffff\n      and\n      dup2\n      mstore\n      0x20\n      add\n      swap1\n      dup2\n      mstore\n      0x20\n      add\n      0x00\n      keccak256\n        /* \"contracts/PatientRecordStorage.sol\":12218:12250  Doctor_Record[_doctor].reviewers */\n      0x04\n      add\n      sload\n        /* \"contracts/PatientRecordStorage.sol\":12176:12189  Doctor_Record */\n      0x01\n        /* \"contracts/PatientRecordStorage.sol\":12176:12198  Doctor_Record[_doctor] */\n      0x00\n        /* \"contracts/PatientRecordStorage.sol\":12190:12197  _doctor */\n      dup5\n        /* \"contracts/PatientRecordStorage.sol\":12176:12198  Doctor_Record[_doctor] */\n      0xffffffffffffffffffffffffffffffffffffffff\n      and\n      0xffffffffffffffffffffffffffffffffffffffff\n      and\n      dup2\n      mstore\n      0x20\n      add\n      swap1\n      dup2\n      mstore\n      0x20\n      add\n      0x00\n      keccak256\n        /* \"contracts/PatientRecordStorage.sol\":12176:12216  Doctor_Record[_doctor].totalRatingPoints */\n      0x05\n      add\n      sload\n        /* \"contracts/PatientRecordStorage.sol\":12168:12250  uint256(Doctor_Record[_doctor].totalRatingPoints)/Doctor_Record[_doctor].reviewers */\n      tag_158\n      swap2\n      swap1\n      tag_159\n      jump\t// in\n    tag_158:\n        /* \"contracts/PatientRecordStorage.sol\":12155:12251  reviewDoctor(uint256(Doctor_Record[_doctor].totalRatingPoints)/Doctor_Record[_doctor].reviewers) */\n      0x04\n      dup2\n      gt\n      iszero\n      tag_160\n      jumpi\n      tag_161\n      tag_125\n      jump\t// in\n    tag_161:\n    tag_160:\n        /* \"contracts/PatientRecordStorage.sol\":12148:12251  return reviewDoctor(uint256(Doctor_Record[_doctor].totalRatingPoints)/Doctor_Record[_doctor].reviewers) */\n      swap1\n      pop\n        /* \"contracts/PatientRecordStorage.sol\":11990:12258  function viewDoctorRating(address _doctor) public view returns(reviewDoctor){... */\n      swap2\n      swap1\n      pop\n      jump\t// out\n        /* \"contracts/PatientRecordStorage.sol\":6742:7360  function add_Disease(string memory _disease_name, address _patient, uint256 _treatment_status) public onlyApprovedPersons(_patient) returns(uint256 _index){... */\n    tag_49:\n        /* \"contracts/PatientRecordStorage.sol\":6882:6896  uint256 _index */\n      0x00\n        /* \"contracts/PatientRecordStorage.sol\":6864:6872  _patient */\n      dup3\n        /* \"contracts/PatientRecordStorage.sol\":3574:3588  Patient_Record */\n      0x00\n        /* \"contracts/PatientRecordStorage.sol\":3574:3598  Patient_Record[_patient] */\n      dup1\n        /* \"contracts/PatientRecordStorage.sol\":3589:3597  _patient */\n      dup3\n        /* \"contracts/PatientRecordStorage.sol\":3574:3598  Patient_Record[_patient] */\n      0xffffffffffffffffffffffffffffffffffffffff\n      and\n      0xffffffffffffffffffffffffffffffffffffffff\n      and\n      dup2\n      mstore\n      0x20\n      add\n      swap1\n      dup2\n      mstore\n      0x20\n      add\n      0x00\n      keccak256\n        /* \"contracts/PatientRecordStorage.sol\":3574:3615  Patient_Record[_patient].approved_editors */\n      0x06\n      add\n        /* \"contracts/PatientRecordStorage.sol\":3574:3627  Patient_Record[_patient].approved_editors[msg.sender] */\n      0x00\n        /* \"contracts/PatientRecordStorage.sol\":3616:3626  msg.sender */\n      caller\n        /* \"contracts/PatientRecordStorage.sol\":3574:3627  Patient_Record[_patient].approved_editors[msg.sender] */\n      0xffffffffffffffffffffffffffffffffffffffff\n      and\n      0xffffffffffffffffffffffffffffffffffffffff\n      and\n      dup2\n      mstore\n      0x20\n      add\n      swap1\n      dup2\n      mstore\n      0x20\n      add\n      0x00\n      keccak256\n      0x00\n      swap1\n      sload\n      swap1\n      0x0100\n      exp\n      swap1\n      div\n      0xff\n      and\n        /* \"contracts/PatientRecordStorage.sol\":3566:3651  require(Patient_Record[_patient].approved_editors[msg.sender], \"Unauthorized Access\") */\n      tag_163\n      jumpi\n      mload(0x40)\n      0x08c379a000000000000000000000000000000000000000000000000000000000\n      dup2\n      mstore\n      0x04\n      add\n      tag_164\n      swap1\n      tag_165\n      jump\t// in\n    tag_164:\n      mload(0x40)\n      dup1\n      swap2\n      sub\n      swap1\n      revert\n    tag_163:\n        /* \"contracts/PatientRecordStorage.sol\":6938:6939  0 */\n      0x00\n        /* \"contracts/PatientRecordStorage.sol\":6917:6934  _treatment_status */\n      dup4\n        /* \"contracts/PatientRecordStorage.sol\":6917:6939  _treatment_status == 0 */\n      eq\n        /* \"contracts/PatientRecordStorage.sol\":6917:6964  _treatment_status == 0 || _treatment_status ==1 */\n      dup1\n      tag_167\n      jumpi\n      pop\n        /* \"contracts/PatientRecordStorage.sol\":6963:6964  1 */\n      0x01\n        /* \"contracts/PatientRecordStorage.sol\":6943:6960  _treatment_status */\n      dup4\n        /* \"contracts/PatientRecordStorage.sol\":6943:6964  _treatment_status ==1 */\n      eq\n        /* \"contracts/PatientRecordStorage.sol\":6917:6964  _treatment_status == 0 || _treatment_status ==1 */\n    tag_167:\n        /* \"contracts/PatientRecordStorage.sol\":6909:7037  require(_treatment_status == 0 || _treatment_status ==1, \"Treatment status should be either untreated(0) or under treatment(1)\") */\n      tag_168\n      jumpi\n      mload(0x40)\n      0x08c379a000000000000000000000000000000000000000000000000000000000\n      dup2\n      mstore\n      0x04\n      add\n      tag_169\n      swap1\n      tag_170\n      jump\t// in\n    tag_169:\n      mload(0x40)\n      dup1\n      swap2\n      sub\n      swap1\n      revert\n    tag_168:\n        /* \"contracts/PatientRecordStorage.sol\":7073:7074  0 */\n      0x00\n        /* \"contracts/PatientRecordStorage.sol\":7052:7069  _treatment_status */\n      dup4\n        /* \"contracts/PatientRecordStorage.sol\":7052:7074  _treatment_status == 0 */\n      sub\n        /* \"contracts/PatientRecordStorage.sol\":7049:7291  if(_treatment_status == 0)... */\n      tag_171\n      jumpi\n        /* \"contracts/PatientRecordStorage.sol\":7086:7100  Patient_Record */\n      0x00\n        /* \"contracts/PatientRecordStorage.sol\":7086:7110  Patient_Record[_patient] */\n      dup1\n        /* \"contracts/PatientRecordStorage.sol\":7101:7109  _patient */\n      dup6\n        /* \"contracts/PatientRecordStorage.sol\":7086:7110  Patient_Record[_patient] */\n      0xffffffffffffffffffffffffffffffffffffffff\n      and\n      0xffffffffffffffffffffffffffffffffffffffff\n      and\n      dup2\n      mstore\n      0x20\n      add\n      swap1\n      dup2\n      mstore\n      0x20\n      add\n      0x00\n      keccak256\n        /* \"contracts/PatientRecordStorage.sol\":7086:7118  Patient_Record[_patient].disease */\n      0x04\n      add\n        /* \"contracts/PatientRecordStorage.sol\":7124:7172  Disease(_disease_name,RecoveryStatus.NotTreated) */\n      mload(0x40)\n      dup1\n      0x40\n      add\n      0x40\n      mstore\n      dup1\n        /* \"contracts/PatientRecordStorage.sol\":7132:7145  _disease_name */\n      dup8\n        /* \"contracts/PatientRecordStorage.sol\":7124:7172  Disease(_disease_name,RecoveryStatus.NotTreated) */\n      dup2\n      mstore\n      0x20\n      add\n        /* \"contracts/PatientRecordStorage.sol\":7146:7171  RecoveryStatus.NotTreated */\n      0x00\n        /* \"contracts/PatientRecordStorage.sol\":7124:7172  Disease(_disease_name,RecoveryStatus.NotTreated) */\n      0x05\n      dup2\n      gt\n      iszero\n      tag_172\n      jumpi\n      tag_173\n      tag_125\n      jump\t// in\n    tag_173:\n    tag_172:\n      dup2\n      mstore\n      pop\n        /* \"contracts/PatientRecordStorage.sol\":7086:7173  Patient_Record[_patient].disease.push(Disease(_disease_name,RecoveryStatus.NotTreated)) */\n      swap1\n      dup1\n      0x01\n      dup2\n      sload\n      add\n      dup1\n      dup3\n      sstore\n      dup1\n      swap2\n      pop\n      pop\n      0x01\n      swap1\n      sub\n      swap1\n      0x00\n      mstore\n      keccak256(0x00, 0x20)\n      swap1\n      0x02\n      mul\n      add\n      0x00\n      swap1\n      swap2\n      swap1\n      swap2\n      swap1\n      swap2\n      pop\n      0x00\n      dup3\n      add\n      mload\n      dup2\n      0x00\n      add\n      swap1\n      dup2\n      tag_175\n      swap2\n      swap1\n      tag_129\n      jump\t// in\n    tag_175:\n      pop\n      0x20\n      dup3\n      add\n      mload\n      dup2\n      0x01\n      add\n      exp(0x0100, 0x00)\n      dup2\n      sload\n      dup2\n      0xff\n      mul\n      not\n      and\n      swap1\n      dup4\n      0x05\n      dup2\n      gt\n      iszero\n      tag_176\n      jumpi\n      tag_177\n      tag_125\n      jump\t// in\n    tag_177:\n    tag_176:\n      mul\n      or\n      swap1\n      sstore\n      pop\n      pop\n      pop\n        /* \"contracts/PatientRecordStorage.sol\":7049:7291  if(_treatment_status == 0)... */\n      jump(tag_178)\n    tag_171:\n        /* \"contracts/PatientRecordStorage.sol\":7200:7214  Patient_Record */\n      0x00\n        /* \"contracts/PatientRecordStorage.sol\":7200:7224  Patient_Record[_patient] */\n      dup1\n        /* \"contracts/PatientRecordStorage.sol\":7215:7223  _patient */\n      dup6\n        /* \"contracts/PatientRecordStorage.sol\":7200:7224  Patient_Record[_patient] */\n      0xffffffffffffffffffffffffffffffffffffffff\n      and\n      0xffffffffffffffffffffffffffffffffffffffff\n      and\n      dup2\n      mstore\n      0x20\n      add\n      swap1\n      dup2\n      mstore\n      0x20\n      add\n      0x00\n      keccak256\n        /* \"contracts/PatientRecordStorage.sol\":7200:7232  Patient_Record[_patient].disease */\n      0x04\n      add\n        /* \"contracts/PatientRecordStorage.sol\":7238:7290  Disease(_disease_name,RecoveryStatus.UnderTreatment) */\n      mload(0x40)\n      dup1\n      0x40\n      add\n      0x40\n      mstore\n      dup1\n        /* \"contracts/PatientRecordStorage.sol\":7246:7259  _disease_name */\n      dup8\n        /* \"contracts/PatientRecordStorage.sol\":7238:7290  Disease(_disease_name,RecoveryStatus.UnderTreatment) */\n      dup2\n      mstore\n      0x20\n      add\n        /* \"contracts/PatientRecordStorage.sol\":7260:7289  RecoveryStatus.UnderTreatment */\n      0x01\n        /* \"contracts/PatientRecordStorage.sol\":7238:7290  Disease(_disease_name,RecoveryStatus.UnderTreatment) */\n      0x05\n      dup2\n      gt\n      iszero\n      tag_179\n      jumpi\n      tag_180\n      tag_125\n      jump\t// in\n    tag_180:\n    tag_179:\n      dup2\n      mstore\n      pop\n        /* \"contracts/PatientRecordStorage.sol\":7200:7291  Patient_Record[_patient].disease.push(Disease(_disease_name,RecoveryStatus.UnderTreatment)) */\n      swap1\n      dup1\n      0x01\n      dup2\n      sload\n      add\n      dup1\n      dup3\n      sstore\n      dup1\n      swap2\n      pop\n      pop\n      0x01\n      swap1\n      sub\n      swap1\n      0x00\n      mstore\n      keccak256(0x00, 0x20)\n      swap1\n      0x02\n      mul\n      add\n      0x00\n      swap1\n      swap2\n      swap1\n      swap2\n      swap1\n      swap2\n      pop\n      0x00\n      dup3\n      add\n      mload\n      dup2\n      0x00\n      add\n      swap1\n      dup2\n      tag_182\n      swap2\n      swap1\n      tag_129\n      jump\t// in\n    tag_182:\n      pop\n      0x20\n      dup3\n      add\n      mload\n      dup2\n      0x01\n      add\n      exp(0x0100, 0x00)\n      dup2\n      sload\n      dup2\n      0xff\n      mul\n      not\n      and\n      swap1\n      dup4\n      0x05\n      dup2\n      gt\n      iszero\n      tag_183\n      jumpi\n      tag_184\n      tag_125\n      jump\t// in\n    tag_184:\n    tag_183:\n      mul\n      or\n      swap1\n      sstore\n      pop\n      pop\n      pop\n        /* \"contracts/PatientRecordStorage.sol\":7049:7291  if(_treatment_status == 0)... */\n    tag_178:\n        /* \"contracts/PatientRecordStorage.sol\":7350:7351  1 */\n      0x01\n        /* \"contracts/PatientRecordStorage.sol\":7310:7324  Patient_Record */\n      0x00\n        /* \"contracts/PatientRecordStorage.sol\":7310:7334  Patient_Record[_patient] */\n      dup1\n        /* \"contracts/PatientRecordStorage.sol\":7325:7333  _patient */\n      dup7\n        /* \"contracts/PatientRecordStorage.sol\":7310:7334  Patient_Record[_patient] */\n      0xffffffffffffffffffffffffffffffffffffffff\n      and\n      0xffffffffffffffffffffffffffffffffffffffff\n      and\n      dup2\n      mstore\n      0x20\n      add\n      swap1\n      dup2\n      mstore\n      0x20\n      add\n      0x00\n      keccak256\n        /* \"contracts/PatientRecordStorage.sol\":7310:7342  Patient_Record[_patient].disease */\n      0x04\n      add\n        /* \"contracts/PatientRecordStorage.sol\":7310:7349  Patient_Record[_patient].disease.length */\n      dup1\n      sload\n      swap1\n      pop\n        /* \"contracts/PatientRecordStorage.sol\":7310:7351  Patient_Record[_patient].disease.length-1 */\n      tag_185\n      swap2\n      swap1\n      tag_186\n      jump\t// in\n    tag_185:\n        /* \"contracts/PatientRecordStorage.sol\":7303:7352  return(Patient_Record[_patient].disease.length-1) */\n      swap2\n      pop\n        /* \"contracts/PatientRecordStorage.sol\":6742:7360  function add_Disease(string memory _disease_name, address _patient, uint256 _treatment_status) public onlyApprovedPersons(_patient) returns(uint256 _index){... */\n      pop\n      swap4\n      swap3\n      pop\n      pop\n      pop\n      jump\t// out\n        /* \"contracts/PatientRecordStorage.sol\":5063:5712  function register_as_patient(string memory _name, uint256 _dob, uint256 _weight, uint256 _height) public {... */\n    tag_55:\n        /* \"contracts/PatientRecordStorage.sol\":5188:5202  Patient_Record */\n      0x00\n        /* \"contracts/PatientRecordStorage.sol\":5188:5214  Patient_Record[msg.sender] */\n      dup1\n        /* \"contracts/PatientRecordStorage.sol\":5203:5213  msg.sender */\n      caller\n        /* \"contracts/PatientRecordStorage.sol\":5188:5214  Patient_Record[msg.sender] */\n      0xffffffffffffffffffffffffffffffffffffffff\n      and\n      0xffffffffffffffffffffffffffffffffffffffff\n      and\n      dup2\n      mstore\n      0x20\n      add\n      swap1\n      dup2\n      mstore\n      0x20\n      add\n      0x00\n      keccak256\n        /* \"contracts/PatientRecordStorage.sol\":5188:5221  Patient_Record[msg.sender].exists */\n      0x08\n      add\n      0x00\n      swap1\n      sload\n      swap1\n      0x0100\n      exp\n      swap1\n      div\n      0xff\n      and\n        /* \"contracts/PatientRecordStorage.sol\":5187:5221  !Patient_Record[msg.sender].exists */\n      iszero\n        /* \"contracts/PatientRecordStorage.sol\":5179:5279  require(!Patient_Record[msg.sender].exists,\"Patient's data is already associated with this address\") */\n      tag_188\n      jumpi\n      mload(0x40)\n      0x08c379a000000000000000000000000000000000000000000000000000000000\n      dup2\n      mstore\n      0x04\n      add\n      tag_189\n      swap1\n      tag_190\n      jump\t// in\n    tag_189:\n      mload(0x40)\n      dup1\n      swap2\n      sub\n      swap1\n      revert\n    tag_188:\n        /* \"contracts/PatientRecordStorage.sol\":5409:5414  _name */\n      dup4\n        /* \"contracts/PatientRecordStorage.sol\":5375:5389  Patient_Record */\n      0x00\n        /* \"contracts/PatientRecordStorage.sol\":5375:5401  Patient_Record[msg.sender] */\n      dup1\n        /* \"contracts/PatientRecordStorage.sol\":5390:5400  msg.sender */\n      caller\n        /* \"contracts/PatientRecordStorage.sol\":5375:5401  Patient_Record[msg.sender] */\n      0xffffffffffffffffffffffffffffffffffffffff\n      and\n      0xffffffffffffffffffffffffffffffffffffffff\n      and\n      dup2\n      mstore\n      0x20\n      add\n      swap1\n      dup2\n      mstore\n      0x20\n      add\n      0x00\n      keccak256\n        /* \"contracts/PatientRecordStorage.sol\":5375:5406  Patient_Record[msg.sender].name */\n      0x00\n      add\n        /* \"contracts/PatientRecordStorage.sol\":5375:5414  Patient_Record[msg.sender].name = _name */\n      swap1\n      dup2\n      tag_191\n      swap2\n      swap1\n      tag_129\n      jump\t// in\n    tag_191:\n      pop\n        /* \"contracts/PatientRecordStorage.sol\":5466:5470  _dob */\n      dup3\n        /* \"contracts/PatientRecordStorage.sol\":5425:5439  Patient_Record */\n      0x00\n        /* \"contracts/PatientRecordStorage.sol\":5425:5451  Patient_Record[msg.sender] */\n      dup1\n        /* \"contracts/PatientRecordStorage.sol\":5440:5450  msg.sender */\n      caller\n        /* \"contracts/PatientRecordStorage.sol\":5425:5451  Patient_Record[msg.sender] */\n      0xffffffffffffffffffffffffffffffffffffffff\n      and\n      0xffffffffffffffffffffffffffffffffffffffff\n      and\n      dup2\n      mstore\n      0x20\n      add\n      swap1\n      dup2\n      mstore\n      0x20\n      add\n      0x00\n      keccak256\n        /* \"contracts/PatientRecordStorage.sol\":5425:5463  Patient_Record[msg.sender].dateofbirth */\n      0x01\n      add\n        /* \"contracts/PatientRecordStorage.sol\":5425:5470  Patient_Record[msg.sender].dateofbirth = _dob */\n      dup2\n      swap1\n      sstore\n      pop\n        /* \"contracts/PatientRecordStorage.sol\":5517:5524  _weight */\n      dup2\n        /* \"contracts/PatientRecordStorage.sol\":5481:5495  Patient_Record */\n      0x00\n        /* \"contracts/PatientRecordStorage.sol\":5481:5507  Patient_Record[msg.sender] */\n      dup1\n        /* \"contracts/PatientRecordStorage.sol\":5496:5506  msg.sender */\n      caller\n        /* \"contracts/PatientRecordStorage.sol\":5481:5507  Patient_Record[msg.sender] */\n      0xffffffffffffffffffffffffffffffffffffffff\n      and\n      0xffffffffffffffffffffffffffffffffffffffff\n      and\n      dup2\n      mstore\n      0x20\n      add\n      swap1\n      dup2\n      mstore\n      0x20\n      add\n      0x00\n      keccak256\n        /* \"contracts/PatientRecordStorage.sol\":5481:5514  Patient_Record[msg.sender].weight */\n      0x02\n      add\n        /* \"contracts/PatientRecordStorage.sol\":5481:5524  Patient_Record[msg.sender].weight = _weight */\n      dup2\n      swap1\n      sstore\n      pop\n        /* \"contracts/PatientRecordStorage.sol\":5571:5578  _height */\n      dup1\n        /* \"contracts/PatientRecordStorage.sol\":5535:5549  Patient_Record */\n      0x00\n        /* \"contracts/PatientRecordStorage.sol\":5535:5561  Patient_Record[msg.sender] */\n      dup1\n        /* \"contracts/PatientRecordStorage.sol\":5550:5560  msg.sender */\n      caller\n        /* \"contracts/PatientRecordStorage.sol\":5535:5561  Patient_Record[msg.sender] */\n      0xffffffffffffffffffffffffffffffffffffffff\n      and\n      0xffffffffffffffffffffffffffffffffffffffff\n      and\n      dup2\n      mstore\n      0x20\n      add\n      swap1\n      dup2\n      mstore\n      0x20\n      add\n      0x00\n      keccak256\n        /* \"contracts/PatientRecordStorage.sol\":5535:5568  Patient_Record[msg.sender].height */\n      0x03\n      add\n        /* \"contracts/PatientRecordStorage.sol\":5535:5578  Patient_Record[msg.sender].height = _height */\n      dup2\n      swap1\n      sstore\n      pop\n        /* \"contracts/PatientRecordStorage.sol\":5647:5651  true */\n      0x01\n        /* \"contracts/PatientRecordStorage.sol\":5589:5603  Patient_Record */\n      0x00\n        /* \"contracts/PatientRecordStorage.sol\":5589:5615  Patient_Record[msg.sender] */\n      dup1\n        /* \"contracts/PatientRecordStorage.sol\":5604:5614  msg.sender */\n      caller\n        /* \"contracts/PatientRecordStorage.sol\":5589:5615  Patient_Record[msg.sender] */\n      0xffffffffffffffffffffffffffffffffffffffff\n      and\n      0xffffffffffffffffffffffffffffffffffffffff\n      and\n      dup2\n      mstore\n      0x20\n      add\n      swap1\n      dup2\n      mstore\n      0x20\n      add\n      0x00\n      keccak256\n        /* \"contracts/PatientRecordStorage.sol\":5589:5632  Patient_Record[msg.sender].approved_editors */\n      0x06\n      add\n        /* \"contracts/PatientRecordStorage.sol\":5589:5644  Patient_Record[msg.sender].approved_editors[msg.sender] */\n      0x00\n        /* \"contracts/PatientRecordStorage.sol\":5633:5643  msg.sender */\n      caller\n        /* \"contracts/PatientRecordStorage.sol\":5589:5644  Patient_Record[msg.sender].approved_editors[msg.sender] */\n      0xffffffffffffffffffffffffffffffffffffffff\n      and\n      0xffffffffffffffffffffffffffffffffffffffff\n      and\n      dup2\n      mstore\n      0x20\n      add\n      swap1\n      dup2\n      mstore\n      0x20\n      add\n      0x00\n      keccak256\n      0x00\n        /* \"contracts/PatientRecordStorage.sol\":5589:5651  Patient_Record[msg.sender].approved_editors[msg.sender] = true */\n      0x0100\n      exp\n      dup2\n      sload\n      dup2\n      0xff\n      mul\n      not\n      and\n      swap1\n      dup4\n      iszero\n      iszero\n      mul\n      or\n      swap1\n      sstore\n      pop\n        /* \"contracts/PatientRecordStorage.sol\":5698:5702  true */\n      0x01\n        /* \"contracts/PatientRecordStorage.sol\":5662:5676  Patient_Record */\n      0x00\n        /* \"contracts/PatientRecordStorage.sol\":5662:5688  Patient_Record[msg.sender] */\n      dup1\n        /* \"contracts/PatientRecordStorage.sol\":5677:5687  msg.sender */\n      caller\n        /* \"contracts/PatientRecordStorage.sol\":5662:5688  Patient_Record[msg.sender] */\n      0xffffffffffffffffffffffffffffffffffffffff\n      and\n      0xffffffffffffffffffffffffffffffffffffffff\n      and\n      dup2\n      mstore\n      0x20\n      add\n      swap1\n      dup2\n      mstore\n      0x20\n      add\n      0x00\n      keccak256\n        /* \"contracts/PatientRecordStorage.sol\":5662:5695  Patient_Record[msg.sender].exists */\n      0x08\n      add\n      0x00\n        /* \"contracts/PatientRecordStorage.sol\":5662:5702  Patient_Record[msg.sender].exists = true */\n      0x0100\n      exp\n      dup2\n      sload\n      dup2\n      0xff\n      mul\n      not\n      and\n      swap1\n      dup4\n      iszero\n      iszero\n      mul\n      or\n      swap1\n      sstore\n      pop\n        /* \"contracts/PatientRecordStorage.sol\":5063:5712  function register_as_patient(string memory _name, uint256 _dob, uint256 _weight, uint256 _height) public {... */\n      pop\n      pop\n      pop\n      pop\n      jump\t// out\n        /* \"contracts/PatientRecordStorage.sol\":11082:11438  function viewPatientMedicationsByDoctor(address _patient, string memory _pname) public view onlyDoctor onlyApprovedPersons(_patient) returns(Medicine[] memory _m)... */\n    tag_59:\n        /* \"contracts/PatientRecordStorage.sol\":11223:11243  Medicine[] memory _m */\n      0x60\n        /* \"contracts/PatientRecordStorage.sol\":3176:3189  Doctor_Record */\n      0x01\n        /* \"contracts/PatientRecordStorage.sol\":3176:3201  Doctor_Record[msg.sender] */\n      0x00\n        /* \"contracts/PatientRecordStorage.sol\":3190:3200  msg.sender */\n      caller\n        /* \"contracts/PatientRecordStorage.sol\":3176:3201  Doctor_Record[msg.sender] */\n      0xffffffffffffffffffffffffffffffffffffffff\n      and\n      0xffffffffffffffffffffffffffffffffffffffff\n      and\n      dup2\n      mstore\n      0x20\n      add\n      swap1\n      dup2\n      mstore\n      0x20\n      add\n      0x00\n      keccak256\n        /* \"contracts/PatientRecordStorage.sol\":3176:3208  Doctor_Record[msg.sender].exists */\n      0x06\n      add\n      0x00\n      swap1\n      sload\n      swap1\n      0x0100\n      exp\n      swap1\n      div\n      0xff\n      and\n        /* \"contracts/PatientRecordStorage.sol\":3168:3234  require(Doctor_Record[msg.sender].exists,\"Only Doctor can change\") */\n      tag_193\n      jumpi\n      mload(0x40)\n      0x08c379a000000000000000000000000000000000000000000000000000000000\n      dup2\n      mstore\n      0x04\n      add\n      tag_194\n      swap1\n      tag_195\n      jump\t// in\n    tag_194:\n      mload(0x40)\n      dup1\n      swap2\n      sub\n      swap1\n      revert\n    tag_193:\n        /* \"contracts/PatientRecordStorage.sol\":11205:11213  _patient */\n      dup3\n        /* \"contracts/PatientRecordStorage.sol\":3574:3588  Patient_Record */\n      0x00\n        /* \"contracts/PatientRecordStorage.sol\":3574:3598  Patient_Record[_patient] */\n      dup1\n        /* \"contracts/PatientRecordStorage.sol\":3589:3597  _patient */\n      dup3\n        /* \"contracts/PatientRecordStorage.sol\":3574:3598  Patient_Record[_patient] */\n      0xffffffffffffffffffffffffffffffffffffffff\n      and\n      0xffffffffffffffffffffffffffffffffffffffff\n      and\n      dup2\n      mstore\n      0x20\n      add\n      swap1\n      dup2\n      mstore\n      0x20\n      add\n      0x00\n      keccak256\n        /* \"contracts/PatientRecordStorage.sol\":3574:3615  Patient_Record[_patient].approved_editors */\n      0x06\n      add\n        /* \"contracts/PatientRecordStorage.sol\":3574:3627  Patient_Record[_patient].approved_editors[msg.sender] */\n      0x00\n        /* \"contracts/PatientRecordStorage.sol\":3616:3626  msg.sender */\n      caller\n        /* \"contracts/PatientRecordStorage.sol\":3574:3627  Patient_Record[_patient].approved_editors[msg.sender] */\n      0xffffffffffffffffffffffffffffffffffffffff\n      and\n      0xffffffffffffffffffffffffffffffffffffffff\n      and\n      dup2\n      mstore\n      0x20\n      add\n      swap1\n      dup2\n      mstore\n      0x20\n      add\n      0x00\n      keccak256\n      0x00\n      swap1\n      sload\n      swap1\n      0x0100\n      exp\n      swap1\n      div\n      0xff\n      and\n        /* \"contracts/PatientRecordStorage.sol\":3566:3651  require(Patient_Record[_patient].approved_editors[msg.sender], \"Unauthorized Access\") */\n      tag_197\n      jumpi\n      mload(0x40)\n      0x08c379a000000000000000000000000000000000000000000000000000000000\n      dup2\n      mstore\n      0x04\n      add\n      tag_198\n      swap1\n      tag_165\n      jump\t// in\n    tag_198:\n      mload(0x40)\n      dup1\n      swap2\n      sub\n      swap1\n      revert\n    tag_197:\n        /* \"contracts/PatientRecordStorage.sol\":11354:11360  _pname */\n      dup3\n        /* \"contracts/PatientRecordStorage.sol\":11337:11361  abi.encodePacked(_pname) */\n      add(0x20, mload(0x40))\n      tag_200\n      swap2\n      swap1\n      tag_201\n      jump\t// in\n    tag_200:\n      mload(0x40)\n      0x20\n      dup2\n      dup4\n      sub\n      sub\n      dup2\n      mstore\n      swap1\n      0x40\n      mstore\n        /* \"contracts/PatientRecordStorage.sol\":11327:11362  keccak256(abi.encodePacked(_pname)) */\n      dup1\n      mload\n      swap1\n      0x20\n      add\n      keccak256\n        /* \"contracts/PatientRecordStorage.sol\":11292:11306  Patient_Record */\n      0x00\n        /* \"contracts/PatientRecordStorage.sol\":11292:11316  Patient_Record[_patient] */\n      dup1\n        /* \"contracts/PatientRecordStorage.sol\":11307:11315  _patient */\n      dup7\n        /* \"contracts/PatientRecordStorage.sol\":11292:11316  Patient_Record[_patient] */\n      0xffffffffffffffffffffffffffffffffffffffff\n      and\n      0xffffffffffffffffffffffffffffffffffffffff\n      and\n      dup2\n      mstore\n      0x20\n      add\n      swap1\n      dup2\n      mstore\n      0x20\n      add\n      0x00\n      keccak256\n        /* \"contracts/PatientRecordStorage.sol\":11292:11321  Patient_Record[_patient].name */\n      0x00\n      add\n        /* \"contracts/PatientRecordStorage.sol\":11275:11322  abi.encodePacked(Patient_Record[_patient].name) */\n      add(0x20, mload(0x40))\n      tag_202\n      swap2\n      swap1\n      tag_203\n      jump\t// in\n    tag_202:\n      mload(0x40)\n      0x20\n      dup2\n      dup4\n      sub\n      sub\n      dup2\n      mstore\n      swap1\n      0x40\n      mstore\n        /* \"contracts/PatientRecordStorage.sol\":11265:11323  keccak256(abi.encodePacked(Patient_Record[_patient].name)) */\n      dup1\n      mload\n      swap1\n      0x20\n      add\n      keccak256\n        /* \"contracts/PatientRecordStorage.sol\":11265:11362  keccak256(abi.encodePacked(Patient_Record[_patient].name)) == keccak256(abi.encodePacked(_pname)) */\n      eq\n        /* \"contracts/PatientRecordStorage.sol\":11257:11363  require(keccak256(abi.encodePacked(Patient_Record[_patient].name)) == keccak256(abi.encodePacked(_pname))) */\n      tag_204\n      jumpi\n      0x00\n      dup1\n      revert\n    tag_204:\n        /* \"contracts/PatientRecordStorage.sol\":11376:11390  Patient_Record */\n      0x00\n        /* \"contracts/PatientRecordStorage.sol\":11376:11400  Patient_Record[_patient] */\n      dup1\n        /* \"contracts/PatientRecordStorage.sol\":11391:11399  _patient */\n      dup6\n        /* \"contracts/PatientRecordStorage.sol\":11376:11400  Patient_Record[_patient] */\n      0xffffffffffffffffffffffffffffffffffffffff\n      and\n      0xffffffffffffffffffffffffffffffffffffffff\n      and\n      dup2\n      mstore\n      0x20\n      add\n      swap1\n      dup2\n      mstore\n      0x20\n      add\n      0x00\n      keccak256\n        /* \"contracts/PatientRecordStorage.sol\":11376:11420  Patient_Record[_patient].current_medications */\n      0x07\n      add\n        /* \"contracts/PatientRecordStorage.sol\":11376:11432  Patient_Record[_patient].current_medications[msg.sender] */\n      0x00\n        /* \"contracts/PatientRecordStorage.sol\":11421:11431  msg.sender */\n      caller\n        /* \"contracts/PatientRecordStorage.sol\":11376:11432  Patient_Record[_patient].current_medications[msg.sender] */\n      0xffffffffffffffffffffffffffffffffffffffff\n      and\n      0xffffffffffffffffffffffffffffffffffffffff\n      and\n      dup2\n      mstore\n      0x20\n      add\n      swap1\n      dup2\n      mstore\n      0x20\n      add\n      0x00\n      keccak256\n        /* \"contracts/PatientRecordStorage.sol\":11371:11432  _m = Patient_Record[_patient].current_medications[msg.sender] */\n      dup1\n      sload\n      dup1\n      0x20\n      mul\n      0x20\n      add\n      mload(0x40)\n      swap1\n      dup2\n      add\n      0x40\n      mstore\n      dup1\n      swap3\n      swap2\n      swap1\n      dup2\n      dup2\n      mstore\n      0x20\n      add\n      0x00\n      swap1\n    tag_205:\n      dup3\n      dup3\n      lt\n      iszero\n      tag_206\n      jumpi\n      dup4\n      dup3\n      swap1\n      0x00\n      mstore\n      keccak256(0x00, 0x20)\n      swap1\n      0x02\n      mul\n      add\n      mload(0x40)\n      dup1\n      0xa0\n      add\n      0x40\n      mstore\n      swap1\n      dup2\n      0x00\n      dup3\n      add\n      dup1\n      sload\n      tag_208\n      swap1\n      tag_115\n      jump\t// in\n    tag_208:\n      dup1\n      0x1f\n      add\n      0x20\n      dup1\n      swap2\n      div\n      mul\n      0x20\n      add\n      mload(0x40)\n      swap1\n      dup2\n      add\n      0x40\n      mstore\n      dup1\n      swap3\n      swap2\n      swap1\n      dup2\n      dup2\n      mstore\n      0x20\n      add\n      dup3\n      dup1\n      sload\n      tag_209\n      swap1\n      tag_115\n      jump\t// in\n    tag_209:\n      dup1\n      iszero\n      tag_210\n      jumpi\n      dup1\n      0x1f\n      lt\n      tag_211\n      jumpi\n      0x0100\n      dup1\n      dup4\n      sload\n      div\n      mul\n      dup4\n      mstore\n      swap2\n      0x20\n      add\n      swap2\n      jump(tag_210)\n    tag_211:\n      dup3\n      add\n      swap2\n      swap1\n      0x00\n      mstore\n      keccak256(0x00, 0x20)\n      swap1\n    tag_212:\n      dup2\n      sload\n      dup2\n      mstore\n      swap1\n      0x01\n      add\n      swap1\n      0x20\n      add\n      dup1\n      dup4\n      gt\n      tag_212\n      jumpi\n      dup3\n      swap1\n      sub\n      0x1f\n      and\n      dup3\n      add\n      swap2\n    tag_210:\n      pop\n      pop\n      pop\n      pop\n      pop\n      dup2\n      mstore\n      0x20\n      add\n      0x01\n      dup3\n      add\n      0x00\n      swap1\n      sload\n      swap1\n      0x0100\n      exp\n      swap1\n      div\n      0xff\n      and\n      iszero\n      iszero\n      iszero\n      iszero\n      dup2\n      mstore\n      0x20\n      add\n      0x01\n      dup3\n      add\n      0x01\n      swap1\n      sload\n      swap1\n      0x0100\n      exp\n      swap1\n      div\n      0xff\n      and\n      0x03\n      dup2\n      gt\n      iszero\n      tag_213\n      jumpi\n      tag_214\n      tag_125\n      jump\t// in\n    tag_214:\n    tag_213:\n      0x03\n      dup2\n      gt\n      iszero\n      tag_215\n      jumpi\n      tag_216\n      tag_125\n      jump\t// in\n    tag_216:\n    tag_215:\n      dup2\n      mstore\n      0x20\n      add\n      0x01\n      dup3\n      add\n      0x02\n      swap1\n      sload\n      swap1\n      0x0100\n      exp\n      swap1\n      div\n      0xff\n      and\n      0x01\n      dup2\n      gt\n      iszero\n      tag_217\n      jumpi\n      tag_218\n      tag_125\n      jump\t// in\n    tag_218:\n    tag_217:\n      0x01\n      dup2\n      gt\n      iszero\n      tag_219\n      jumpi\n      tag_220\n      tag_125\n      jump\t// in\n    tag_220:\n    tag_219:\n      dup2\n      mstore\n      0x20\n      add\n      0x01\n      dup3\n      add\n      0x03\n      swap1\n      sload\n      swap1\n      0x0100\n      exp\n      swap1\n      div\n      0xff\n      and\n      iszero\n      iszero\n      iszero\n      iszero\n      dup2\n      mstore\n      pop\n      pop\n      dup2\n      mstore\n      0x20\n      add\n      swap1\n      0x01\n      add\n      swap1\n      jump(tag_205)\n    tag_206:\n      pop\n      pop\n      pop\n      pop\n      swap2\n      pop\n        /* \"contracts/PatientRecordStorage.sol\":3245:3246  _ */\n      pop\n        /* \"contracts/PatientRecordStorage.sol\":11082:11438  function viewPatientMedicationsByDoctor(address _patient, string memory _pname) public view onlyDoctor onlyApprovedPersons(_patient) returns(Medicine[] memory _m)... */\n      swap3\n      swap2\n      pop\n      pop\n      jump\t// out\n        /* \"contracts/PatientRecordStorage.sol\":6261:6479  function disapprovePatientRecordEditor(address _editor_address) public onlyPatient{... */\n    tag_64:\n        /* \"contracts/PatientRecordStorage.sol\":2942:2956  Patient_Record */\n      0x00\n        /* \"contracts/PatientRecordStorage.sol\":2942:2968  Patient_Record[msg.sender] */\n      dup1\n        /* \"contracts/PatientRecordStorage.sol\":2957:2967  msg.sender */\n      caller\n        /* \"contracts/PatientRecordStorage.sol\":2942:2968  Patient_Record[msg.sender] */\n      0xffffffffffffffffffffffffffffffffffffffff\n      and\n      0xffffffffffffffffffffffffffffffffffffffff\n      and\n      dup2\n      mstore\n      0x20\n      add\n      swap1\n      dup2\n      mstore\n      0x20\n      add\n      0x00\n      keccak256\n        /* \"contracts/PatientRecordStorage.sol\":2942:2975  Patient_Record[msg.sender].exists */\n      0x08\n      add\n      0x00\n      swap1\n      sload\n      swap1\n      0x0100\n      exp\n      swap1\n      div\n      0xff\n      and\n        /* \"contracts/PatientRecordStorage.sol\":2934:3017  require(Patient_Record[msg.sender].exists,\"Only the patient can change by ownself\") */\n      tag_222\n      jumpi\n      mload(0x40)\n      0x08c379a000000000000000000000000000000000000000000000000000000000\n      dup2\n      mstore\n      0x04\n      add\n      tag_223\n      swap1\n      tag_224\n      jump\t// in\n    tag_223:\n      mload(0x40)\n      dup1\n      swap2\n      sub\n      swap1\n      revert\n    tag_222:\n        /* \"contracts/PatientRecordStorage.sol\":6381:6391  msg.sender */\n      caller\n        /* \"contracts/PatientRecordStorage.sol\":6362:6391  _editor_address != msg.sender */\n      0xffffffffffffffffffffffffffffffffffffffff\n      and\n        /* \"contracts/PatientRecordStorage.sol\":6362:6377  _editor_address */\n      dup2\n        /* \"contracts/PatientRecordStorage.sol\":6362:6391  _editor_address != msg.sender */\n      0xffffffffffffffffffffffffffffffffffffffff\n      and\n      sub\n        /* \"contracts/PatientRecordStorage.sol\":6354:6392  require(_editor_address != msg.sender) */\n      tag_226\n      jumpi\n      0x00\n      dup1\n      revert\n    tag_226:\n        /* \"contracts/PatientRecordStorage.sol\":6466:6471  false */\n      0x00\n        /* \"contracts/PatientRecordStorage.sol\":6403:6417  Patient_Record */\n      dup1\n        /* \"contracts/PatientRecordStorage.sol\":6403:6429  Patient_Record[msg.sender] */\n      0x00\n        /* \"contracts/PatientRecordStorage.sol\":6418:6428  msg.sender */\n      caller\n        /* \"contracts/PatientRecordStorage.sol\":6403:6429  Patient_Record[msg.sender] */\n      0xffffffffffffffffffffffffffffffffffffffff\n      and\n      0xffffffffffffffffffffffffffffffffffffffff\n      and\n      dup2\n      mstore\n      0x20\n      add\n      swap1\n      dup2\n      mstore\n      0x20\n      add\n      0x00\n      keccak256\n        /* \"contracts/PatientRecordStorage.sol\":6403:6446  Patient_Record[msg.sender].approved_editors */\n      0x06\n      add\n        /* \"contracts/PatientRecordStorage.sol\":6403:6463  Patient_Record[msg.sender].approved_editors[_editor_address] */\n      0x00\n        /* \"contracts/PatientRecordStorage.sol\":6447:6462  _editor_address */\n      dup4\n        /* \"contracts/PatientRecordStorage.sol\":6403:6463  Patient_Record[msg.sender].approved_editors[_editor_address] */\n      0xffffffffffffffffffffffffffffffffffffffff\n      and\n      0xffffffffffffffffffffffffffffffffffffffff\n      and\n      dup2\n      mstore\n      0x20\n      add\n      swap1\n      dup2\n      mstore\n      0x20\n      add\n      0x00\n      keccak256\n      0x00\n        /* \"contracts/PatientRecordStorage.sol\":6403:6471  Patient_Record[msg.sender].approved_editors[_editor_address] = false */\n      0x0100\n      exp\n      dup2\n      sload\n      dup2\n      0xff\n      mul\n      not\n      and\n      swap1\n      dup4\n      iszero\n      iszero\n      mul\n      or\n      swap1\n      sstore\n      pop\n        /* \"contracts/PatientRecordStorage.sol\":6261:6479  function disapprovePatientRecordEditor(address _editor_address) public onlyPatient{... */\n      pop\n      jump\t// out\n        /* \"contracts/PatientRecordStorage.sol\":10005:10426  function giveReviewTotheDoctor(address _doctor, uint256 _rate) public onlyPatient{... */\n    tag_68:\n        /* \"contracts/PatientRecordStorage.sol\":2942:2956  Patient_Record */\n      0x00\n        /* \"contracts/PatientRecordStorage.sol\":2942:2968  Patient_Record[msg.sender] */\n      dup1\n        /* \"contracts/PatientRecordStorage.sol\":2957:2967  msg.sender */\n      caller\n        /* \"contracts/PatientRecordStorage.sol\":2942:2968  Patient_Record[msg.sender] */\n      0xffffffffffffffffffffffffffffffffffffffff\n      and\n      0xffffffffffffffffffffffffffffffffffffffff\n      and\n      dup2\n      mstore\n      0x20\n      add\n      swap1\n      dup2\n      mstore\n      0x20\n      add\n      0x00\n      keccak256\n        /* \"contracts/PatientRecordStorage.sol\":2942:2975  Patient_Record[msg.sender].exists */\n      0x08\n      add\n      0x00\n      swap1\n      sload\n      swap1\n      0x0100\n      exp\n      swap1\n      div\n      0xff\n      and\n        /* \"contracts/PatientRecordStorage.sol\":2934:3017  require(Patient_Record[msg.sender].exists,\"Only the patient can change by ownself\") */\n      tag_228\n      jumpi\n      mload(0x40)\n      0x08c379a000000000000000000000000000000000000000000000000000000000\n      dup2\n      mstore\n      0x04\n      add\n      tag_229\n      swap1\n      tag_224\n      jump\t// in\n    tag_229:\n      mload(0x40)\n      dup1\n      swap2\n      sub\n      swap1\n      revert\n    tag_228:\n        /* \"contracts/PatientRecordStorage.sol\":10103:10117  Patient_Record */\n      0x00\n        /* \"contracts/PatientRecordStorage.sol\":10103:10129  Patient_Record[msg.sender] */\n      dup1\n        /* \"contracts/PatientRecordStorage.sol\":10118:10128  msg.sender */\n      caller\n        /* \"contracts/PatientRecordStorage.sol\":10103:10129  Patient_Record[msg.sender] */\n      0xffffffffffffffffffffffffffffffffffffffff\n      and\n      0xffffffffffffffffffffffffffffffffffffffff\n      and\n      dup2\n      mstore\n      0x20\n      add\n      swap1\n      dup2\n      mstore\n      0x20\n      add\n      0x00\n      keccak256\n        /* \"contracts/PatientRecordStorage.sol\":10103:10146  Patient_Record[msg.sender].approved_editors */\n      0x06\n      add\n        /* \"contracts/PatientRecordStorage.sol\":10103:10155  Patient_Record[msg.sender].approved_editors[_doctor] */\n      0x00\n        /* \"contracts/PatientRecordStorage.sol\":10147:10154  _doctor */\n      dup4\n        /* \"contracts/PatientRecordStorage.sol\":10103:10155  Patient_Record[msg.sender].approved_editors[_doctor] */\n      0xffffffffffffffffffffffffffffffffffffffff\n      and\n      0xffffffffffffffffffffffffffffffffffffffff\n      and\n      dup2\n      mstore\n      0x20\n      add\n      swap1\n      dup2\n      mstore\n      0x20\n      add\n      0x00\n      keccak256\n      0x00\n      swap1\n      sload\n      swap1\n      0x0100\n      exp\n      swap1\n      div\n      0xff\n      and\n        /* \"contracts/PatientRecordStorage.sol\":10103:10224  Patient_Record[msg.sender].approved_editors[_doctor] && Patient_Record[msg.sender].current_medications[_doctor][0].exists */\n      dup1\n      iszero\n      tag_231\n      jumpi\n      pop\n        /* \"contracts/PatientRecordStorage.sol\":10159:10173  Patient_Record */\n      0x00\n        /* \"contracts/PatientRecordStorage.sol\":10159:10185  Patient_Record[msg.sender] */\n      dup1\n        /* \"contracts/PatientRecordStorage.sol\":10174:10184  msg.sender */\n      caller\n        /* \"contracts/PatientRecordStorage.sol\":10159:10185  Patient_Record[msg.sender] */\n      0xffffffffffffffffffffffffffffffffffffffff\n      and\n      0xffffffffffffffffffffffffffffffffffffffff\n      and\n      dup2\n      mstore\n      0x20\n      add\n      swap1\n      dup2\n      mstore\n      0x20\n      add\n      0x00\n      keccak256\n        /* \"contracts/PatientRecordStorage.sol\":10159:10205  Patient_Record[msg.sender].current_medications */\n      0x07\n      add\n        /* \"contracts/PatientRecordStorage.sol\":10159:10214  Patient_Record[msg.sender].current_medications[_doctor] */\n      0x00\n        /* \"contracts/PatientRecordStorage.sol\":10206:10213  _doctor */\n      dup4\n        /* \"contracts/PatientRecordStorage.sol\":10159:10214  Patient_Record[msg.sender].current_medications[_doctor] */\n      0xffffffffffffffffffffffffffffffffffffffff\n      and\n      0xffffffffffffffffffffffffffffffffffffffff\n      and\n      dup2\n      mstore\n      0x20\n      add\n      swap1\n      dup2\n      mstore\n      0x20\n      add\n      0x00\n      keccak256\n        /* \"contracts/PatientRecordStorage.sol\":10215:10216  0 */\n      0x00\n        /* \"contracts/PatientRecordStorage.sol\":10159:10217  Patient_Record[msg.sender].current_medications[_doctor][0] */\n      dup2\n      sload\n      dup2\n      lt\n      tag_232\n      jumpi\n      tag_233\n      tag_234\n      jump\t// in\n    tag_233:\n    tag_232:\n      swap1\n      0x00\n      mstore\n      keccak256(0x00, 0x20)\n      swap1\n      0x02\n      mul\n      add\n        /* \"contracts/PatientRecordStorage.sol\":10159:10224  Patient_Record[msg.sender].current_medications[_doctor][0].exists */\n      0x01\n      add\n      0x03\n      swap1\n      sload\n      swap1\n      0x0100\n      exp\n      swap1\n      div\n      0xff\n      and\n        /* \"contracts/PatientRecordStorage.sol\":10103:10224  Patient_Record[msg.sender].approved_editors[_doctor] && Patient_Record[msg.sender].current_medications[_doctor][0].exists */\n    tag_231:\n        /* \"contracts/PatientRecordStorage.sol\":10095:10225  require(Patient_Record[msg.sender].approved_editors[_doctor] && Patient_Record[msg.sender].current_medications[_doctor][0].exists) */\n      tag_236\n      jumpi\n      0x00\n      dup1\n      revert\n    tag_236:\n        /* \"contracts/PatientRecordStorage.sol\":10250:10251  5 */\n      0x05\n        /* \"contracts/PatientRecordStorage.sol\":10242:10247  _rate */\n      dup2\n        /* \"contracts/PatientRecordStorage.sol\":10242:10251  _rate < 5 */\n      lt\n        /* \"contracts/PatientRecordStorage.sol\":10234:10252  require(_rate < 5) */\n      tag_237\n      jumpi\n      0x00\n      dup1\n      revert\n    tag_237:\n        /* \"contracts/PatientRecordStorage.sol\":10306:10311  _rate */\n      dup1\n        /* \"contracts/PatientRecordStorage.sol\":10261:10274  Doctor_Record */\n      0x01\n        /* \"contracts/PatientRecordStorage.sol\":10261:10283  Doctor_Record[_doctor] */\n      0x00\n        /* \"contracts/PatientRecordStorage.sol\":10275:10282  _doctor */\n      dup5\n        /* \"contracts/PatientRecordStorage.sol\":10261:10283  Doctor_Record[_doctor] */\n      0xffffffffffffffffffffffffffffffffffffffff\n      and\n      0xffffffffffffffffffffffffffffffffffffffff\n      and\n      dup2\n      mstore\n      0x20\n      add\n      swap1\n      dup2\n      mstore\n      0x20\n      add\n      0x00\n      keccak256\n        /* \"contracts/PatientRecordStorage.sol\":10261:10301  Doctor_Record[_doctor].totalRatingPoints */\n      0x05\n      add\n      0x00\n        /* \"contracts/PatientRecordStorage.sol\":10261:10311  Doctor_Record[_doctor].totalRatingPoints +=  _rate */\n      dup3\n      dup3\n      sload\n      tag_238\n      swap2\n      swap1\n      tag_239\n      jump\t// in\n    tag_238:\n      swap3\n      pop\n      pop\n      dup2\n      swap1\n      sstore\n      pop\n        /* \"contracts/PatientRecordStorage.sol\":10320:10333  Doctor_Record */\n      0x01\n        /* \"contracts/PatientRecordStorage.sol\":10320:10342  Doctor_Record[_doctor] */\n      0x00\n        /* \"contracts/PatientRecordStorage.sol\":10334:10341  _doctor */\n      dup4\n        /* \"contracts/PatientRecordStorage.sol\":10320:10342  Doctor_Record[_doctor] */\n      0xffffffffffffffffffffffffffffffffffffffff\n      and\n      0xffffffffffffffffffffffffffffffffffffffff\n      and\n      dup2\n      mstore\n      0x20\n      add\n      swap1\n      dup2\n      mstore\n      0x20\n      add\n      0x00\n      keccak256\n        /* \"contracts/PatientRecordStorage.sol\":10320:10352  Doctor_Record[_doctor].reviewers */\n      0x04\n      add\n      0x00\n        /* \"contracts/PatientRecordStorage.sol\":10320:10354  Doctor_Record[_doctor].reviewers++ */\n      dup2\n      sload\n      dup1\n      swap3\n      swap2\n      swap1\n      tag_240\n      swap1\n      tag_241\n      jump\t// in\n    tag_240:\n      swap2\n      swap1\n      pop\n      sstore\n      pop\n        /* \"contracts/PatientRecordStorage.sol\":10414:10419  _rate */\n      dup1\n        /* \"contracts/PatientRecordStorage.sol\":10401:10420  reviewDoctor(_rate) */\n      0x04\n      dup2\n      gt\n      iszero\n      tag_242\n      jumpi\n      tag_243\n      tag_125\n      jump\t// in\n    tag_243:\n    tag_242:\n        /* \"contracts/PatientRecordStorage.sol\":10363:10377  Doctors_Rating */\n      0x03\n        /* \"contracts/PatientRecordStorage.sol\":10363:10386  Doctors_Rating[_doctor] */\n      0x00\n        /* \"contracts/PatientRecordStorage.sol\":10378:10385  _doctor */\n      dup5\n        /* \"contracts/PatientRecordStorage.sol\":10363:10386  Doctors_Rating[_doctor] */\n      0xffffffffffffffffffffffffffffffffffffffff\n      and\n      0xffffffffffffffffffffffffffffffffffffffff\n      and\n      dup2\n      mstore\n      0x20\n      add\n      swap1\n      dup2\n      mstore\n      0x20\n      add\n      0x00\n      keccak256\n        /* \"contracts/PatientRecordStorage.sol\":10363:10398  Doctors_Rating[_doctor][msg.sender] */\n      0x00\n        /* \"contracts/PatientRecordStorage.sol\":10387:10397  msg.sender */\n      caller\n        /* \"contracts/PatientRecordStorage.sol\":10363:10398  Doctors_Rating[_doctor][msg.sender] */\n      0xffffffffffffffffffffffffffffffffffffffff\n      and\n      0xffffffffffffffffffffffffffffffffffffffff\n      and\n      dup2\n      mstore\n      0x20\n      add\n      swap1\n      dup2\n      mstore\n      0x20\n      add\n      0x00\n      keccak256\n      0x00\n        /* \"contracts/PatientRecordStorage.sol\":10363:10420  Doctors_Rating[_doctor][msg.sender] = reviewDoctor(_rate) */\n      0x0100\n      exp\n      dup2\n      sload\n      dup2\n      0xff\n      mul\n      not\n      and\n      swap1\n      dup4\n      0x04\n      dup2\n      gt\n      iszero\n      tag_244\n      jumpi\n      tag_245\n      tag_125\n      jump\t// in\n    tag_245:\n    tag_244:\n      mul\n      or\n      swap1\n      sstore\n      pop\n        /* \"contracts/PatientRecordStorage.sol\":10005:10426  function giveReviewTotheDoctor(address _doctor, uint256 _rate) public onlyPatient{... */\n      pop\n      pop\n      jump\t// out\n        /* \"contracts/PatientRecordStorage.sol\":2466:2541  mapping (address => mapping(address => reviewDoctor)) public Doctors_Rating */\n    tag_72:\n      mstore(0x20, 0x03)\n      dup2\n      0x00\n      mstore\n      mstore(0x20, keccak256(0x00, 0x40))\n      dup1\n      0x00\n      mstore\n      keccak256(0x00, 0x40)\n      0x00\n      swap2\n      pop\n      swap2\n      pop\n      swap1\n      sload\n      swap1\n      0x0100\n      exp\n      swap1\n      div\n      0xff\n      and\n      dup2\n      jump\t// out\n        /* \"contracts/PatientRecordStorage.sol\":9281:9863  function prescribeMedicine(address _toPatient,uint256 _medid, medicine_dosage _dose, medicine_timing _dosetime) public onlyDoctor onlyApprovedPersons(_toPatient){... */\n    tag_77:\n        /* \"contracts/PatientRecordStorage.sol\":3176:3189  Doctor_Record */\n      0x01\n        /* \"contracts/PatientRecordStorage.sol\":3176:3201  Doctor_Record[msg.sender] */\n      0x00\n        /* \"contracts/PatientRecordStorage.sol\":3190:3200  msg.sender */\n      caller\n        /* \"contracts/PatientRecordStorage.sol\":3176:3201  Doctor_Record[msg.sender] */\n      0xffffffffffffffffffffffffffffffffffffffff\n      and\n      0xffffffffffffffffffffffffffffffffffffffff\n      and\n      dup2\n      mstore\n      0x20\n      add\n      swap1\n      dup2\n      mstore\n      0x20\n      add\n      0x00\n      keccak256\n        /* \"contracts/PatientRecordStorage.sol\":3176:3208  Doctor_Record[msg.sender].exists */\n      0x06\n      add\n      0x00\n      swap1\n      sload\n      swap1\n      0x0100\n      exp\n      swap1\n      div\n      0xff\n      and\n        /* \"contracts/PatientRecordStorage.sol\":3168:3234  require(Doctor_Record[msg.sender].exists,\"Only Doctor can change\") */\n      tag_247\n      jumpi\n      mload(0x40)\n      0x08c379a000000000000000000000000000000000000000000000000000000000\n      dup2\n      mstore\n      0x04\n      add\n      tag_248\n      swap1\n      tag_195\n      jump\t// in\n    tag_248:\n      mload(0x40)\n      dup1\n      swap2\n      sub\n      swap1\n      revert\n    tag_247:\n        /* \"contracts/PatientRecordStorage.sol\":9431:9441  _toPatient */\n      dup4\n        /* \"contracts/PatientRecordStorage.sol\":3574:3588  Patient_Record */\n      0x00\n        /* \"contracts/PatientRecordStorage.sol\":3574:3598  Patient_Record[_patient] */\n      dup1\n        /* \"contracts/PatientRecordStorage.sol\":3589:3597  _patient */\n      dup3\n        /* \"contracts/PatientRecordStorage.sol\":3574:3598  Patient_Record[_patient] */\n      0xffffffffffffffffffffffffffffffffffffffff\n      and\n      0xffffffffffffffffffffffffffffffffffffffff\n      and\n      dup2\n      mstore\n      0x20\n      add\n      swap1\n      dup2\n      mstore\n      0x20\n      add\n      0x00\n      keccak256\n        /* \"contracts/PatientRecordStorage.sol\":3574:3615  Patient_Record[_patient].approved_editors */\n      0x06\n      add\n        /* \"contracts/PatientRecordStorage.sol\":3574:3627  Patient_Record[_patient].approved_editors[msg.sender] */\n      0x00\n        /* \"contracts/PatientRecordStorage.sol\":3616:3626  msg.sender */\n      caller\n        /* \"contracts/PatientRecordStorage.sol\":3574:3627  Patient_Record[_patient].approved_editors[msg.sender] */\n      0xffffffffffffffffffffffffffffffffffffffff\n      and\n      0xffffffffffffffffffffffffffffffffffffffff\n      and\n      dup2\n      mstore\n      0x20\n      add\n      swap1\n      dup2\n      mstore\n      0x20\n      add\n      0x00\n      keccak256\n      0x00\n      swap1\n      sload\n      swap1\n      0x0100\n      exp\n      swap1\n      div\n      0xff\n      and\n        /* \"contracts/PatientRecordStorage.sol\":3566:3651  require(Patient_Record[_patient].approved_editors[msg.sender], \"Unauthorized Access\") */\n      tag_250\n      jumpi\n      mload(0x40)\n      0x08c379a000000000000000000000000000000000000000000000000000000000\n      dup2\n      mstore\n      0x04\n      add\n      tag_251\n      swap1\n      tag_165\n      jump\t// in\n    tag_251:\n      mload(0x40)\n      dup1\n      swap2\n      sub\n      swap1\n      revert\n    tag_250:\n        /* \"contracts/PatientRecordStorage.sol\":9453:9467  Patient_Record */\n      0x00\n        /* \"contracts/PatientRecordStorage.sol\":9453:9479  Patient_Record[_toPatient] */\n      dup1\n        /* \"contracts/PatientRecordStorage.sol\":9468:9478  _toPatient */\n      dup7\n        /* \"contracts/PatientRecordStorage.sol\":9453:9479  Patient_Record[_toPatient] */\n      0xffffffffffffffffffffffffffffffffffffffff\n      and\n      0xffffffffffffffffffffffffffffffffffffffff\n      and\n      dup2\n      mstore\n      0x20\n      add\n      swap1\n      dup2\n      mstore\n      0x20\n      add\n      0x00\n      keccak256\n        /* \"contracts/PatientRecordStorage.sol\":9453:9499  Patient_Record[_toPatient].current_medications */\n      0x07\n      add\n        /* \"contracts/PatientRecordStorage.sol\":9453:9511  Patient_Record[_toPatient].current_medications[msg.sender] */\n      0x00\n        /* \"contracts/PatientRecordStorage.sol\":9500:9510  msg.sender */\n      caller\n        /* \"contracts/PatientRecordStorage.sol\":9453:9511  Patient_Record[_toPatient].current_medications[msg.sender] */\n      0xffffffffffffffffffffffffffffffffffffffff\n      and\n      0xffffffffffffffffffffffffffffffffffffffff\n      and\n      dup2\n      mstore\n      0x20\n      add\n      swap1\n      dup2\n      mstore\n      0x20\n      add\n      0x00\n      keccak256\n        /* \"contracts/PatientRecordStorage.sol\":9517:9530  Medicine_list */\n      0x02\n        /* \"contracts/PatientRecordStorage.sol\":9517:9538  Medicine_list[_medid] */\n      0x00\n        /* \"contracts/PatientRecordStorage.sol\":9531:9537  _medid */\n      dup7\n        /* \"contracts/PatientRecordStorage.sol\":9517:9538  Medicine_list[_medid] */\n      dup2\n      mstore\n      0x20\n      add\n      swap1\n      dup2\n      mstore\n      0x20\n      add\n      0x00\n      keccak256\n        /* \"contracts/PatientRecordStorage.sol\":9453:9539  Patient_Record[_toPatient].current_medications[msg.sender].push(Medicine_list[_medid]) */\n      swap1\n      dup1\n      0x01\n      dup2\n      sload\n      add\n      dup1\n      dup3\n      sstore\n      dup1\n      swap2\n      pop\n      pop\n      0x01\n      swap1\n      sub\n      swap1\n      0x00\n      mstore\n      keccak256(0x00, 0x20)\n      swap1\n      0x02\n      mul\n      add\n      0x00\n      swap1\n      swap2\n      swap1\n      swap2\n      swap1\n      swap2\n      pop\n      0x00\n      dup3\n      add\n      dup2\n      0x00\n      add\n      swap1\n      dup2\n      tag_254\n      swap2\n      swap1\n      tag_255\n      jump\t// in\n    tag_254:\n      pop\n      0x01\n      dup3\n      add\n      0x00\n      swap1\n      sload\n      swap1\n      0x0100\n      exp\n      swap1\n      div\n      0xff\n      and\n      dup2\n      0x01\n      add\n      exp(0x0100, 0x00)\n      dup2\n      sload\n      dup2\n      0xff\n      mul\n      not\n      and\n      swap1\n      dup4\n      iszero\n      iszero\n      mul\n      or\n      swap1\n      sstore\n      pop\n      0x01\n      dup3\n      add\n      0x01\n      swap1\n      sload\n      swap1\n      0x0100\n      exp\n      swap1\n      div\n      0xff\n      and\n      dup2\n      0x01\n      add\n      exp(0x0100, 0x01)\n      dup2\n      sload\n      dup2\n      0xff\n      mul\n      not\n      and\n      swap1\n      dup4\n      0x03\n      dup2\n      gt\n      iszero\n      tag_256\n      jumpi\n      tag_257\n      tag_125\n      jump\t// in\n    tag_257:\n    tag_256:\n      mul\n      or\n      swap1\n      sstore\n      pop\n      0x01\n      dup3\n      add\n      0x02\n      swap1\n      sload\n      swap1\n      0x0100\n      exp\n      swap1\n      div\n      0xff\n      and\n      dup2\n      0x01\n      add\n      exp(0x0100, 0x02)\n      dup2\n      sload\n      dup2\n      0xff\n      mul\n      not\n      and\n      swap1\n      dup4\n      0x01\n      dup2\n      gt\n      iszero\n      tag_258\n      jumpi\n      tag_259\n      tag_125\n      jump\t// in\n    tag_259:\n    tag_258:\n      mul\n      or\n      swap1\n      sstore\n      pop\n      0x01\n      dup3\n      add\n      0x03\n      swap1\n      sload\n      swap1\n      0x0100\n      exp\n      swap1\n      div\n      0xff\n      and\n      dup2\n      0x01\n      add\n      exp(0x0100, 0x03)\n      dup2\n      sload\n      dup2\n      0xff\n      mul\n      not\n      and\n      swap1\n      dup4\n      iszero\n      iszero\n      mul\n      or\n      swap1\n      sstore\n      pop\n      pop\n      pop\n        /* \"contracts/PatientRecordStorage.sol\":9688:9693  _dose */\n      dup3\n        /* \"contracts/PatientRecordStorage.sol\":9550:9564  Patient_Record */\n      0x00\n        /* \"contracts/PatientRecordStorage.sol\":9550:9576  Patient_Record[_toPatient] */\n      dup1\n        /* \"contracts/PatientRecordStorage.sol\":9565:9575  _toPatient */\n      dup8\n        /* \"contracts/PatientRecordStorage.sol\":9550:9576  Patient_Record[_toPatient] */\n      0xffffffffffffffffffffffffffffffffffffffff\n      and\n      0xffffffffffffffffffffffffffffffffffffffff\n      and\n      dup2\n      mstore\n      0x20\n      add\n      swap1\n      dup2\n      mstore\n      0x20\n      add\n      0x00\n      keccak256\n        /* \"contracts/PatientRecordStorage.sol\":9550:9596  Patient_Record[_toPatient].current_medications */\n      0x07\n      add\n        /* \"contracts/PatientRecordStorage.sol\":9550:9608  Patient_Record[_toPatient].current_medications[msg.sender] */\n      0x00\n        /* \"contracts/PatientRecordStorage.sol\":9597:9607  msg.sender */\n      caller\n        /* \"contracts/PatientRecordStorage.sol\":9550:9608  Patient_Record[_toPatient].current_medications[msg.sender] */\n      0xffffffffffffffffffffffffffffffffffffffff\n      and\n      0xffffffffffffffffffffffffffffffffffffffff\n      and\n      dup2\n      mstore\n      0x20\n      add\n      swap1\n      dup2\n      mstore\n      0x20\n      add\n      0x00\n      keccak256\n        /* \"contracts/PatientRecordStorage.sol\":9676:9677  1 */\n      0x01\n        /* \"contracts/PatientRecordStorage.sol\":9609:9623  Patient_Record */\n      0x00\n        /* \"contracts/PatientRecordStorage.sol\":9609:9635  Patient_Record[_toPatient] */\n      dup1\n        /* \"contracts/PatientRecordStorage.sol\":9624:9634  _toPatient */\n      dup10\n        /* \"contracts/PatientRecordStorage.sol\":9609:9635  Patient_Record[_toPatient] */\n      0xffffffffffffffffffffffffffffffffffffffff\n      and\n      0xffffffffffffffffffffffffffffffffffffffff\n      and\n      dup2\n      mstore\n      0x20\n      add\n      swap1\n      dup2\n      mstore\n      0x20\n      add\n      0x00\n      keccak256\n        /* \"contracts/PatientRecordStorage.sol\":9609:9655  Patient_Record[_toPatient].current_medications */\n      0x07\n      add\n        /* \"contracts/PatientRecordStorage.sol\":9609:9667  Patient_Record[_toPatient].current_medications[msg.sender] */\n      0x00\n        /* \"contracts/PatientRecordStorage.sol\":9656:9666  msg.sender */\n      caller\n        /* \"contracts/PatientRecordStorage.sol\":9609:9667  Patient_Record[_toPatient].current_medications[msg.sender] */\n      0xffffffffffffffffffffffffffffffffffffffff\n      and\n      0xffffffffffffffffffffffffffffffffffffffff\n      and\n      dup2\n      mstore\n      0x20\n      add\n      swap1\n      dup2\n      mstore\n      0x20\n      add\n      0x00\n      keccak256\n        /* \"contracts/PatientRecordStorage.sol\":9609:9674  Patient_Record[_toPatient].current_medications[msg.sender].length */\n      dup1\n      sload\n      swap1\n      pop\n        /* \"contracts/PatientRecordStorage.sol\":9609:9677  Patient_Record[_toPatient].current_medications[msg.sender].length -1 */\n      tag_260\n      swap2\n      swap1\n      tag_186\n      jump\t// in\n    tag_260:\n        /* \"contracts/PatientRecordStorage.sol\":9550:9678  Patient_Record[_toPatient].current_medications[msg.sender][Patient_Record[_toPatient].current_medications[msg.sender].length -1] */\n      dup2\n      sload\n      dup2\n      lt\n      tag_261\n      jumpi\n      tag_262\n      tag_234\n      jump\t// in\n    tag_262:\n    tag_261:\n      swap1\n      0x00\n      mstore\n      keccak256(0x00, 0x20)\n      swap1\n      0x02\n      mul\n      add\n        /* \"contracts/PatientRecordStorage.sol\":9550:9685  Patient_Record[_toPatient].current_medications[msg.sender][Patient_Record[_toPatient].current_medications[msg.sender].length -1].dosage */\n      0x01\n      add\n      0x01\n        /* \"contracts/PatientRecordStorage.sol\":9550:9693  Patient_Record[_toPatient].current_medications[msg.sender][Patient_Record[_toPatient].current_medications[msg.sender].length -1].dosage = _dose */\n      0x0100\n      exp\n      dup2\n      sload\n      dup2\n      0xff\n      mul\n      not\n      and\n      swap1\n      dup4\n      0x03\n      dup2\n      gt\n      iszero\n      tag_264\n      jumpi\n      tag_265\n      tag_125\n      jump\t// in\n    tag_265:\n    tag_264:\n      mul\n      or\n      swap1\n      sstore\n      pop\n        /* \"contracts/PatientRecordStorage.sol\":9848:9857  _dosetime */\n      dup2\n        /* \"contracts/PatientRecordStorage.sol\":9704:9718  Patient_Record */\n      0x00\n        /* \"contracts/PatientRecordStorage.sol\":9704:9730  Patient_Record[_toPatient] */\n      dup1\n        /* \"contracts/PatientRecordStorage.sol\":9719:9729  _toPatient */\n      dup8\n        /* \"contracts/PatientRecordStorage.sol\":9704:9730  Patient_Record[_toPatient] */\n      0xffffffffffffffffffffffffffffffffffffffff\n      and\n      0xffffffffffffffffffffffffffffffffffffffff\n      and\n      dup2\n      mstore\n      0x20\n      add\n      swap1\n      dup2\n      mstore\n      0x20\n      add\n      0x00\n      keccak256\n        /* \"contracts/PatientRecordStorage.sol\":9704:9750  Patient_Record[_toPatient].current_medications */\n      0x07\n      add\n        /* \"contracts/PatientRecordStorage.sol\":9704:9762  Patient_Record[_toPatient].current_medications[msg.sender] */\n      0x00\n        /* \"contracts/PatientRecordStorage.sol\":9751:9761  msg.sender */\n      caller\n        /* \"contracts/PatientRecordStorage.sol\":9704:9762  Patient_Record[_toPatient].current_medications[msg.sender] */\n      0xffffffffffffffffffffffffffffffffffffffff\n      and\n      0xffffffffffffffffffffffffffffffffffffffff\n      and\n      dup2\n      mstore\n      0x20\n      add\n      swap1\n      dup2\n      mstore\n      0x20\n      add\n      0x00\n      keccak256\n        /* \"contracts/PatientRecordStorage.sol\":9830:9831  1 */\n      0x01\n        /* \"contracts/PatientRecordStorage.sol\":9763:9777  Patient_Record */\n      0x00\n        /* \"contracts/PatientRecordStorage.sol\":9763:9789  Patient_Record[_toPatient] */\n      dup1\n        /* \"contracts/PatientRecordStorage.sol\":9778:9788  _toPatient */\n      dup10\n        /* \"contracts/PatientRecordStorage.sol\":9763:9789  Patient_Record[_toPatient] */\n      0xffffffffffffffffffffffffffffffffffffffff\n      and\n      0xffffffffffffffffffffffffffffffffffffffff\n      and\n      dup2\n      mstore\n      0x20\n      add\n      swap1\n      dup2\n      mstore\n      0x20\n      add\n      0x00\n      keccak256\n        /* \"contracts/PatientRecordStorage.sol\":9763:9809  Patient_Record[_toPatient].current_medications */\n      0x07\n      add\n        /* \"contracts/PatientRecordStorage.sol\":9763:9821  Patient_Record[_toPatient].current_medications[msg.sender] */\n      0x00\n        /* \"contracts/PatientRecordStorage.sol\":9810:9820  msg.sender */\n      caller\n        /* \"contracts/PatientRecordStorage.sol\":9763:9821  Patient_Record[_toPatient].current_medications[msg.sender] */\n      0xffffffffffffffffffffffffffffffffffffffff\n      and\n      0xffffffffffffffffffffffffffffffffffffffff\n      and\n      dup2\n      mstore\n      0x20\n      add\n      swap1\n      dup2\n      mstore\n      0x20\n      add\n      0x00\n      keccak256\n        /* \"contracts/PatientRecordStorage.sol\":9763:9828  Patient_Record[_toPatient].current_medications[msg.sender].length */\n      dup1\n      sload\n      swap1\n      pop\n        /* \"contracts/PatientRecordStorage.sol\":9763:9831  Patient_Record[_toPatient].current_medications[msg.sender].length -1 */\n      tag_266\n      swap2\n      swap1\n      tag_186\n      jump\t// in\n    tag_266:\n        /* \"contracts/PatientRecordStorage.sol\":9704:9832  Patient_Record[_toPatient].current_medications[msg.sender][Patient_Record[_toPatient].current_medications[msg.sender].length -1] */\n      dup2\n      sload\n      dup2\n      lt\n      tag_267\n      jumpi\n      tag_268\n      tag_234\n      jump\t// in\n    tag_268:\n    tag_267:\n      swap1\n      0x00\n      mstore\n      keccak256(0x00, 0x20)\n      swap1\n      0x02\n      mul\n      add\n        /* \"contracts/PatientRecordStorage.sol\":9704:9845  Patient_Record[_toPatient].current_medications[msg.sender][Patient_Record[_toPatient].current_medications[msg.sender].length -1].dosageTiming */\n      0x01\n      add\n      0x02\n        /* \"contracts/PatientRecordStorage.sol\":9704:9857  Patient_Record[_toPatient].current_medications[msg.sender][Patient_Record[_toPatient].current_medications[msg.sender].length -1].dosageTiming = _dosetime */\n      0x0100\n      exp\n      dup2\n      sload\n      dup2\n      0xff\n      mul\n      not\n      and\n      swap1\n      dup4\n      0x01\n      dup2\n      gt\n      iszero\n      tag_270\n      jumpi\n      tag_271\n      tag_125\n      jump\t// in\n    tag_271:\n    tag_270:\n      mul\n      or\n      swap1\n      sstore\n      pop\n        /* \"contracts/PatientRecordStorage.sol\":3245:3246  _ */\n      pop\n        /* \"contracts/PatientRecordStorage.sol\":9281:9863  function prescribeMedicine(address _toPatient,uint256 _medid, medicine_dosage _dose, medicine_timing _dosetime) public onlyDoctor onlyApprovedPersons(_toPatient){... */\n      pop\n      pop\n      pop\n      pop\n      jump\t// out\n        /* \"contracts/PatientRecordStorage.sol\":8289:8611  function get_Disease_Details_Of_patient(address _patient) public view returns(Disease[] memory _d){... */\n    tag_80:\n        /* \"contracts/PatientRecordStorage.sol\":8367:8386  Disease[] memory _d */\n      0x60\n        /* \"contracts/PatientRecordStorage.sol\":8417:8431  Patient_Record */\n      0x00\n        /* \"contracts/PatientRecordStorage.sol\":8417:8441  Patient_Record[_patient] */\n      dup1\n        /* \"contracts/PatientRecordStorage.sol\":8432:8440  _patient */\n      dup4\n        /* \"contracts/PatientRecordStorage.sol\":8417:8441  Patient_Record[_patient] */\n      0xffffffffffffffffffffffffffffffffffffffff\n      and\n      0xffffffffffffffffffffffffffffffffffffffff\n      and\n      dup2\n      mstore\n      0x20\n      add\n      swap1\n      dup2\n      mstore\n      0x20\n      add\n      0x00\n      keccak256\n        /* \"contracts/PatientRecordStorage.sol\":8417:8449  Patient_Record[_patient].disease */\n      0x04\n      add\n        /* \"contracts/PatientRecordStorage.sol\":8417:8456  Patient_Record[_patient].disease.length */\n      dup1\n      sload\n      swap1\n      pop\n        /* \"contracts/PatientRecordStorage.sol\":8403:8457  new Disease[](Patient_Record[_patient].disease.length) */\n      0xffffffffffffffff\n      dup2\n      gt\n      iszero\n      tag_273\n      jumpi\n      tag_274\n      tag_275\n      jump\t// in\n    tag_274:\n    tag_273:\n      mload(0x40)\n      swap1\n      dup1\n      dup3\n      mstore\n      dup1\n      0x20\n      mul\n      0x20\n      add\n      dup3\n      add\n      0x40\n      mstore\n      dup1\n      iszero\n      tag_276\n      jumpi\n      dup2\n      0x20\n      add\n    tag_277:\n      tag_278\n      tag_279\n      jump\t// in\n    tag_278:\n      dup2\n      mstore\n      0x20\n      add\n      swap1\n      0x01\n      swap1\n      sub\n      swap1\n      dup2\n      tag_277\n      jumpi\n      swap1\n      pop\n    tag_276:\n      pop\n        /* \"contracts/PatientRecordStorage.sol\":8398:8457  _d = new Disease[](Patient_Record[_patient].disease.length) */\n      swap1\n      pop\n        /* \"contracts/PatientRecordStorage.sol\":8472:8481  uint256 i */\n      0x00\n        /* \"contracts/PatientRecordStorage.sol\":8468:8591  for(uint256 i=0;i<Patient_Record[_patient].disease.length;i++)... */\n    tag_280:\n        /* \"contracts/PatientRecordStorage.sol\":8486:8500  Patient_Record */\n      0x00\n        /* \"contracts/PatientRecordStorage.sol\":8486:8510  Patient_Record[_patient] */\n      dup1\n        /* \"contracts/PatientRecordStorage.sol\":8501:8509  _patient */\n      dup5\n        /* \"contracts/PatientRecordStorage.sol\":8486:8510  Patient_Record[_patient] */\n      0xffffffffffffffffffffffffffffffffffffffff\n      and\n      0xffffffffffffffffffffffffffffffffffffffff\n      and\n      dup2\n      mstore\n      0x20\n      add\n      swap1\n      dup2\n      mstore\n      0x20\n      add\n      0x00\n      keccak256\n        /* \"contracts/PatientRecordStorage.sol\":8486:8518  Patient_Record[_patient].disease */\n      0x04\n      add\n        /* \"contracts/PatientRecordStorage.sol\":8486:8525  Patient_Record[_patient].disease.length */\n      dup1\n      sload\n      swap1\n      pop\n        /* \"contracts/PatientRecordStorage.sol\":8484:8485  i */\n      dup2\n        /* \"contracts/PatientRecordStorage.sol\":8484:8525  i<Patient_Record[_patient].disease.length */\n      lt\n        /* \"contracts/PatientRecordStorage.sol\":8468:8591  for(uint256 i=0;i<Patient_Record[_patient].disease.length;i++)... */\n      iszero\n      tag_281\n      jumpi\n        /* \"contracts/PatientRecordStorage.sol\":8556:8570  Patient_Record */\n      0x00\n        /* \"contracts/PatientRecordStorage.sol\":8556:8580  Patient_Record[_patient] */\n      dup1\n        /* \"contracts/PatientRecordStorage.sol\":8571:8579  _patient */\n      dup5\n        /* \"contracts/PatientRecordStorage.sol\":8556:8580  Patient_Record[_patient] */\n      0xffffffffffffffffffffffffffffffffffffffff\n      and\n      0xffffffffffffffffffffffffffffffffffffffff\n      and\n      dup2\n      mstore\n      0x20\n      add\n      swap1\n      dup2\n      mstore\n      0x20\n      add\n      0x00\n      keccak256\n        /* \"contracts/PatientRecordStorage.sol\":8556:8588  Patient_Record[_patient].disease */\n      0x04\n      add\n        /* \"contracts/PatientRecordStorage.sol\":8589:8590  i */\n      dup2\n        /* \"contracts/PatientRecordStorage.sol\":8556:8591  Patient_Record[_patient].disease[i] */\n      dup2\n      sload\n      dup2\n      lt\n      tag_283\n      jumpi\n      tag_284\n      tag_234\n      jump\t// in\n    tag_284:\n    tag_283:\n      swap1\n      0x00\n      mstore\n      keccak256(0x00, 0x20)\n      swap1\n      0x02\n      mul\n      add\n        /* \"contracts/PatientRecordStorage.sol\":8548:8591  _d[i] = Patient_Record[_patient].disease[i] */\n      mload(0x40)\n      dup1\n      0x40\n      add\n      0x40\n      mstore\n      swap1\n      dup2\n      0x00\n      dup3\n      add\n      dup1\n      sload\n      tag_286\n      swap1\n      tag_115\n      jump\t// in\n    tag_286:\n      dup1\n      0x1f\n      add\n      0x20\n      dup1\n      swap2\n      div\n      mul\n      0x20\n      add\n      mload(0x40)\n      swap1\n      dup2\n      add\n      0x40\n      mstore\n      dup1\n      swap3\n      swap2\n      swap1\n      dup2\n      dup2\n      mstore\n      0x20\n      add\n      dup3\n      dup1\n      sload\n      tag_287\n      swap1\n      tag_115\n      jump\t// in\n    tag_287:\n      dup1\n      iszero\n      tag_288\n      jumpi\n      dup1\n      0x1f\n      lt\n      tag_289\n      jumpi\n      0x0100\n      dup1\n      dup4\n      sload\n      div\n      mul\n      dup4\n      mstore\n      swap2\n      0x20\n      add\n      swap2\n      jump(tag_288)\n    tag_289:\n      dup3\n      add\n      swap2\n      swap1\n      0x00\n      mstore\n      keccak256(0x00, 0x20)\n      swap1\n    tag_290:\n      dup2\n      sload\n      dup2\n      mstore\n      swap1\n      0x01\n      add\n      swap1\n      0x20\n      add\n      dup1\n      dup4\n      gt\n      tag_290\n      jumpi\n      dup3\n      swap1\n      sub\n      0x1f\n      and\n      dup3\n      add\n      swap2\n    tag_288:\n      pop\n      pop\n      pop\n      pop\n      pop\n      dup2\n      mstore\n      0x20\n      add\n      0x01\n      dup3\n      add\n      0x00\n      swap1\n      sload\n      swap1\n      0x0100\n      exp\n      swap1\n      div\n      0xff\n      and\n      0x05\n      dup2\n      gt\n      iszero\n      tag_291\n      jumpi\n      tag_292\n      tag_125\n      jump\t// in\n    tag_292:\n    tag_291:\n      0x05\n      dup2\n      gt\n      iszero\n      tag_293\n      jumpi\n      tag_294\n      tag_125\n      jump\t// in\n    tag_294:\n    tag_293:\n      dup2\n      mstore\n      pop\n      pop\n        /* \"contracts/PatientRecordStorage.sol\":8548:8550  _d */\n      dup3\n        /* \"contracts/PatientRecordStorage.sol\":8551:8552  i */\n      dup3\n        /* \"contracts/PatientRecordStorage.sol\":8548:8553  _d[i] */\n      dup2\n      mload\n      dup2\n      lt\n      tag_295\n      jumpi\n      tag_296\n      tag_234\n      jump\t// in\n    tag_296:\n    tag_295:\n      0x20\n      mul\n      0x20\n      add\n      add\n        /* \"contracts/PatientRecordStorage.sol\":8548:8591  _d[i] = Patient_Record[_patient].disease[i] */\n      dup2\n      swap1\n      mstore\n      pop\n        /* \"contracts/PatientRecordStorage.sol\":8526:8529  i++ */\n      dup1\n      dup1\n      tag_297\n      swap1\n      tag_241\n      jump\t// in\n    tag_297:\n      swap2\n      pop\n      pop\n        /* \"contracts/PatientRecordStorage.sol\":8468:8591  for(uint256 i=0;i<Patient_Record[_patient].disease.length;i++)... */\n      jump(tag_280)\n    tag_281:\n      pop\n        /* \"contracts/PatientRecordStorage.sol\":8289:8611  function get_Disease_Details_Of_patient(address _patient) public view returns(Disease[] memory _d){... */\n      swap2\n      swap1\n      pop\n      jump\t// out\n        /* \"contracts/PatientRecordStorage.sol\":5928:6093  function approvePatientRecordEditor(address _editor_address) public onlyPatient{... */\n    tag_85:\n        /* \"contracts/PatientRecordStorage.sol\":2942:2956  Patient_Record */\n      0x00\n        /* \"contracts/PatientRecordStorage.sol\":2942:2968  Patient_Record[msg.sender] */\n      dup1\n        /* \"contracts/PatientRecordStorage.sol\":2957:2967  msg.sender */\n      caller\n        /* \"contracts/PatientRecordStorage.sol\":2942:2968  Patient_Record[msg.sender] */\n      0xffffffffffffffffffffffffffffffffffffffff\n      and\n      0xffffffffffffffffffffffffffffffffffffffff\n      and\n      dup2\n      mstore\n      0x20\n      add\n      swap1\n      dup2\n      mstore\n      0x20\n      add\n      0x00\n      keccak256\n        /* \"contracts/PatientRecordStorage.sol\":2942:2975  Patient_Record[msg.sender].exists */\n      0x08\n      add\n      0x00\n      swap1\n      sload\n      swap1\n      0x0100\n      exp\n      swap1\n      div\n      0xff\n      and\n        /* \"contracts/PatientRecordStorage.sol\":2934:3017  require(Patient_Record[msg.sender].exists,\"Only the patient can change by ownself\") */\n      tag_299\n      jumpi\n      mload(0x40)\n      0x08c379a000000000000000000000000000000000000000000000000000000000\n      dup2\n      mstore\n      0x04\n      add\n      tag_300\n      swap1\n      tag_224\n      jump\t// in\n    tag_300:\n      mload(0x40)\n      dup1\n      swap2\n      sub\n      swap1\n      revert\n    tag_299:\n        /* \"contracts/PatientRecordStorage.sol\":6081:6085  true */\n      0x01\n        /* \"contracts/PatientRecordStorage.sol\":6018:6032  Patient_Record */\n      0x00\n        /* \"contracts/PatientRecordStorage.sol\":6018:6044  Patient_Record[msg.sender] */\n      dup1\n        /* \"contracts/PatientRecordStorage.sol\":6033:6043  msg.sender */\n      caller\n        /* \"contracts/PatientRecordStorage.sol\":6018:6044  Patient_Record[msg.sender] */\n      0xffffffffffffffffffffffffffffffffffffffff\n      and\n      0xffffffffffffffffffffffffffffffffffffffff\n      and\n      dup2\n      mstore\n      0x20\n      add\n      swap1\n      dup2\n      mstore\n      0x20\n      add\n      0x00\n      keccak256\n        /* \"contracts/PatientRecordStorage.sol\":6018:6061  Patient_Record[msg.sender].approved_editors */\n      0x06\n      add\n        /* \"contracts/PatientRecordStorage.sol\":6018:6078  Patient_Record[msg.sender].approved_editors[_editor_address] */\n      0x00\n        /* \"contracts/PatientRecordStorage.sol\":6062:6077  _editor_address */\n      dup4\n        /* \"contracts/PatientRecordStorage.sol\":6018:6078  Patient_Record[msg.sender].approved_editors[_editor_address] */\n      0xffffffffffffffffffffffffffffffffffffffff\n      and\n      0xffffffffffffffffffffffffffffffffffffffff\n      and\n      dup2\n      mstore\n      0x20\n      add\n      swap1\n      dup2\n      mstore\n      0x20\n      add\n      0x00\n      keccak256\n      0x00\n        /* \"contracts/PatientRecordStorage.sol\":6018:6085  Patient_Record[msg.sender].approved_editors[_editor_address] = true */\n      0x0100\n      exp\n      dup2\n      sload\n      dup2\n      0xff\n      mul\n      not\n      and\n      swap1\n      dup4\n      iszero\n      iszero\n      mul\n      or\n      swap1\n      sstore\n      pop\n        /* \"contracts/PatientRecordStorage.sol\":5928:6093  function approvePatientRecordEditor(address _editor_address) public onlyPatient{... */\n      pop\n      jump\t// out\n        /* \"contracts/PatientRecordStorage.sol\":10603:10949  function viewPatientDiseaseDetails(address _patient, uint256 _dob, string memory _pname) public view returns(Disease[] memory _d)... */\n    tag_89:\n        /* \"contracts/PatientRecordStorage.sol\":10712:10731  Disease[] memory _d */\n      0x60\n        /* \"contracts/PatientRecordStorage.sol\":10792:10796  _dob */\n      dup3\n        /* \"contracts/PatientRecordStorage.sol\":10752:10766  Patient_Record */\n      0x00\n        /* \"contracts/PatientRecordStorage.sol\":10752:10776  Patient_Record[_patient] */\n      dup1\n        /* \"contracts/PatientRecordStorage.sol\":10767:10775  _patient */\n      dup7\n        /* \"contracts/PatientRecordStorage.sol\":10752:10776  Patient_Record[_patient] */\n      0xffffffffffffffffffffffffffffffffffffffff\n      and\n      0xffffffffffffffffffffffffffffffffffffffff\n      and\n      dup2\n      mstore\n      0x20\n      add\n      swap1\n      dup2\n      mstore\n      0x20\n      add\n      0x00\n      keccak256\n        /* \"contracts/PatientRecordStorage.sol\":10752:10788  Patient_Record[_patient].dateofbirth */\n      0x01\n      add\n      sload\n        /* \"contracts/PatientRecordStorage.sol\":10752:10796  Patient_Record[_patient].dateofbirth == _dob */\n      eq\n        /* \"contracts/PatientRecordStorage.sol\":10752:10897  Patient_Record[_patient].dateofbirth == _dob && keccak256(abi.encodePacked(Patient_Record[_patient].name)) == keccak256(abi.encodePacked(_pname)) */\n      dup1\n      iszero\n      tag_303\n      jumpi\n      pop\n        /* \"contracts/PatientRecordStorage.sol\":10889:10895  _pname */\n      dup2\n        /* \"contracts/PatientRecordStorage.sol\":10872:10896  abi.encodePacked(_pname) */\n      add(0x20, mload(0x40))\n      tag_304\n      swap2\n      swap1\n      tag_201\n      jump\t// in\n    tag_304:\n      mload(0x40)\n      0x20\n      dup2\n      dup4\n      sub\n      sub\n      dup2\n      mstore\n      swap1\n      0x40\n      mstore\n        /* \"contracts/PatientRecordStorage.sol\":10862:10897  keccak256(abi.encodePacked(_pname)) */\n      dup1\n      mload\n      swap1\n      0x20\n      add\n      keccak256\n        /* \"contracts/PatientRecordStorage.sol\":10827:10841  Patient_Record */\n      0x00\n        /* \"contracts/PatientRecordStorage.sol\":10827:10851  Patient_Record[_patient] */\n      dup1\n        /* \"contracts/PatientRecordStorage.sol\":10842:10850  _patient */\n      dup7\n        /* \"contracts/PatientRecordStorage.sol\":10827:10851  Patient_Record[_patient] */\n      0xffffffffffffffffffffffffffffffffffffffff\n      and\n      0xffffffffffffffffffffffffffffffffffffffff\n      and\n      dup2\n      mstore\n      0x20\n      add\n      swap1\n      dup2\n      mstore\n      0x20\n      add\n      0x00\n      keccak256\n        /* \"contracts/PatientRecordStorage.sol\":10827:10856  Patient_Record[_patient].name */\n      0x00\n      add\n        /* \"contracts/PatientRecordStorage.sol\":10810:10857  abi.encodePacked(Patient_Record[_patient].name) */\n      add(0x20, mload(0x40))\n      tag_305\n      swap2\n      swap1\n      tag_203\n      jump\t// in\n    tag_305:\n      mload(0x40)\n      0x20\n      dup2\n      dup4\n      sub\n      sub\n      dup2\n      mstore\n      swap1\n      0x40\n      mstore\n        /* \"contracts/PatientRecordStorage.sol\":10800:10858  keccak256(abi.encodePacked(Patient_Record[_patient].name)) */\n      dup1\n      mload\n      swap1\n      0x20\n      add\n      keccak256\n        /* \"contracts/PatientRecordStorage.sol\":10800:10897  keccak256(abi.encodePacked(Patient_Record[_patient].name)) == keccak256(abi.encodePacked(_pname)) */\n      eq\n        /* \"contracts/PatientRecordStorage.sol\":10752:10897  Patient_Record[_patient].dateofbirth == _dob && keccak256(abi.encodePacked(Patient_Record[_patient].name)) == keccak256(abi.encodePacked(_pname)) */\n    tag_303:\n        /* \"contracts/PatientRecordStorage.sol\":10744:10898  require(Patient_Record[_patient].dateofbirth == _dob && keccak256(abi.encodePacked(Patient_Record[_patient].name)) == keccak256(abi.encodePacked(_pname))) */\n      tag_306\n      jumpi\n      0x00\n      dup1\n      revert\n    tag_306:\n        /* \"contracts/PatientRecordStorage.sol\":10911:10925  Patient_Record */\n      0x00\n        /* \"contracts/PatientRecordStorage.sol\":10911:10935  Patient_Record[_patient] */\n      dup1\n        /* \"contracts/PatientRecordStorage.sol\":10926:10934  _patient */\n      dup6\n        /* \"contracts/PatientRecordStorage.sol\":10911:10935  Patient_Record[_patient] */\n      0xffffffffffffffffffffffffffffffffffffffff\n      and\n      0xffffffffffffffffffffffffffffffffffffffff\n      and\n      dup2\n      mstore\n      0x20\n      add\n      swap1\n      dup2\n      mstore\n      0x20\n      add\n      0x00\n      keccak256\n        /* \"contracts/PatientRecordStorage.sol\":10911:10943  Patient_Record[_patient].disease */\n      0x04\n      add\n        /* \"contracts/PatientRecordStorage.sol\":10906:10943  _d = Patient_Record[_patient].disease */\n      dup1\n      sload\n      dup1\n      0x20\n      mul\n      0x20\n      add\n      mload(0x40)\n      swap1\n      dup2\n      add\n      0x40\n      mstore\n      dup1\n      swap3\n      swap2\n      swap1\n      dup2\n      dup2\n      mstore\n      0x20\n      add\n      0x00\n      swap1\n    tag_307:\n      dup3\n      dup3\n      lt\n      iszero\n      tag_308\n      jumpi\n      dup4\n      dup3\n      swap1\n      0x00\n      mstore\n      keccak256(0x00, 0x20)\n      swap1\n      0x02\n      mul\n      add\n      mload(0x40)\n      dup1\n      0x40\n      add\n      0x40\n      mstore\n      swap1\n      dup2\n      0x00\n      dup3\n      add\n      dup1\n      sload\n      tag_310\n      swap1\n      tag_115\n      jump\t// in\n    tag_310:\n      dup1\n      0x1f\n      add\n      0x20\n      dup1\n      swap2\n      div\n      mul\n      0x20\n      add\n      mload(0x40)\n      swap1\n      dup2\n      add\n      0x40\n      mstore\n      dup1\n      swap3\n      swap2\n      swap1\n      dup2\n      dup2\n      mstore\n      0x20\n      add\n      dup3\n      dup1\n      sload\n      tag_311\n      swap1\n      tag_115\n      jump\t// in\n    tag_311:\n      dup1\n      iszero\n      tag_312\n      jumpi\n      dup1\n      0x1f\n      lt\n      tag_313\n      jumpi\n      0x0100\n      dup1\n      dup4\n      sload\n      div\n      mul\n      dup4\n      mstore\n      swap2\n      0x20\n      add\n      swap2\n      jump(tag_312)\n    tag_313:\n      dup3\n      add\n      swap2\n      swap1\n      0x00\n      mstore\n      keccak256(0x00, 0x20)\n      swap1\n    tag_314:\n      dup2\n      sload\n      dup2\n      mstore\n      swap1\n      0x01\n      add\n      swap1\n      0x20\n      add\n      dup1\n      dup4\n      gt\n      tag_314\n      jumpi\n      dup3\n      swap1\n      sub\n      0x1f\n      and\n      dup3\n      add\n      swap2\n    tag_312:\n      pop\n      pop\n      pop\n      pop\n      pop\n      dup2\n      mstore\n      0x20\n      add\n      0x01\n      dup3\n      add\n      0x00\n      swap1\n      sload\n      swap1\n      0x0100\n      exp\n      swap1\n      div\n      0xff\n      and\n      0x05\n      dup2\n      gt\n      iszero\n      tag_315\n      jumpi\n      tag_316\n      tag_125\n      jump\t// in\n    tag_316:\n    tag_315:\n      0x05\n      dup2\n      gt\n      iszero\n      tag_317\n      jumpi\n      tag_318\n      tag_125\n      jump\t// in\n    tag_318:\n    tag_317:\n      dup2\n      mstore\n      pop\n      pop\n      dup2\n      mstore\n      0x20\n      add\n      swap1\n      0x01\n      add\n      swap1\n      jump(tag_307)\n    tag_308:\n      pop\n      pop\n      pop\n      pop\n      swap1\n      pop\n        /* \"contracts/PatientRecordStorage.sol\":10603:10949  function viewPatientDiseaseDetails(address _patient, uint256 _dob, string memory _pname) public view returns(Disease[] memory _d)... */\n      swap4\n      swap3\n      pop\n      pop\n      pop\n      jump\t// out\n        /* \"contracts/PatientRecordStorage.sol\":11777:11902  function viewDoctorDetails(address _doctor) public view returns (Doctor memory _doc){... */\n    tag_93:\n        /* \"contracts/PatientRecordStorage.sol\":11842:11860  Doctor memory _doc */\n      tag_319\n      tag_320\n      jump\t// in\n    tag_319:\n        /* \"contracts/PatientRecordStorage.sol\":11874:11887  Doctor_Record */\n      0x01\n        /* \"contracts/PatientRecordStorage.sol\":11874:11896  Doctor_Record[_doctor] */\n      0x00\n        /* \"contracts/PatientRecordStorage.sol\":11888:11895  _doctor */\n      dup4\n        /* \"contracts/PatientRecordStorage.sol\":11874:11896  Doctor_Record[_doctor] */\n      0xffffffffffffffffffffffffffffffffffffffff\n      and\n      0xffffffffffffffffffffffffffffffffffffffff\n      and\n      dup2\n      mstore\n      0x20\n      add\n      swap1\n      dup2\n      mstore\n      0x20\n      add\n      0x00\n      keccak256\n        /* \"contracts/PatientRecordStorage.sol\":11867:11896  _doc = Doctor_Record[_doctor] */\n      mload(0x40)\n      dup1\n      0xe0\n      add\n      0x40\n      mstore\n      swap1\n      dup2\n      0x00\n      dup3\n      add\n      dup1\n      sload\n      tag_322\n      swap1\n      tag_115\n      jump\t// in\n    tag_322:\n      dup1\n      0x1f\n      add\n      0x20\n      dup1\n      swap2\n      div\n      mul\n      0x20\n      add\n      mload(0x40)\n      swap1\n      dup2\n      add\n      0x40\n      mstore\n      dup1\n      swap3\n      swap2\n      swap1\n      dup2\n      dup2\n      mstore\n      0x20\n      add\n      dup3\n      dup1\n      sload\n      tag_323\n      swap1\n      tag_115\n      jump\t// in\n    tag_323:\n      dup1\n      iszero\n      tag_324\n      jumpi\n      dup1\n      0x1f\n      lt\n      tag_325\n      jumpi\n      0x0100\n      dup1\n      dup4\n      sload\n      div\n      mul\n      dup4\n      mstore\n      swap2\n      0x20\n      add\n      swap2\n      jump(tag_324)\n    tag_325:\n      dup3\n      add\n      swap2\n      swap1\n      0x00\n      mstore\n      keccak256(0x00, 0x20)\n      swap1\n    tag_326:\n      dup2\n      sload\n      dup2\n      mstore\n      swap1\n      0x01\n      add\n      swap1\n      0x20\n      add\n      dup1\n      dup4\n      gt\n      tag_326\n      jumpi\n      dup3\n      swap1\n      sub\n      0x1f\n      and\n      dup3\n      add\n      swap2\n    tag_324:\n      pop\n      pop\n      pop\n      pop\n      pop\n      dup2\n      mstore\n      0x20\n      add\n      0x01\n      dup3\n      add\n      dup1\n      sload\n      tag_327\n      swap1\n      tag_115\n      jump\t// in\n    tag_327:\n      dup1\n      0x1f\n      add\n      0x20\n      dup1\n      swap2\n      div\n      mul\n      0x20\n      add\n      mload(0x40)\n      swap1\n      dup2\n      add\n      0x40\n      mstore\n      dup1\n      swap3\n      swap2\n      swap1\n      dup2\n      dup2\n      mstore\n      0x20\n      add\n      dup3\n      dup1\n      sload\n      tag_328\n      swap1\n      tag_115\n      jump\t// in\n    tag_328:\n      dup1\n      iszero\n      tag_329\n      jumpi\n      dup1\n      0x1f\n      lt\n      tag_330\n      jumpi\n      0x0100\n      dup1\n      dup4\n      sload\n      div\n      mul\n      dup4\n      mstore\n      swap2\n      0x20\n      add\n      swap2\n      jump(tag_329)\n    tag_330:\n      dup3\n      add\n      swap2\n      swap1\n      0x00\n      mstore\n      keccak256(0x00, 0x20)\n      swap1\n    tag_331:\n      dup2\n      sload\n      dup2\n      mstore\n      swap1\n      0x01\n      add\n      swap1\n      0x20\n      add\n      dup1\n      dup4\n      gt\n      tag_331\n      jumpi\n      dup3\n      swap1\n      sub\n      0x1f\n      and\n      dup3\n      add\n      swap2\n    tag_329:\n      pop\n      pop\n      pop\n      pop\n      pop\n      dup2\n      mstore\n      0x20\n      add\n      0x02\n      dup3\n      add\n      dup1\n      sload\n      tag_332\n      swap1\n      tag_115\n      jump\t// in\n    tag_332:\n      dup1\n      0x1f\n      add\n      0x20\n      dup1\n      swap2\n      div\n      mul\n      0x20\n      add\n      mload(0x40)\n      swap1\n      dup2\n      add\n      0x40\n      mstore\n      dup1\n      swap3\n      swap2\n      swap1\n      dup2\n      dup2\n      mstore\n      0x20\n      add\n      dup3\n      dup1\n      sload\n      tag_333\n      swap1\n      tag_115\n      jump\t// in\n    tag_333:\n      dup1\n      iszero\n      tag_334\n      jumpi\n      dup1\n      0x1f\n      lt\n      tag_335\n      jumpi\n      0x0100\n      dup1\n      dup4\n      sload\n      div\n      mul\n      dup4\n      mstore\n      swap2\n      0x20\n      add\n      swap2\n      jump(tag_334)\n    tag_335:\n      dup3\n      add\n      swap2\n      swap1\n      0x00\n      mstore\n      keccak256(0x00, 0x20)\n      swap1\n    tag_336:\n      dup2\n      sload\n      dup2\n      mstore\n      swap1\n      0x01\n      add\n      swap1\n      0x20\n      add\n      dup1\n      dup4\n      gt\n      tag_336\n      jumpi\n      dup3\n      swap1\n      sub\n      0x1f\n      and\n      dup3\n      add\n      swap2\n    tag_334:\n      pop\n      pop\n      pop\n      pop\n      pop\n      dup2\n      mstore\n      0x20\n      add\n      0x03\n      dup3\n      add\n      dup1\n      sload\n      tag_337\n      swap1\n      tag_115\n      jump\t// in\n    tag_337:\n      dup1\n      0x1f\n      add\n      0x20\n      dup1\n      swap2\n      div\n      mul\n      0x20\n      add\n      mload(0x40)\n      swap1\n      dup2\n      add\n      0x40\n      mstore\n      dup1\n      swap3\n      swap2\n      swap1\n      dup2\n      dup2\n      mstore\n      0x20\n      add\n      dup3\n      dup1\n      sload\n      tag_338\n      swap1\n      tag_115\n      jump\t// in\n    tag_338:\n      dup1\n      iszero\n      tag_339\n      jumpi\n      dup1\n      0x1f\n      lt\n      tag_340\n      jumpi\n      0x0100\n      dup1\n      dup4\n      sload\n      div\n      mul\n      dup4\n      mstore\n      swap2\n      0x20\n      add\n      swap2\n      jump(tag_339)\n    tag_340:\n      dup3\n      add\n      swap2\n      swap1\n      0x00\n      mstore\n      keccak256(0x00, 0x20)\n      swap1\n    tag_341:\n      dup2\n      sload\n      dup2\n      mstore\n      swap1\n      0x01\n      add\n      swap1\n      0x20\n      add\n      dup1\n      dup4\n      gt\n      tag_341\n      jumpi\n      dup3\n      swap1\n      sub\n      0x1f\n      and\n      dup3\n      add\n      swap2\n    tag_339:\n      pop\n      pop\n      pop\n      pop\n      pop\n      dup2\n      mstore\n      0x20\n      add\n      0x04\n      dup3\n      add\n      sload\n      dup2\n      mstore\n      0x20\n      add\n      0x05\n      dup3\n      add\n      sload\n      dup2\n      mstore\n      0x20\n      add\n      0x06\n      dup3\n      add\n      0x00\n      swap1\n      sload\n      swap1\n      0x0100\n      exp\n      swap1\n      div\n      0xff\n      and\n      iszero\n      iszero\n      iszero\n      iszero\n      dup2\n      mstore\n      pop\n      pop\n      swap1\n      pop\n        /* \"contracts/PatientRecordStorage.sol\":11777:11902  function viewDoctorDetails(address _doctor) public view returns (Doctor memory _doc){... */\n      swap2\n      swap1\n      pop\n      jump\t// out\n        /* \"contracts/PatientRecordStorage.sol\":11523:11651  function viewMedicineDetails(uint256 _medid) public view returns(Medicine memory _m)... */\n    tag_98:\n        /* \"contracts/PatientRecordStorage.sol\":11588:11606  Medicine memory _m */\n      tag_342\n      tag_343\n      jump\t// in\n    tag_342:\n        /* \"contracts/PatientRecordStorage.sol\":11624:11637  Medicine_list */\n      0x02\n        /* \"contracts/PatientRecordStorage.sol\":11624:11645  Medicine_list[_medid] */\n      0x00\n        /* \"contracts/PatientRecordStorage.sol\":11638:11644  _medid */\n      dup4\n        /* \"contracts/PatientRecordStorage.sol\":11624:11645  Medicine_list[_medid] */\n      dup2\n      mstore\n      0x20\n      add\n      swap1\n      dup2\n      mstore\n      0x20\n      add\n      0x00\n      keccak256\n        /* \"contracts/PatientRecordStorage.sol\":11619:11645  _m = Medicine_list[_medid] */\n      mload(0x40)\n      dup1\n      0xa0\n      add\n      0x40\n      mstore\n      swap1\n      dup2\n      0x00\n      dup3\n      add\n      dup1\n      sload\n      tag_345\n      swap1\n      tag_115\n      jump\t// in\n    tag_345:\n      dup1\n      0x1f\n      add\n      0x20\n      dup1\n      swap2\n      div\n      mul\n      0x20\n      add\n      mload(0x40)\n      swap1\n      dup2\n      add\n      0x40\n      mstore\n      dup1\n      swap3\n      swap2\n      swap1\n      dup2\n      dup2\n      mstore\n      0x20\n      add\n      dup3\n      dup1\n      sload\n      tag_346\n      swap1\n      tag_115\n      jump\t// in\n    tag_346:\n      dup1\n      iszero\n      tag_347\n      jumpi\n      dup1\n      0x1f\n      lt\n      tag_348\n      jumpi\n      0x0100\n      dup1\n      dup4\n      sload\n      div\n      mul\n      dup4\n      mstore\n      swap2\n      0x20\n      add\n      swap2\n      jump(tag_347)\n    tag_348:\n      dup3\n      add\n      swap2\n      swap1\n      0x00\n      mstore\n      keccak256(0x00, 0x20)\n      swap1\n    tag_349:\n      dup2\n      sload\n      dup2\n      mstore\n      swap1\n      0x01\n      add\n      swap1\n      0x20\n      add\n      dup1\n      dup4\n      gt\n      tag_349\n      jumpi\n      dup3\n      swap1\n      sub\n      0x1f\n      and\n      dup3\n      add\n      swap2\n    tag_347:\n      pop\n      pop\n      pop\n      pop\n      pop\n      dup2\n      mstore\n      0x20\n      add\n      0x01\n      dup3\n      add\n      0x00\n      swap1\n      sload\n      swap1\n      0x0100\n      exp\n      swap1\n      div\n      0xff\n      and\n      iszero\n      iszero\n      iszero\n      iszero\n      dup2\n      mstore\n      0x20\n      add\n      0x01\n      dup3\n      add\n      0x01\n      swap1\n      sload\n      swap1\n      0x0100\n      exp\n      swap1\n      div\n      0xff\n      and\n      0x03\n      dup2\n      gt\n      iszero\n      tag_350\n      jumpi\n      tag_351\n      tag_125\n      jump\t// in\n    tag_351:\n    tag_350:\n      0x03\n      dup2\n      gt\n      iszero\n      tag_352\n      jumpi\n      tag_353\n      tag_125\n      jump\t// in\n    tag_353:\n    tag_352:\n      dup2\n      mstore\n      0x20\n      add\n      0x01\n      dup3\n      add\n      0x02\n      swap1\n      sload\n      swap1\n      0x0100\n      exp\n      swap1\n      div\n      0xff\n      and\n      0x01\n      dup2\n      gt\n      iszero\n      tag_354\n      jumpi\n      tag_355\n      tag_125\n      jump\t// in\n    tag_355:\n    tag_354:\n      0x01\n      dup2\n      gt\n      iszero\n      tag_356\n      jumpi\n      tag_357\n      tag_125\n      jump\t// in\n    tag_357:\n    tag_356:\n      dup2\n      mstore\n      0x20\n      add\n      0x01\n      dup3\n      add\n      0x03\n      swap1\n      sload\n      swap1\n      0x0100\n      exp\n      swap1\n      div\n      0xff\n      and\n      iszero\n      iszero\n      iszero\n      iszero\n      dup2\n      mstore\n      pop\n      pop\n      swap1\n      pop\n        /* \"contracts/PatientRecordStorage.sol\":11523:11651  function viewMedicineDetails(uint256 _medid) public view returns(Medicine memory _m)... */\n      swap2\n      swap1\n      pop\n      jump\t// out\n        /* \"contracts/PatientRecordStorage.sol\":7669:8136  function update_Recovery_Status(address _patient, uint256 _treatment_status, uint256 _index) public onlyApprovedPersons(_patient){... */\n    tag_104:\n        /* \"contracts/PatientRecordStorage.sol\":7789:7797  _patient */\n      dup3\n        /* \"contracts/PatientRecordStorage.sol\":3574:3588  Patient_Record */\n      0x00\n        /* \"contracts/PatientRecordStorage.sol\":3574:3598  Patient_Record[_patient] */\n      dup1\n        /* \"contracts/PatientRecordStorage.sol\":3589:3597  _patient */\n      dup3\n        /* \"contracts/PatientRecordStorage.sol\":3574:3598  Patient_Record[_patient] */\n      0xffffffffffffffffffffffffffffffffffffffff\n      and\n      0xffffffffffffffffffffffffffffffffffffffff\n      and\n      dup2\n      mstore\n      0x20\n      add\n      swap1\n      dup2\n      mstore\n      0x20\n      add\n      0x00\n      keccak256\n        /* \"contracts/PatientRecordStorage.sol\":3574:3615  Patient_Record[_patient].approved_editors */\n      0x06\n      add\n        /* \"contracts/PatientRecordStorage.sol\":3574:3627  Patient_Record[_patient].approved_editors[msg.sender] */\n      0x00\n        /* \"contracts/PatientRecordStorage.sol\":3616:3626  msg.sender */\n      caller\n        /* \"contracts/PatientRecordStorage.sol\":3574:3627  Patient_Record[_patient].approved_editors[msg.sender] */\n      0xffffffffffffffffffffffffffffffffffffffff\n      and\n      0xffffffffffffffffffffffffffffffffffffffff\n      and\n      dup2\n      mstore\n      0x20\n      add\n      swap1\n      dup2\n      mstore\n      0x20\n      add\n      0x00\n      keccak256\n      0x00\n      swap1\n      sload\n      swap1\n      0x0100\n      exp\n      swap1\n      div\n      0xff\n      and\n        /* \"contracts/PatientRecordStorage.sol\":3566:3651  require(Patient_Record[_patient].approved_editors[msg.sender], \"Unauthorized Access\") */\n      tag_359\n      jumpi\n      mload(0x40)\n      0x08c379a000000000000000000000000000000000000000000000000000000000\n      dup2\n      mstore\n      0x04\n      add\n      tag_360\n      swap1\n      tag_165\n      jump\t// in\n    tag_360:\n      mload(0x40)\n      dup1\n      swap2\n      sub\n      swap1\n      revert\n    tag_359:\n        /* \"contracts/PatientRecordStorage.sol\":7838:7839  0 */\n      0x00\n        /* \"contracts/PatientRecordStorage.sol\":7817:7834  _treatment_status */\n      dup4\n        /* \"contracts/PatientRecordStorage.sol\":7817:7839  _treatment_status != 0 */\n      eq\n      iszero\n        /* \"contracts/PatientRecordStorage.sol\":7817:7896  _treatment_status != 0 && _treatment_status < uint256(type(RecoveryStatus).max) */\n      dup1\n      iszero\n      tag_362\n      jumpi\n      pop\n        /* \"contracts/PatientRecordStorage.sol\":7871:7895  type(RecoveryStatus).max */\n      0x05\n        /* \"contracts/PatientRecordStorage.sol\":7863:7896  uint256(type(RecoveryStatus).max) */\n      dup1\n      dup2\n      gt\n      iszero\n      tag_363\n      jumpi\n      tag_364\n      tag_125\n      jump\t// in\n    tag_364:\n    tag_363:\n        /* \"contracts/PatientRecordStorage.sol\":7843:7860  _treatment_status */\n      dup4\n        /* \"contracts/PatientRecordStorage.sol\":7843:7896  _treatment_status < uint256(type(RecoveryStatus).max) */\n      lt\n        /* \"contracts/PatientRecordStorage.sol\":7817:7896  _treatment_status != 0 && _treatment_status < uint256(type(RecoveryStatus).max) */\n    tag_362:\n        /* \"contracts/PatientRecordStorage.sol\":7809:7925  require(_treatment_status != 0 && _treatment_status < uint256(type(RecoveryStatus).max), \"Invalid treatment status\") */\n      tag_365\n      jumpi\n      mload(0x40)\n      0x08c379a000000000000000000000000000000000000000000000000000000000\n      dup2\n      mstore\n      0x04\n      add\n      tag_366\n      swap1\n      tag_367\n      jump\t// in\n    tag_366:\n      mload(0x40)\n      dup1\n      swap2\n      sub\n      swap1\n      revert\n    tag_365:\n        /* \"contracts/PatientRecordStorage.sol\":7994:7995  1 */\n      0x01\n        /* \"contracts/PatientRecordStorage.sol\":7954:7968  Patient_Record */\n      0x00\n        /* \"contracts/PatientRecordStorage.sol\":7954:7978  Patient_Record[_patient] */\n      dup1\n        /* \"contracts/PatientRecordStorage.sol\":7969:7977  _patient */\n      dup7\n        /* \"contracts/PatientRecordStorage.sol\":7954:7978  Patient_Record[_patient] */\n      0xffffffffffffffffffffffffffffffffffffffff\n      and\n      0xffffffffffffffffffffffffffffffffffffffff\n      and\n      dup2\n      mstore\n      0x20\n      add\n      swap1\n      dup2\n      mstore\n      0x20\n      add\n      0x00\n      keccak256\n        /* \"contracts/PatientRecordStorage.sol\":7954:7986  Patient_Record[_patient].disease */\n      0x04\n      add\n        /* \"contracts/PatientRecordStorage.sol\":7954:7993  Patient_Record[_patient].disease.length */\n      dup1\n      sload\n      swap1\n      pop\n        /* \"contracts/PatientRecordStorage.sol\":7954:7995  Patient_Record[_patient].disease.length-1 */\n      tag_368\n      swap2\n      swap1\n      tag_186\n      jump\t// in\n    tag_368:\n        /* \"contracts/PatientRecordStorage.sol\":7944:7950  _index */\n      dup3\n        /* \"contracts/PatientRecordStorage.sol\":7944:7995  _index <= Patient_Record[_patient].disease.length-1 */\n      gt\n      iszero\n        /* \"contracts/PatientRecordStorage.sol\":7944:8009  _index <= Patient_Record[_patient].disease.length-1 && _index > 0 */\n      dup1\n      iszero\n      tag_369\n      jumpi\n      pop\n        /* \"contracts/PatientRecordStorage.sol\":8008:8009  0 */\n      0x00\n        /* \"contracts/PatientRecordStorage.sol\":7999:8005  _index */\n      dup3\n        /* \"contracts/PatientRecordStorage.sol\":7999:8009  _index > 0 */\n      gt\n        /* \"contracts/PatientRecordStorage.sol\":7944:8009  _index <= Patient_Record[_patient].disease.length-1 && _index > 0 */\n    tag_369:\n        /* \"contracts/PatientRecordStorage.sol\":7936:8024  require(_index <= Patient_Record[_patient].disease.length-1 && _index > 0,\"Index error\") */\n      tag_370\n      jumpi\n      mload(0x40)\n      0x08c379a000000000000000000000000000000000000000000000000000000000\n      dup2\n      mstore\n      0x04\n      add\n      tag_371\n      swap1\n      tag_372\n      jump\t// in\n    tag_371:\n      mload(0x40)\n      dup1\n      swap2\n      sub\n      swap1\n      revert\n    tag_370:\n        /* \"contracts/PatientRecordStorage.sol\":8108:8125  _treatment_status */\n      dup3\n        /* \"contracts/PatientRecordStorage.sol\":8093:8126  RecoveryStatus(_treatment_status) */\n      0x05\n      dup2\n      gt\n      iszero\n      tag_373\n      jumpi\n      tag_374\n      tag_125\n      jump\t// in\n    tag_374:\n    tag_373:\n        /* \"contracts/PatientRecordStorage.sol\":8035:8049  Patient_Record */\n      0x00\n        /* \"contracts/PatientRecordStorage.sol\":8035:8059  Patient_Record[_patient] */\n      dup1\n        /* \"contracts/PatientRecordStorage.sol\":8050:8058  _patient */\n      dup7\n        /* \"contracts/PatientRecordStorage.sol\":8035:8059  Patient_Record[_patient] */\n      0xffffffffffffffffffffffffffffffffffffffff\n      and\n      0xffffffffffffffffffffffffffffffffffffffff\n      and\n      dup2\n      mstore\n      0x20\n      add\n      swap1\n      dup2\n      mstore\n      0x20\n      add\n      0x00\n      keccak256\n        /* \"contracts/PatientRecordStorage.sol\":8035:8067  Patient_Record[_patient].disease */\n      0x04\n      add\n        /* \"contracts/PatientRecordStorage.sol\":8068:8074  _index */\n      dup4\n        /* \"contracts/PatientRecordStorage.sol\":8035:8075  Patient_Record[_patient].disease[_index] */\n      dup2\n      sload\n      dup2\n      lt\n      tag_375\n      jumpi\n      tag_376\n      tag_234\n      jump\t// in\n    tag_376:\n    tag_375:\n      swap1\n      0x00\n      mstore\n      keccak256(0x00, 0x20)\n      swap1\n      0x02\n      mul\n      add\n        /* \"contracts/PatientRecordStorage.sol\":8035:8090  Patient_Record[_patient].disease[_index].recoveryStatus */\n      0x01\n      add\n      0x00\n        /* \"contracts/PatientRecordStorage.sol\":8035:8126  Patient_Record[_patient].disease[_index].recoveryStatus = RecoveryStatus(_treatment_status) */\n      0x0100\n      exp\n      dup2\n      sload\n      dup2\n      0xff\n      mul\n      not\n      and\n      swap1\n      dup4\n      0x05\n      dup2\n      gt\n      iszero\n      tag_378\n      jumpi\n      tag_379\n      tag_125\n      jump\t// in\n    tag_379:\n    tag_378:\n      mul\n      or\n      swap1\n      sstore\n      pop\n        /* \"contracts/PatientRecordStorage.sol\":7669:8136  function update_Recovery_Status(address _patient, uint256 _treatment_status, uint256 _index) public onlyApprovedPersons(_patient){... */\n      pop\n      pop\n      pop\n      pop\n      jump\t// out\n        /* \"contracts/PatientRecordStorage.sol\":2682:2729  mapping(address => bool) public MedRecordEditor */\n    tag_107:\n      mstore(0x20, 0x04)\n      dup1\n      0x00\n      mstore\n      keccak256(0x00, 0x40)\n      0x00\n      swap2\n      pop\n      sload\n      swap1\n      0x0100\n      exp\n      swap1\n      div\n      0xff\n      and\n      dup2\n      jump\t// out\n        /* \"contracts/PatientRecordStorage.sol\":4433:4800  function register_as_doctor(string memory _name, string memory _qualification, string memory _specialization,  string memory _workPlace) public {... */\n    tag_113:\n        /* \"contracts/PatientRecordStorage.sol\":4597:4610  Doctor_Record */\n      0x01\n        /* \"contracts/PatientRecordStorage.sol\":4597:4622  Doctor_Record[msg.sender] */\n      0x00\n        /* \"contracts/PatientRecordStorage.sol\":4611:4621  msg.sender */\n      caller\n        /* \"contracts/PatientRecordStorage.sol\":4597:4622  Doctor_Record[msg.sender] */\n      0xffffffffffffffffffffffffffffffffffffffff\n      and\n      0xffffffffffffffffffffffffffffffffffffffff\n      and\n      dup2\n      mstore\n      0x20\n      add\n      swap1\n      dup2\n      mstore\n      0x20\n      add\n      0x00\n      keccak256\n        /* \"contracts/PatientRecordStorage.sol\":4597:4629  Doctor_Record[msg.sender].exists */\n      0x06\n      add\n      0x00\n      swap1\n      sload\n      swap1\n      0x0100\n      exp\n      swap1\n      div\n      0xff\n      and\n        /* \"contracts/PatientRecordStorage.sol\":4596:4629  !Doctor_Record[msg.sender].exists */\n      iszero\n        /* \"contracts/PatientRecordStorage.sol\":4588:4686  require(!Doctor_Record[msg.sender].exists,\"Doctor's data is already associated with this address\") */\n      tag_381\n      jumpi\n      mload(0x40)\n      0x08c379a000000000000000000000000000000000000000000000000000000000\n      dup2\n      mstore\n      0x04\n      add\n      tag_382\n      swap1\n      tag_383\n      jump\t// in\n    tag_382:\n      mload(0x40)\n      dup1\n      swap2\n      sub\n      swap1\n      revert\n    tag_381:\n        /* \"contracts/PatientRecordStorage.sol\":4725:4792  Doctor(_name,_qualification,_workPlace, _specialization, 0, 0,true) */\n      mload(0x40)\n      dup1\n      0xe0\n      add\n      0x40\n      mstore\n      dup1\n        /* \"contracts/PatientRecordStorage.sol\":4732:4737  _name */\n      dup6\n        /* \"contracts/PatientRecordStorage.sol\":4725:4792  Doctor(_name,_qualification,_workPlace, _specialization, 0, 0,true) */\n      dup2\n      mstore\n      0x20\n      add\n        /* \"contracts/PatientRecordStorage.sol\":4738:4752  _qualification */\n      dup5\n        /* \"contracts/PatientRecordStorage.sol\":4725:4792  Doctor(_name,_qualification,_workPlace, _specialization, 0, 0,true) */\n      dup2\n      mstore\n      0x20\n      add\n        /* \"contracts/PatientRecordStorage.sol\":4753:4763  _workPlace */\n      dup3\n        /* \"contracts/PatientRecordStorage.sol\":4725:4792  Doctor(_name,_qualification,_workPlace, _specialization, 0, 0,true) */\n      dup2\n      mstore\n      0x20\n      add\n        /* \"contracts/PatientRecordStorage.sol\":4765:4780  _specialization */\n      dup4\n        /* \"contracts/PatientRecordStorage.sol\":4725:4792  Doctor(_name,_qualification,_workPlace, _specialization, 0, 0,true) */\n      dup2\n      mstore\n      0x20\n      add\n        /* \"contracts/PatientRecordStorage.sol\":4782:4783  0 */\n      0x00\n        /* \"contracts/PatientRecordStorage.sol\":4725:4792  Doctor(_name,_qualification,_workPlace, _specialization, 0, 0,true) */\n      dup2\n      mstore\n      0x20\n      add\n        /* \"contracts/PatientRecordStorage.sol\":4785:4786  0 */\n      0x00\n        /* \"contracts/PatientRecordStorage.sol\":4725:4792  Doctor(_name,_qualification,_workPlace, _specialization, 0, 0,true) */\n      dup2\n      mstore\n      0x20\n      add\n        /* \"contracts/PatientRecordStorage.sol\":4787:4791  true */\n      0x01\n        /* \"contracts/PatientRecordStorage.sol\":4725:4792  Doctor(_name,_qualification,_workPlace, _specialization, 0, 0,true) */\n      iszero\n      iszero\n      dup2\n      mstore\n      pop\n        /* \"contracts/PatientRecordStorage.sol\":4697:4710  Doctor_Record */\n      0x01\n        /* \"contracts/PatientRecordStorage.sol\":4697:4722  Doctor_Record[msg.sender] */\n      0x00\n        /* \"contracts/PatientRecordStorage.sol\":4711:4721  msg.sender */\n      caller\n        /* \"contracts/PatientRecordStorage.sol\":4697:4722  Doctor_Record[msg.sender] */\n      0xffffffffffffffffffffffffffffffffffffffff\n      and\n      0xffffffffffffffffffffffffffffffffffffffff\n      and\n      dup2\n      mstore\n      0x20\n      add\n      swap1\n      dup2\n      mstore\n      0x20\n      add\n      0x00\n      keccak256\n        /* \"contracts/PatientRecordStorage.sol\":4697:4792  Doctor_Record[msg.sender] = Doctor(_name,_qualification,_workPlace, _specialization, 0, 0,true) */\n      0x00\n      dup3\n      add\n      mload\n      dup2\n      0x00\n      add\n      swap1\n      dup2\n      tag_384\n      swap2\n      swap1\n      tag_129\n      jump\t// in\n    tag_384:\n      pop\n      0x20\n      dup3\n      add\n      mload\n      dup2\n      0x01\n      add\n      swap1\n      dup2\n      tag_385\n      swap2\n      swap1\n      tag_129\n      jump\t// in\n    tag_385:\n      pop\n      0x40\n      dup3\n      add\n      mload\n      dup2\n      0x02\n      add\n      swap1\n      dup2\n      tag_386\n      swap2\n      swap1\n      tag_129\n      jump\t// in\n    tag_386:\n      pop\n      0x60\n      dup3\n      add\n      mload\n      dup2\n      0x03\n      add\n      swap1\n      dup2\n      tag_387\n      swap2\n      swap1\n      tag_129\n      jump\t// in\n    tag_387:\n      pop\n      0x80\n      dup3\n      add\n      mload\n      dup2\n      0x04\n      add\n      sstore\n      0xa0\n      dup3\n      add\n      mload\n      dup2\n      0x05\n      add\n      sstore\n      0xc0\n      dup3\n      add\n      mload\n      dup2\n      0x06\n      add\n      exp(0x0100, 0x00)\n      dup2\n      sload\n      dup2\n      0xff\n      mul\n      not\n      and\n      swap1\n      dup4\n      iszero\n      iszero\n      mul\n      or\n      swap1\n      sstore\n      pop\n      swap1\n      pop\n      pop\n        /* \"contracts/PatientRecordStorage.sol\":4433:4800  function register_as_doctor(string memory _name, string memory _qualification, string memory _specialization,  string memory _workPlace) public {... */\n      pop\n      pop\n      pop\n      pop\n      jump\t// out\n    tag_279:\n      mload(0x40)\n      dup1\n      0x40\n      add\n      0x40\n      mstore\n      dup1\n      0x60\n      dup2\n      mstore\n      0x20\n      add\n      0x00\n      0x05\n      dup2\n      gt\n      iszero\n      tag_388\n      jumpi\n      tag_389\n      tag_125\n      jump\t// in\n    tag_389:\n    tag_388:\n      dup2\n      mstore\n      pop\n      swap1\n      jump\t// out\n    tag_320:\n      mload(0x40)\n      dup1\n      0xe0\n      add\n      0x40\n      mstore\n      dup1\n      0x60\n      dup2\n      mstore\n      0x20\n      add\n      0x60\n      dup2\n      mstore\n      0x20\n      add\n      0x60\n      dup2\n      mstore\n      0x20\n      add\n      0x60\n      dup2\n      mstore\n      0x20\n      add\n      0x00\n      dup2\n      mstore\n      0x20\n      add\n      0x00\n      dup2\n      mstore\n      0x20\n      add\n      iszero(iszero(0x00))\n      dup2\n      mstore\n      pop\n      swap1\n      jump\t// out\n    tag_343:\n      mload(0x40)\n      dup1\n      0xa0\n      add\n      0x40\n      mstore\n      dup1\n      0x60\n      dup2\n      mstore\n      0x20\n      add\n      iszero(iszero(0x00))\n      dup2\n      mstore\n      0x20\n      add\n      0x00\n      0x03\n      dup2\n      gt\n      iszero\n      tag_390\n      jumpi\n      tag_391\n      tag_125\n      jump\t// in\n    tag_391:\n    tag_390:\n      dup2\n      mstore\n      0x20\n      add\n      0x00\n      0x01\n      dup2\n      gt\n      iszero\n      tag_392\n      jumpi\n      tag_393\n      tag_125\n      jump\t// in\n    tag_393:\n    tag_392:\n      dup2\n      mstore\n      0x20\n      add\n      iszero(iszero(0x00))\n      dup2\n      mstore\n      pop\n      swap1\n      jump\t// out\n        /* \"#utility.yul\":7:82   */\n    tag_394:\n        /* \"#utility.yul\":40:46   */\n      0x00\n        /* \"#utility.yul\":73:75   */\n      0x40\n        /* \"#utility.yul\":67:76   */\n      mload\n        /* \"#utility.yul\":57:76   */\n      swap1\n      pop\n        /* \"#utility.yul\":7:82   */\n      swap1\n      jump\t// out\n        /* \"#utility.yul\":88:205   */\n    tag_395:\n        /* \"#utility.yul\":197:198   */\n      0x00\n        /* \"#utility.yul\":194:195   */\n      dup1\n        /* \"#utility.yul\":187:199   */\n      revert\n        /* \"#utility.yul\":211:328   */\n    tag_396:\n        /* \"#utility.yul\":320:321   */\n      0x00\n        /* \"#utility.yul\":317:318   */\n      dup1\n        /* \"#utility.yul\":310:322   */\n      revert\n        /* \"#utility.yul\":334:411   */\n    tag_397:\n        /* \"#utility.yul\":371:378   */\n      0x00\n        /* \"#utility.yul\":400:405   */\n      dup2\n        /* \"#utility.yul\":389:405   */\n      swap1\n      pop\n        /* \"#utility.yul\":334:411   */\n      swap2\n      swap1\n      pop\n      jump\t// out\n        /* \"#utility.yul\":417:539   */\n    tag_398:\n        /* \"#utility.yul\":490:514   */\n      tag_508\n        /* \"#utility.yul\":508:513   */\n      dup2\n        /* \"#utility.yul\":490:514   */\n      tag_397\n      jump\t// in\n    tag_508:\n        /* \"#utility.yul\":483:488   */\n      dup2\n        /* \"#utility.yul\":480:515   */\n      eq\n        /* \"#utility.yul\":470:533   */\n      tag_509\n      jumpi\n        /* \"#utility.yul\":529:530   */\n      0x00\n        /* \"#utility.yul\":526:527   */\n      dup1\n        /* \"#utility.yul\":519:531   */\n      revert\n        /* \"#utility.yul\":470:533   */\n    tag_509:\n        /* \"#utility.yul\":417:539   */\n      pop\n      jump\t// out\n        /* \"#utility.yul\":545:684   */\n    tag_399:\n        /* \"#utility.yul\":591:596   */\n      0x00\n        /* \"#utility.yul\":629:635   */\n      dup2\n        /* \"#utility.yul\":616:636   */\n      calldataload\n        /* \"#utility.yul\":607:636   */\n      swap1\n      pop\n        /* \"#utility.yul\":645:678   */\n      tag_511\n        /* \"#utility.yul\":672:677   */\n      dup2\n        /* \"#utility.yul\":645:678   */\n      tag_398\n      jump\t// in\n    tag_511:\n        /* \"#utility.yul\":545:684   */\n      swap3\n      swap2\n      pop\n      pop\n      jump\t// out\n        /* \"#utility.yul\":690:1019   */\n    tag_27:\n        /* \"#utility.yul\":749:755   */\n      0x00\n        /* \"#utility.yul\":798:800   */\n      0x20\n        /* \"#utility.yul\":786:795   */\n      dup3\n        /* \"#utility.yul\":777:784   */\n      dup5\n        /* \"#utility.yul\":773:796   */\n      sub\n        /* \"#utility.yul\":769:801   */\n      slt\n        /* \"#utility.yul\":766:885   */\n      iszero\n      tag_513\n      jumpi\n        /* \"#utility.yul\":804:883   */\n      tag_514\n      tag_395\n      jump\t// in\n    tag_514:\n        /* \"#utility.yul\":766:885   */\n    tag_513:\n        /* \"#utility.yul\":924:925   */\n      0x00\n        /* \"#utility.yul\":949:1002   */\n      tag_515\n        /* \"#utility.yul\":994:1001   */\n      dup5\n        /* \"#utility.yul\":985:991   */\n      dup3\n        /* \"#utility.yul\":974:983   */\n      dup6\n        /* \"#utility.yul\":970:992   */\n      add\n        /* \"#utility.yul\":949:1002   */\n      tag_399\n      jump\t// in\n    tag_515:\n        /* \"#utility.yul\":939:1002   */\n      swap2\n      pop\n        /* \"#utility.yul\":895:1012   */\n      pop\n        /* \"#utility.yul\":690:1019   */\n      swap3\n      swap2\n      pop\n      pop\n      jump\t// out\n        /* \"#utility.yul\":1025:1124   */\n    tag_400:\n        /* \"#utility.yul\":1077:1083   */\n      0x00\n        /* \"#utility.yul\":1111:1116   */\n      dup2\n        /* \"#utility.yul\":1105:1117   */\n      mload\n        /* \"#utility.yul\":1095:1117   */\n      swap1\n      pop\n        /* \"#utility.yul\":1025:1124   */\n      swap2\n      swap1\n      pop\n      jump\t// out\n        /* \"#utility.yul\":1130:1299   */\n    tag_401:\n        /* \"#utility.yul\":1214:1225   */\n      0x00\n        /* \"#utility.yul\":1248:1254   */\n      dup3\n        /* \"#utility.yul\":1243:1246   */\n      dup3\n        /* \"#utility.yul\":1236:1255   */\n      mstore\n        /* \"#utility.yul\":1288:1292   */\n      0x20\n        /* \"#utility.yul\":1283:1286   */\n      dup3\n        /* \"#utility.yul\":1279:1293   */\n      add\n        /* \"#utility.yul\":1264:1293   */\n      swap1\n      pop\n        /* \"#utility.yul\":1130:1299   */\n      swap3\n      swap2\n      pop\n      pop\n      jump\t// out\n        /* \"#utility.yul\":1305:1551   */\n    tag_402:\n        /* \"#utility.yul\":1386:1387   */\n      0x00\n        /* \"#utility.yul\":1396:1509   */\n    tag_519:\n        /* \"#utility.yul\":1410:1416   */\n      dup4\n        /* \"#utility.yul\":1407:1408   */\n      dup2\n        /* \"#utility.yul\":1404:1417   */\n      lt\n        /* \"#utility.yul\":1396:1509   */\n      iszero\n      tag_521\n      jumpi\n        /* \"#utility.yul\":1495:1496   */\n      dup1\n        /* \"#utility.yul\":1490:1493   */\n      dup3\n        /* \"#utility.yul\":1486:1497   */\n      add\n        /* \"#utility.yul\":1480:1498   */\n      mload\n        /* \"#utility.yul\":1476:1477   */\n      dup2\n        /* \"#utility.yul\":1471:1474   */\n      dup5\n        /* \"#utility.yul\":1467:1478   */\n      add\n        /* \"#utility.yul\":1460:1499   */\n      mstore\n        /* \"#utility.yul\":1432:1434   */\n      0x20\n        /* \"#utility.yul\":1429:1430   */\n      dup2\n        /* \"#utility.yul\":1425:1435   */\n      add\n        /* \"#utility.yul\":1420:1435   */\n      swap1\n      pop\n        /* \"#utility.yul\":1396:1509   */\n      jump(tag_519)\n    tag_521:\n        /* \"#utility.yul\":1543:1544   */\n      0x00\n        /* \"#utility.yul\":1534:1540   */\n      dup5\n        /* \"#utility.yul\":1529:1532   */\n      dup5\n        /* \"#utility.yul\":1525:1541   */\n      add\n        /* \"#utility.yul\":1518:1545   */\n      mstore\n        /* \"#utility.yul\":1367:1551   */\n      pop\n        /* \"#utility.yul\":1305:1551   */\n      pop\n      pop\n      pop\n      jump\t// out\n        /* \"#utility.yul\":1557:1659   */\n    tag_403:\n        /* \"#utility.yul\":1598:1604   */\n      0x00\n        /* \"#utility.yul\":1649:1651   */\n      0x1f\n        /* \"#utility.yul\":1645:1652   */\n      not\n        /* \"#utility.yul\":1640:1642   */\n      0x1f\n        /* \"#utility.yul\":1633:1638   */\n      dup4\n        /* \"#utility.yul\":1629:1643   */\n      add\n        /* \"#utility.yul\":1625:1653   */\n      and\n        /* \"#utility.yul\":1615:1653   */\n      swap1\n      pop\n        /* \"#utility.yul\":1557:1659   */\n      swap2\n      swap1\n      pop\n      jump\t// out\n        /* \"#utility.yul\":1665:2042   */\n    tag_404:\n        /* \"#utility.yul\":1753:1756   */\n      0x00\n        /* \"#utility.yul\":1781:1820   */\n      tag_524\n        /* \"#utility.yul\":1814:1819   */\n      dup3\n        /* \"#utility.yul\":1781:1820   */\n      tag_400\n      jump\t// in\n    tag_524:\n        /* \"#utility.yul\":1836:1907   */\n      tag_525\n        /* \"#utility.yul\":1900:1906   */\n      dup2\n        /* \"#utility.yul\":1895:1898   */\n      dup6\n        /* \"#utility.yul\":1836:1907   */\n      tag_401\n      jump\t// in\n    tag_525:\n        /* \"#utility.yul\":1829:1907   */\n      swap4\n      pop\n        /* \"#utility.yul\":1916:1981   */\n      tag_526\n        /* \"#utility.yul\":1974:1980   */\n      dup2\n        /* \"#utility.yul\":1969:1972   */\n      dup6\n        /* \"#utility.yul\":1962:1966   */\n      0x20\n        /* \"#utility.yul\":1955:1960   */\n      dup7\n        /* \"#utility.yul\":1951:1967   */\n      add\n        /* \"#utility.yul\":1916:1981   */\n      tag_402\n      jump\t// in\n    tag_526:\n        /* \"#utility.yul\":2006:2035   */\n      tag_527\n        /* \"#utility.yul\":2028:2034   */\n      dup2\n        /* \"#utility.yul\":2006:2035   */\n      tag_403\n      jump\t// in\n    tag_527:\n        /* \"#utility.yul\":2001:2004   */\n      dup5\n        /* \"#utility.yul\":1997:2036   */\n      add\n        /* \"#utility.yul\":1990:2036   */\n      swap2\n      pop\n        /* \"#utility.yul\":1757:2042   */\n      pop\n        /* \"#utility.yul\":1665:2042   */\n      swap3\n      swap2\n      pop\n      pop\n      jump\t// out\n        /* \"#utility.yul\":2048:2138   */\n    tag_405:\n        /* \"#utility.yul\":2082:2089   */\n      0x00\n        /* \"#utility.yul\":2125:2130   */\n      dup2\n        /* \"#utility.yul\":2118:2131   */\n      iszero\n        /* \"#utility.yul\":2111:2132   */\n      iszero\n        /* \"#utility.yul\":2100:2132   */\n      swap1\n      pop\n        /* \"#utility.yul\":2048:2138   */\n      swap2\n      swap1\n      pop\n      jump\t// out\n        /* \"#utility.yul\":2144:2253   */\n    tag_406:\n        /* \"#utility.yul\":2225:2246   */\n      tag_530\n        /* \"#utility.yul\":2240:2245   */\n      dup2\n        /* \"#utility.yul\":2225:2246   */\n      tag_405\n      jump\t// in\n    tag_530:\n        /* \"#utility.yul\":2220:2223   */\n      dup3\n        /* \"#utility.yul\":2213:2247   */\n      mstore\n        /* \"#utility.yul\":2144:2253   */\n      pop\n      pop\n      jump\t// out\n        /* \"#utility.yul\":2259:2439   */\n    tag_125:\n        /* \"#utility.yul\":2307:2384   */\n      0x4e487b7100000000000000000000000000000000000000000000000000000000\n        /* \"#utility.yul\":2304:2305   */\n      0x00\n        /* \"#utility.yul\":2297:2385   */\n      mstore\n        /* \"#utility.yul\":2404:2408   */\n      0x21\n        /* \"#utility.yul\":2401:2402   */\n      0x04\n        /* \"#utility.yul\":2394:2409   */\n      mstore\n        /* \"#utility.yul\":2428:2432   */\n      0x24\n        /* \"#utility.yul\":2425:2426   */\n      0x00\n        /* \"#utility.yul\":2418:2433   */\n      revert\n        /* \"#utility.yul\":2445:2568   */\n    tag_407:\n        /* \"#utility.yul\":2536:2537   */\n      0x04\n        /* \"#utility.yul\":2529:2534   */\n      dup2\n        /* \"#utility.yul\":2526:2538   */\n      lt\n        /* \"#utility.yul\":2516:2562   */\n      tag_533\n      jumpi\n        /* \"#utility.yul\":2542:2560   */\n      tag_534\n      tag_125\n      jump\t// in\n    tag_534:\n        /* \"#utility.yul\":2516:2562   */\n    tag_533:\n        /* \"#utility.yul\":2445:2568   */\n      pop\n      jump\t// out\n        /* \"#utility.yul\":2574:2721   */\n    tag_408:\n        /* \"#utility.yul\":2629:2636   */\n      0x00\n        /* \"#utility.yul\":2658:2663   */\n      dup2\n        /* \"#utility.yul\":2647:2663   */\n      swap1\n      pop\n        /* \"#utility.yul\":2664:2715   */\n      tag_536\n        /* \"#utility.yul\":2709:2714   */\n      dup3\n        /* \"#utility.yul\":2664:2715   */\n      tag_407\n      jump\t// in\n    tag_536:\n        /* \"#utility.yul\":2574:2721   */\n      swap2\n      swap1\n      pop\n      jump\t// out\n        /* \"#utility.yul\":2727:2874   */\n    tag_409:\n        /* \"#utility.yul\":2793:2802   */\n      0x00\n        /* \"#utility.yul\":2826:2868   */\n      tag_538\n        /* \"#utility.yul\":2862:2867   */\n      dup3\n        /* \"#utility.yul\":2826:2868   */\n      tag_408\n      jump\t// in\n    tag_538:\n        /* \"#utility.yul\":2813:2868   */\n      swap1\n      pop\n        /* \"#utility.yul\":2727:2874   */\n      swap2\n      swap1\n      pop\n      jump\t// out\n        /* \"#utility.yul\":2880:3043   */\n    tag_410:\n        /* \"#utility.yul\":2983:3036   */\n      tag_540\n        /* \"#utility.yul\":3030:3035   */\n      dup2\n        /* \"#utility.yul\":2983:3036   */\n      tag_409\n      jump\t// in\n    tag_540:\n        /* \"#utility.yul\":2978:2981   */\n      dup3\n        /* \"#utility.yul\":2971:3037   */\n      mstore\n        /* \"#utility.yul\":2880:3043   */\n      pop\n      pop\n      jump\t// out\n        /* \"#utility.yul\":3049:3172   */\n    tag_411:\n        /* \"#utility.yul\":3140:3141   */\n      0x02\n        /* \"#utility.yul\":3133:3138   */\n      dup2\n        /* \"#utility.yul\":3130:3142   */\n      lt\n        /* \"#utility.yul\":3120:3166   */\n      tag_542\n      jumpi\n        /* \"#utility.yul\":3146:3164   */\n      tag_543\n      tag_125\n      jump\t// in\n    tag_543:\n        /* \"#utility.yul\":3120:3166   */\n    tag_542:\n        /* \"#utility.yul\":3049:3172   */\n      pop\n      jump\t// out\n        /* \"#utility.yul\":3178:3325   */\n    tag_412:\n        /* \"#utility.yul\":3233:3240   */\n      0x00\n        /* \"#utility.yul\":3262:3267   */\n      dup2\n        /* \"#utility.yul\":3251:3267   */\n      swap1\n      pop\n        /* \"#utility.yul\":3268:3319   */\n      tag_545\n        /* \"#utility.yul\":3313:3318   */\n      dup3\n        /* \"#utility.yul\":3268:3319   */\n      tag_411\n      jump\t// in\n    tag_545:\n        /* \"#utility.yul\":3178:3325   */\n      swap2\n      swap1\n      pop\n      jump\t// out\n        /* \"#utility.yul\":3331:3478   */\n    tag_413:\n        /* \"#utility.yul\":3397:3406   */\n      0x00\n        /* \"#utility.yul\":3430:3472   */\n      tag_547\n        /* \"#utility.yul\":3466:3471   */\n      dup3\n        /* \"#utility.yul\":3430:3472   */\n      tag_412\n      jump\t// in\n    tag_547:\n        /* \"#utility.yul\":3417:3472   */\n      swap1\n      pop\n        /* \"#utility.yul\":3331:3478   */\n      swap2\n      swap1\n      pop\n      jump\t// out\n        /* \"#utility.yul\":3484:3647   */\n    tag_414:\n        /* \"#utility.yul\":3587:3640   */\n      tag_549\n        /* \"#utility.yul\":3634:3639   */\n      dup2\n        /* \"#utility.yul\":3587:3640   */\n      tag_413\n      jump\t// in\n    tag_549:\n        /* \"#utility.yul\":3582:3585   */\n      dup3\n        /* \"#utility.yul\":3575:3641   */\n      mstore\n        /* \"#utility.yul\":3484:3647   */\n      pop\n      pop\n      jump\t// out\n        /* \"#utility.yul\":3653:4448   */\n    tag_30:\n        /* \"#utility.yul\":3898:3902   */\n      0x00\n        /* \"#utility.yul\":3936:3939   */\n      0xa0\n        /* \"#utility.yul\":3925:3934   */\n      dup3\n        /* \"#utility.yul\":3921:3940   */\n      add\n        /* \"#utility.yul\":3913:3940   */\n      swap1\n      pop\n        /* \"#utility.yul\":3986:3995   */\n      dup2\n        /* \"#utility.yul\":3980:3984   */\n      dup2\n        /* \"#utility.yul\":3976:3996   */\n      sub\n        /* \"#utility.yul\":3972:3973   */\n      0x00\n        /* \"#utility.yul\":3961:3970   */\n      dup4\n        /* \"#utility.yul\":3957:3974   */\n      add\n        /* \"#utility.yul\":3950:3997   */\n      mstore\n        /* \"#utility.yul\":4014:4092   */\n      tag_551\n        /* \"#utility.yul\":4087:4091   */\n      dup2\n        /* \"#utility.yul\":4078:4084   */\n      dup9\n        /* \"#utility.yul\":4014:4092   */\n      tag_404\n      jump\t// in\n    tag_551:\n        /* \"#utility.yul\":4006:4092   */\n      swap1\n      pop\n        /* \"#utility.yul\":4102:4168   */\n      tag_552\n        /* \"#utility.yul\":4164:4166   */\n      0x20\n        /* \"#utility.yul\":4153:4162   */\n      dup4\n        /* \"#utility.yul\":4149:4167   */\n      add\n        /* \"#utility.yul\":4140:4146   */\n      dup8\n        /* \"#utility.yul\":4102:4168   */\n      tag_406\n      jump\t// in\n    tag_552:\n        /* \"#utility.yul\":4178:4266   */\n      tag_553\n        /* \"#utility.yul\":4262:4264   */\n      0x40\n        /* \"#utility.yul\":4251:4260   */\n      dup4\n        /* \"#utility.yul\":4247:4265   */\n      add\n        /* \"#utility.yul\":4238:4244   */\n      dup7\n        /* \"#utility.yul\":4178:4266   */\n      tag_410\n      jump\t// in\n    tag_553:\n        /* \"#utility.yul\":4276:4364   */\n      tag_554\n        /* \"#utility.yul\":4360:4362   */\n      0x60\n        /* \"#utility.yul\":4349:4358   */\n      dup4\n        /* \"#utility.yul\":4345:4363   */\n      add\n        /* \"#utility.yul\":4336:4342   */\n      dup6\n        /* \"#utility.yul\":4276:4364   */\n      tag_414\n      jump\t// in\n    tag_554:\n        /* \"#utility.yul\":4374:4441   */\n      tag_555\n        /* \"#utility.yul\":4436:4439   */\n      0x80\n        /* \"#utility.yul\":4425:4434   */\n      dup4\n        /* \"#utility.yul\":4421:4440   */\n      add\n        /* \"#utility.yul\":4412:4418   */\n      dup5\n        /* \"#utility.yul\":4374:4441   */\n      tag_406\n      jump\t// in\n    tag_555:\n        /* \"#utility.yul\":3653:4448   */\n      swap7\n      swap6\n      pop\n      pop\n      pop\n      pop\n      pop\n      pop\n      jump\t// out\n        /* \"#utility.yul\":4454:4571   */\n    tag_415:\n        /* \"#utility.yul\":4563:4564   */\n      0x00\n        /* \"#utility.yul\":4560:4561   */\n      dup1\n        /* \"#utility.yul\":4553:4565   */\n      revert\n        /* \"#utility.yul\":4577:4694   */\n    tag_416:\n        /* \"#utility.yul\":4686:4687   */\n      0x00\n        /* \"#utility.yul\":4683:4684   */\n      dup1\n        /* \"#utility.yul\":4676:4688   */\n      revert\n        /* \"#utility.yul\":4700:4880   */\n    tag_275:\n        /* \"#utility.yul\":4748:4825   */\n      0x4e487b7100000000000000000000000000000000000000000000000000000000\n        /* \"#utility.yul\":4745:4746   */\n      0x00\n        /* \"#utility.yul\":4738:4826   */\n      mstore\n        /* \"#utility.yul\":4845:4849   */\n      0x41\n        /* \"#utility.yul\":4842:4843   */\n      0x04\n        /* \"#utility.yul\":4835:4850   */\n      mstore\n        /* \"#utility.yul\":4869:4873   */\n      0x24\n        /* \"#utility.yul\":4866:4867   */\n      0x00\n        /* \"#utility.yul\":4859:4874   */\n      revert\n        /* \"#utility.yul\":4886:5167   */\n    tag_417:\n        /* \"#utility.yul\":4969:4996   */\n      tag_560\n        /* \"#utility.yul\":4991:4995   */\n      dup3\n        /* \"#utility.yul\":4969:4996   */\n      tag_403\n      jump\t// in\n    tag_560:\n        /* \"#utility.yul\":4961:4967   */\n      dup2\n        /* \"#utility.yul\":4957:4997   */\n      add\n        /* \"#utility.yul\":5099:5105   */\n      dup2\n        /* \"#utility.yul\":5087:5097   */\n      dup2\n        /* \"#utility.yul\":5084:5106   */\n      lt\n        /* \"#utility.yul\":5063:5081   */\n      0xffffffffffffffff\n        /* \"#utility.yul\":5051:5061   */\n      dup3\n        /* \"#utility.yul\":5048:5082   */\n      gt\n        /* \"#utility.yul\":5045:5107   */\n      or\n        /* \"#utility.yul\":5042:5130   */\n      iszero\n      tag_561\n      jumpi\n        /* \"#utility.yul\":5110:5128   */\n      tag_562\n      tag_275\n      jump\t// in\n    tag_562:\n        /* \"#utility.yul\":5042:5130   */\n    tag_561:\n        /* \"#utility.yul\":5150:5160   */\n      dup1\n        /* \"#utility.yul\":5146:5148   */\n      0x40\n        /* \"#utility.yul\":5139:5161   */\n      mstore\n        /* \"#utility.yul\":4929:5167   */\n      pop\n        /* \"#utility.yul\":4886:5167   */\n      pop\n      pop\n      jump\t// out\n        /* \"#utility.yul\":5173:5302   */\n    tag_418:\n        /* \"#utility.yul\":5207:5213   */\n      0x00\n        /* \"#utility.yul\":5234:5254   */\n      tag_564\n      tag_394\n      jump\t// in\n    tag_564:\n        /* \"#utility.yul\":5224:5254   */\n      swap1\n      pop\n        /* \"#utility.yul\":5263:5296   */\n      tag_565\n        /* \"#utility.yul\":5291:5295   */\n      dup3\n        /* \"#utility.yul\":5283:5289   */\n      dup3\n        /* \"#utility.yul\":5263:5296   */\n      tag_417\n      jump\t// in\n    tag_565:\n        /* \"#utility.yul\":5173:5302   */\n      swap2\n      swap1\n      pop\n      jump\t// out\n        /* \"#utility.yul\":5308:5616   */\n    tag_419:\n        /* \"#utility.yul\":5370:5374   */\n      0x00\n        /* \"#utility.yul\":5460:5478   */\n      0xffffffffffffffff\n        /* \"#utility.yul\":5452:5458   */\n      dup3\n        /* \"#utility.yul\":5449:5479   */\n      gt\n        /* \"#utility.yul\":5446:5502   */\n      iszero\n      tag_567\n      jumpi\n        /* \"#utility.yul\":5482:5500   */\n      tag_568\n      tag_275\n      jump\t// in\n    tag_568:\n        /* \"#utility.yul\":5446:5502   */\n    tag_567:\n        /* \"#utility.yul\":5520:5549   */\n      tag_569\n        /* \"#utility.yul\":5542:5548   */\n      dup3\n        /* \"#utility.yul\":5520:5549   */\n      tag_403\n      jump\t// in\n    tag_569:\n        /* \"#utility.yul\":5512:5549   */\n      swap1\n      pop\n        /* \"#utility.yul\":5604:5608   */\n      0x20\n        /* \"#utility.yul\":5598:5602   */\n      dup2\n        /* \"#utility.yul\":5594:5609   */\n      add\n        /* \"#utility.yul\":5586:5609   */\n      swap1\n      pop\n        /* \"#utility.yul\":5308:5616   */\n      swap2\n      swap1\n      pop\n      jump\t// out\n        /* \"#utility.yul\":5622:5768   */\n    tag_420:\n        /* \"#utility.yul\":5719:5725   */\n      dup3\n        /* \"#utility.yul\":5714:5717   */\n      dup2\n        /* \"#utility.yul\":5709:5712   */\n      dup4\n        /* \"#utility.yul\":5696:5726   */\n      calldatacopy\n        /* \"#utility.yul\":5760:5761   */\n      0x00\n        /* \"#utility.yul\":5751:5757   */\n      dup4\n        /* \"#utility.yul\":5746:5749   */\n      dup4\n        /* \"#utility.yul\":5742:5758   */\n      add\n        /* \"#utility.yul\":5735:5762   */\n      mstore\n        /* \"#utility.yul\":5622:5768   */\n      pop\n      pop\n      pop\n      jump\t// out\n        /* \"#utility.yul\":5774:6199   */\n    tag_421:\n        /* \"#utility.yul\":5852:5857   */\n      0x00\n        /* \"#utility.yul\":5877:5943   */\n      tag_572\n        /* \"#utility.yul\":5893:5942   */\n      tag_573\n        /* \"#utility.yul\":5935:5941   */\n      dup5\n        /* \"#utility.yul\":5893:5942   */\n      tag_419\n      jump\t// in\n    tag_573:\n        /* \"#utility.yul\":5877:5943   */\n      tag_418\n      jump\t// in\n    tag_572:\n        /* \"#utility.yul\":5868:5943   */\n      swap1\n      pop\n        /* \"#utility.yul\":5966:5972   */\n      dup3\n        /* \"#utility.yul\":5959:5964   */\n      dup2\n        /* \"#utility.yul\":5952:5973   */\n      mstore\n        /* \"#utility.yul\":6004:6008   */\n      0x20\n        /* \"#utility.yul\":5997:6002   */\n      dup2\n        /* \"#utility.yul\":5993:6009   */\n      add\n        /* \"#utility.yul\":6042:6045   */\n      dup5\n        /* \"#utility.yul\":6033:6039   */\n      dup5\n        /* \"#utility.yul\":6028:6031   */\n      dup5\n        /* \"#utility.yul\":6024:6040   */\n      add\n        /* \"#utility.yul\":6021:6046   */\n      gt\n        /* \"#utility.yul\":6018:6130   */\n      iszero\n      tag_574\n      jumpi\n        /* \"#utility.yul\":6049:6128   */\n      tag_575\n      tag_416\n      jump\t// in\n    tag_575:\n        /* \"#utility.yul\":6018:6130   */\n    tag_574:\n        /* \"#utility.yul\":6139:6193   */\n      tag_576\n        /* \"#utility.yul\":6186:6192   */\n      dup5\n        /* \"#utility.yul\":6181:6184   */\n      dup3\n        /* \"#utility.yul\":6176:6179   */\n      dup6\n        /* \"#utility.yul\":6139:6193   */\n      tag_420\n      jump\t// in\n    tag_576:\n        /* \"#utility.yul\":5858:6199   */\n      pop\n        /* \"#utility.yul\":5774:6199   */\n      swap4\n      swap3\n      pop\n      pop\n      pop\n      jump\t// out\n        /* \"#utility.yul\":6219:6559   */\n    tag_422:\n        /* \"#utility.yul\":6275:6280   */\n      0x00\n        /* \"#utility.yul\":6324:6327   */\n      dup3\n        /* \"#utility.yul\":6317:6321   */\n      0x1f\n        /* \"#utility.yul\":6309:6315   */\n      dup4\n        /* \"#utility.yul\":6305:6322   */\n      add\n        /* \"#utility.yul\":6301:6328   */\n      slt\n        /* \"#utility.yul\":6291:6413   */\n      tag_578\n      jumpi\n        /* \"#utility.yul\":6332:6411   */\n      tag_579\n      tag_415\n      jump\t// in\n    tag_579:\n        /* \"#utility.yul\":6291:6413   */\n    tag_578:\n        /* \"#utility.yul\":6449:6455   */\n      dup2\n        /* \"#utility.yul\":6436:6456   */\n      calldataload\n        /* \"#utility.yul\":6474:6553   */\n      tag_580\n        /* \"#utility.yul\":6549:6552   */\n      dup5\n        /* \"#utility.yul\":6541:6547   */\n      dup3\n        /* \"#utility.yul\":6534:6538   */\n      0x20\n        /* \"#utility.yul\":6526:6532   */\n      dup7\n        /* \"#utility.yul\":6522:6539   */\n      add\n        /* \"#utility.yul\":6474:6553   */\n      tag_421\n      jump\t// in\n    tag_580:\n        /* \"#utility.yul\":6465:6553   */\n      swap2\n      pop\n        /* \"#utility.yul\":6281:6559   */\n      pop\n        /* \"#utility.yul\":6219:6559   */\n      swap3\n      swap2\n      pop\n      pop\n      jump\t// out\n        /* \"#utility.yul\":6565:6682   */\n    tag_423:\n        /* \"#utility.yul\":6656:6657   */\n      0x04\n        /* \"#utility.yul\":6649:6654   */\n      dup2\n        /* \"#utility.yul\":6646:6658   */\n      lt\n        /* \"#utility.yul\":6636:6676   */\n      tag_582\n      jumpi\n        /* \"#utility.yul\":6672:6673   */\n      0x00\n        /* \"#utility.yul\":6669:6670   */\n      dup1\n        /* \"#utility.yul\":6662:6674   */\n      revert\n        /* \"#utility.yul\":6636:6676   */\n    tag_582:\n        /* \"#utility.yul\":6565:6682   */\n      pop\n      jump\t// out\n        /* \"#utility.yul\":6688:6863   */\n    tag_424:\n        /* \"#utility.yul\":6752:6757   */\n      0x00\n        /* \"#utility.yul\":6790:6796   */\n      dup2\n        /* \"#utility.yul\":6777:6797   */\n      calldataload\n        /* \"#utility.yul\":6768:6797   */\n      swap1\n      pop\n        /* \"#utility.yul\":6806:6857   */\n      tag_584\n        /* \"#utility.yul\":6851:6856   */\n      dup2\n        /* \"#utility.yul\":6806:6857   */\n      tag_423\n      jump\t// in\n    tag_584:\n        /* \"#utility.yul\":6688:6863   */\n      swap3\n      swap2\n      pop\n      pop\n      jump\t// out\n        /* \"#utility.yul\":6869:6986   */\n    tag_425:\n        /* \"#utility.yul\":6960:6961   */\n      0x02\n        /* \"#utility.yul\":6953:6958   */\n      dup2\n        /* \"#utility.yul\":6950:6962   */\n      lt\n        /* \"#utility.yul\":6940:6980   */\n      tag_586\n      jumpi\n        /* \"#utility.yul\":6976:6977   */\n      0x00\n        /* \"#utility.yul\":6973:6974   */\n      dup1\n        /* \"#utility.yul\":6966:6978   */\n      revert\n        /* \"#utility.yul\":6940:6980   */\n    tag_586:\n        /* \"#utility.yul\":6869:6986   */\n      pop\n      jump\t// out\n        /* \"#utility.yul\":6992:7167   */\n    tag_426:\n        /* \"#utility.yul\":7056:7061   */\n      0x00\n        /* \"#utility.yul\":7094:7100   */\n      dup2\n        /* \"#utility.yul\":7081:7101   */\n      calldataload\n        /* \"#utility.yul\":7072:7101   */\n      swap1\n      pop\n        /* \"#utility.yul\":7110:7161   */\n      tag_588\n        /* \"#utility.yul\":7155:7160   */\n      dup2\n        /* \"#utility.yul\":7110:7161   */\n      tag_425\n      jump\t// in\n    tag_588:\n        /* \"#utility.yul\":6992:7167   */\n      swap3\n      swap2\n      pop\n      pop\n      jump\t// out\n        /* \"#utility.yul\":7173:8190   */\n    tag_33:\n        /* \"#utility.yul\":7305:7311   */\n      0x00\n        /* \"#utility.yul\":7313:7319   */\n      dup1\n        /* \"#utility.yul\":7321:7327   */\n      0x00\n        /* \"#utility.yul\":7329:7335   */\n      dup1\n        /* \"#utility.yul\":7378:7381   */\n      0x80\n        /* \"#utility.yul\":7366:7375   */\n      dup6\n        /* \"#utility.yul\":7357:7364   */\n      dup8\n        /* \"#utility.yul\":7353:7376   */\n      sub\n        /* \"#utility.yul\":7349:7382   */\n      slt\n        /* \"#utility.yul\":7346:7466   */\n      iszero\n      tag_590\n      jumpi\n        /* \"#utility.yul\":7385:7464   */\n      tag_591\n      tag_395\n      jump\t// in\n    tag_591:\n        /* \"#utility.yul\":7346:7466   */\n    tag_590:\n        /* \"#utility.yul\":7505:7506   */\n      0x00\n        /* \"#utility.yul\":7530:7583   */\n      tag_592\n        /* \"#utility.yul\":7575:7582   */\n      dup8\n        /* \"#utility.yul\":7566:7572   */\n      dup3\n        /* \"#utility.yul\":7555:7564   */\n      dup9\n        /* \"#utility.yul\":7551:7573   */\n      add\n        /* \"#utility.yul\":7530:7583   */\n      tag_399\n      jump\t// in\n    tag_592:\n        /* \"#utility.yul\":7520:7583   */\n      swap5\n      pop\n        /* \"#utility.yul\":7476:7593   */\n      pop\n        /* \"#utility.yul\":7660:7662   */\n      0x20\n        /* \"#utility.yul\":7649:7658   */\n      dup6\n        /* \"#utility.yul\":7645:7663   */\n      add\n        /* \"#utility.yul\":7632:7664   */\n      calldataload\n        /* \"#utility.yul\":7691:7709   */\n      0xffffffffffffffff\n        /* \"#utility.yul\":7683:7689   */\n      dup2\n        /* \"#utility.yul\":7680:7710   */\n      gt\n        /* \"#utility.yul\":7677:7794   */\n      iszero\n      tag_593\n      jumpi\n        /* \"#utility.yul\":7713:7792   */\n      tag_594\n      tag_396\n      jump\t// in\n    tag_594:\n        /* \"#utility.yul\":7677:7794   */\n    tag_593:\n        /* \"#utility.yul\":7818:7881   */\n      tag_595\n        /* \"#utility.yul\":7873:7880   */\n      dup8\n        /* \"#utility.yul\":7864:7870   */\n      dup3\n        /* \"#utility.yul\":7853:7862   */\n      dup9\n        /* \"#utility.yul\":7849:7871   */\n      add\n        /* \"#utility.yul\":7818:7881   */\n      tag_422\n      jump\t// in\n    tag_595:\n        /* \"#utility.yul\":7808:7881   */\n      swap4\n      pop\n        /* \"#utility.yul\":7603:7891   */\n      pop\n        /* \"#utility.yul\":7930:7932   */\n      0x40\n        /* \"#utility.yul\":7956:8027   */\n      tag_596\n        /* \"#utility.yul\":8019:8026   */\n      dup8\n        /* \"#utility.yul\":8010:8016   */\n      dup3\n        /* \"#utility.yul\":7999:8008   */\n      dup9\n        /* \"#utility.yul\":7995:8017   */\n      add\n        /* \"#utility.yul\":7956:8027   */\n      tag_424\n      jump\t// in\n    tag_596:\n        /* \"#utility.yul\":7946:8027   */\n      swap3\n      pop\n        /* \"#utility.yul\":7901:8037   */\n      pop\n        /* \"#utility.yul\":8076:8078   */\n      0x60\n        /* \"#utility.yul\":8102:8173   */\n      tag_597\n        /* \"#utility.yul\":8165:8172   */\n      dup8\n        /* \"#utility.yul\":8156:8162   */\n      dup3\n        /* \"#utility.yul\":8145:8154   */\n      dup9\n        /* \"#utility.yul\":8141:8163   */\n      add\n        /* \"#utility.yul\":8102:8173   */\n      tag_426\n      jump\t// in\n    tag_597:\n        /* \"#utility.yul\":8092:8173   */\n      swap2\n      pop\n        /* \"#utility.yul\":8047:8183   */\n      pop\n        /* \"#utility.yul\":7173:8190   */\n      swap3\n      swap6\n      swap2\n      swap5\n      pop\n      swap3\n      pop\n      jump\t// out\n        /* \"#utility.yul\":8196:8322   */\n    tag_427:\n        /* \"#utility.yul\":8233:8240   */\n      0x00\n        /* \"#utility.yul\":8273:8315   */\n      0xffffffffffffffffffffffffffffffffffffffff\n        /* \"#utility.yul\":8266:8271   */\n      dup3\n        /* \"#utility.yul\":8262:8316   */\n      and\n        /* \"#utility.yul\":8251:8316   */\n      swap1\n      pop\n        /* \"#utility.yul\":8196:8322   */\n      swap2\n      swap1\n      pop\n      jump\t// out\n        /* \"#utility.yul\":8328:8424   */\n    tag_428:\n        /* \"#utility.yul\":8365:8372   */\n      0x00\n        /* \"#utility.yul\":8394:8418   */\n      tag_600\n        /* \"#utility.yul\":8412:8417   */\n      dup3\n        /* \"#utility.yul\":8394:8418   */\n      tag_427\n      jump\t// in\n    tag_600:\n        /* \"#utility.yul\":8383:8418   */\n      swap1\n      pop\n        /* \"#utility.yul\":8328:8424   */\n      swap2\n      swap1\n      pop\n      jump\t// out\n        /* \"#utility.yul\":8430:8552   */\n    tag_429:\n        /* \"#utility.yul\":8503:8527   */\n      tag_602\n        /* \"#utility.yul\":8521:8526   */\n      dup2\n        /* \"#utility.yul\":8503:8527   */\n      tag_428\n      jump\t// in\n    tag_602:\n        /* \"#utility.yul\":8496:8501   */\n      dup2\n        /* \"#utility.yul\":8493:8528   */\n      eq\n        /* \"#utility.yul\":8483:8546   */\n      tag_603\n      jumpi\n        /* \"#utility.yul\":8542:8543   */\n      0x00\n        /* \"#utility.yul\":8539:8540   */\n      dup1\n        /* \"#utility.yul\":8532:8544   */\n      revert\n        /* \"#utility.yul\":8483:8546   */\n    tag_603:\n        /* \"#utility.yul\":8430:8552   */\n      pop\n      jump\t// out\n        /* \"#utility.yul\":8558:8697   */\n    tag_430:\n        /* \"#utility.yul\":8604:8609   */\n      0x00\n        /* \"#utility.yul\":8642:8648   */\n      dup2\n        /* \"#utility.yul\":8629:8649   */\n      calldataload\n        /* \"#utility.yul\":8620:8649   */\n      swap1\n      pop\n        /* \"#utility.yul\":8658:8691   */\n      tag_605\n        /* \"#utility.yul\":8685:8690   */\n      dup2\n        /* \"#utility.yul\":8658:8691   */\n      tag_429\n      jump\t// in\n    tag_605:\n        /* \"#utility.yul\":8558:8697   */\n      swap3\n      swap2\n      pop\n      pop\n      jump\t// out\n        /* \"#utility.yul\":8703:9032   */\n    tag_37:\n        /* \"#utility.yul\":8762:8768   */\n      0x00\n        /* \"#utility.yul\":8811:8813   */\n      0x20\n        /* \"#utility.yul\":8799:8808   */\n      dup3\n        /* \"#utility.yul\":8790:8797   */\n      dup5\n        /* \"#utility.yul\":8786:8809   */\n      sub\n        /* \"#utility.yul\":8782:8814   */\n      slt\n        /* \"#utility.yul\":8779:8898   */\n      iszero\n      tag_607\n      jumpi\n        /* \"#utility.yul\":8817:8896   */\n      tag_608\n      tag_395\n      jump\t// in\n    tag_608:\n        /* \"#utility.yul\":8779:8898   */\n    tag_607:\n        /* \"#utility.yul\":8937:8938   */\n      0x00\n        /* \"#utility.yul\":8962:9015   */\n      tag_609\n        /* \"#utility.yul\":9007:9014   */\n      dup5\n        /* \"#utility.yul\":8998:9004   */\n      dup3\n        /* \"#utility.yul\":8987:8996   */\n      dup6\n        /* \"#utility.yul\":8983:9005   */\n      add\n        /* \"#utility.yul\":8962:9015   */\n      tag_430\n      jump\t// in\n    tag_609:\n        /* \"#utility.yul\":8952:9015   */\n      swap2\n      pop\n        /* \"#utility.yul\":8908:9025   */\n      pop\n        /* \"#utility.yul\":8703:9032   */\n      swap3\n      swap2\n      pop\n      pop\n      jump\t// out\n        /* \"#utility.yul\":9038:9156   */\n    tag_431:\n        /* \"#utility.yul\":9125:9149   */\n      tag_611\n        /* \"#utility.yul\":9143:9148   */\n      dup2\n        /* \"#utility.yul\":9125:9149   */\n      tag_397\n      jump\t// in\n    tag_611:\n        /* \"#utility.yul\":9120:9123   */\n      dup3\n        /* \"#utility.yul\":9113:9150   */\n      mstore\n        /* \"#utility.yul\":9038:9156   */\n      pop\n      pop\n      jump\t// out\n        /* \"#utility.yul\":9162:10400   */\n    tag_40:\n        /* \"#utility.yul\":9497:9501   */\n      0x00\n        /* \"#utility.yul\":9535:9538   */\n      0xe0\n        /* \"#utility.yul\":9524:9533   */\n      dup3\n        /* \"#utility.yul\":9520:9539   */\n      add\n        /* \"#utility.yul\":9512:9539   */\n      swap1\n      pop\n        /* \"#utility.yul\":9585:9594   */\n      dup2\n        /* \"#utility.yul\":9579:9583   */\n      dup2\n        /* \"#utility.yul\":9575:9595   */\n      sub\n        /* \"#utility.yul\":9571:9572   */\n      0x00\n        /* \"#utility.yul\":9560:9569   */\n      dup4\n        /* \"#utility.yul\":9556:9573   */\n      add\n        /* \"#utility.yul\":9549:9596   */\n      mstore\n        /* \"#utility.yul\":9613:9691   */\n      tag_613\n        /* \"#utility.yul\":9686:9690   */\n      dup2\n        /* \"#utility.yul\":9677:9683   */\n      dup11\n        /* \"#utility.yul\":9613:9691   */\n      tag_404\n      jump\t// in\n    tag_613:\n        /* \"#utility.yul\":9605:9691   */\n      swap1\n      pop\n        /* \"#utility.yul\":9738:9747   */\n      dup2\n        /* \"#utility.yul\":9732:9736   */\n      dup2\n        /* \"#utility.yul\":9728:9748   */\n      sub\n        /* \"#utility.yul\":9723:9725   */\n      0x20\n        /* \"#utility.yul\":9712:9721   */\n      dup4\n        /* \"#utility.yul\":9708:9726   */\n      add\n        /* \"#utility.yul\":9701:9749   */\n      mstore\n        /* \"#utility.yul\":9766:9844   */\n      tag_614\n        /* \"#utility.yul\":9839:9843   */\n      dup2\n        /* \"#utility.yul\":9830:9836   */\n      dup10\n        /* \"#utility.yul\":9766:9844   */\n      tag_404\n      jump\t// in\n    tag_614:\n        /* \"#utility.yul\":9758:9844   */\n      swap1\n      pop\n        /* \"#utility.yul\":9891:9900   */\n      dup2\n        /* \"#utility.yul\":9885:9889   */\n      dup2\n        /* \"#utility.yul\":9881:9901   */\n      sub\n        /* \"#utility.yul\":9876:9878   */\n      0x40\n        /* \"#utility.yul\":9865:9874   */\n      dup4\n        /* \"#utility.yul\":9861:9879   */\n      add\n        /* \"#utility.yul\":9854:9902   */\n      mstore\n        /* \"#utility.yul\":9919:9997   */\n      tag_615\n        /* \"#utility.yul\":9992:9996   */\n      dup2\n        /* \"#utility.yul\":9983:9989   */\n      dup9\n        /* \"#utility.yul\":9919:9997   */\n      tag_404\n      jump\t// in\n    tag_615:\n        /* \"#utility.yul\":9911:9997   */\n      swap1\n      pop\n        /* \"#utility.yul\":10044:10053   */\n      dup2\n        /* \"#utility.yul\":10038:10042   */\n      dup2\n        /* \"#utility.yul\":10034:10054   */\n      sub\n        /* \"#utility.yul\":10029:10031   */\n      0x60\n        /* \"#utility.yul\":10018:10027   */\n      dup4\n        /* \"#utility.yul\":10014:10032   */\n      add\n        /* \"#utility.yul\":10007:10055   */\n      mstore\n        /* \"#utility.yul\":10072:10150   */\n      tag_616\n        /* \"#utility.yul\":10145:10149   */\n      dup2\n        /* \"#utility.yul\":10136:10142   */\n      dup8\n        /* \"#utility.yul\":10072:10150   */\n      tag_404\n      jump\t// in\n    tag_616:\n        /* \"#utility.yul\":10064:10150   */\n      swap1\n      pop\n        /* \"#utility.yul\":10160:10233   */\n      tag_617\n        /* \"#utility.yul\":10228:10231   */\n      0x80\n        /* \"#utility.yul\":10217:10226   */\n      dup4\n        /* \"#utility.yul\":10213:10232   */\n      add\n        /* \"#utility.yul\":10204:10210   */\n      dup7\n        /* \"#utility.yul\":10160:10233   */\n      tag_431\n      jump\t// in\n    tag_617:\n        /* \"#utility.yul\":10243:10316   */\n      tag_618\n        /* \"#utility.yul\":10311:10314   */\n      0xa0\n        /* \"#utility.yul\":10300:10309   */\n      dup4\n        /* \"#utility.yul\":10296:10315   */\n      add\n        /* \"#utility.yul\":10287:10293   */\n      dup6\n        /* \"#utility.yul\":10243:10316   */\n      tag_431\n      jump\t// in\n    tag_618:\n        /* \"#utility.yul\":10326:10393   */\n      tag_619\n        /* \"#utility.yul\":10388:10391   */\n      0xc0\n        /* \"#utility.yul\":10377:10386   */\n      dup4\n        /* \"#utility.yul\":10373:10392   */\n      add\n        /* \"#utility.yul\":10364:10370   */\n      dup5\n        /* \"#utility.yul\":10326:10393   */\n      tag_406\n      jump\t// in\n    tag_619:\n        /* \"#utility.yul\":9162:10400   */\n      swap9\n      swap8\n      pop\n      pop\n      pop\n      pop\n      pop\n      pop\n      pop\n      pop\n      jump\t// out\n        /* \"#utility.yul\":10406:10526   */\n    tag_432:\n        /* \"#utility.yul\":10494:10495   */\n      0x05\n        /* \"#utility.yul\":10487:10492   */\n      dup2\n        /* \"#utility.yul\":10484:10496   */\n      lt\n        /* \"#utility.yul\":10474:10520   */\n      tag_621\n      jumpi\n        /* \"#utility.yul\":10500:10518   */\n      tag_622\n      tag_125\n      jump\t// in\n    tag_622:\n        /* \"#utility.yul\":10474:10520   */\n    tag_621:\n        /* \"#utility.yul\":10406:10526   */\n      pop\n      jump\t// out\n        /* \"#utility.yul\":10532:10673   */\n    tag_433:\n        /* \"#utility.yul\":10584:10591   */\n      0x00\n        /* \"#utility.yul\":10613:10618   */\n      dup2\n        /* \"#utility.yul\":10602:10618   */\n      swap1\n      pop\n        /* \"#utility.yul\":10619:10667   */\n      tag_624\n        /* \"#utility.yul\":10661:10666   */\n      dup3\n        /* \"#utility.yul\":10619:10667   */\n      tag_432\n      jump\t// in\n    tag_624:\n        /* \"#utility.yul\":10532:10673   */\n      swap2\n      swap1\n      pop\n      jump\t// out\n        /* \"#utility.yul\":10679:10820   */\n    tag_434:\n        /* \"#utility.yul\":10742:10751   */\n      0x00\n        /* \"#utility.yul\":10775:10814   */\n      tag_626\n        /* \"#utility.yul\":10808:10813   */\n      dup3\n        /* \"#utility.yul\":10775:10814   */\n      tag_433\n      jump\t// in\n    tag_626:\n        /* \"#utility.yul\":10762:10814   */\n      swap1\n      pop\n        /* \"#utility.yul\":10679:10820   */\n      swap2\n      swap1\n      pop\n      jump\t// out\n        /* \"#utility.yul\":10826:10983   */\n    tag_435:\n        /* \"#utility.yul\":10926:10976   */\n      tag_628\n        /* \"#utility.yul\":10970:10975   */\n      dup2\n        /* \"#utility.yul\":10926:10976   */\n      tag_434\n      jump\t// in\n    tag_628:\n        /* \"#utility.yul\":10921:10924   */\n      dup3\n        /* \"#utility.yul\":10914:10977   */\n      mstore\n        /* \"#utility.yul\":10826:10983   */\n      pop\n      pop\n      jump\t// out\n        /* \"#utility.yul\":10989:11237   */\n    tag_45:\n        /* \"#utility.yul\":11095:11099   */\n      0x00\n        /* \"#utility.yul\":11133:11135   */\n      0x20\n        /* \"#utility.yul\":11122:11131   */\n      dup3\n        /* \"#utility.yul\":11118:11136   */\n      add\n        /* \"#utility.yul\":11110:11136   */\n      swap1\n      pop\n        /* \"#utility.yul\":11146:11230   */\n      tag_630\n        /* \"#utility.yul\":11227:11228   */\n      0x00\n        /* \"#utility.yul\":11216:11225   */\n      dup4\n        /* \"#utility.yul\":11212:11229   */\n      add\n        /* \"#utility.yul\":11203:11209   */\n      dup5\n        /* \"#utility.yul\":11146:11230   */\n      tag_435\n      jump\t// in\n    tag_630:\n        /* \"#utility.yul\":10989:11237   */\n      swap3\n      swap2\n      pop\n      pop\n      jump\t// out\n        /* \"#utility.yul\":11243:12042   */\n    tag_48:\n        /* \"#utility.yul\":11330:11336   */\n      0x00\n        /* \"#utility.yul\":11338:11344   */\n      dup1\n        /* \"#utility.yul\":11346:11352   */\n      0x00\n        /* \"#utility.yul\":11395:11397   */\n      0x60\n        /* \"#utility.yul\":11383:11392   */\n      dup5\n        /* \"#utility.yul\":11374:11381   */\n      dup7\n        /* \"#utility.yul\":11370:11393   */\n      sub\n        /* \"#utility.yul\":11366:11398   */\n      slt\n        /* \"#utility.yul\":11363:11482   */\n      iszero\n      tag_632\n      jumpi\n        /* \"#utility.yul\":11401:11480   */\n      tag_633\n      tag_395\n      jump\t// in\n    tag_633:\n        /* \"#utility.yul\":11363:11482   */\n    tag_632:\n        /* \"#utility.yul\":11549:11550   */\n      0x00\n        /* \"#utility.yul\":11538:11547   */\n      dup5\n        /* \"#utility.yul\":11534:11551   */\n      add\n        /* \"#utility.yul\":11521:11552   */\n      calldataload\n        /* \"#utility.yul\":11579:11597   */\n      0xffffffffffffffff\n        /* \"#utility.yul\":11571:11577   */\n      dup2\n        /* \"#utility.yul\":11568:11598   */\n      gt\n        /* \"#utility.yul\":11565:11682   */\n      iszero\n      tag_634\n      jumpi\n        /* \"#utility.yul\":11601:11680   */\n      tag_635\n      tag_396\n      jump\t// in\n    tag_635:\n        /* \"#utility.yul\":11565:11682   */\n    tag_634:\n        /* \"#utility.yul\":11706:11769   */\n      tag_636\n        /* \"#utility.yul\":11761:11768   */\n      dup7\n        /* \"#utility.yul\":11752:11758   */\n      dup3\n        /* \"#utility.yul\":11741:11750   */\n      dup8\n        /* \"#utility.yul\":11737:11759   */\n      add\n        /* \"#utility.yul\":11706:11769   */\n      tag_422\n      jump\t// in\n    tag_636:\n        /* \"#utility.yul\":11696:11769   */\n      swap4\n      pop\n        /* \"#utility.yul\":11492:11779   */\n      pop\n        /* \"#utility.yul\":11818:11820   */\n      0x20\n        /* \"#utility.yul\":11844:11897   */\n      tag_637\n        /* \"#utility.yul\":11889:11896   */\n      dup7\n        /* \"#utility.yul\":11880:11886   */\n      dup3\n        /* \"#utility.yul\":11869:11878   */\n      dup8\n        /* \"#utility.yul\":11865:11887   */\n      add\n        /* \"#utility.yul\":11844:11897   */\n      tag_430\n      jump\t// in\n    tag_637:\n        /* \"#utility.yul\":11834:11897   */\n      swap3\n      pop\n        /* \"#utility.yul\":11789:11907   */\n      pop\n        /* \"#utility.yul\":11946:11948   */\n      0x40\n        /* \"#utility.yul\":11972:12025   */\n      tag_638\n        /* \"#utility.yul\":12017:12024   */\n      dup7\n        /* \"#utility.yul\":12008:12014   */\n      dup3\n        /* \"#utility.yul\":11997:12006   */\n      dup8\n        /* \"#utility.yul\":11993:12015   */\n      add\n        /* \"#utility.yul\":11972:12025   */\n      tag_399\n      jump\t// in\n    tag_638:\n        /* \"#utility.yul\":11962:12025   */\n      swap2\n      pop\n        /* \"#utility.yul\":11917:12035   */\n      pop\n        /* \"#utility.yul\":11243:12042   */\n      swap3\n      pop\n      swap3\n      pop\n      swap3\n      jump\t// out\n        /* \"#utility.yul\":12048:12270   */\n    tag_51:\n        /* \"#utility.yul\":12141:12145   */\n      0x00\n        /* \"#utility.yul\":12179:12181   */\n      0x20\n        /* \"#utility.yul\":12168:12177   */\n      dup3\n        /* \"#utility.yul\":12164:12182   */\n      add\n        /* \"#utility.yul\":12156:12182   */\n      swap1\n      pop\n        /* \"#utility.yul\":12192:12263   */\n      tag_640\n        /* \"#utility.yul\":12260:12261   */\n      0x00\n        /* \"#utility.yul\":12249:12258   */\n      dup4\n        /* \"#utility.yul\":12245:12262   */\n      add\n        /* \"#utility.yul\":12236:12242   */\n      dup5\n        /* \"#utility.yul\":12192:12263   */\n      tag_431\n      jump\t// in\n    tag_640:\n        /* \"#utility.yul\":12048:12270   */\n      swap3\n      swap2\n      pop\n      pop\n      jump\t// out\n        /* \"#utility.yul\":12276:13221   */\n    tag_54:\n        /* \"#utility.yul\":12372:12378   */\n      0x00\n        /* \"#utility.yul\":12380:12386   */\n      dup1\n        /* \"#utility.yul\":12388:12394   */\n      0x00\n        /* \"#utility.yul\":12396:12402   */\n      dup1\n        /* \"#utility.yul\":12445:12448   */\n      0x80\n        /* \"#utility.yul\":12433:12442   */\n      dup6\n        /* \"#utility.yul\":12424:12431   */\n      dup8\n        /* \"#utility.yul\":12420:12443   */\n      sub\n        /* \"#utility.yul\":12416:12449   */\n      slt\n        /* \"#utility.yul\":12413:12533   */\n      iszero\n      tag_642\n      jumpi\n        /* \"#utility.yul\":12452:12531   */\n      tag_643\n      tag_395\n      jump\t// in\n    tag_643:\n        /* \"#utility.yul\":12413:12533   */\n    tag_642:\n        /* \"#utility.yul\":12600:12601   */\n      0x00\n        /* \"#utility.yul\":12589:12598   */\n      dup6\n        /* \"#utility.yul\":12585:12602   */\n      add\n        /* \"#utility.yul\":12572:12603   */\n      calldataload\n        /* \"#utility.yul\":12630:12648   */\n      0xffffffffffffffff\n        /* \"#utility.yul\":12622:12628   */\n      dup2\n        /* \"#utility.yul\":12619:12649   */\n      gt\n        /* \"#utility.yul\":12616:12733   */\n      iszero\n      tag_644\n      jumpi\n        /* \"#utility.yul\":12652:12731   */\n      tag_645\n      tag_396\n      jump\t// in\n    tag_645:\n        /* \"#utility.yul\":12616:12733   */\n    tag_644:\n        /* \"#utility.yul\":12757:12820   */\n      tag_646\n        /* \"#utility.yul\":12812:12819   */\n      dup8\n        /* \"#utility.yul\":12803:12809   */\n      dup3\n        /* \"#utility.yul\":12792:12801   */\n      dup9\n        /* \"#utility.yul\":12788:12810   */\n      add\n        /* \"#utility.yul\":12757:12820   */\n      tag_422\n      jump\t// in\n    tag_646:\n        /* \"#utility.yul\":12747:12820   */\n      swap5\n      pop\n        /* \"#utility.yul\":12543:12830   */\n      pop\n        /* \"#utility.yul\":12869:12871   */\n      0x20\n        /* \"#utility.yul\":12895:12948   */\n      tag_647\n        /* \"#utility.yul\":12940:12947   */\n      dup8\n        /* \"#utility.yul\":12931:12937   */\n      dup3\n        /* \"#utility.yul\":12920:12929   */\n      dup9\n        /* \"#utility.yul\":12916:12938   */\n      add\n        /* \"#utility.yul\":12895:12948   */\n      tag_399\n      jump\t// in\n    tag_647:\n        /* \"#utility.yul\":12885:12948   */\n      swap4\n      pop\n        /* \"#utility.yul\":12840:12958   */\n      pop\n        /* \"#utility.yul\":12997:12999   */\n      0x40\n        /* \"#utility.yul\":13023:13076   */\n      tag_648\n        /* \"#utility.yul\":13068:13075   */\n      dup8\n        /* \"#utility.yul\":13059:13065   */\n      dup3\n        /* \"#utility.yul\":13048:13057   */\n      dup9\n        /* \"#utility.yul\":13044:13066   */\n      add\n        /* \"#utility.yul\":13023:13076   */\n      tag_399\n      jump\t// in\n    tag_648:\n        /* \"#utility.yul\":13013:13076   */\n      swap3\n      pop\n        /* \"#utility.yul\":12968:13086   */\n      pop\n        /* \"#utility.yul\":13125:13127   */\n      0x60\n        /* \"#utility.yul\":13151:13204   */\n      tag_649\n        /* \"#utility.yul\":13196:13203   */\n      dup8\n        /* \"#utility.yul\":13187:13193   */\n      dup3\n        /* \"#utility.yul\":13176:13185   */\n      dup9\n        /* \"#utility.yul\":13172:13194   */\n      add\n        /* \"#utility.yul\":13151:13204   */\n      tag_399\n      jump\t// in\n    tag_649:\n        /* \"#utility.yul\":13141:13204   */\n      swap2\n      pop\n        /* \"#utility.yul\":13096:13214   */\n      pop\n        /* \"#utility.yul\":12276:13221   */\n      swap3\n      swap6\n      swap2\n      swap5\n      pop\n      swap3\n      pop\n      jump\t// out\n        /* \"#utility.yul\":13227:13881   */\n    tag_58:\n        /* \"#utility.yul\":13305:13311   */\n      0x00\n        /* \"#utility.yul\":13313:13319   */\n      dup1\n        /* \"#utility.yul\":13362:13364   */\n      0x40\n        /* \"#utility.yul\":13350:13359   */\n      dup4\n        /* \"#utility.yul\":13341:13348   */\n      dup6\n        /* \"#utility.yul\":13337:13360   */\n      sub\n        /* \"#utility.yul\":13333:13365   */\n      slt\n        /* \"#utility.yul\":13330:13449   */\n      iszero\n      tag_651\n      jumpi\n        /* \"#utility.yul\":13368:13447   */\n      tag_652\n      tag_395\n      jump\t// in\n    tag_652:\n        /* \"#utility.yul\":13330:13449   */\n    tag_651:\n        /* \"#utility.yul\":13488:13489   */\n      0x00\n        /* \"#utility.yul\":13513:13566   */\n      tag_653\n        /* \"#utility.yul\":13558:13565   */\n      dup6\n        /* \"#utility.yul\":13549:13555   */\n      dup3\n        /* \"#utility.yul\":13538:13547   */\n      dup7\n        /* \"#utility.yul\":13534:13556   */\n      add\n        /* \"#utility.yul\":13513:13566   */\n      tag_430\n      jump\t// in\n    tag_653:\n        /* \"#utility.yul\":13503:13566   */\n      swap3\n      pop\n        /* \"#utility.yul\":13459:13576   */\n      pop\n        /* \"#utility.yul\":13643:13645   */\n      0x20\n        /* \"#utility.yul\":13632:13641   */\n      dup4\n        /* \"#utility.yul\":13628:13646   */\n      add\n        /* \"#utility.yul\":13615:13647   */\n      calldataload\n        /* \"#utility.yul\":13674:13692   */\n      0xffffffffffffffff\n        /* \"#utility.yul\":13666:13672   */\n      dup2\n        /* \"#utility.yul\":13663:13693   */\n      gt\n        /* \"#utility.yul\":13660:13777   */\n      iszero\n      tag_654\n      jumpi\n        /* \"#utility.yul\":13696:13775   */\n      tag_655\n      tag_396\n      jump\t// in\n    tag_655:\n        /* \"#utility.yul\":13660:13777   */\n    tag_654:\n        /* \"#utility.yul\":13801:13864   */\n      tag_656\n        /* \"#utility.yul\":13856:13863   */\n      dup6\n        /* \"#utility.yul\":13847:13853   */\n      dup3\n        /* \"#utility.yul\":13836:13845   */\n      dup7\n        /* \"#utility.yul\":13832:13854   */\n      add\n        /* \"#utility.yul\":13801:13864   */\n      tag_422\n      jump\t// in\n    tag_656:\n        /* \"#utility.yul\":13791:13864   */\n      swap2\n      pop\n        /* \"#utility.yul\":13586:13874   */\n      pop\n        /* \"#utility.yul\":13227:13881   */\n      swap3\n      pop\n      swap3\n      swap1\n      pop\n      jump\t// out\n        /* \"#utility.yul\":13887:14025   */\n    tag_436:\n        /* \"#utility.yul\":13978:13984   */\n      0x00\n        /* \"#utility.yul\":14012:14017   */\n      dup2\n        /* \"#utility.yul\":14006:14018   */\n      mload\n        /* \"#utility.yul\":13996:14018   */\n      swap1\n      pop\n        /* \"#utility.yul\":13887:14025   */\n      swap2\n      swap1\n      pop\n      jump\t// out\n        /* \"#utility.yul\":14031:14239   */\n    tag_437:\n        /* \"#utility.yul\":14154:14165   */\n      0x00\n        /* \"#utility.yul\":14188:14194   */\n      dup3\n        /* \"#utility.yul\":14183:14186   */\n      dup3\n        /* \"#utility.yul\":14176:14195   */\n      mstore\n        /* \"#utility.yul\":14228:14232   */\n      0x20\n        /* \"#utility.yul\":14223:14226   */\n      dup3\n        /* \"#utility.yul\":14219:14233   */\n      add\n        /* \"#utility.yul\":14204:14233   */\n      swap1\n      pop\n        /* \"#utility.yul\":14031:14239   */\n      swap3\n      swap2\n      pop\n      pop\n      jump\t// out\n        /* \"#utility.yul\":14245:14401   */\n    tag_438:\n        /* \"#utility.yul\":14336:14340   */\n      0x00\n        /* \"#utility.yul\":14359:14362   */\n      dup2\n        /* \"#utility.yul\":14351:14362   */\n      swap1\n      pop\n        /* \"#utility.yul\":14389:14393   */\n      0x20\n        /* \"#utility.yul\":14384:14387   */\n      dup3\n        /* \"#utility.yul\":14380:14394   */\n      add\n        /* \"#utility.yul\":14372:14394   */\n      swap1\n      pop\n        /* \"#utility.yul\":14245:14401   */\n      swap2\n      swap1\n      pop\n      jump\t// out\n        /* \"#utility.yul\":14407:14566   */\n    tag_439:\n        /* \"#utility.yul\":14481:14492   */\n      0x00\n        /* \"#utility.yul\":14515:14521   */\n      dup3\n        /* \"#utility.yul\":14510:14513   */\n      dup3\n        /* \"#utility.yul\":14503:14522   */\n      mstore\n        /* \"#utility.yul\":14555:14559   */\n      0x20\n        /* \"#utility.yul\":14550:14553   */\n      dup3\n        /* \"#utility.yul\":14546:14560   */\n      add\n        /* \"#utility.yul\":14531:14560   */\n      swap1\n      pop\n        /* \"#utility.yul\":14407:14566   */\n      swap3\n      swap2\n      pop\n      pop\n      jump\t// out\n        /* \"#utility.yul\":14572:14929   */\n    tag_440:\n        /* \"#utility.yul\":14650:14653   */\n      0x00\n        /* \"#utility.yul\":14678:14717   */\n      tag_662\n        /* \"#utility.yul\":14711:14716   */\n      dup3\n        /* \"#utility.yul\":14678:14717   */\n      tag_400\n      jump\t// in\n    tag_662:\n        /* \"#utility.yul\":14733:14794   */\n      tag_663\n        /* \"#utility.yul\":14787:14793   */\n      dup2\n        /* \"#utility.yul\":14782:14785   */\n      dup6\n        /* \"#utility.yul\":14733:14794   */\n      tag_439\n      jump\t// in\n    tag_663:\n        /* \"#utility.yul\":14726:14794   */\n      swap4\n      pop\n        /* \"#utility.yul\":14803:14868   */\n      tag_664\n        /* \"#utility.yul\":14861:14867   */\n      dup2\n        /* \"#utility.yul\":14856:14859   */\n      dup6\n        /* \"#utility.yul\":14849:14853   */\n      0x20\n        /* \"#utility.yul\":14842:14847   */\n      dup7\n        /* \"#utility.yul\":14838:14854   */\n      add\n        /* \"#utility.yul\":14803:14868   */\n      tag_402\n      jump\t// in\n    tag_664:\n        /* \"#utility.yul\":14893:14922   */\n      tag_665\n        /* \"#utility.yul\":14915:14921   */\n      dup2\n        /* \"#utility.yul\":14893:14922   */\n      tag_403\n      jump\t// in\n    tag_665:\n        /* \"#utility.yul\":14888:14891   */\n      dup5\n        /* \"#utility.yul\":14884:14923   */\n      add\n        /* \"#utility.yul\":14877:14923   */\n      swap2\n      pop\n        /* \"#utility.yul\":14654:14929   */\n      pop\n        /* \"#utility.yul\":14572:14929   */\n      swap3\n      swap2\n      pop\n      pop\n      jump\t// out\n        /* \"#utility.yul\":14935:15034   */\n    tag_441:\n        /* \"#utility.yul\":15006:15027   */\n      tag_667\n        /* \"#utility.yul\":15021:15026   */\n      dup2\n        /* \"#utility.yul\":15006:15027   */\n      tag_405\n      jump\t// in\n    tag_667:\n        /* \"#utility.yul\":15001:15004   */\n      dup3\n        /* \"#utility.yul\":14994:15028   */\n      mstore\n        /* \"#utility.yul\":14935:15034   */\n      pop\n      pop\n      jump\t// out\n        /* \"#utility.yul\":15040:15193   */\n    tag_442:\n        /* \"#utility.yul\":15133:15186   */\n      tag_669\n        /* \"#utility.yul\":15180:15185   */\n      dup2\n        /* \"#utility.yul\":15133:15186   */\n      tag_409\n      jump\t// in\n    tag_669:\n        /* \"#utility.yul\":15128:15131   */\n      dup3\n        /* \"#utility.yul\":15121:15187   */\n      mstore\n        /* \"#utility.yul\":15040:15193   */\n      pop\n      pop\n      jump\t// out\n        /* \"#utility.yul\":15199:15352   */\n    tag_443:\n        /* \"#utility.yul\":15292:15345   */\n      tag_671\n        /* \"#utility.yul\":15339:15344   */\n      dup2\n        /* \"#utility.yul\":15292:15345   */\n      tag_413\n      jump\t// in\n    tag_671:\n        /* \"#utility.yul\":15287:15290   */\n      dup3\n        /* \"#utility.yul\":15280:15346   */\n      mstore\n        /* \"#utility.yul\":15199:15352   */\n      pop\n      pop\n      jump\t// out\n        /* \"#utility.yul\":15442:16601   */\n    tag_444:\n        /* \"#utility.yul\":15549:15552   */\n      0x00\n        /* \"#utility.yul\":15585:15589   */\n      0xa0\n        /* \"#utility.yul\":15580:15583   */\n      dup4\n        /* \"#utility.yul\":15576:15590   */\n      add\n        /* \"#utility.yul\":15672:15676   */\n      0x00\n        /* \"#utility.yul\":15665:15670   */\n      dup4\n        /* \"#utility.yul\":15661:15677   */\n      add\n        /* \"#utility.yul\":15655:15678   */\n      mload\n        /* \"#utility.yul\":15725:15728   */\n      dup5\n        /* \"#utility.yul\":15719:15723   */\n      dup3\n        /* \"#utility.yul\":15715:15729   */\n      sub\n        /* \"#utility.yul\":15708:15712   */\n      0x00\n        /* \"#utility.yul\":15703:15706   */\n      dup7\n        /* \"#utility.yul\":15699:15713   */\n      add\n        /* \"#utility.yul\":15692:15730   */\n      mstore\n        /* \"#utility.yul\":15751:15824   */\n      tag_673\n        /* \"#utility.yul\":15819:15823   */\n      dup3\n        /* \"#utility.yul\":15805:15817   */\n      dup3\n        /* \"#utility.yul\":15751:15824   */\n      tag_440\n      jump\t// in\n    tag_673:\n        /* \"#utility.yul\":15743:15824   */\n      swap2\n      pop\n        /* \"#utility.yul\":15600:15835   */\n      pop\n        /* \"#utility.yul\":15928:15932   */\n      0x20\n        /* \"#utility.yul\":15921:15926   */\n      dup4\n        /* \"#utility.yul\":15917:15933   */\n      add\n        /* \"#utility.yul\":15911:15934   */\n      mload\n        /* \"#utility.yul\":15947:16004   */\n      tag_674\n        /* \"#utility.yul\":15998:16002   */\n      0x20\n        /* \"#utility.yul\":15993:15996   */\n      dup7\n        /* \"#utility.yul\":15989:16003   */\n      add\n        /* \"#utility.yul\":15975:15987   */\n      dup3\n        /* \"#utility.yul\":15947:16004   */\n      tag_441\n      jump\t// in\n    tag_674:\n        /* \"#utility.yul\":15845:16014   */\n      pop\n        /* \"#utility.yul\":16098:16102   */\n      0x40\n        /* \"#utility.yul\":16091:16096   */\n      dup4\n        /* \"#utility.yul\":16087:16103   */\n      add\n        /* \"#utility.yul\":16081:16104   */\n      mload\n        /* \"#utility.yul\":16117:16196   */\n      tag_675\n        /* \"#utility.yul\":16190:16194   */\n      0x40\n        /* \"#utility.yul\":16185:16188   */\n      dup7\n        /* \"#utility.yul\":16181:16195   */\n      add\n        /* \"#utility.yul\":16167:16179   */\n      dup3\n        /* \"#utility.yul\":16117:16196   */\n      tag_442\n      jump\t// in\n    tag_675:\n        /* \"#utility.yul\":16024:16206   */\n      pop\n        /* \"#utility.yul\":16296:16300   */\n      0x60\n        /* \"#utility.yul\":16289:16294   */\n      dup4\n        /* \"#utility.yul\":16285:16301   */\n      add\n        /* \"#utility.yul\":16279:16302   */\n      mload\n        /* \"#utility.yul\":16315:16394   */\n      tag_676\n        /* \"#utility.yul\":16388:16392   */\n      0x60\n        /* \"#utility.yul\":16383:16386   */\n      dup7\n        /* \"#utility.yul\":16379:16393   */\n      add\n        /* \"#utility.yul\":16365:16377   */\n      dup3\n        /* \"#utility.yul\":16315:16394   */\n      tag_443\n      jump\t// in\n    tag_676:\n        /* \"#utility.yul\":16216:16404   */\n      pop\n        /* \"#utility.yul\":16488:16492   */\n      0x80\n        /* \"#utility.yul\":16481:16486   */\n      dup4\n        /* \"#utility.yul\":16477:16493   */\n      add\n        /* \"#utility.yul\":16471:16494   */\n      mload\n        /* \"#utility.yul\":16507:16564   */\n      tag_677\n        /* \"#utility.yul\":16558:16562   */\n      0x80\n        /* \"#utility.yul\":16553:16556   */\n      dup7\n        /* \"#utility.yul\":16549:16563   */\n      add\n        /* \"#utility.yul\":16535:16547   */\n      dup3\n        /* \"#utility.yul\":16507:16564   */\n      tag_441\n      jump\t// in\n    tag_677:\n        /* \"#utility.yul\":16414:16574   */\n      pop\n        /* \"#utility.yul\":16591:16595   */\n      dup1\n        /* \"#utility.yul\":16584:16595   */\n      swap2\n      pop\n        /* \"#utility.yul\":15554:16601   */\n      pop\n        /* \"#utility.yul\":15442:16601   */\n      swap3\n      swap2\n      pop\n      pop\n      jump\t// out\n        /* \"#utility.yul\":16607:16859   */\n    tag_445:\n        /* \"#utility.yul\":16724:16734   */\n      0x00\n        /* \"#utility.yul\":16759:16853   */\n      tag_679\n        /* \"#utility.yul\":16849:16852   */\n      dup4\n        /* \"#utility.yul\":16841:16847   */\n      dup4\n        /* \"#utility.yul\":16759:16853   */\n      tag_444\n      jump\t// in\n    tag_679:\n        /* \"#utility.yul\":16745:16853   */\n      swap1\n      pop\n        /* \"#utility.yul\":16607:16859   */\n      swap3\n      swap2\n      pop\n      pop\n      jump\t// out\n        /* \"#utility.yul\":16865:17002   */\n    tag_446:\n        /* \"#utility.yul\":16959:16963   */\n      0x00\n        /* \"#utility.yul\":16991:16995   */\n      0x20\n        /* \"#utility.yul\":16986:16989   */\n      dup3\n        /* \"#utility.yul\":16982:16996   */\n      add\n        /* \"#utility.yul\":16974:16996   */\n      swap1\n      pop\n        /* \"#utility.yul\":16865:17002   */\n      swap2\n      swap1\n      pop\n      jump\t// out\n        /* \"#utility.yul\":17096:18199   */\n    tag_447:\n        /* \"#utility.yul\":17263:17266   */\n      0x00\n        /* \"#utility.yul\":17292:17370   */\n      tag_682\n        /* \"#utility.yul\":17364:17369   */\n      dup3\n        /* \"#utility.yul\":17292:17370   */\n      tag_436\n      jump\t// in\n    tag_682:\n        /* \"#utility.yul\":17386:17496   */\n      tag_683\n        /* \"#utility.yul\":17489:17495   */\n      dup2\n        /* \"#utility.yul\":17484:17487   */\n      dup6\n        /* \"#utility.yul\":17386:17496   */\n      tag_437\n      jump\t// in\n    tag_683:\n        /* \"#utility.yul\":17379:17496   */\n      swap4\n      pop\n        /* \"#utility.yul\":17522:17525   */\n      dup4\n        /* \"#utility.yul\":17567:17571   */\n      0x20\n        /* \"#utility.yul\":17559:17565   */\n      dup3\n        /* \"#utility.yul\":17555:17572   */\n      mul\n        /* \"#utility.yul\":17550:17553   */\n      dup6\n        /* \"#utility.yul\":17546:17573   */\n      add\n        /* \"#utility.yul\":17597:17677   */\n      tag_684\n        /* \"#utility.yul\":17671:17676   */\n      dup6\n        /* \"#utility.yul\":17597:17677   */\n      tag_438\n      jump\t// in\n    tag_684:\n        /* \"#utility.yul\":17700:17707   */\n      dup1\n        /* \"#utility.yul\":17731:17732   */\n      0x00\n        /* \"#utility.yul\":17716:18154   */\n    tag_685:\n        /* \"#utility.yul\":17741:17747   */\n      dup6\n        /* \"#utility.yul\":17738:17739   */\n      dup2\n        /* \"#utility.yul\":17735:17748   */\n      lt\n        /* \"#utility.yul\":17716:18154   */\n      iszero\n      tag_687\n      jumpi\n        /* \"#utility.yul\":17812:17821   */\n      dup5\n        /* \"#utility.yul\":17806:17810   */\n      dup5\n        /* \"#utility.yul\":17802:17822   */\n      sub\n        /* \"#utility.yul\":17797:17800   */\n      dup10\n        /* \"#utility.yul\":17790:17823   */\n      mstore\n        /* \"#utility.yul\":17863:17869   */\n      dup2\n        /* \"#utility.yul\":17857:17870   */\n      mload\n        /* \"#utility.yul\":17891:18003   */\n      tag_688\n        /* \"#utility.yul\":17998:18002   */\n      dup6\n        /* \"#utility.yul\":17983:17996   */\n      dup3\n        /* \"#utility.yul\":17891:18003   */\n      tag_445\n      jump\t// in\n    tag_688:\n        /* \"#utility.yul\":17883:18003   */\n      swap5\n      pop\n        /* \"#utility.yul\":18026:18110   */\n      tag_689\n        /* \"#utility.yul\":18103:18109   */\n      dup4\n        /* \"#utility.yul\":18026:18110   */\n      tag_446\n      jump\t// in\n    tag_689:\n        /* \"#utility.yul\":18016:18110   */\n      swap3\n      pop\n        /* \"#utility.yul\":18139:18143   */\n      0x20\n        /* \"#utility.yul\":18134:18137   */\n      dup11\n        /* \"#utility.yul\":18130:18144   */\n      add\n        /* \"#utility.yul\":18123:18144   */\n      swap10\n      pop\n        /* \"#utility.yul\":17776:18154   */\n      pop\n        /* \"#utility.yul\":17763:17764   */\n      0x01\n        /* \"#utility.yul\":17760:17761   */\n      dup2\n        /* \"#utility.yul\":17756:17765   */\n      add\n        /* \"#utility.yul\":17751:17765   */\n      swap1\n      pop\n        /* \"#utility.yul\":17716:18154   */\n      jump(tag_685)\n    tag_687:\n        /* \"#utility.yul\":17720:17734   */\n      pop\n        /* \"#utility.yul\":18170:18174   */\n      dup3\n        /* \"#utility.yul\":18163:18174   */\n      swap8\n      pop\n        /* \"#utility.yul\":18190:18193   */\n      dup8\n        /* \"#utility.yul\":18183:18193   */\n      swap6\n      pop\n        /* \"#utility.yul\":17268:18199   */\n      pop\n      pop\n      pop\n      pop\n      pop\n        /* \"#utility.yul\":17096:18199   */\n      swap3\n      swap2\n      pop\n      pop\n      jump\t// out\n        /* \"#utility.yul\":18205:18674   */\n    tag_61:\n        /* \"#utility.yul\":18396:18400   */\n      0x00\n        /* \"#utility.yul\":18434:18436   */\n      0x20\n        /* \"#utility.yul\":18423:18432   */\n      dup3\n        /* \"#utility.yul\":18419:18437   */\n      add\n        /* \"#utility.yul\":18411:18437   */\n      swap1\n      pop\n        /* \"#utility.yul\":18483:18492   */\n      dup2\n        /* \"#utility.yul\":18477:18481   */\n      dup2\n        /* \"#utility.yul\":18473:18493   */\n      sub\n        /* \"#utility.yul\":18469:18470   */\n      0x00\n        /* \"#utility.yul\":18458:18467   */\n      dup4\n        /* \"#utility.yul\":18454:18471   */\n      add\n        /* \"#utility.yul\":18447:18494   */\n      mstore\n        /* \"#utility.yul\":18511:18667   */\n      tag_691\n        /* \"#utility.yul\":18662:18666   */\n      dup2\n        /* \"#utility.yul\":18653:18659   */\n      dup5\n        /* \"#utility.yul\":18511:18667   */\n      tag_447\n      jump\t// in\n    tag_691:\n        /* \"#utility.yul\":18503:18667   */\n      swap1\n      pop\n        /* \"#utility.yul\":18205:18674   */\n      swap3\n      swap2\n      pop\n      pop\n      jump\t// out\n        /* \"#utility.yul\":18680:19154   */\n    tag_67:\n        /* \"#utility.yul\":18748:18754   */\n      0x00\n        /* \"#utility.yul\":18756:18762   */\n      dup1\n        /* \"#utility.yul\":18805:18807   */\n      0x40\n        /* \"#utility.yul\":18793:18802   */\n      dup4\n        /* \"#utility.yul\":18784:18791   */\n      dup6\n        /* \"#utility.yul\":18780:18803   */\n      sub\n        /* \"#utility.yul\":18776:18808   */\n      slt\n        /* \"#utility.yul\":18773:18892   */\n      iszero\n      tag_693\n      jumpi\n        /* \"#utility.yul\":18811:18890   */\n      tag_694\n      tag_395\n      jump\t// in\n    tag_694:\n        /* \"#utility.yul\":18773:18892   */\n    tag_693:\n        /* \"#utility.yul\":18931:18932   */\n      0x00\n        /* \"#utility.yul\":18956:19009   */\n      tag_695\n        /* \"#utility.yul\":19001:19008   */\n      dup6\n        /* \"#utility.yul\":18992:18998   */\n      dup3\n        /* \"#utility.yul\":18981:18990   */\n      dup7\n        /* \"#utility.yul\":18977:18999   */\n      add\n        /* \"#utility.yul\":18956:19009   */\n      tag_430\n      jump\t// in\n    tag_695:\n        /* \"#utility.yul\":18946:19009   */\n      swap3\n      pop\n        /* \"#utility.yul\":18902:19019   */\n      pop\n        /* \"#utility.yul\":19058:19060   */\n      0x20\n        /* \"#utility.yul\":19084:19137   */\n      tag_696\n        /* \"#utility.yul\":19129:19136   */\n      dup6\n        /* \"#utility.yul\":19120:19126   */\n      dup3\n        /* \"#utility.yul\":19109:19118   */\n      dup7\n        /* \"#utility.yul\":19105:19127   */\n      add\n        /* \"#utility.yul\":19084:19137   */\n      tag_399\n      jump\t// in\n    tag_696:\n        /* \"#utility.yul\":19074:19137   */\n      swap2\n      pop\n        /* \"#utility.yul\":19029:19147   */\n      pop\n        /* \"#utility.yul\":18680:19154   */\n      swap3\n      pop\n      swap3\n      swap1\n      pop\n      jump\t// out\n        /* \"#utility.yul\":19160:19634   */\n    tag_71:\n        /* \"#utility.yul\":19228:19234   */\n      0x00\n        /* \"#utility.yul\":19236:19242   */\n      dup1\n        /* \"#utility.yul\":19285:19287   */\n      0x40\n        /* \"#utility.yul\":19273:19282   */\n      dup4\n        /* \"#utility.yul\":19264:19271   */\n      dup6\n        /* \"#utility.yul\":19260:19283   */\n      sub\n        /* \"#utility.yul\":19256:19288   */\n      slt\n        /* \"#utility.yul\":19253:19372   */\n      iszero\n      tag_698\n      jumpi\n        /* \"#utility.yul\":19291:19370   */\n      tag_699\n      tag_395\n      jump\t// in\n    tag_699:\n        /* \"#utility.yul\":19253:19372   */\n    tag_698:\n        /* \"#utility.yul\":19411:19412   */\n      0x00\n        /* \"#utility.yul\":19436:19489   */\n      tag_700\n        /* \"#utility.yul\":19481:19488   */\n      dup6\n        /* \"#utility.yul\":19472:19478   */\n      dup3\n        /* \"#utility.yul\":19461:19470   */\n      dup7\n        /* \"#utility.yul\":19457:19479   */\n      add\n        /* \"#utility.yul\":19436:19489   */\n      tag_430\n      jump\t// in\n    tag_700:\n        /* \"#utility.yul\":19426:19489   */\n      swap3\n      pop\n        /* \"#utility.yul\":19382:19499   */\n      pop\n        /* \"#utility.yul\":19538:19540   */\n      0x20\n        /* \"#utility.yul\":19564:19617   */\n      tag_701\n        /* \"#utility.yul\":19609:19616   */\n      dup6\n        /* \"#utility.yul\":19600:19606   */\n      dup3\n        /* \"#utility.yul\":19589:19598   */\n      dup7\n        /* \"#utility.yul\":19585:19607   */\n      add\n        /* \"#utility.yul\":19564:19617   */\n      tag_430\n      jump\t// in\n    tag_701:\n        /* \"#utility.yul\":19554:19617   */\n      swap2\n      pop\n        /* \"#utility.yul\":19509:19627   */\n      pop\n        /* \"#utility.yul\":19160:19634   */\n      swap3\n      pop\n      swap3\n      swap1\n      pop\n      jump\t// out\n        /* \"#utility.yul\":19640:20477   */\n    tag_76:\n        /* \"#utility.yul\":19762:19768   */\n      0x00\n        /* \"#utility.yul\":19770:19776   */\n      dup1\n        /* \"#utility.yul\":19778:19784   */\n      0x00\n        /* \"#utility.yul\":19786:19792   */\n      dup1\n        /* \"#utility.yul\":19835:19838   */\n      0x80\n        /* \"#utility.yul\":19823:19832   */\n      dup6\n        /* \"#utility.yul\":19814:19821   */\n      dup8\n        /* \"#utility.yul\":19810:19833   */\n      sub\n        /* \"#utility.yul\":19806:19839   */\n      slt\n        /* \"#utility.yul\":19803:19923   */\n      iszero\n      tag_703\n      jumpi\n        /* \"#utility.yul\":19842:19921   */\n      tag_704\n      tag_395\n      jump\t// in\n    tag_704:\n        /* \"#utility.yul\":19803:19923   */\n    tag_703:\n        /* \"#utility.yul\":19962:19963   */\n      0x00\n        /* \"#utility.yul\":19987:20040   */\n      tag_705\n        /* \"#utility.yul\":20032:20039   */\n      dup8\n        /* \"#utility.yul\":20023:20029   */\n      dup3\n        /* \"#utility.yul\":20012:20021   */\n      dup9\n        /* \"#utility.yul\":20008:20030   */\n      add\n        /* \"#utility.yul\":19987:20040   */\n      tag_430\n      jump\t// in\n    tag_705:\n        /* \"#utility.yul\":19977:20040   */\n      swap5\n      pop\n        /* \"#utility.yul\":19933:20050   */\n      pop\n        /* \"#utility.yul\":20089:20091   */\n      0x20\n        /* \"#utility.yul\":20115:20168   */\n      tag_706\n        /* \"#utility.yul\":20160:20167   */\n      dup8\n        /* \"#utility.yul\":20151:20157   */\n      dup3\n        /* \"#utility.yul\":20140:20149   */\n      dup9\n        /* \"#utility.yul\":20136:20158   */\n      add\n        /* \"#utility.yul\":20115:20168   */\n      tag_399\n      jump\t// in\n    tag_706:\n        /* \"#utility.yul\":20105:20168   */\n      swap4\n      pop\n        /* \"#utility.yul\":20060:20178   */\n      pop\n        /* \"#utility.yul\":20217:20219   */\n      0x40\n        /* \"#utility.yul\":20243:20314   */\n      tag_707\n        /* \"#utility.yul\":20306:20313   */\n      dup8\n        /* \"#utility.yul\":20297:20303   */\n      dup3\n        /* \"#utility.yul\":20286:20295   */\n      dup9\n        /* \"#utility.yul\":20282:20304   */\n      add\n        /* \"#utility.yul\":20243:20314   */\n      tag_424\n      jump\t// in\n    tag_707:\n        /* \"#utility.yul\":20233:20314   */\n      swap3\n      pop\n        /* \"#utility.yul\":20188:20324   */\n      pop\n        /* \"#utility.yul\":20363:20365   */\n      0x60\n        /* \"#utility.yul\":20389:20460   */\n      tag_708\n        /* \"#utility.yul\":20452:20459   */\n      dup8\n        /* \"#utility.yul\":20443:20449   */\n      dup3\n        /* \"#utility.yul\":20432:20441   */\n      dup9\n        /* \"#utility.yul\":20428:20450   */\n      add\n        /* \"#utility.yul\":20389:20460   */\n      tag_426\n      jump\t// in\n    tag_708:\n        /* \"#utility.yul\":20379:20460   */\n      swap2\n      pop\n        /* \"#utility.yul\":20334:20470   */\n      pop\n        /* \"#utility.yul\":19640:20477   */\n      swap3\n      swap6\n      swap2\n      swap5\n      pop\n      swap3\n      pop\n      jump\t// out\n        /* \"#utility.yul\":20483:20620   */\n    tag_448:\n        /* \"#utility.yul\":20573:20579   */\n      0x00\n        /* \"#utility.yul\":20607:20612   */\n      dup2\n        /* \"#utility.yul\":20601:20613   */\n      mload\n        /* \"#utility.yul\":20591:20613   */\n      swap1\n      pop\n        /* \"#utility.yul\":20483:20620   */\n      swap2\n      swap1\n      pop\n      jump\t// out\n        /* \"#utility.yul\":20626:20833   */\n    tag_449:\n        /* \"#utility.yul\":20748:20759   */\n      0x00\n        /* \"#utility.yul\":20782:20788   */\n      dup3\n        /* \"#utility.yul\":20777:20780   */\n      dup3\n        /* \"#utility.yul\":20770:20789   */\n      mstore\n        /* \"#utility.yul\":20822:20826   */\n      0x20\n        /* \"#utility.yul\":20817:20820   */\n      dup3\n        /* \"#utility.yul\":20813:20827   */\n      add\n        /* \"#utility.yul\":20798:20827   */\n      swap1\n      pop\n        /* \"#utility.yul\":20626:20833   */\n      swap3\n      swap2\n      pop\n      pop\n      jump\t// out\n        /* \"#utility.yul\":20839:20994   */\n    tag_450:\n        /* \"#utility.yul\":20929:20933   */\n      0x00\n        /* \"#utility.yul\":20952:20955   */\n      dup2\n        /* \"#utility.yul\":20944:20955   */\n      swap1\n      pop\n        /* \"#utility.yul\":20982:20986   */\n      0x20\n        /* \"#utility.yul\":20977:20980   */\n      dup3\n        /* \"#utility.yul\":20973:20987   */\n      add\n        /* \"#utility.yul\":20965:20987   */\n      swap1\n      pop\n        /* \"#utility.yul\":20839:20994   */\n      swap2\n      swap1\n      pop\n      jump\t// out\n        /* \"#utility.yul\":21000:21122   */\n    tag_451:\n        /* \"#utility.yul\":21090:21091   */\n      0x06\n        /* \"#utility.yul\":21083:21088   */\n      dup2\n        /* \"#utility.yul\":21080:21092   */\n      lt\n        /* \"#utility.yul\":21070:21116   */\n      tag_713\n      jumpi\n        /* \"#utility.yul\":21096:21114   */\n      tag_714\n      tag_125\n      jump\t// in\n    tag_714:\n        /* \"#utility.yul\":21070:21116   */\n    tag_713:\n        /* \"#utility.yul\":21000:21122   */\n      pop\n      jump\t// out\n        /* \"#utility.yul\":21128:21273   */\n    tag_452:\n        /* \"#utility.yul\":21182:21189   */\n      0x00\n        /* \"#utility.yul\":21211:21216   */\n      dup2\n        /* \"#utility.yul\":21200:21216   */\n      swap1\n      pop\n        /* \"#utility.yul\":21217:21267   */\n      tag_716\n        /* \"#utility.yul\":21261:21266   */\n      dup3\n        /* \"#utility.yul\":21217:21267   */\n      tag_451\n      jump\t// in\n    tag_716:\n        /* \"#utility.yul\":21128:21273   */\n      swap2\n      swap1\n      pop\n      jump\t// out\n        /* \"#utility.yul\":21279:21424   */\n    tag_453:\n        /* \"#utility.yul\":21344:21353   */\n      0x00\n        /* \"#utility.yul\":21377:21418   */\n      tag_718\n        /* \"#utility.yul\":21412:21417   */\n      dup3\n        /* \"#utility.yul\":21377:21418   */\n      tag_452\n      jump\t// in\n    tag_718:\n        /* \"#utility.yul\":21364:21418   */\n      swap1\n      pop\n        /* \"#utility.yul\":21279:21424   */\n      swap2\n      swap1\n      pop\n      jump\t// out\n        /* \"#utility.yul\":21430:21581   */\n    tag_454:\n        /* \"#utility.yul\":21522:21574   */\n      tag_720\n        /* \"#utility.yul\":21568:21573   */\n      dup2\n        /* \"#utility.yul\":21522:21574   */\n      tag_453\n      jump\t// in\n    tag_720:\n        /* \"#utility.yul\":21517:21520   */\n      dup3\n        /* \"#utility.yul\":21510:21575   */\n      mstore\n        /* \"#utility.yul\":21430:21581   */\n      pop\n      pop\n      jump\t// out\n        /* \"#utility.yul\":21669:22286   */\n    tag_455:\n        /* \"#utility.yul\":21774:21777   */\n      0x00\n        /* \"#utility.yul\":21810:21814   */\n      0x40\n        /* \"#utility.yul\":21805:21808   */\n      dup4\n        /* \"#utility.yul\":21801:21815   */\n      add\n        /* \"#utility.yul\":21897:21901   */\n      0x00\n        /* \"#utility.yul\":21890:21895   */\n      dup4\n        /* \"#utility.yul\":21886:21902   */\n      add\n        /* \"#utility.yul\":21880:21903   */\n      mload\n        /* \"#utility.yul\":21950:21953   */\n      dup5\n        /* \"#utility.yul\":21944:21948   */\n      dup3\n        /* \"#utility.yul\":21940:21954   */\n      sub\n        /* \"#utility.yul\":21933:21937   */\n      0x00\n        /* \"#utility.yul\":21928:21931   */\n      dup7\n        /* \"#utility.yul\":21924:21938   */\n      add\n        /* \"#utility.yul\":21917:21955   */\n      mstore\n        /* \"#utility.yul\":21976:22049   */\n      tag_722\n        /* \"#utility.yul\":22044:22048   */\n      dup3\n        /* \"#utility.yul\":22030:22042   */\n      dup3\n        /* \"#utility.yul\":21976:22049   */\n      tag_440\n      jump\t// in\n    tag_722:\n        /* \"#utility.yul\":21968:22049   */\n      swap2\n      pop\n        /* \"#utility.yul\":21825:22060   */\n      pop\n        /* \"#utility.yul\":22152:22156   */\n      0x20\n        /* \"#utility.yul\":22145:22150   */\n      dup4\n        /* \"#utility.yul\":22141:22157   */\n      add\n        /* \"#utility.yul\":22135:22158   */\n      mload\n        /* \"#utility.yul\":22171:22249   */\n      tag_723\n        /* \"#utility.yul\":22243:22247   */\n      0x20\n        /* \"#utility.yul\":22238:22241   */\n      dup7\n        /* \"#utility.yul\":22234:22248   */\n      add\n        /* \"#utility.yul\":22220:22232   */\n      dup3\n        /* \"#utility.yul\":22171:22249   */\n      tag_454\n      jump\t// in\n    tag_723:\n        /* \"#utility.yul\":22070:22259   */\n      pop\n        /* \"#utility.yul\":22276:22280   */\n      dup1\n        /* \"#utility.yul\":22269:22280   */\n      swap2\n      pop\n        /* \"#utility.yul\":21779:22286   */\n      pop\n        /* \"#utility.yul\":21669:22286   */\n      swap3\n      swap2\n      pop\n      pop\n      jump\t// out\n        /* \"#utility.yul\":22292:22540   */\n    tag_456:\n        /* \"#utility.yul\":22407:22417   */\n      0x00\n        /* \"#utility.yul\":22442:22534   */\n      tag_725\n        /* \"#utility.yul\":22530:22533   */\n      dup4\n        /* \"#utility.yul\":22522:22528   */\n      dup4\n        /* \"#utility.yul\":22442:22534   */\n      tag_455\n      jump\t// in\n    tag_725:\n        /* \"#utility.yul\":22428:22534   */\n      swap1\n      pop\n        /* \"#utility.yul\":22292:22540   */\n      swap3\n      swap2\n      pop\n      pop\n      jump\t// out\n        /* \"#utility.yul\":22546:22682   */\n    tag_457:\n        /* \"#utility.yul\":22639:22643   */\n      0x00\n        /* \"#utility.yul\":22671:22675   */\n      0x20\n        /* \"#utility.yul\":22666:22669   */\n      dup3\n        /* \"#utility.yul\":22662:22676   */\n      add\n        /* \"#utility.yul\":22654:22676   */\n      swap1\n      pop\n        /* \"#utility.yul\":22546:22682   */\n      swap2\n      swap1\n      pop\n      jump\t// out\n        /* \"#utility.yul\":22774:23869   */\n    tag_458:\n        /* \"#utility.yul\":22939:22942   */\n      0x00\n        /* \"#utility.yul\":22968:23045   */\n      tag_728\n        /* \"#utility.yul\":23039:23044   */\n      dup3\n        /* \"#utility.yul\":22968:23045   */\n      tag_448\n      jump\t// in\n    tag_728:\n        /* \"#utility.yul\":23061:23170   */\n      tag_729\n        /* \"#utility.yul\":23163:23169   */\n      dup2\n        /* \"#utility.yul\":23158:23161   */\n      dup6\n        /* \"#utility.yul\":23061:23170   */\n      tag_449\n      jump\t// in\n    tag_729:\n        /* \"#utility.yul\":23054:23170   */\n      swap4\n      pop\n        /* \"#utility.yul\":23196:23199   */\n      dup4\n        /* \"#utility.yul\":23241:23245   */\n      0x20\n        /* \"#utility.yul\":23233:23239   */\n      dup3\n        /* \"#utility.yul\":23229:23246   */\n      mul\n        /* \"#utility.yul\":23224:23227   */\n      dup6\n        /* \"#utility.yul\":23220:23247   */\n      add\n        /* \"#utility.yul\":23271:23350   */\n      tag_730\n        /* \"#utility.yul\":23344:23349   */\n      dup6\n        /* \"#utility.yul\":23271:23350   */\n      tag_450\n      jump\t// in\n    tag_730:\n        /* \"#utility.yul\":23373:23380   */\n      dup1\n        /* \"#utility.yul\":23404:23405   */\n      0x00\n        /* \"#utility.yul\":23389:23824   */\n    tag_731:\n        /* \"#utility.yul\":23414:23420   */\n      dup6\n        /* \"#utility.yul\":23411:23412   */\n      dup2\n        /* \"#utility.yul\":23408:23421   */\n      lt\n        /* \"#utility.yul\":23389:23824   */\n      iszero\n      tag_733\n      jumpi\n        /* \"#utility.yul\":23485:23494   */\n      dup5\n        /* \"#utility.yul\":23479:23483   */\n      dup5\n        /* \"#utility.yul\":23475:23495   */\n      sub\n        /* \"#utility.yul\":23470:23473   */\n      dup10\n        /* \"#utility.yul\":23463:23496   */\n      mstore\n        /* \"#utility.yul\":23536:23542   */\n      dup2\n        /* \"#utility.yul\":23530:23543   */\n      mload\n        /* \"#utility.yul\":23564:23674   */\n      tag_734\n        /* \"#utility.yul\":23669:23673   */\n      dup6\n        /* \"#utility.yul\":23654:23667   */\n      dup3\n        /* \"#utility.yul\":23564:23674   */\n      tag_456\n      jump\t// in\n    tag_734:\n        /* \"#utility.yul\":23556:23674   */\n      swap5\n      pop\n        /* \"#utility.yul\":23697:23780   */\n      tag_735\n        /* \"#utility.yul\":23773:23779   */\n      dup4\n        /* \"#utility.yul\":23697:23780   */\n      tag_457\n      jump\t// in\n    tag_735:\n        /* \"#utility.yul\":23687:23780   */\n      swap3\n      pop\n        /* \"#utility.yul\":23809:23813   */\n      0x20\n        /* \"#utility.yul\":23804:23807   */\n      dup11\n        /* \"#utility.yul\":23800:23814   */\n      add\n        /* \"#utility.yul\":23793:23814   */\n      swap10\n      pop\n        /* \"#utility.yul\":23449:23824   */\n      pop\n        /* \"#utility.yul\":23436:23437   */\n      0x01\n        /* \"#utility.yul\":23433:23434   */\n      dup2\n        /* \"#utility.yul\":23429:23438   */\n      add\n        /* \"#utility.yul\":23424:23438   */\n      swap1\n      pop\n        /* \"#utility.yul\":23389:23824   */\n      jump(tag_731)\n    tag_733:\n        /* \"#utility.yul\":23393:23407   */\n      pop\n        /* \"#utility.yul\":23840:23844   */\n      dup3\n        /* \"#utility.yul\":23833:23844   */\n      swap8\n      pop\n        /* \"#utility.yul\":23860:23863   */\n      dup8\n        /* \"#utility.yul\":23853:23863   */\n      swap6\n      pop\n        /* \"#utility.yul\":22944:23869   */\n      pop\n      pop\n      pop\n      pop\n      pop\n        /* \"#utility.yul\":22774:23869   */\n      swap3\n      swap2\n      pop\n      pop\n      jump\t// out\n        /* \"#utility.yul\":23875:24340   */\n    tag_82:\n        /* \"#utility.yul\":24064:24068   */\n      0x00\n        /* \"#utility.yul\":24102:24104   */\n      0x20\n        /* \"#utility.yul\":24091:24100   */\n      dup3\n        /* \"#utility.yul\":24087:24105   */\n      add\n        /* \"#utility.yul\":24079:24105   */\n      swap1\n      pop\n        /* \"#utility.yul\":24151:24160   */\n      dup2\n        /* \"#utility.yul\":24145:24149   */\n      dup2\n        /* \"#utility.yul\":24141:24161   */\n      sub\n        /* \"#utility.yul\":24137:24138   */\n      0x00\n        /* \"#utility.yul\":24126:24135   */\n      dup4\n        /* \"#utility.yul\":24122:24139   */\n      add\n        /* \"#utility.yul\":24115:24162   */\n      mstore\n        /* \"#utility.yul\":24179:24333   */\n      tag_737\n        /* \"#utility.yul\":24328:24332   */\n      dup2\n        /* \"#utility.yul\":24319:24325   */\n      dup5\n        /* \"#utility.yul\":24179:24333   */\n      tag_458\n      jump\t// in\n    tag_737:\n        /* \"#utility.yul\":24171:24333   */\n      swap1\n      pop\n        /* \"#utility.yul\":23875:24340   */\n      swap3\n      swap2\n      pop\n      pop\n      jump\t// out\n        /* \"#utility.yul\":24346:25145   */\n    tag_88:\n        /* \"#utility.yul\":24433:24439   */\n      0x00\n        /* \"#utility.yul\":24441:24447   */\n      dup1\n        /* \"#utility.yul\":24449:24455   */\n      0x00\n        /* \"#utility.yul\":24498:24500   */\n      0x60\n        /* \"#utility.yul\":24486:24495   */\n      dup5\n        /* \"#utility.yul\":24477:24484   */\n      dup7\n        /* \"#utility.yul\":24473:24496   */\n      sub\n        /* \"#utility.yul\":24469:24501   */\n      slt\n        /* \"#utility.yul\":24466:24585   */\n      iszero\n      tag_739\n      jumpi\n        /* \"#utility.yul\":24504:24583   */\n      tag_740\n      tag_395\n      jump\t// in\n    tag_740:\n        /* \"#utility.yul\":24466:24585   */\n    tag_739:\n        /* \"#utility.yul\":24624:24625   */\n      0x00\n        /* \"#utility.yul\":24649:24702   */\n      tag_741\n        /* \"#utility.yul\":24694:24701   */\n      dup7\n        /* \"#utility.yul\":24685:24691   */\n      dup3\n        /* \"#utility.yul\":24674:24683   */\n      dup8\n        /* \"#utility.yul\":24670:24692   */\n      add\n        /* \"#utility.yul\":24649:24702   */\n      tag_430\n      jump\t// in\n    tag_741:\n        /* \"#utility.yul\":24639:24702   */\n      swap4\n      pop\n        /* \"#utility.yul\":24595:24712   */\n      pop\n        /* \"#utility.yul\":24751:24753   */\n      0x20\n        /* \"#utility.yul\":24777:24830   */\n      tag_742\n        /* \"#utility.yul\":24822:24829   */\n      dup7\n        /* \"#utility.yul\":24813:24819   */\n      dup3\n        /* \"#utility.yul\":24802:24811   */\n      dup8\n        /* \"#utility.yul\":24798:24820   */\n      add\n        /* \"#utility.yul\":24777:24830   */\n      tag_399\n      jump\t// in\n    tag_742:\n        /* \"#utility.yul\":24767:24830   */\n      swap3\n      pop\n        /* \"#utility.yul\":24722:24840   */\n      pop\n        /* \"#utility.yul\":24907:24909   */\n      0x40\n        /* \"#utility.yul\":24896:24905   */\n      dup5\n        /* \"#utility.yul\":24892:24910   */\n      add\n        /* \"#utility.yul\":24879:24911   */\n      calldataload\n        /* \"#utility.yul\":24938:24956   */\n      0xffffffffffffffff\n        /* \"#utility.yul\":24930:24936   */\n      dup2\n        /* \"#utility.yul\":24927:24957   */\n      gt\n        /* \"#utility.yul\":24924:25041   */\n      iszero\n      tag_743\n      jumpi\n        /* \"#utility.yul\":24960:25039   */\n      tag_744\n      tag_396\n      jump\t// in\n    tag_744:\n        /* \"#utility.yul\":24924:25041   */\n    tag_743:\n        /* \"#utility.yul\":25065:25128   */\n      tag_745\n        /* \"#utility.yul\":25120:25127   */\n      dup7\n        /* \"#utility.yul\":25111:25117   */\n      dup3\n        /* \"#utility.yul\":25100:25109   */\n      dup8\n        /* \"#utility.yul\":25096:25118   */\n      add\n        /* \"#utility.yul\":25065:25128   */\n      tag_422\n      jump\t// in\n    tag_745:\n        /* \"#utility.yul\":25055:25128   */\n      swap2\n      pop\n        /* \"#utility.yul\":24850:25138   */\n      pop\n        /* \"#utility.yul\":24346:25145   */\n      swap3\n      pop\n      swap3\n      pop\n      swap3\n      jump\t// out\n        /* \"#utility.yul\":25151:25259   */\n    tag_459:\n        /* \"#utility.yul\":25228:25252   */\n      tag_747\n        /* \"#utility.yul\":25246:25251   */\n      dup2\n        /* \"#utility.yul\":25228:25252   */\n      tag_397\n      jump\t// in\n    tag_747:\n        /* \"#utility.yul\":25223:25226   */\n      dup3\n        /* \"#utility.yul\":25216:25253   */\n      mstore\n        /* \"#utility.yul\":25151:25259   */\n      pop\n      pop\n      jump\t// out\n        /* \"#utility.yul\":25345:27066   */\n    tag_460:\n        /* \"#utility.yul\":25458:25461   */\n      0x00\n        /* \"#utility.yul\":25494:25498   */\n      0xe0\n        /* \"#utility.yul\":25489:25492   */\n      dup4\n        /* \"#utility.yul\":25485:25499   */\n      add\n        /* \"#utility.yul\":25581:25585   */\n      0x00\n        /* \"#utility.yul\":25574:25579   */\n      dup4\n        /* \"#utility.yul\":25570:25586   */\n      add\n        /* \"#utility.yul\":25564:25587   */\n      mload\n        /* \"#utility.yul\":25634:25637   */\n      dup5\n        /* \"#utility.yul\":25628:25632   */\n      dup3\n        /* \"#utility.yul\":25624:25638   */\n      sub\n        /* \"#utility.yul\":25617:25621   */\n      0x00\n        /* \"#utility.yul\":25612:25615   */\n      dup7\n        /* \"#utility.yul\":25608:25622   */\n      add\n        /* \"#utility.yul\":25601:25639   */\n      mstore\n        /* \"#utility.yul\":25660:25733   */\n      tag_749\n        /* \"#utility.yul\":25728:25732   */\n      dup3\n        /* \"#utility.yul\":25714:25726   */\n      dup3\n        /* \"#utility.yul\":25660:25733   */\n      tag_440\n      jump\t// in\n    tag_749:\n        /* \"#utility.yul\":25652:25733   */\n      swap2\n      pop\n        /* \"#utility.yul\":25509:25744   */\n      pop\n        /* \"#utility.yul\":25835:25839   */\n      0x20\n        /* \"#utility.yul\":25828:25833   */\n      dup4\n        /* \"#utility.yul\":25824:25840   */\n      add\n        /* \"#utility.yul\":25818:25841   */\n      mload\n        /* \"#utility.yul\":25888:25891   */\n      dup5\n        /* \"#utility.yul\":25882:25886   */\n      dup3\n        /* \"#utility.yul\":25878:25892   */\n      sub\n        /* \"#utility.yul\":25871:25875   */\n      0x20\n        /* \"#utility.yul\":25866:25869   */\n      dup7\n        /* \"#utility.yul\":25862:25876   */\n      add\n        /* \"#utility.yul\":25855:25893   */\n      mstore\n        /* \"#utility.yul\":25914:25987   */\n      tag_750\n        /* \"#utility.yul\":25982:25986   */\n      dup3\n        /* \"#utility.yul\":25968:25980   */\n      dup3\n        /* \"#utility.yul\":25914:25987   */\n      tag_440\n      jump\t// in\n    tag_750:\n        /* \"#utility.yul\":25906:25987   */\n      swap2\n      pop\n        /* \"#utility.yul\":25754:25998   */\n      pop\n        /* \"#utility.yul\":26085:26089   */\n      0x40\n        /* \"#utility.yul\":26078:26083   */\n      dup4\n        /* \"#utility.yul\":26074:26090   */\n      add\n        /* \"#utility.yul\":26068:26091   */\n      mload\n        /* \"#utility.yul\":26138:26141   */\n      dup5\n        /* \"#utility.yul\":26132:26136   */\n      dup3\n        /* \"#utility.yul\":26128:26142   */\n      sub\n        /* \"#utility.yul\":26121:26125   */\n      0x40\n        /* \"#utility.yul\":26116:26119   */\n      dup7\n        /* \"#utility.yul\":26112:26126   */\n      add\n        /* \"#utility.yul\":26105:26143   */\n      mstore\n        /* \"#utility.yul\":26164:26237   */\n      tag_751\n        /* \"#utility.yul\":26232:26236   */\n      dup3\n        /* \"#utility.yul\":26218:26230   */\n      dup3\n        /* \"#utility.yul\":26164:26237   */\n      tag_440\n      jump\t// in\n    tag_751:\n        /* \"#utility.yul\":26156:26237   */\n      swap2\n      pop\n        /* \"#utility.yul\":26008:26248   */\n      pop\n        /* \"#utility.yul\":26340:26344   */\n      0x60\n        /* \"#utility.yul\":26333:26338   */\n      dup4\n        /* \"#utility.yul\":26329:26345   */\n      add\n        /* \"#utility.yul\":26323:26346   */\n      mload\n        /* \"#utility.yul\":26393:26396   */\n      dup5\n        /* \"#utility.yul\":26387:26391   */\n      dup3\n        /* \"#utility.yul\":26383:26397   */\n      sub\n        /* \"#utility.yul\":26376:26380   */\n      0x60\n        /* \"#utility.yul\":26371:26374   */\n      dup7\n        /* \"#utility.yul\":26367:26381   */\n      add\n        /* \"#utility.yul\":26360:26398   */\n      mstore\n        /* \"#utility.yul\":26419:26492   */\n      tag_752\n        /* \"#utility.yul\":26487:26491   */\n      dup3\n        /* \"#utility.yul\":26473:26485   */\n      dup3\n        /* \"#utility.yul\":26419:26492   */\n      tag_440\n      jump\t// in\n    tag_752:\n        /* \"#utility.yul\":26411:26492   */\n      swap2\n      pop\n        /* \"#utility.yul\":26258:26503   */\n      pop\n        /* \"#utility.yul\":26590:26594   */\n      0x80\n        /* \"#utility.yul\":26583:26588   */\n      dup4\n        /* \"#utility.yul\":26579:26595   */\n      add\n        /* \"#utility.yul\":26573:26596   */\n      mload\n        /* \"#utility.yul\":26609:26672   */\n      tag_753\n        /* \"#utility.yul\":26666:26670   */\n      0x80\n        /* \"#utility.yul\":26661:26664   */\n      dup7\n        /* \"#utility.yul\":26657:26671   */\n      add\n        /* \"#utility.yul\":26643:26655   */\n      dup3\n        /* \"#utility.yul\":26609:26672   */\n      tag_459\n      jump\t// in\n    tag_753:\n        /* \"#utility.yul\":26513:26682   */\n      pop\n        /* \"#utility.yul\":26777:26781   */\n      0xa0\n        /* \"#utility.yul\":26770:26775   */\n      dup4\n        /* \"#utility.yul\":26766:26782   */\n      add\n        /* \"#utility.yul\":26760:26783   */\n      mload\n        /* \"#utility.yul\":26796:26859   */\n      tag_754\n        /* \"#utility.yul\":26853:26857   */\n      0xa0\n        /* \"#utility.yul\":26848:26851   */\n      dup7\n        /* \"#utility.yul\":26844:26858   */\n      add\n        /* \"#utility.yul\":26830:26842   */\n      dup3\n        /* \"#utility.yul\":26796:26859   */\n      tag_459\n      jump\t// in\n    tag_754:\n        /* \"#utility.yul\":26692:26869   */\n      pop\n        /* \"#utility.yul\":26953:26957   */\n      0xc0\n        /* \"#utility.yul\":26946:26951   */\n      dup4\n        /* \"#utility.yul\":26942:26958   */\n      add\n        /* \"#utility.yul\":26936:26959   */\n      mload\n        /* \"#utility.yul\":26972:27029   */\n      tag_755\n        /* \"#utility.yul\":27023:27027   */\n      0xc0\n        /* \"#utility.yul\":27018:27021   */\n      dup7\n        /* \"#utility.yul\":27014:27028   */\n      add\n        /* \"#utility.yul\":27000:27012   */\n      dup3\n        /* \"#utility.yul\":26972:27029   */\n      tag_441\n      jump\t// in\n    tag_755:\n        /* \"#utility.yul\":26879:27039   */\n      pop\n        /* \"#utility.yul\":27056:27060   */\n      dup1\n        /* \"#utility.yul\":27049:27060   */\n      swap2\n      pop\n        /* \"#utility.yul\":25463:27066   */\n      pop\n        /* \"#utility.yul\":25345:27066   */\n      swap3\n      swap2\n      pop\n      pop\n      jump\t// out\n        /* \"#utility.yul\":27072:27433   */\n    tag_95:\n        /* \"#utility.yul\":27209:27213   */\n      0x00\n        /* \"#utility.yul\":27247:27249   */\n      0x20\n        /* \"#utility.yul\":27236:27245   */\n      dup3\n        /* \"#utility.yul\":27232:27250   */\n      add\n        /* \"#utility.yul\":27224:27250   */\n      swap1\n      pop\n        /* \"#utility.yul\":27296:27305   */\n      dup2\n        /* \"#utility.yul\":27290:27294   */\n      dup2\n        /* \"#utility.yul\":27286:27306   */\n      sub\n        /* \"#utility.yul\":27282:27283   */\n      0x00\n        /* \"#utility.yul\":27271:27280   */\n      dup4\n        /* \"#utility.yul\":27267:27284   */\n      add\n        /* \"#utility.yul\":27260:27307   */\n      mstore\n        /* \"#utility.yul\":27324:27426   */\n      tag_757\n        /* \"#utility.yul\":27421:27425   */\n      dup2\n        /* \"#utility.yul\":27412:27418   */\n      dup5\n        /* \"#utility.yul\":27324:27426   */\n      tag_460\n      jump\t// in\n    tag_757:\n        /* \"#utility.yul\":27316:27426   */\n      swap1\n      pop\n        /* \"#utility.yul\":27072:27433   */\n      swap3\n      swap2\n      pop\n      pop\n      jump\t// out\n        /* \"#utility.yul\":27523:28692   */\n    tag_461:\n        /* \"#utility.yul\":27640:27643   */\n      0x00\n        /* \"#utility.yul\":27676:27680   */\n      0xa0\n        /* \"#utility.yul\":27671:27674   */\n      dup4\n        /* \"#utility.yul\":27667:27681   */\n      add\n        /* \"#utility.yul\":27763:27767   */\n      0x00\n        /* \"#utility.yul\":27756:27761   */\n      dup4\n        /* \"#utility.yul\":27752:27768   */\n      add\n        /* \"#utility.yul\":27746:27769   */\n      mload\n        /* \"#utility.yul\":27816:27819   */\n      dup5\n        /* \"#utility.yul\":27810:27814   */\n      dup3\n        /* \"#utility.yul\":27806:27820   */\n      sub\n        /* \"#utility.yul\":27799:27803   */\n      0x00\n        /* \"#utility.yul\":27794:27797   */\n      dup7\n        /* \"#utility.yul\":27790:27804   */\n      add\n        /* \"#utility.yul\":27783:27821   */\n      mstore\n        /* \"#utility.yul\":27842:27915   */\n      tag_759\n        /* \"#utility.yul\":27910:27914   */\n      dup3\n        /* \"#utility.yul\":27896:27908   */\n      dup3\n        /* \"#utility.yul\":27842:27915   */\n      tag_440\n      jump\t// in\n    tag_759:\n        /* \"#utility.yul\":27834:27915   */\n      swap2\n      pop\n        /* \"#utility.yul\":27691:27926   */\n      pop\n        /* \"#utility.yul\":28019:28023   */\n      0x20\n        /* \"#utility.yul\":28012:28017   */\n      dup4\n        /* \"#utility.yul\":28008:28024   */\n      add\n        /* \"#utility.yul\":28002:28025   */\n      mload\n        /* \"#utility.yul\":28038:28095   */\n      tag_760\n        /* \"#utility.yul\":28089:28093   */\n      0x20\n        /* \"#utility.yul\":28084:28087   */\n      dup7\n        /* \"#utility.yul\":28080:28094   */\n      add\n        /* \"#utility.yul\":28066:28078   */\n      dup3\n        /* \"#utility.yul\":28038:28095   */\n      tag_441\n      jump\t// in\n    tag_760:\n        /* \"#utility.yul\":27936:28105   */\n      pop\n        /* \"#utility.yul\":28189:28193   */\n      0x40\n        /* \"#utility.yul\":28182:28187   */\n      dup4\n        /* \"#utility.yul\":28178:28194   */\n      add\n        /* \"#utility.yul\":28172:28195   */\n      mload\n        /* \"#utility.yul\":28208:28287   */\n      tag_761\n        /* \"#utility.yul\":28281:28285   */\n      0x40\n        /* \"#utility.yul\":28276:28279   */\n      dup7\n        /* \"#utility.yul\":28272:28286   */\n      add\n        /* \"#utility.yul\":28258:28270   */\n      dup3\n        /* \"#utility.yul\":28208:28287   */\n      tag_442\n      jump\t// in\n    tag_761:\n        /* \"#utility.yul\":28115:28297   */\n      pop\n        /* \"#utility.yul\":28387:28391   */\n      0x60\n        /* \"#utility.yul\":28380:28385   */\n      dup4\n        /* \"#utility.yul\":28376:28392   */\n      add\n        /* \"#utility.yul\":28370:28393   */\n      mload\n        /* \"#utility.yul\":28406:28485   */\n      tag_762\n        /* \"#utility.yul\":28479:28483   */\n      0x60\n        /* \"#utility.yul\":28474:28477   */\n      dup7\n        /* \"#utility.yul\":28470:28484   */\n      add\n        /* \"#utility.yul\":28456:28468   */\n      dup3\n        /* \"#utility.yul\":28406:28485   */\n      tag_443\n      jump\t// in\n    tag_762:\n        /* \"#utility.yul\":28307:28495   */\n      pop\n        /* \"#utility.yul\":28579:28583   */\n      0x80\n        /* \"#utility.yul\":28572:28577   */\n      dup4\n        /* \"#utility.yul\":28568:28584   */\n      add\n        /* \"#utility.yul\":28562:28585   */\n      mload\n        /* \"#utility.yul\":28598:28655   */\n      tag_763\n        /* \"#utility.yul\":28649:28653   */\n      0x80\n        /* \"#utility.yul\":28644:28647   */\n      dup7\n        /* \"#utility.yul\":28640:28654   */\n      add\n        /* \"#utility.yul\":28626:28638   */\n      dup3\n        /* \"#utility.yul\":28598:28655   */\n      tag_441\n      jump\t// in\n    tag_763:\n        /* \"#utility.yul\":28505:28665   */\n      pop\n        /* \"#utility.yul\":28682:28686   */\n      dup1\n        /* \"#utility.yul\":28675:28686   */\n      swap2\n      pop\n        /* \"#utility.yul\":27645:28692   */\n      pop\n        /* \"#utility.yul\":27523:28692   */\n      swap3\n      swap2\n      pop\n      pop\n      jump\t// out\n        /* \"#utility.yul\":28698:29067   */\n    tag_100:\n        /* \"#utility.yul\":28839:28843   */\n      0x00\n        /* \"#utility.yul\":28877:28879   */\n      0x20\n        /* \"#utility.yul\":28866:28875   */\n      dup3\n        /* \"#utility.yul\":28862:28880   */\n      add\n        /* \"#utility.yul\":28854:28880   */\n      swap1\n      pop\n        /* \"#utility.yul\":28926:28935   */\n      dup2\n        /* \"#utility.yul\":28920:28924   */\n      dup2\n        /* \"#utility.yul\":28916:28936   */\n      sub\n        /* \"#utility.yul\":28912:28913   */\n      0x00\n        /* \"#utility.yul\":28901:28910   */\n      dup4\n        /* \"#utility.yul\":28897:28914   */\n      add\n        /* \"#utility.yul\":28890:28937   */\n      mstore\n        /* \"#utility.yul\":28954:29060   */\n      tag_765\n        /* \"#utility.yul\":29055:29059   */\n      dup2\n        /* \"#utility.yul\":29046:29052   */\n      dup5\n        /* \"#utility.yul\":28954:29060   */\n      tag_461\n      jump\t// in\n    tag_765:\n        /* \"#utility.yul\":28946:29060   */\n      swap1\n      pop\n        /* \"#utility.yul\":28698:29067   */\n      swap3\n      swap2\n      pop\n      pop\n      jump\t// out\n        /* \"#utility.yul\":29073:29692   */\n    tag_103:\n        /* \"#utility.yul\":29150:29156   */\n      0x00\n        /* \"#utility.yul\":29158:29164   */\n      dup1\n        /* \"#utility.yul\":29166:29172   */\n      0x00\n        /* \"#utility.yul\":29215:29217   */\n      0x60\n        /* \"#utility.yul\":29203:29212   */\n      dup5\n        /* \"#utility.yul\":29194:29201   */\n      dup7\n        /* \"#utility.yul\":29190:29213   */\n      sub\n        /* \"#utility.yul\":29186:29218   */\n      slt\n        /* \"#utility.yul\":29183:29302   */\n      iszero\n      tag_767\n      jumpi\n        /* \"#utility.yul\":29221:29300   */\n      tag_768\n      tag_395\n      jump\t// in\n    tag_768:\n        /* \"#utility.yul\":29183:29302   */\n    tag_767:\n        /* \"#utility.yul\":29341:29342   */\n      0x00\n        /* \"#utility.yul\":29366:29419   */\n      tag_769\n        /* \"#utility.yul\":29411:29418   */\n      dup7\n        /* \"#utility.yul\":29402:29408   */\n      dup3\n        /* \"#utility.yul\":29391:29400   */\n      dup8\n        /* \"#utility.yul\":29387:29409   */\n      add\n        /* \"#utility.yul\":29366:29419   */\n      tag_430\n      jump\t// in\n    tag_769:\n        /* \"#utility.yul\":29356:29419   */\n      swap4\n      pop\n        /* \"#utility.yul\":29312:29429   */\n      pop\n        /* \"#utility.yul\":29468:29470   */\n      0x20\n        /* \"#utility.yul\":29494:29547   */\n      tag_770\n        /* \"#utility.yul\":29539:29546   */\n      dup7\n        /* \"#utility.yul\":29530:29536   */\n      dup3\n        /* \"#utility.yul\":29519:29528   */\n      dup8\n        /* \"#utility.yul\":29515:29537   */\n      add\n        /* \"#utility.yul\":29494:29547   */\n      tag_399\n      jump\t// in\n    tag_770:\n        /* \"#utility.yul\":29484:29547   */\n      swap3\n      pop\n        /* \"#utility.yul\":29439:29557   */\n      pop\n        /* \"#utility.yul\":29596:29598   */\n      0x40\n        /* \"#utility.yul\":29622:29675   */\n      tag_771\n        /* \"#utility.yul\":29667:29674   */\n      dup7\n        /* \"#utility.yul\":29658:29664   */\n      dup3\n        /* \"#utility.yul\":29647:29656   */\n      dup8\n        /* \"#utility.yul\":29643:29665   */\n      add\n        /* \"#utility.yul\":29622:29675   */\n      tag_399\n      jump\t// in\n    tag_771:\n        /* \"#utility.yul\":29612:29675   */\n      swap2\n      pop\n        /* \"#utility.yul\":29567:29685   */\n      pop\n        /* \"#utility.yul\":29073:29692   */\n      swap3\n      pop\n      swap3\n      pop\n      swap3\n      jump\t// out\n        /* \"#utility.yul\":29698:29908   */\n    tag_109:\n        /* \"#utility.yul\":29785:29789   */\n      0x00\n        /* \"#utility.yul\":29823:29825   */\n      0x20\n        /* \"#utility.yul\":29812:29821   */\n      dup3\n        /* \"#utility.yul\":29808:29826   */\n      add\n        /* \"#utility.yul\":29800:29826   */\n      swap1\n      pop\n        /* \"#utility.yul\":29836:29901   */\n      tag_773\n        /* \"#utility.yul\":29898:29899   */\n      0x00\n        /* \"#utility.yul\":29887:29896   */\n      dup4\n        /* \"#utility.yul\":29883:29900   */\n      add\n        /* \"#utility.yul\":29874:29880   */\n      dup5\n        /* \"#utility.yul\":29836:29901   */\n      tag_406\n      jump\t// in\n    tag_773:\n        /* \"#utility.yul\":29698:29908   */\n      swap3\n      swap2\n      pop\n      pop\n      jump\t// out\n        /* \"#utility.yul\":29914:31399   */\n    tag_112:\n        /* \"#utility.yul\":30040:30046   */\n      0x00\n        /* \"#utility.yul\":30048:30054   */\n      dup1\n        /* \"#utility.yul\":30056:30062   */\n      0x00\n        /* \"#utility.yul\":30064:30070   */\n      dup1\n        /* \"#utility.yul\":30113:30116   */\n      0x80\n        /* \"#utility.yul\":30101:30110   */\n      dup6\n        /* \"#utility.yul\":30092:30099   */\n      dup8\n        /* \"#utility.yul\":30088:30111   */\n      sub\n        /* \"#utility.yul\":30084:30117   */\n      slt\n        /* \"#utility.yul\":30081:30201   */\n      iszero\n      tag_775\n      jumpi\n        /* \"#utility.yul\":30120:30199   */\n      tag_776\n      tag_395\n      jump\t// in\n    tag_776:\n        /* \"#utility.yul\":30081:30201   */\n    tag_775:\n        /* \"#utility.yul\":30268:30269   */\n      0x00\n        /* \"#utility.yul\":30257:30266   */\n      dup6\n        /* \"#utility.yul\":30253:30270   */\n      add\n        /* \"#utility.yul\":30240:30271   */\n      calldataload\n        /* \"#utility.yul\":30298:30316   */\n      0xffffffffffffffff\n        /* \"#utility.yul\":30290:30296   */\n      dup2\n        /* \"#utility.yul\":30287:30317   */\n      gt\n        /* \"#utility.yul\":30284:30401   */\n      iszero\n      tag_777\n      jumpi\n        /* \"#utility.yul\":30320:30399   */\n      tag_778\n      tag_396\n      jump\t// in\n    tag_778:\n        /* \"#utility.yul\":30284:30401   */\n    tag_777:\n        /* \"#utility.yul\":30425:30488   */\n      tag_779\n        /* \"#utility.yul\":30480:30487   */\n      dup8\n        /* \"#utility.yul\":30471:30477   */\n      dup3\n        /* \"#utility.yul\":30460:30469   */\n      dup9\n        /* \"#utility.yul\":30456:30478   */\n      add\n        /* \"#utility.yul\":30425:30488   */\n      tag_422\n      jump\t// in\n    tag_779:\n        /* \"#utility.yul\":30415:30488   */\n      swap5\n      pop\n        /* \"#utility.yul\":30211:30498   */\n      pop\n        /* \"#utility.yul\":30565:30567   */\n      0x20\n        /* \"#utility.yul\":30554:30563   */\n      dup6\n        /* \"#utility.yul\":30550:30568   */\n      add\n        /* \"#utility.yul\":30537:30569   */\n      calldataload\n        /* \"#utility.yul\":30596:30614   */\n      0xffffffffffffffff\n        /* \"#utility.yul\":30588:30594   */\n      dup2\n        /* \"#utility.yul\":30585:30615   */\n      gt\n        /* \"#utility.yul\":30582:30699   */\n      iszero\n      tag_780\n      jumpi\n        /* \"#utility.yul\":30618:30697   */\n      tag_781\n      tag_396\n      jump\t// in\n    tag_781:\n        /* \"#utility.yul\":30582:30699   */\n    tag_780:\n        /* \"#utility.yul\":30723:30786   */\n      tag_782\n        /* \"#utility.yul\":30778:30785   */\n      dup8\n        /* \"#utility.yul\":30769:30775   */\n      dup3\n        /* \"#utility.yul\":30758:30767   */\n      dup9\n        /* \"#utility.yul\":30754:30776   */\n      add\n        /* \"#utility.yul\":30723:30786   */\n      tag_422\n      jump\t// in\n    tag_782:\n        /* \"#utility.yul\":30713:30786   */\n      swap4\n      pop\n        /* \"#utility.yul\":30508:30796   */\n      pop\n        /* \"#utility.yul\":30863:30865   */\n      0x40\n        /* \"#utility.yul\":30852:30861   */\n      dup6\n        /* \"#utility.yul\":30848:30866   */\n      add\n        /* \"#utility.yul\":30835:30867   */\n      calldataload\n        /* \"#utility.yul\":30894:30912   */\n      0xffffffffffffffff\n        /* \"#utility.yul\":30886:30892   */\n      dup2\n        /* \"#utility.yul\":30883:30913   */\n      gt\n        /* \"#utility.yul\":30880:30997   */\n      iszero\n      tag_783\n      jumpi\n        /* \"#utility.yul\":30916:30995   */\n      tag_784\n      tag_396\n      jump\t// in\n    tag_784:\n        /* \"#utility.yul\":30880:30997   */\n    tag_783:\n        /* \"#utility.yul\":31021:31084   */\n      tag_785\n        /* \"#utility.yul\":31076:31083   */\n      dup8\n        /* \"#utility.yul\":31067:31073   */\n      dup3\n        /* \"#utility.yul\":31056:31065   */\n      dup9\n        /* \"#utility.yul\":31052:31074   */\n      add\n        /* \"#utility.yul\":31021:31084   */\n      tag_422\n      jump\t// in\n    tag_785:\n        /* \"#utility.yul\":31011:31084   */\n      swap3\n      pop\n        /* \"#utility.yul\":30806:31094   */\n      pop\n        /* \"#utility.yul\":31161:31163   */\n      0x60\n        /* \"#utility.yul\":31150:31159   */\n      dup6\n        /* \"#utility.yul\":31146:31164   */\n      add\n        /* \"#utility.yul\":31133:31165   */\n      calldataload\n        /* \"#utility.yul\":31192:31210   */\n      0xffffffffffffffff\n        /* \"#utility.yul\":31184:31190   */\n      dup2\n        /* \"#utility.yul\":31181:31211   */\n      gt\n        /* \"#utility.yul\":31178:31295   */\n      iszero\n      tag_786\n      jumpi\n        /* \"#utility.yul\":31214:31293   */\n      tag_787\n      tag_396\n      jump\t// in\n    tag_787:\n        /* \"#utility.yul\":31178:31295   */\n    tag_786:\n        /* \"#utility.yul\":31319:31382   */\n      tag_788\n        /* \"#utility.yul\":31374:31381   */\n      dup8\n        /* \"#utility.yul\":31365:31371   */\n      dup3\n        /* \"#utility.yul\":31354:31363   */\n      dup9\n        /* \"#utility.yul\":31350:31372   */\n      add\n        /* \"#utility.yul\":31319:31382   */\n      tag_422\n      jump\t// in\n    tag_788:\n        /* \"#utility.yul\":31309:31382   */\n      swap2\n      pop\n        /* \"#utility.yul\":31104:31392   */\n      pop\n        /* \"#utility.yul\":29914:31399   */\n      swap3\n      swap6\n      swap2\n      swap5\n      pop\n      swap3\n      pop\n      jump\t// out\n        /* \"#utility.yul\":31405:31585   */\n    tag_462:\n        /* \"#utility.yul\":31453:31530   */\n      0x4e487b7100000000000000000000000000000000000000000000000000000000\n        /* \"#utility.yul\":31450:31451   */\n      0x00\n        /* \"#utility.yul\":31443:31531   */\n      mstore\n        /* \"#utility.yul\":31550:31554   */\n      0x22\n        /* \"#utility.yul\":31547:31548   */\n      0x04\n        /* \"#utility.yul\":31540:31555   */\n      mstore\n        /* \"#utility.yul\":31574:31578   */\n      0x24\n        /* \"#utility.yul\":31571:31572   */\n      0x00\n        /* \"#utility.yul\":31564:31579   */\n      revert\n        /* \"#utility.yul\":31591:31911   */\n    tag_115:\n        /* \"#utility.yul\":31635:31641   */\n      0x00\n        /* \"#utility.yul\":31672:31673   */\n      0x02\n        /* \"#utility.yul\":31666:31670   */\n      dup3\n        /* \"#utility.yul\":31662:31674   */\n      div\n        /* \"#utility.yul\":31652:31674   */\n      swap1\n      pop\n        /* \"#utility.yul\":31719:31720   */\n      0x01\n        /* \"#utility.yul\":31713:31717   */\n      dup3\n        /* \"#utility.yul\":31709:31721   */\n      and\n        /* \"#utility.yul\":31740:31758   */\n      dup1\n        /* \"#utility.yul\":31730:31811   */\n      tag_791\n      jumpi\n        /* \"#utility.yul\":31796:31800   */\n      0x7f\n        /* \"#utility.yul\":31788:31794   */\n      dup3\n        /* \"#utility.yul\":31784:31801   */\n      and\n        /* \"#utility.yul\":31774:31801   */\n      swap2\n      pop\n        /* \"#utility.yul\":31730:31811   */\n    tag_791:\n        /* \"#utility.yul\":31858:31860   */\n      0x20\n        /* \"#utility.yul\":31850:31856   */\n      dup3\n        /* \"#utility.yul\":31847:31861   */\n      lt\n        /* \"#utility.yul\":31827:31845   */\n      dup2\n        /* \"#utility.yul\":31824:31862   */\n      sub\n        /* \"#utility.yul\":31821:31905   */\n      tag_792\n      jumpi\n        /* \"#utility.yul\":31877:31895   */\n      tag_793\n      tag_462\n      jump\t// in\n    tag_793:\n        /* \"#utility.yul\":31821:31905   */\n    tag_792:\n        /* \"#utility.yul\":31642:31911   */\n      pop\n        /* \"#utility.yul\":31591:31911   */\n      swap2\n      swap1\n      pop\n      jump\t// out\n        /* \"#utility.yul\":31917:32058   */\n    tag_463:\n        /* \"#utility.yul\":31966:31970   */\n      0x00\n        /* \"#utility.yul\":31989:31992   */\n      dup2\n        /* \"#utility.yul\":31981:31992   */\n      swap1\n      pop\n        /* \"#utility.yul\":32012:32015   */\n      dup2\n        /* \"#utility.yul\":32009:32010   */\n      0x00\n        /* \"#utility.yul\":32002:32016   */\n      mstore\n        /* \"#utility.yul\":32046:32050   */\n      0x20\n        /* \"#utility.yul\":32043:32044   */\n      0x00\n        /* \"#utility.yul\":32033:32051   */\n      keccak256\n        /* \"#utility.yul\":32025:32051   */\n      swap1\n      pop\n        /* \"#utility.yul\":31917:32058   */\n      swap2\n      swap1\n      pop\n      jump\t// out\n        /* \"#utility.yul\":32064:32157   */\n    tag_464:\n        /* \"#utility.yul\":32101:32107   */\n      0x00\n        /* \"#utility.yul\":32148:32150   */\n      0x20\n        /* \"#utility.yul\":32143:32145   */\n      0x1f\n        /* \"#utility.yul\":32136:32141   */\n      dup4\n        /* \"#utility.yul\":32132:32146   */\n      add\n        /* \"#utility.yul\":32128:32151   */\n      div\n        /* \"#utility.yul\":32118:32151   */\n      swap1\n      pop\n        /* \"#utility.yul\":32064:32157   */\n      swap2\n      swap1\n      pop\n      jump\t// out\n        /* \"#utility.yul\":32163:32270   */\n    tag_465:\n        /* \"#utility.yul\":32207:32215   */\n      0x00\n        /* \"#utility.yul\":32257:32262   */\n      dup3\n        /* \"#utility.yul\":32251:32255   */\n      dup3\n        /* \"#utility.yul\":32247:32263   */\n      shl\n        /* \"#utility.yul\":32226:32263   */\n      swap1\n      pop\n        /* \"#utility.yul\":32163:32270   */\n      swap3\n      swap2\n      pop\n      pop\n      jump\t// out\n        /* \"#utility.yul\":32276:32669   */\n    tag_466:\n        /* \"#utility.yul\":32345:32351   */\n      0x00\n        /* \"#utility.yul\":32395:32396   */\n      0x08\n        /* \"#utility.yul\":32383:32393   */\n      dup4\n        /* \"#utility.yul\":32379:32397   */\n      mul\n        /* \"#utility.yul\":32418:32515   */\n      tag_798\n        /* \"#utility.yul\":32448:32514   */\n      0xffffffffffffffffffffffffffffffffffffffffffffffffffffffffffffffff\n        /* \"#utility.yul\":32437:32446   */\n      dup3\n        /* \"#utility.yul\":32418:32515   */\n      tag_465\n      jump\t// in\n    tag_798:\n        /* \"#utility.yul\":32536:32575   */\n      tag_799\n        /* \"#utility.yul\":32566:32574   */\n      dup7\n        /* \"#utility.yul\":32555:32564   */\n      dup4\n        /* \"#utility.yul\":32536:32575   */\n      tag_465\n      jump\t// in\n    tag_799:\n        /* \"#utility.yul\":32524:32575   */\n      swap6\n      pop\n        /* \"#utility.yul\":32608:32612   */\n      dup1\n        /* \"#utility.yul\":32604:32613   */\n      not\n        /* \"#utility.yul\":32597:32602   */\n      dup5\n        /* \"#utility.yul\":32593:32614   */\n      and\n        /* \"#utility.yul\":32584:32614   */\n      swap4\n      pop\n        /* \"#utility.yul\":32657:32661   */\n      dup1\n        /* \"#utility.yul\":32647:32655   */\n      dup7\n        /* \"#utility.yul\":32643:32662   */\n      and\n        /* \"#utility.yul\":32636:32641   */\n      dup5\n        /* \"#utility.yul\":32633:32663   */\n      or\n        /* \"#utility.yul\":32623:32663   */\n      swap3\n      pop\n        /* \"#utility.yul\":32352:32669   */\n      pop\n      pop\n        /* \"#utility.yul\":32276:32669   */\n      swap4\n      swap3\n      pop\n      pop\n      pop\n      jump\t// out\n        /* \"#utility.yul\":32675:32735   */\n    tag_467:\n        /* \"#utility.yul\":32703:32706   */\n      0x00\n        /* \"#utility.yul\":32724:32729   */\n      dup2\n        /* \"#utility.yul\":32717:32729   */\n      swap1\n      pop\n        /* \"#utility.yul\":32675:32735   */\n      swap2\n      swap1\n      pop\n      jump\t// out\n        /* \"#utility.yul\":32741:32883   */\n    tag_468:\n        /* \"#utility.yul\":32791:32800   */\n      0x00\n        /* \"#utility.yul\":32824:32877   */\n      tag_802\n        /* \"#utility.yul\":32842:32876   */\n      tag_803\n        /* \"#utility.yul\":32851:32875   */\n      tag_804\n        /* \"#utility.yul\":32869:32874   */\n      dup5\n        /* \"#utility.yul\":32851:32875   */\n      tag_397\n      jump\t// in\n    tag_804:\n        /* \"#utility.yul\":32842:32876   */\n      tag_467\n      jump\t// in\n    tag_803:\n        /* \"#utility.yul\":32824:32877   */\n      tag_397\n      jump\t// in\n    tag_802:\n        /* \"#utility.yul\":32811:32877   */\n      swap1\n      pop\n        /* \"#utility.yul\":32741:32883   */\n      swap2\n      swap1\n      pop\n      jump\t// out\n        /* \"#utility.yul\":32889:32964   */\n    tag_469:\n        /* \"#utility.yul\":32932:32935   */\n      0x00\n        /* \"#utility.yul\":32953:32958   */\n      dup2\n        /* \"#utility.yul\":32946:32958   */\n      swap1\n      pop\n        /* \"#utility.yul\":32889:32964   */\n      swap2\n      swap1\n      pop\n      jump\t// out\n        /* \"#utility.yul\":32970:33239   */\n    tag_470:\n        /* \"#utility.yul\":33080:33119   */\n      tag_807\n        /* \"#utility.yul\":33111:33118   */\n      dup4\n        /* \"#utility.yul\":33080:33119   */\n      tag_468\n      jump\t// in\n    tag_807:\n        /* \"#utility.yul\":33141:33232   */\n      tag_808\n        /* \"#utility.yul\":33190:33231   */\n      tag_809\n        /* \"#utility.yul\":33214:33230   */\n      dup3\n        /* \"#utility.yul\":33190:33231   */\n      tag_469\n      jump\t// in\n    tag_809:\n        /* \"#utility.yul\":33182:33188   */\n      dup5\n        /* \"#utility.yul\":33175:33179   */\n      dup5\n        /* \"#utility.yul\":33169:33180   */\n      sload\n        /* \"#utility.yul\":33141:33232   */\n      tag_466\n      jump\t// in\n    tag_808:\n        /* \"#utility.yul\":33135:33139   */\n      dup3\n        /* \"#utility.yul\":33128:33233   */\n      sstore\n        /* \"#utility.yul\":33046:33239   */\n      pop\n        /* \"#utility.yul\":32970:33239   */\n      pop\n      pop\n      pop\n      jump\t// out\n        /* \"#utility.yul\":33245:33318   */\n    tag_471:\n        /* \"#utility.yul\":33290:33293   */\n      0x00\n        /* \"#utility.yul\":33245:33318   */\n      swap1\n      jump\t// out\n        /* \"#utility.yul\":33324:33513   */\n    tag_472:\n        /* \"#utility.yul\":33401:33433   */\n      tag_812\n      tag_471\n      jump\t// in\n    tag_812:\n        /* \"#utility.yul\":33442:33507   */\n      tag_813\n        /* \"#utility.yul\":33500:33506   */\n      dup2\n        /* \"#utility.yul\":33492:33498   */\n      dup5\n        /* \"#utility.yul\":33486:33490   */\n      dup5\n        /* \"#utility.yul\":33442:33507   */\n      tag_470\n      jump\t// in\n    tag_813:\n        /* \"#utility.yul\":33377:33513   */\n      pop\n        /* \"#utility.yul\":33324:33513   */\n      pop\n      pop\n      jump\t// out\n        /* \"#utility.yul\":33519:33705   */\n    tag_473:\n        /* \"#utility.yul\":33579:33699   */\n    tag_815:\n        /* \"#utility.yul\":33596:33599   */\n      dup2\n        /* \"#utility.yul\":33589:33594   */\n      dup2\n        /* \"#utility.yul\":33586:33600   */\n      lt\n        /* \"#utility.yul\":33579:33699   */\n      iszero\n      tag_817\n      jumpi\n        /* \"#utility.yul\":33650:33689   */\n      tag_818\n        /* \"#utility.yul\":33687:33688   */\n      0x00\n        /* \"#utility.yul\":33680:33685   */\n      dup3\n        /* \"#utility.yul\":33650:33689   */\n      tag_472\n      jump\t// in\n    tag_818:\n        /* \"#utility.yul\":33623:33624   */\n      0x01\n        /* \"#utility.yul\":33616:33621   */\n      dup2\n        /* \"#utility.yul\":33612:33625   */\n      add\n        /* \"#utility.yul\":33603:33625   */\n      swap1\n      pop\n        /* \"#utility.yul\":33579:33699   */\n      jump(tag_815)\n    tag_817:\n        /* \"#utility.yul\":33519:33705   */\n      pop\n      pop\n      jump\t// out\n        /* \"#utility.yul\":33711:34254   */\n    tag_474:\n        /* \"#utility.yul\":33812:33814   */\n      0x1f\n        /* \"#utility.yul\":33807:33810   */\n      dup3\n        /* \"#utility.yul\":33804:33815   */\n      gt\n        /* \"#utility.yul\":33801:34247   */\n      iszero\n      tag_820\n      jumpi\n        /* \"#utility.yul\":33846:33884   */\n      tag_821\n        /* \"#utility.yul\":33878:33883   */\n      dup2\n        /* \"#utility.yul\":33846:33884   */\n      tag_463\n      jump\t// in\n    tag_821:\n        /* \"#utility.yul\":33930:33959   */\n      tag_822\n        /* \"#utility.yul\":33948:33958   */\n      dup5\n        /* \"#utility.yul\":33930:33959   */\n      tag_464\n      jump\t// in\n    tag_822:\n        /* \"#utility.yul\":33920:33928   */\n      dup2\n        /* \"#utility.yul\":33916:33960   */\n      add\n        /* \"#utility.yul\":34113:34115   */\n      0x20\n        /* \"#utility.yul\":34101:34111   */\n      dup6\n        /* \"#utility.yul\":34098:34116   */\n      lt\n        /* \"#utility.yul\":34095:34144   */\n      iszero\n      tag_823\n      jumpi\n        /* \"#utility.yul\":34134:34142   */\n      dup2\n        /* \"#utility.yul\":34119:34142   */\n      swap1\n      pop\n        /* \"#utility.yul\":34095:34144   */\n    tag_823:\n        /* \"#utility.yul\":34157:34237   */\n      tag_824\n        /* \"#utility.yul\":34213:34235   */\n      tag_825\n        /* \"#utility.yul\":34231:34234   */\n      dup6\n        /* \"#utility.yul\":34213:34235   */\n      tag_464\n      jump\t// in\n    tag_825:\n        /* \"#utility.yul\":34203:34211   */\n      dup4\n        /* \"#utility.yul\":34199:34236   */\n      add\n        /* \"#utility.yul\":34186:34197   */\n      dup3\n        /* \"#utility.yul\":34157:34237   */\n      tag_473\n      jump\t// in\n    tag_824:\n        /* \"#utility.yul\":33816:34247   */\n      pop\n      pop\n        /* \"#utility.yul\":33801:34247   */\n    tag_820:\n        /* \"#utility.yul\":33711:34254   */\n      pop\n      pop\n      pop\n      jump\t// out\n        /* \"#utility.yul\":34260:34377   */\n    tag_475:\n        /* \"#utility.yul\":34314:34322   */\n      0x00\n        /* \"#utility.yul\":34364:34369   */\n      dup3\n        /* \"#utility.yul\":34358:34362   */\n      dup3\n        /* \"#utility.yul\":34354:34370   */\n      shr\n        /* \"#utility.yul\":34333:34370   */\n      swap1\n      pop\n        /* \"#utility.yul\":34260:34377   */\n      swap3\n      swap2\n      pop\n      pop\n      jump\t// out\n        /* \"#utility.yul\":34383:34552   */\n    tag_476:\n        /* \"#utility.yul\":34427:34433   */\n      0x00\n        /* \"#utility.yul\":34460:34511   */\n      tag_828\n        /* \"#utility.yul\":34508:34509   */\n      0x00\n        /* \"#utility.yul\":34504:34510   */\n      not\n        /* \"#utility.yul\":34496:34501   */\n      dup5\n        /* \"#utility.yul\":34493:34494   */\n      0x08\n        /* \"#utility.yul\":34489:34502   */\n      mul\n        /* \"#utility.yul\":34460:34511   */\n      tag_475\n      jump\t// in\n    tag_828:\n        /* \"#utility.yul\":34456:34512   */\n      not\n        /* \"#utility.yul\":34541:34545   */\n      dup1\n        /* \"#utility.yul\":34535:34539   */\n      dup4\n        /* \"#utility.yul\":34531:34546   */\n      and\n        /* \"#utility.yul\":34521:34546   */\n      swap2\n      pop\n        /* \"#utility.yul\":34434:34552   */\n      pop\n        /* \"#utility.yul\":34383:34552   */\n      swap3\n      swap2\n      pop\n      pop\n      jump\t// out\n        /* \"#utility.yul\":34557:34852   */\n    tag_477:\n        /* \"#utility.yul\":34633:34637   */\n      0x00\n        /* \"#utility.yul\":34779:34808   */\n      tag_830\n        /* \"#utility.yul\":34804:34807   */\n      dup4\n        /* \"#utility.yul\":34798:34802   */\n      dup4\n        /* \"#utility.yul\":34779:34808   */\n      tag_476\n      jump\t// in\n    tag_830:\n        /* \"#utility.yul\":34771:34808   */\n      swap2\n      pop\n        /* \"#utility.yul\":34841:34844   */\n      dup3\n        /* \"#utility.yul\":34838:34839   */\n      0x02\n        /* \"#utility.yul\":34834:34845   */\n      mul\n        /* \"#utility.yul\":34828:34832   */\n      dup3\n        /* \"#utility.yul\":34825:34846   */\n      or\n        /* \"#utility.yul\":34817:34846   */\n      swap1\n      pop\n        /* \"#utility.yul\":34557:34852   */\n      swap3\n      swap2\n      pop\n      pop\n      jump\t// out\n        /* \"#utility.yul\":34857:36252   */\n    tag_129:\n        /* \"#utility.yul\":34974:35011   */\n      tag_832\n        /* \"#utility.yul\":35007:35010   */\n      dup3\n        /* \"#utility.yul\":34974:35011   */\n      tag_400\n      jump\t// in\n    tag_832:\n        /* \"#utility.yul\":35076:35094   */\n      0xffffffffffffffff\n        /* \"#utility.yul\":35068:35074   */\n      dup2\n        /* \"#utility.yul\":35065:35095   */\n      gt\n        /* \"#utility.yul\":35062:35118   */\n      iszero\n      tag_833\n      jumpi\n        /* \"#utility.yul\":35098:35116   */\n      tag_834\n      tag_275\n      jump\t// in\n    tag_834:\n        /* \"#utility.yul\":35062:35118   */\n    tag_833:\n        /* \"#utility.yul\":35142:35180   */\n      tag_835\n        /* \"#utility.yul\":35174:35178   */\n      dup3\n        /* \"#utility.yul\":35168:35179   */\n      sload\n        /* \"#utility.yul\":35142:35180   */\n      tag_115\n      jump\t// in\n    tag_835:\n        /* \"#utility.yul\":35227:35294   */\n      tag_836\n        /* \"#utility.yul\":35287:35293   */\n      dup3\n        /* \"#utility.yul\":35279:35285   */\n      dup3\n        /* \"#utility.yul\":35273:35277   */\n      dup6\n        /* \"#utility.yul\":35227:35294   */\n      tag_474\n      jump\t// in\n    tag_836:\n        /* \"#utility.yul\":35321:35322   */\n      0x00\n        /* \"#utility.yul\":35345:35349   */\n      0x20\n        /* \"#utility.yul\":35332:35349   */\n      swap1\n      pop\n        /* \"#utility.yul\":35377:35379   */\n      0x1f\n        /* \"#utility.yul\":35369:35375   */\n      dup4\n        /* \"#utility.yul\":35366:35380   */\n      gt\n        /* \"#utility.yul\":35394:35395   */\n      0x01\n        /* \"#utility.yul\":35389:36007   */\n      dup2\n      eq\n      tag_838\n      jumpi\n        /* \"#utility.yul\":36051:36052   */\n      0x00\n        /* \"#utility.yul\":36068:36074   */\n      dup5\n        /* \"#utility.yul\":36065:36142   */\n      iszero\n      tag_839\n      jumpi\n        /* \"#utility.yul\":36117:36126   */\n      dup3\n        /* \"#utility.yul\":36112:36115   */\n      dup8\n        /* \"#utility.yul\":36108:36127   */\n      add\n        /* \"#utility.yul\":36102:36128   */\n      mload\n        /* \"#utility.yul\":36093:36128   */\n      swap1\n      pop\n        /* \"#utility.yul\":36065:36142   */\n    tag_839:\n        /* \"#utility.yul\":36168:36235   */\n      tag_840\n        /* \"#utility.yul\":36228:36234   */\n      dup6\n        /* \"#utility.yul\":36221:36226   */\n      dup3\n        /* \"#utility.yul\":36168:36235   */\n      tag_477\n      jump\t// in\n    tag_840:\n        /* \"#utility.yul\":36162:36166   */\n      dup7\n        /* \"#utility.yul\":36155:36236   */\n      sstore\n        /* \"#utility.yul\":36024:36246   */\n      pop\n        /* \"#utility.yul\":35359:36246   */\n      jump(tag_837)\n        /* \"#utility.yul\":35389:36007   */\n    tag_838:\n        /* \"#utility.yul\":35441:35445   */\n      0x1f\n        /* \"#utility.yul\":35437:35446   */\n      not\n        /* \"#utility.yul\":35429:35435   */\n      dup5\n        /* \"#utility.yul\":35425:35447   */\n      and\n        /* \"#utility.yul\":35475:35512   */\n      tag_841\n        /* \"#utility.yul\":35507:35511   */\n      dup7\n        /* \"#utility.yul\":35475:35512   */\n      tag_463\n      jump\t// in\n    tag_841:\n        /* \"#utility.yul\":35534:35535   */\n      0x00\n        /* \"#utility.yul\":35548:35756   */\n    tag_842:\n        /* \"#utility.yul\":35562:35569   */\n      dup3\n        /* \"#utility.yul\":35559:35560   */\n      dup2\n        /* \"#utility.yul\":35556:35570   */\n      lt\n        /* \"#utility.yul\":35548:35756   */\n      iszero\n      tag_844\n      jumpi\n        /* \"#utility.yul\":35641:35650   */\n      dup5\n        /* \"#utility.yul\":35636:35639   */\n      dup10\n        /* \"#utility.yul\":35632:35651   */\n      add\n        /* \"#utility.yul\":35626:35652   */\n      mload\n        /* \"#utility.yul\":35618:35624   */\n      dup3\n        /* \"#utility.yul\":35611:35653   */\n      sstore\n        /* \"#utility.yul\":35692:35693   */\n      0x01\n        /* \"#utility.yul\":35684:35690   */\n      dup3\n        /* \"#utility.yul\":35680:35694   */\n      add\n        /* \"#utility.yul\":35670:35694   */\n      swap2\n      pop\n        /* \"#utility.yul\":35739:35741   */\n      0x20\n        /* \"#utility.yul\":35728:35737   */\n      dup6\n        /* \"#utility.yul\":35724:35742   */\n      add\n        /* \"#utility.yul\":35711:35742   */\n      swap5\n      pop\n        /* \"#utility.yul\":35585:35589   */\n      0x20\n        /* \"#utility.yul\":35582:35583   */\n      dup2\n        /* \"#utility.yul\":35578:35590   */\n      add\n        /* \"#utility.yul\":35573:35590   */\n      swap1\n      pop\n        /* \"#utility.yul\":35548:35756   */\n      jump(tag_842)\n    tag_844:\n        /* \"#utility.yul\":35784:35790   */\n      dup7\n        /* \"#utility.yul\":35775:35782   */\n      dup4\n        /* \"#utility.yul\":35772:35791   */\n      lt\n        /* \"#utility.yul\":35769:35948   */\n      iszero\n      tag_845\n      jumpi\n        /* \"#utility.yul\":35842:35851   */\n      dup5\n        /* \"#utility.yul\":35837:35840   */\n      dup10\n        /* \"#utility.yul\":35833:35852   */\n      add\n        /* \"#utility.yul\":35827:35853   */\n      mload\n        /* \"#utility.yul\":35885:35933   */\n      tag_846\n        /* \"#utility.yul\":35927:35931   */\n      0x1f\n        /* \"#utility.yul\":35919:35925   */\n      dup10\n        /* \"#utility.yul\":35915:35932   */\n      and\n        /* \"#utility.yul\":35904:35913   */\n      dup3\n        /* \"#utility.yul\":35885:35933   */\n      tag_476\n      jump\t// in\n    tag_846:\n        /* \"#utility.yul\":35877:35883   */\n      dup4\n        /* \"#utility.yul\":35870:35934   */\n      sstore\n        /* \"#utility.yul\":35792:35948   */\n      pop\n        /* \"#utility.yul\":35769:35948   */\n    tag_845:\n        /* \"#utility.yul\":35994:35995   */\n      0x01\n        /* \"#utility.yul\":35990:35991   */\n      0x02\n        /* \"#utility.yul\":35982:35988   */\n      dup9\n        /* \"#utility.yul\":35978:35992   */\n      mul\n        /* \"#utility.yul\":35974:35996   */\n      add\n        /* \"#utility.yul\":35968:35972   */\n      dup9\n        /* \"#utility.yul\":35961:35997   */\n      sstore\n        /* \"#utility.yul\":35396:36007   */\n      pop\n      pop\n      pop\n        /* \"#utility.yul\":35359:36246   */\n    tag_837:\n      pop\n        /* \"#utility.yul\":34949:36252   */\n      pop\n      pop\n      pop\n        /* \"#utility.yul\":34857:36252   */\n      pop\n      pop\n      jump\t// out\n        /* \"#utility.yul\":36258:36422   */\n    tag_478:\n        /* \"#utility.yul\":36398:36414   */\n      0x4e6f207265766965777320796574000000000000000000000000000000000000\n        /* \"#utility.yul\":36394:36395   */\n      0x00\n        /* \"#utility.yul\":36386:36392   */\n      dup3\n        /* \"#utility.yul\":36382:36396   */\n      add\n        /* \"#utility.yul\":36375:36415   */\n      mstore\n        /* \"#utility.yul\":36258:36422   */\n      pop\n      jump\t// out\n        /* \"#utility.yul\":36428:36794   */\n    tag_479:\n        /* \"#utility.yul\":36570:36573   */\n      0x00\n        /* \"#utility.yul\":36591:36658   */\n      tag_849\n        /* \"#utility.yul\":36655:36657   */\n      0x0e\n        /* \"#utility.yul\":36650:36653   */\n      dup4\n        /* \"#utility.yul\":36591:36658   */\n      tag_401\n      jump\t// in\n    tag_849:\n        /* \"#utility.yul\":36584:36658   */\n      swap2\n      pop\n        /* \"#utility.yul\":36667:36760   */\n      tag_850\n        /* \"#utility.yul\":36756:36759   */\n      dup3\n        /* \"#utility.yul\":36667:36760   */\n      tag_478\n      jump\t// in\n    tag_850:\n        /* \"#utility.yul\":36785:36787   */\n      0x20\n        /* \"#utility.yul\":36780:36783   */\n      dup3\n        /* \"#utility.yul\":36776:36788   */\n      add\n        /* \"#utility.yul\":36769:36788   */\n      swap1\n      pop\n        /* \"#utility.yul\":36428:36794   */\n      swap2\n      swap1\n      pop\n      jump\t// out\n        /* \"#utility.yul\":36800:37219   */\n    tag_157:\n        /* \"#utility.yul\":36966:36970   */\n      0x00\n        /* \"#utility.yul\":37004:37006   */\n      0x20\n        /* \"#utility.yul\":36993:37002   */\n      dup3\n        /* \"#utility.yul\":36989:37007   */\n      add\n        /* \"#utility.yul\":36981:37007   */\n      swap1\n      pop\n        /* \"#utility.yul\":37053:37062   */\n      dup2\n        /* \"#utility.yul\":37047:37051   */\n      dup2\n        /* \"#utility.yul\":37043:37063   */\n      sub\n        /* \"#utility.yul\":37039:37040   */\n      0x00\n        /* \"#utility.yul\":37028:37037   */\n      dup4\n        /* \"#utility.yul\":37024:37041   */\n      add\n        /* \"#utility.yul\":37017:37064   */\n      mstore\n        /* \"#utility.yul\":37081:37212   */\n      tag_852\n        /* \"#utility.yul\":37207:37211   */\n      dup2\n        /* \"#utility.yul\":37081:37212   */\n      tag_479\n      jump\t// in\n    tag_852:\n        /* \"#utility.yul\":37073:37212   */\n      swap1\n      pop\n        /* \"#utility.yul\":36800:37219   */\n      swap2\n      swap1\n      pop\n      jump\t// out\n        /* \"#utility.yul\":37225:37405   */\n    tag_480:\n        /* \"#utility.yul\":37273:37350   */\n      0x4e487b7100000000000000000000000000000000000000000000000000000000\n        /* \"#utility.yul\":37270:37271   */\n      0x00\n        /* \"#utility.yul\":37263:37351   */\n      mstore\n        /* \"#utility.yul\":37370:37374   */\n      0x12\n        /* \"#utility.yul\":37367:37368   */\n      0x04\n        /* \"#utility.yul\":37360:37375   */\n      mstore\n        /* \"#utility.yul\":37394:37398   */\n      0x24\n        /* \"#utility.yul\":37391:37392   */\n      0x00\n        /* \"#utility.yul\":37384:37399   */\n      revert\n        /* \"#utility.yul\":37411:37591   */\n    tag_481:\n        /* \"#utility.yul\":37459:37536   */\n      0x4e487b7100000000000000000000000000000000000000000000000000000000\n        /* \"#utility.yul\":37456:37457   */\n      0x00\n        /* \"#utility.yul\":37449:37537   */\n      mstore\n        /* \"#utility.yul\":37556:37560   */\n      0x11\n        /* \"#utility.yul\":37553:37554   */\n      0x04\n        /* \"#utility.yul\":37546:37561   */\n      mstore\n        /* \"#utility.yul\":37580:37584   */\n      0x24\n        /* \"#utility.yul\":37577:37578   */\n      0x00\n        /* \"#utility.yul\":37570:37585   */\n      revert\n        /* \"#utility.yul\":37597:37782   */\n    tag_159:\n        /* \"#utility.yul\":37637:37638   */\n      0x00\n        /* \"#utility.yul\":37654:37674   */\n      tag_856\n        /* \"#utility.yul\":37672:37673   */\n      dup3\n        /* \"#utility.yul\":37654:37674   */\n      tag_397\n      jump\t// in\n    tag_856:\n        /* \"#utility.yul\":37649:37674   */\n      swap2\n      pop\n        /* \"#utility.yul\":37688:37708   */\n      tag_857\n        /* \"#utility.yul\":37706:37707   */\n      dup4\n        /* \"#utility.yul\":37688:37708   */\n      tag_397\n      jump\t// in\n    tag_857:\n        /* \"#utility.yul\":37683:37708   */\n      swap3\n      pop\n        /* \"#utility.yul\":37727:37728   */\n      dup3\n        /* \"#utility.yul\":37717:37752   */\n      tag_858\n      jumpi\n        /* \"#utility.yul\":37732:37750   */\n      tag_859\n      tag_480\n      jump\t// in\n    tag_859:\n        /* \"#utility.yul\":37717:37752   */\n    tag_858:\n        /* \"#utility.yul\":37774:37775   */\n      dup3\n        /* \"#utility.yul\":37771:37772   */\n      dup3\n        /* \"#utility.yul\":37767:37776   */\n      div\n        /* \"#utility.yul\":37762:37776   */\n      swap1\n      pop\n        /* \"#utility.yul\":37597:37782   */\n      swap3\n      swap2\n      pop\n      pop\n      jump\t// out\n        /* \"#utility.yul\":37788:37957   */\n    tag_482:\n        /* \"#utility.yul\":37928:37949   */\n      0x556e617574686f72697a65642041636365737300000000000000000000000000\n        /* \"#utility.yul\":37924:37925   */\n      0x00\n        /* \"#utility.yul\":37916:37922   */\n      dup3\n        /* \"#utility.yul\":37912:37926   */\n      add\n        /* \"#utility.yul\":37905:37950   */\n      mstore\n        /* \"#utility.yul\":37788:37957   */\n      pop\n      jump\t// out\n        /* \"#utility.yul\":37963:38329   */\n    tag_483:\n        /* \"#utility.yul\":38105:38108   */\n      0x00\n        /* \"#utility.yul\":38126:38193   */\n      tag_862\n        /* \"#utility.yul\":38190:38192   */\n      0x13\n        /* \"#utility.yul\":38185:38188   */\n      dup4\n        /* \"#utility.yul\":38126:38193   */\n      tag_401\n      jump\t// in\n    tag_862:\n        /* \"#utility.yul\":38119:38193   */\n      swap2\n      pop\n        /* \"#utility.yul\":38202:38295   */\n      tag_863\n        /* \"#utility.yul\":38291:38294   */\n      dup3\n        /* \"#utility.yul\":38202:38295   */\n      tag_482\n      jump\t// in\n    tag_863:\n        /* \"#utility.yul\":38320:38322   */\n      0x20\n        /* \"#utility.yul\":38315:38318   */\n      dup3\n        /* \"#utility.yul\":38311:38323   */\n      add\n        /* \"#utility.yul\":38304:38323   */\n      swap1\n      pop\n        /* \"#utility.yul\":37963:38329   */\n      swap2\n      swap1\n      pop\n      jump\t// out\n        /* \"#utility.yul\":38335:38754   */\n    tag_165:\n        /* \"#utility.yul\":38501:38505   */\n      0x00\n        /* \"#utility.yul\":38539:38541   */\n      0x20\n        /* \"#utility.yul\":38528:38537   */\n      dup3\n        /* \"#utility.yul\":38524:38542   */\n      add\n        /* \"#utility.yul\":38516:38542   */\n      swap1\n      pop\n        /* \"#utility.yul\":38588:38597   */\n      dup2\n        /* \"#utility.yul\":38582:38586   */\n      dup2\n        /* \"#utility.yul\":38578:38598   */\n      sub\n        /* \"#utility.yul\":38574:38575   */\n      0x00\n        /* \"#utility.yul\":38563:38572   */\n      dup4\n        /* \"#utility.yul\":38559:38576   */\n      add\n        /* \"#utility.yul\":38552:38599   */\n      mstore\n        /* \"#utility.yul\":38616:38747   */\n      tag_865\n        /* \"#utility.yul\":38742:38746   */\n      dup2\n        /* \"#utility.yul\":38616:38747   */\n      tag_483\n      jump\t// in\n    tag_865:\n        /* \"#utility.yul\":38608:38747   */\n      swap1\n      pop\n        /* \"#utility.yul\":38335:38754   */\n      swap2\n      swap1\n      pop\n      jump\t// out\n        /* \"#utility.yul\":38760:39052   */\n    tag_484:\n        /* \"#utility.yul\":38900:38934   */\n      0x54726561746d656e74207374617475732073686f756c64206265206569746865\n        /* \"#utility.yul\":38896:38897   */\n      0x00\n        /* \"#utility.yul\":38888:38894   */\n      dup3\n        /* \"#utility.yul\":38884:38898   */\n      add\n        /* \"#utility.yul\":38877:38935   */\n      mstore\n        /* \"#utility.yul\":38969:39003   */\n      0x7220756e74726561746564283029206f7220756e6465722074726561746d656e\n        /* \"#utility.yul\":38964:38966   */\n      0x20\n        /* \"#utility.yul\":38956:38962   */\n      dup3\n        /* \"#utility.yul\":38952:38967   */\n      add\n        /* \"#utility.yul\":38945:39004   */\n      mstore\n        /* \"#utility.yul\":39038:39044   */\n      0x7428312900000000000000000000000000000000000000000000000000000000\n        /* \"#utility.yul\":39033:39035   */\n      0x40\n        /* \"#utility.yul\":39025:39031   */\n      dup3\n        /* \"#utility.yul\":39021:39036   */\n      add\n        /* \"#utility.yul\":39014:39045   */\n      mstore\n        /* \"#utility.yul\":38760:39052   */\n      pop\n      jump\t// out\n        /* \"#utility.yul\":39058:39424   */\n    tag_485:\n        /* \"#utility.yul\":39200:39203   */\n      0x00\n        /* \"#utility.yul\":39221:39288   */\n      tag_868\n        /* \"#utility.yul\":39285:39287   */\n      0x44\n        /* \"#utility.yul\":39280:39283   */\n      dup4\n        /* \"#utility.yul\":39221:39288   */\n      tag_401\n      jump\t// in\n    tag_868:\n        /* \"#utility.yul\":39214:39288   */\n      swap2\n      pop\n        /* \"#utility.yul\":39297:39390   */\n      tag_869\n        /* \"#utility.yul\":39386:39389   */\n      dup3\n        /* \"#utility.yul\":39297:39390   */\n      tag_484\n      jump\t// in\n    tag_869:\n        /* \"#utility.yul\":39415:39417   */\n      0x60\n        /* \"#utility.yul\":39410:39413   */\n      dup3\n        /* \"#utility.yul\":39406:39418   */\n      add\n        /* \"#utility.yul\":39399:39418   */\n      swap1\n      pop\n        /* \"#utility.yul\":39058:39424   */\n      swap2\n      swap1\n      pop\n      jump\t// out\n        /* \"#utility.yul\":39430:39849   */\n    tag_170:\n        /* \"#utility.yul\":39596:39600   */\n      0x00\n        /* \"#utility.yul\":39634:39636   */\n      0x20\n        /* \"#utility.yul\":39623:39632   */\n      dup3\n        /* \"#utility.yul\":39619:39637   */\n      add\n        /* \"#utility.yul\":39611:39637   */\n      swap1\n      pop\n        /* \"#utility.yul\":39683:39692   */\n      dup2\n        /* \"#utility.yul\":39677:39681   */\n      dup2\n        /* \"#utility.yul\":39673:39693   */\n      sub\n        /* \"#utility.yul\":39669:39670   */\n      0x00\n        /* \"#utility.yul\":39658:39667   */\n      dup4\n        /* \"#utility.yul\":39654:39671   */\n      add\n        /* \"#utility.yul\":39647:39694   */\n      mstore\n        /* \"#utility.yul\":39711:39842   */\n      tag_871\n        /* \"#utility.yul\":39837:39841   */\n      dup2\n        /* \"#utility.yul\":39711:39842   */\n      tag_485\n      jump\t// in\n    tag_871:\n        /* \"#utility.yul\":39703:39842   */\n      swap1\n      pop\n        /* \"#utility.yul\":39430:39849   */\n      swap2\n      swap1\n      pop\n      jump\t// out\n        /* \"#utility.yul\":39855:40049   */\n    tag_186:\n        /* \"#utility.yul\":39895:39899   */\n      0x00\n        /* \"#utility.yul\":39915:39935   */\n      tag_873\n        /* \"#utility.yul\":39933:39934   */\n      dup3\n        /* \"#utility.yul\":39915:39935   */\n      tag_397\n      jump\t// in\n    tag_873:\n        /* \"#utility.yul\":39910:39935   */\n      swap2\n      pop\n        /* \"#utility.yul\":39949:39969   */\n      tag_874\n        /* \"#utility.yul\":39967:39968   */\n      dup4\n        /* \"#utility.yul\":39949:39969   */\n      tag_397\n      jump\t// in\n    tag_874:\n        /* \"#utility.yul\":39944:39969   */\n      swap3\n      pop\n        /* \"#utility.yul\":39993:39994   */\n      dup3\n        /* \"#utility.yul\":39990:39991   */\n      dup3\n        /* \"#utility.yul\":39986:39995   */\n      sub\n        /* \"#utility.yul\":39978:39995   */\n      swap1\n      pop\n        /* \"#utility.yul\":40017:40018   */\n      dup2\n        /* \"#utility.yul\":40011:40015   */\n      dup2\n        /* \"#utility.yul\":40008:40019   */\n      gt\n        /* \"#utility.yul\":40005:40042   */\n      iszero\n      tag_875\n      jumpi\n        /* \"#utility.yul\":40022:40040   */\n      tag_876\n      tag_481\n      jump\t// in\n    tag_876:\n        /* \"#utility.yul\":40005:40042   */\n    tag_875:\n        /* \"#utility.yul\":39855:40049   */\n      swap3\n      swap2\n      pop\n      pop\n      jump\t// out\n        /* \"#utility.yul\":40055:40296   */\n    tag_486:\n        /* \"#utility.yul\":40195:40229   */\n      0x50617469656e742773206461746120697320616c7265616479206173736f6369\n        /* \"#utility.yul\":40191:40192   */\n      0x00\n        /* \"#utility.yul\":40183:40189   */\n      dup3\n        /* \"#utility.yul\":40179:40193   */\n      add\n        /* \"#utility.yul\":40172:40230   */\n      mstore\n        /* \"#utility.yul\":40264:40288   */\n      0x6174656420776974682074686973206164647265737300000000000000000000\n        /* \"#utility.yul\":40259:40261   */\n      0x20\n        /* \"#utility.yul\":40251:40257   */\n      dup3\n        /* \"#utility.yul\":40247:40262   */\n      add\n        /* \"#utility.yul\":40240:40289   */\n      mstore\n        /* \"#utility.yul\":40055:40296   */\n      pop\n      jump\t// out\n        /* \"#utility.yul\":40302:40668   */\n    tag_487:\n        /* \"#utility.yul\":40444:40447   */\n      0x00\n        /* \"#utility.yul\":40465:40532   */\n      tag_879\n        /* \"#utility.yul\":40529:40531   */\n      0x36\n        /* \"#utility.yul\":40524:40527   */\n      dup4\n        /* \"#utility.yul\":40465:40532   */\n      tag_401\n      jump\t// in\n    tag_879:\n        /* \"#utility.yul\":40458:40532   */\n      swap2\n      pop\n        /* \"#utility.yul\":40541:40634   */\n      tag_880\n        /* \"#utility.yul\":40630:40633   */\n      dup3\n        /* \"#utility.yul\":40541:40634   */\n      tag_486\n      jump\t// in\n    tag_880:\n        /* \"#utility.yul\":40659:40661   */\n      0x40\n        /* \"#utility.yul\":40654:40657   */\n      dup3\n        /* \"#utility.yul\":40650:40662   */\n      add\n        /* \"#utility.yul\":40643:40662   */\n      swap1\n      pop\n        /* \"#utility.yul\":40302:40668   */\n      swap2\n      swap1\n      pop\n      jump\t// out\n        /* \"#utility.yul\":40674:41093   */\n    tag_190:\n        /* \"#utility.yul\":40840:40844   */\n      0x00\n        /* \"#utility.yul\":40878:40880   */\n      0x20\n        /* \"#utility.yul\":40867:40876   */\n      dup3\n        /* \"#utility.yul\":40863:40881   */\n      add\n        /* \"#utility.yul\":40855:40881   */\n      swap1\n      pop\n        /* \"#utility.yul\":40927:40936   */\n      dup2\n        /* \"#utility.yul\":40921:40925   */\n      dup2\n        /* \"#utility.yul\":40917:40937   */\n      sub\n        /* \"#utility.yul\":40913:40914   */\n      0x00\n        /* \"#utility.yul\":40902:40911   */\n      dup4\n        /* \"#utility.yul\":40898:40915   */\n      add\n        /* \"#utility.yul\":40891:40938   */\n      mstore\n        /* \"#utility.yul\":40955:41086   */\n      tag_882\n        /* \"#utility.yul\":41081:41085   */\n      dup2\n        /* \"#utility.yul\":40955:41086   */\n      tag_487\n      jump\t// in\n    tag_882:\n        /* \"#utility.yul\":40947:41086   */\n      swap1\n      pop\n        /* \"#utility.yul\":40674:41093   */\n      swap2\n      swap1\n      pop\n      jump\t// out\n        /* \"#utility.yul\":41099:41271   */\n    tag_488:\n        /* \"#utility.yul\":41239:41263   */\n      0x4f6e6c7920446f63746f722063616e206368616e676500000000000000000000\n        /* \"#utility.yul\":41235:41236   */\n      0x00\n        /* \"#utility.yul\":41227:41233   */\n      dup3\n        /* \"#utility.yul\":41223:41237   */\n      add\n        /* \"#utility.yul\":41216:41264   */\n      mstore\n        /* \"#utility.yul\":41099:41271   */\n      pop\n      jump\t// out\n        /* \"#utility.yul\":41277:41643   */\n    tag_489:\n        /* \"#utility.yul\":41419:41422   */\n      0x00\n        /* \"#utility.yul\":41440:41507   */\n      tag_885\n        /* \"#utility.yul\":41504:41506   */\n      0x16\n        /* \"#utility.yul\":41499:41502   */\n      dup4\n        /* \"#utility.yul\":41440:41507   */\n      tag_401\n      jump\t// in\n    tag_885:\n        /* \"#utility.yul\":41433:41507   */\n      swap2\n      pop\n        /* \"#utility.yul\":41516:41609   */\n      tag_886\n        /* \"#utility.yul\":41605:41608   */\n      dup3\n        /* \"#utility.yul\":41516:41609   */\n      tag_488\n      jump\t// in\n    tag_886:\n        /* \"#utility.yul\":41634:41636   */\n      0x20\n        /* \"#utility.yul\":41629:41632   */\n      dup3\n        /* \"#utility.yul\":41625:41637   */\n      add\n        /* \"#utility.yul\":41618:41637   */\n      swap1\n      pop\n        /* \"#utility.yul\":41277:41643   */\n      swap2\n      swap1\n      pop\n      jump\t// out\n        /* \"#utility.yul\":41649:42068   */\n    tag_195:\n        /* \"#utility.yul\":41815:41819   */\n      0x00\n        /* \"#utility.yul\":41853:41855   */\n      0x20\n        /* \"#utility.yul\":41842:41851   */\n      dup3\n        /* \"#utility.yul\":41838:41856   */\n      add\n        /* \"#utility.yul\":41830:41856   */\n      swap1\n      pop\n        /* \"#utility.yul\":41902:41911   */\n      dup2\n        /* \"#utility.yul\":41896:41900   */\n      dup2\n        /* \"#utility.yul\":41892:41912   */\n      sub\n        /* \"#utility.yul\":41888:41889   */\n      0x00\n        /* \"#utility.yul\":41877:41886   */\n      dup4\n        /* \"#utility.yul\":41873:41890   */\n      add\n        /* \"#utility.yul\":41866:41913   */\n      mstore\n        /* \"#utility.yul\":41930:42061   */\n      tag_888\n        /* \"#utility.yul\":42056:42060   */\n      dup2\n        /* \"#utility.yul\":41930:42061   */\n      tag_489\n      jump\t// in\n    tag_888:\n        /* \"#utility.yul\":41922:42061   */\n      swap1\n      pop\n        /* \"#utility.yul\":41649:42068   */\n      swap2\n      swap1\n      pop\n      jump\t// out\n        /* \"#utility.yul\":42074:42222   */\n    tag_490:\n        /* \"#utility.yul\":42176:42187   */\n      0x00\n        /* \"#utility.yul\":42213:42216   */\n      dup2\n        /* \"#utility.yul\":42198:42216   */\n      swap1\n      pop\n        /* \"#utility.yul\":42074:42222   */\n      swap3\n      swap2\n      pop\n      pop\n      jump\t// out\n        /* \"#utility.yul\":42228:42618   */\n    tag_491:\n        /* \"#utility.yul\":42334:42337   */\n      0x00\n        /* \"#utility.yul\":42362:42401   */\n      tag_891\n        /* \"#utility.yul\":42395:42400   */\n      dup3\n        /* \"#utility.yul\":42362:42401   */\n      tag_400\n      jump\t// in\n    tag_891:\n        /* \"#utility.yul\":42417:42506   */\n      tag_892\n        /* \"#utility.yul\":42499:42505   */\n      dup2\n        /* \"#utility.yul\":42494:42497   */\n      dup6\n        /* \"#utility.yul\":42417:42506   */\n      tag_490\n      jump\t// in\n    tag_892:\n        /* \"#utility.yul\":42410:42506   */\n      swap4\n      pop\n        /* \"#utility.yul\":42515:42580   */\n      tag_893\n        /* \"#utility.yul\":42573:42579   */\n      dup2\n        /* \"#utility.yul\":42568:42571   */\n      dup6\n        /* \"#utility.yul\":42561:42565   */\n      0x20\n        /* \"#utility.yul\":42554:42559   */\n      dup7\n        /* \"#utility.yul\":42550:42566   */\n      add\n        /* \"#utility.yul\":42515:42580   */\n      tag_402\n      jump\t// in\n    tag_893:\n        /* \"#utility.yul\":42605:42611   */\n      dup1\n        /* \"#utility.yul\":42600:42603   */\n      dup5\n        /* \"#utility.yul\":42596:42612   */\n      add\n        /* \"#utility.yul\":42589:42612   */\n      swap2\n      pop\n        /* \"#utility.yul\":42338:42618   */\n      pop\n        /* \"#utility.yul\":42228:42618   */\n      swap3\n      swap2\n      pop\n      pop\n      jump\t// out\n        /* \"#utility.yul\":42624:42899   */\n    tag_201:\n        /* \"#utility.yul\":42756:42759   */\n      0x00\n        /* \"#utility.yul\":42778:42873   */\n      tag_895\n        /* \"#utility.yul\":42869:42872   */\n      dup3\n        /* \"#utility.yul\":42860:42866   */\n      dup5\n        /* \"#utility.yul\":42778:42873   */\n      tag_491\n      jump\t// in\n    tag_895:\n        /* \"#utility.yul\":42771:42873   */\n      swap2\n      pop\n        /* \"#utility.yul\":42890:42893   */\n      dup2\n        /* \"#utility.yul\":42883:42893   */\n      swap1\n      pop\n        /* \"#utility.yul\":42624:42899   */\n      swap3\n      swap2\n      pop\n      pop\n      jump\t// out\n        /* \"#utility.yul\":42929:43803   */\n    tag_492:\n        /* \"#utility.yul\":43032:43035   */\n      0x00\n        /* \"#utility.yul\":43069:43074   */\n      dup2\n        /* \"#utility.yul\":43063:43075   */\n      sload\n        /* \"#utility.yul\":43098:43134   */\n      tag_897\n        /* \"#utility.yul\":43124:43133   */\n      dup2\n        /* \"#utility.yul\":43098:43134   */\n      tag_115\n      jump\t// in\n    tag_897:\n        /* \"#utility.yul\":43150:43239   */\n      tag_898\n        /* \"#utility.yul\":43232:43238   */\n      dup2\n        /* \"#utility.yul\":43227:43230   */\n      dup7\n        /* \"#utility.yul\":43150:43239   */\n      tag_490\n      jump\t// in\n    tag_898:\n        /* \"#utility.yul\":43143:43239   */\n      swap5\n      pop\n        /* \"#utility.yul\":43270:43271   */\n      0x01\n        /* \"#utility.yul\":43259:43268   */\n      dup3\n        /* \"#utility.yul\":43255:43272   */\n      and\n        /* \"#utility.yul\":43286:43287   */\n      0x00\n        /* \"#utility.yul\":43281:43447   */\n      dup2\n      eq\n      tag_900\n      jumpi\n        /* \"#utility.yul\":43461:43462   */\n      0x01\n        /* \"#utility.yul\":43456:43797   */\n      dup2\n      eq\n      tag_901\n      jumpi\n        /* \"#utility.yul\":43248:43797   */\n      jump(tag_899)\n        /* \"#utility.yul\":43281:43447   */\n    tag_900:\n        /* \"#utility.yul\":43365:43369   */\n      0xff\n        /* \"#utility.yul\":43361:43370   */\n      not\n        /* \"#utility.yul\":43350:43359   */\n      dup4\n        /* \"#utility.yul\":43346:43371   */\n      and\n        /* \"#utility.yul\":43341:43344   */\n      dup7\n        /* \"#utility.yul\":43334:43372   */\n      mstore\n        /* \"#utility.yul\":43427:43433   */\n      dup2\n        /* \"#utility.yul\":43420:43434   */\n      iszero\n        /* \"#utility.yul\":43413:43435   */\n      iszero\n        /* \"#utility.yul\":43405:43411   */\n      dup3\n        /* \"#utility.yul\":43401:43436   */\n      mul\n        /* \"#utility.yul\":43396:43399   */\n      dup7\n        /* \"#utility.yul\":43392:43437   */\n      add\n        /* \"#utility.yul\":43385:43437   */\n      swap4\n      pop\n        /* \"#utility.yul\":43281:43447   */\n      jump(tag_899)\n        /* \"#utility.yul\":43456:43797   */\n    tag_901:\n        /* \"#utility.yul\":43523:43561   */\n      tag_902\n        /* \"#utility.yul\":43555:43560   */\n      dup6\n        /* \"#utility.yul\":43523:43561   */\n      tag_463\n      jump\t// in\n    tag_902:\n        /* \"#utility.yul\":43583:43584   */\n      0x00\n        /* \"#utility.yul\":43597:43751   */\n    tag_903:\n        /* \"#utility.yul\":43611:43617   */\n      dup4\n        /* \"#utility.yul\":43608:43609   */\n      dup2\n        /* \"#utility.yul\":43605:43618   */\n      lt\n        /* \"#utility.yul\":43597:43751   */\n      iszero\n      tag_905\n      jumpi\n        /* \"#utility.yul\":43685:43692   */\n      dup2\n        /* \"#utility.yul\":43679:43693   */\n      sload\n        /* \"#utility.yul\":43675:43676   */\n      dup2\n        /* \"#utility.yul\":43670:43673   */\n      dup10\n        /* \"#utility.yul\":43666:43677   */\n      add\n        /* \"#utility.yul\":43659:43694   */\n      mstore\n        /* \"#utility.yul\":43735:43736   */\n      0x01\n        /* \"#utility.yul\":43726:43733   */\n      dup3\n        /* \"#utility.yul\":43722:43737   */\n      add\n        /* \"#utility.yul\":43711:43737   */\n      swap2\n      pop\n        /* \"#utility.yul\":43633:43637   */\n      0x20\n        /* \"#utility.yul\":43630:43631   */\n      dup2\n        /* \"#utility.yul\":43626:43638   */\n      add\n        /* \"#utility.yul\":43621:43638   */\n      swap1\n      pop\n        /* \"#utility.yul\":43597:43751   */\n      jump(tag_903)\n    tag_905:\n        /* \"#utility.yul\":43780:43786   */\n      dup4\n        /* \"#utility.yul\":43775:43778   */\n      dup9\n        /* \"#utility.yul\":43771:43787   */\n      add\n        /* \"#utility.yul\":43764:43787   */\n      swap6\n      pop\n        /* \"#utility.yul\":43463:43797   */\n      pop\n      pop\n        /* \"#utility.yul\":43248:43797   */\n    tag_899:\n      pop\n        /* \"#utility.yul\":43036:43803   */\n      pop\n      pop\n        /* \"#utility.yul\":42929:43803   */\n      swap3\n      swap2\n      pop\n      pop\n      jump\t// out\n        /* \"#utility.yul\":43809:44078   */\n    tag_203:\n        /* \"#utility.yul\":43938:43941   */\n      0x00\n        /* \"#utility.yul\":43960:44052   */\n      tag_907\n        /* \"#utility.yul\":44048:44051   */\n      dup3\n        /* \"#utility.yul\":44039:44045   */\n      dup5\n        /* \"#utility.yul\":43960:44052   */\n      tag_492\n      jump\t// in\n    tag_907:\n        /* \"#utility.yul\":43953:44052   */\n      swap2\n      pop\n        /* \"#utility.yul\":44069:44072   */\n      dup2\n        /* \"#utility.yul\":44062:44072   */\n      swap1\n      pop\n        /* \"#utility.yul\":43809:44078   */\n      swap3\n      swap2\n      pop\n      pop\n      jump\t// out\n        /* \"#utility.yul\":44084:44309   */\n    tag_493:\n        /* \"#utility.yul\":44224:44258   */\n      0x4f6e6c79207468652070617469656e742063616e206368616e6765206279206f\n        /* \"#utility.yul\":44220:44221   */\n      0x00\n        /* \"#utility.yul\":44212:44218   */\n      dup3\n        /* \"#utility.yul\":44208:44222   */\n      add\n        /* \"#utility.yul\":44201:44259   */\n      mstore\n        /* \"#utility.yul\":44293:44301   */\n      0x776e73656c660000000000000000000000000000000000000000000000000000\n        /* \"#utility.yul\":44288:44290   */\n      0x20\n        /* \"#utility.yul\":44280:44286   */\n      dup3\n        /* \"#utility.yul\":44276:44291   */\n      add\n        /* \"#utility.yul\":44269:44302   */\n      mstore\n        /* \"#utility.yul\":44084:44309   */\n      pop\n      jump\t// out\n        /* \"#utility.yul\":44315:44681   */\n    tag_494:\n        /* \"#utility.yul\":44457:44460   */\n      0x00\n        /* \"#utility.yul\":44478:44545   */\n      tag_910\n        /* \"#utility.yul\":44542:44544   */\n      0x26\n        /* \"#utility.yul\":44537:44540   */\n      dup4\n        /* \"#utility.yul\":44478:44545   */\n      tag_401\n      jump\t// in\n    tag_910:\n        /* \"#utility.yul\":44471:44545   */\n      swap2\n      pop\n        /* \"#utility.yul\":44554:44647   */\n      tag_911\n        /* \"#utility.yul\":44643:44646   */\n      dup3\n        /* \"#utility.yul\":44554:44647   */\n      tag_493\n      jump\t// in\n    tag_911:\n        /* \"#utility.yul\":44672:44674   */\n      0x40\n        /* \"#utility.yul\":44667:44670   */\n      dup3\n        /* \"#utility.yul\":44663:44675   */\n      add\n        /* \"#utility.yul\":44656:44675   */\n      swap1\n      pop\n        /* \"#utility.yul\":44315:44681   */\n      swap2\n      swap1\n      pop\n      jump\t// out\n        /* \"#utility.yul\":44687:45106   */\n    tag_224:\n        /* \"#utility.yul\":44853:44857   */\n      0x00\n        /* \"#utility.yul\":44891:44893   */\n      0x20\n        /* \"#utility.yul\":44880:44889   */\n      dup3\n        /* \"#utility.yul\":44876:44894   */\n      add\n        /* \"#utility.yul\":44868:44894   */\n      swap1\n      pop\n        /* \"#utility.yul\":44940:44949   */\n      dup2\n        /* \"#utility.yul\":44934:44938   */\n      dup2\n        /* \"#utility.yul\":44930:44950   */\n      sub\n        /* \"#utility.yul\":44926:44927   */\n      0x00\n        /* \"#utility.yul\":44915:44924   */\n      dup4\n        /* \"#utility.yul\":44911:44928   */\n      add\n        /* \"#utility.yul\":44904:44951   */\n      mstore\n        /* \"#utility.yul\":44968:45099   */\n      tag_913\n        /* \"#utility.yul\":45094:45098   */\n      dup2\n        /* \"#utility.yul\":44968:45099   */\n      tag_494\n      jump\t// in\n    tag_913:\n        /* \"#utility.yul\":44960:45099   */\n      swap1\n      pop\n        /* \"#utility.yul\":44687:45106   */\n      swap2\n      swap1\n      pop\n      jump\t// out\n        /* \"#utility.yul\":45112:45292   */\n    tag_234:\n        /* \"#utility.yul\":45160:45237   */\n      0x4e487b7100000000000000000000000000000000000000000000000000000000\n        /* \"#utility.yul\":45157:45158   */\n      0x00\n        /* \"#utility.yul\":45150:45238   */\n      mstore\n        /* \"#utility.yul\":45257:45261   */\n      0x32\n        /* \"#utility.yul\":45254:45255   */\n      0x04\n        /* \"#utility.yul\":45247:45262   */\n      mstore\n        /* \"#utility.yul\":45281:45285   */\n      0x24\n        /* \"#utility.yul\":45278:45279   */\n      0x00\n        /* \"#utility.yul\":45271:45286   */\n      revert\n        /* \"#utility.yul\":45298:45489   */\n    tag_239:\n        /* \"#utility.yul\":45338:45341   */\n      0x00\n        /* \"#utility.yul\":45357:45377   */\n      tag_916\n        /* \"#utility.yul\":45375:45376   */\n      dup3\n        /* \"#utility.yul\":45357:45377   */\n      tag_397\n      jump\t// in\n    tag_916:\n        /* \"#utility.yul\":45352:45377   */\n      swap2\n      pop\n        /* \"#utility.yul\":45391:45411   */\n      tag_917\n        /* \"#utility.yul\":45409:45410   */\n      dup4\n        /* \"#utility.yul\":45391:45411   */\n      tag_397\n      jump\t// in\n    tag_917:\n        /* \"#utility.yul\":45386:45411   */\n      swap3\n      pop\n        /* \"#utility.yul\":45434:45435   */\n      dup3\n        /* \"#utility.yul\":45431:45432   */\n      dup3\n        /* \"#utility.yul\":45427:45436   */\n      add\n        /* \"#utility.yul\":45420:45436   */\n      swap1\n      pop\n        /* \"#utility.yul\":45455:45458   */\n      dup1\n        /* \"#utility.yul\":45452:45453   */\n      dup3\n        /* \"#utility.yul\":45449:45459   */\n      gt\n        /* \"#utility.yul\":45446:45482   */\n      iszero\n      tag_918\n      jumpi\n        /* \"#utility.yul\":45462:45480   */\n      tag_919\n      tag_481\n      jump\t// in\n    tag_919:\n        /* \"#utility.yul\":45446:45482   */\n    tag_918:\n        /* \"#utility.yul\":45298:45489   */\n      swap3\n      swap2\n      pop\n      pop\n      jump\t// out\n        /* \"#utility.yul\":45495:45728   */\n    tag_241:\n        /* \"#utility.yul\":45534:45537   */\n      0x00\n        /* \"#utility.yul\":45557:45581   */\n      tag_921\n        /* \"#utility.yul\":45575:45580   */\n      dup3\n        /* \"#utility.yul\":45557:45581   */\n      tag_397\n      jump\t// in\n    tag_921:\n        /* \"#utility.yul\":45548:45581   */\n      swap2\n      pop\n        /* \"#utility.yul\":45603:45669   */\n      0xffffffffffffffffffffffffffffffffffffffffffffffffffffffffffffffff\n        /* \"#utility.yul\":45596:45601   */\n      dup3\n        /* \"#utility.yul\":45593:45670   */\n      sub\n        /* \"#utility.yul\":45590:45693   */\n      tag_922\n      jumpi\n        /* \"#utility.yul\":45673:45691   */\n      tag_923\n      tag_481\n      jump\t// in\n    tag_923:\n        /* \"#utility.yul\":45590:45693   */\n    tag_922:\n        /* \"#utility.yul\":45720:45721   */\n      0x01\n        /* \"#utility.yul\":45713:45718   */\n      dup3\n        /* \"#utility.yul\":45709:45722   */\n      add\n        /* \"#utility.yul\":45702:45722   */\n      swap1\n      pop\n        /* \"#utility.yul\":45495:45728   */\n      swap2\n      swap1\n      pop\n      jump\t// out\n        /* \"#utility.yul\":45734:45883   */\n    tag_495:\n        /* \"#utility.yul\":45783:45789   */\n      0x00\n        /* \"#utility.yul\":45817:45822   */\n      dup2\n        /* \"#utility.yul\":45811:45823   */\n      sload\n        /* \"#utility.yul\":45801:45823   */\n      swap1\n      pop\n        /* \"#utility.yul\":45843:45876   */\n      tag_925\n        /* \"#utility.yul\":45869:45875   */\n      dup2\n        /* \"#utility.yul\":45843:45876   */\n      tag_115\n      jump\t// in\n    tag_925:\n        /* \"#utility.yul\":45833:45876   */\n      swap1\n      pop\n        /* \"#utility.yul\":45734:45883   */\n      swap2\n      swap1\n      pop\n      jump\t// out\n        /* \"#utility.yul\":45889:47340   */\n    tag_255:\n        /* \"#utility.yul\":46000:46003   */\n      dup2\n        /* \"#utility.yul\":45994:45998   */\n      dup2\n        /* \"#utility.yul\":45991:46004   */\n      sub\n        /* \"#utility.yul\":45988:46014   */\n      tag_927\n      jumpi\n        /* \"#utility.yul\":46007:46012   */\n      pop\n      pop\n      jump(tag_926)\n        /* \"#utility.yul\":45988:46014   */\n    tag_927:\n        /* \"#utility.yul\":46038:46072   */\n      tag_928\n        /* \"#utility.yul\":46068:46071   */\n      dup3\n        /* \"#utility.yul\":46038:46072   */\n      tag_495\n      jump\t// in\n    tag_928:\n        /* \"#utility.yul\":46137:46155   */\n      0xffffffffffffffff\n        /* \"#utility.yul\":46129:46135   */\n      dup2\n        /* \"#utility.yul\":46126:46156   */\n      gt\n        /* \"#utility.yul\":46123:46179   */\n      iszero\n      tag_929\n      jumpi\n        /* \"#utility.yul\":46159:46177   */\n      tag_930\n      tag_275\n      jump\t// in\n    tag_930:\n        /* \"#utility.yul\":46123:46179   */\n    tag_929:\n        /* \"#utility.yul\":46203:46241   */\n      tag_931\n        /* \"#utility.yul\":46235:46239   */\n      dup3\n        /* \"#utility.yul\":46229:46240   */\n      sload\n        /* \"#utility.yul\":46203:46241   */\n      tag_115\n      jump\t// in\n    tag_931:\n        /* \"#utility.yul\":46288:46355   */\n      tag_932\n        /* \"#utility.yul\":46348:46354   */\n      dup3\n        /* \"#utility.yul\":46340:46346   */\n      dup3\n        /* \"#utility.yul\":46334:46338   */\n      dup6\n        /* \"#utility.yul\":46288:46355   */\n      tag_474\n      jump\t// in\n    tag_932:\n        /* \"#utility.yul\":46382:46383   */\n      0x00\n        /* \"#utility.yul\":46411:46413   */\n      0x1f\n        /* \"#utility.yul\":46403:46409   */\n      dup4\n        /* \"#utility.yul\":46400:46414   */\n      gt\n        /* \"#utility.yul\":46428:46429   */\n      0x01\n        /* \"#utility.yul\":46423:47095   */\n      dup2\n      eq\n      tag_934\n      jumpi\n        /* \"#utility.yul\":47139:47140   */\n      0x00\n        /* \"#utility.yul\":47156:47162   */\n      dup5\n        /* \"#utility.yul\":47153:47230   */\n      iszero\n      tag_935\n      jumpi\n        /* \"#utility.yul\":47205:47214   */\n      dup3\n        /* \"#utility.yul\":47200:47203   */\n      dup8\n        /* \"#utility.yul\":47196:47215   */\n      add\n        /* \"#utility.yul\":47190:47216   */\n      sload\n        /* \"#utility.yul\":47181:47216   */\n      swap1\n      pop\n        /* \"#utility.yul\":47153:47230   */\n    tag_935:\n        /* \"#utility.yul\":47256:47323   */\n      tag_936\n        /* \"#utility.yul\":47316:47322   */\n      dup6\n        /* \"#utility.yul\":47309:47314   */\n      dup3\n        /* \"#utility.yul\":47256:47323   */\n      tag_477\n      jump\t// in\n    tag_936:\n        /* \"#utility.yul\":47250:47254   */\n      dup7\n        /* \"#utility.yul\":47243:47324   */\n      sstore\n        /* \"#utility.yul\":47112:47334   */\n      pop\n        /* \"#utility.yul\":46393:47334   */\n      jump(tag_933)\n        /* \"#utility.yul\":46423:47095   */\n    tag_934:\n        /* \"#utility.yul\":46475:46479   */\n      0x1f\n        /* \"#utility.yul\":46471:46480   */\n      not\n        /* \"#utility.yul\":46463:46469   */\n      dup5\n        /* \"#utility.yul\":46459:46481   */\n      and\n        /* \"#utility.yul\":46501:46537   */\n      tag_937\n        /* \"#utility.yul\":46533:46536   */\n      dup8\n        /* \"#utility.yul\":46501:46537   */\n      tag_463\n      jump\t// in\n    tag_937:\n        /* \"#utility.yul\":46494:46537   */\n      swap7\n      pop\n        /* \"#utility.yul\":46564:46601   */\n      tag_938\n        /* \"#utility.yul\":46596:46600   */\n      dup7\n        /* \"#utility.yul\":46564:46601   */\n      tag_463\n      jump\t// in\n    tag_938:\n        /* \"#utility.yul\":46623:46624   */\n      0x00\n        /* \"#utility.yul\":46637:46844   */\n    tag_939:\n        /* \"#utility.yul\":46651:46658   */\n      dup3\n        /* \"#utility.yul\":46648:46649   */\n      dup2\n        /* \"#utility.yul\":46645:46659   */\n      lt\n        /* \"#utility.yul\":46637:46844   */\n      iszero\n      tag_941\n      jumpi\n        /* \"#utility.yul\":46730:46739   */\n      dup5\n        /* \"#utility.yul\":46725:46728   */\n      dup10\n        /* \"#utility.yul\":46721:46740   */\n      add\n        /* \"#utility.yul\":46715:46741   */\n      sload\n        /* \"#utility.yul\":46707:46713   */\n      dup3\n        /* \"#utility.yul\":46700:46742   */\n      sstore\n        /* \"#utility.yul\":46781:46782   */\n      0x01\n        /* \"#utility.yul\":46773:46779   */\n      dup3\n        /* \"#utility.yul\":46769:46783   */\n      add\n        /* \"#utility.yul\":46759:46783   */\n      swap2\n      pop\n        /* \"#utility.yul\":46828:46829   */\n      0x01\n        /* \"#utility.yul\":46817:46826   */\n      dup6\n        /* \"#utility.yul\":46813:46830   */\n      add\n        /* \"#utility.yul\":46800:46830   */\n      swap5\n      pop\n        /* \"#utility.yul\":46674:46678   */\n      0x20\n        /* \"#utility.yul\":46671:46672   */\n      dup2\n        /* \"#utility.yul\":46667:46679   */\n      add\n        /* \"#utility.yul\":46662:46679   */\n      swap1\n      pop\n        /* \"#utility.yul\":46637:46844   */\n      jump(tag_939)\n    tag_941:\n        /* \"#utility.yul\":46872:46878   */\n      dup7\n        /* \"#utility.yul\":46863:46870   */\n      dup4\n        /* \"#utility.yul\":46860:46879   */\n      lt\n        /* \"#utility.yul\":46857:47036   */\n      iszero\n      tag_942\n      jumpi\n        /* \"#utility.yul\":46930:46939   */\n      dup5\n        /* \"#utility.yul\":46925:46928   */\n      dup10\n        /* \"#utility.yul\":46921:46940   */\n      add\n        /* \"#utility.yul\":46915:46941   */\n      sload\n        /* \"#utility.yul\":46973:47021   */\n      tag_943\n        /* \"#utility.yul\":47015:47019   */\n      0x1f\n        /* \"#utility.yul\":47007:47013   */\n      dup10\n        /* \"#utility.yul\":47003:47020   */\n      and\n        /* \"#utility.yul\":46992:47001   */\n      dup3\n        /* \"#utility.yul\":46973:47021   */\n      tag_476\n      jump\t// in\n    tag_943:\n        /* \"#utility.yul\":46965:46971   */\n      dup4\n        /* \"#utility.yul\":46958:47022   */\n      sstore\n        /* \"#utility.yul\":46880:47036   */\n      pop\n        /* \"#utility.yul\":46857:47036   */\n    tag_942:\n        /* \"#utility.yul\":47082:47083   */\n      0x01\n        /* \"#utility.yul\":47078:47079   */\n      0x02\n        /* \"#utility.yul\":47070:47076   */\n      dup9\n        /* \"#utility.yul\":47066:47080   */\n      mul\n        /* \"#utility.yul\":47062:47084   */\n      add\n        /* \"#utility.yul\":47056:47060   */\n      dup9\n        /* \"#utility.yul\":47049:47085   */\n      sstore\n        /* \"#utility.yul\":46430:47095   */\n      pop\n      pop\n      pop\n        /* \"#utility.yul\":46393:47334   */\n    tag_933:\n      pop\n        /* \"#utility.yul\":45978:47340   */\n      pop\n      pop\n      pop\n        /* \"#utility.yul\":45889:47340   */\n      pop\n      pop\n    tag_926:\n      jump\t// out\n        /* \"#utility.yul\":47346:47520   */\n    tag_496:\n        /* \"#utility.yul\":47486:47512   */\n      0x496e76616c69642074726561746d656e74207374617475730000000000000000\n        /* \"#utility.yul\":47482:47483   */\n      0x00\n        /* \"#utility.yul\":47474:47480   */\n      dup3\n        /* \"#utility.yul\":47470:47484   */\n      add\n        /* \"#utility.yul\":47463:47513   */\n      mstore\n        /* \"#utility.yul\":47346:47520   */\n      pop\n      jump\t// out\n        /* \"#utility.yul\":47526:47892   */\n    tag_497:\n        /* \"#utility.yul\":47668:47671   */\n      0x00\n        /* \"#utility.yul\":47689:47756   */\n      tag_946\n        /* \"#utility.yul\":47753:47755   */\n      0x18\n        /* \"#utility.yul\":47748:47751   */\n      dup4\n        /* \"#utility.yul\":47689:47756   */\n      tag_401\n      jump\t// in\n    tag_946:\n        /* \"#utility.yul\":47682:47756   */\n      swap2\n      pop\n        /* \"#utility.yul\":47765:47858   */\n      tag_947\n        /* \"#utility.yul\":47854:47857   */\n      dup3\n        /* \"#utility.yul\":47765:47858   */\n      tag_496\n      jump\t// in\n    tag_947:\n        /* \"#utility.yul\":47883:47885   */\n      0x20\n        /* \"#utility.yul\":47878:47881   */\n      dup3\n        /* \"#utility.yul\":47874:47886   */\n      add\n        /* \"#utility.yul\":47867:47886   */\n      swap1\n      pop\n        /* \"#utility.yul\":47526:47892   */\n      swap2\n      swap1\n      pop\n      jump\t// out\n        /* \"#utility.yul\":47898:48317   */\n    tag_367:\n        /* \"#utility.yul\":48064:48068   */\n      0x00\n        /* \"#utility.yul\":48102:48104   */\n      0x20\n        /* \"#utility.yul\":48091:48100   */\n      dup3\n        /* \"#utility.yul\":48087:48105   */\n      add\n        /* \"#utility.yul\":48079:48105   */\n      swap1\n      pop\n        /* \"#utility.yul\":48151:48160   */\n      dup2\n        /* \"#utility.yul\":48145:48149   */\n      dup2\n        /* \"#utility.yul\":48141:48161   */\n      sub\n        /* \"#utility.yul\":48137:48138   */\n      0x00\n        /* \"#utility.yul\":48126:48135   */\n      dup4\n        /* \"#utility.yul\":48122:48139   */\n      add\n        /* \"#utility.yul\":48115:48162   */\n      mstore\n        /* \"#utility.yul\":48179:48310   */\n      tag_949\n        /* \"#utility.yul\":48305:48309   */\n      dup2\n        /* \"#utility.yul\":48179:48310   */\n      tag_497\n      jump\t// in\n    tag_949:\n        /* \"#utility.yul\":48171:48310   */\n      swap1\n      pop\n        /* \"#utility.yul\":47898:48317   */\n      swap2\n      swap1\n      pop\n      jump\t// out\n        /* \"#utility.yul\":48323:48484   */\n    tag_498:\n        /* \"#utility.yul\":48463:48476   */\n      0x496e646578206572726f72000000000000000000000000000000000000000000\n        /* \"#utility.yul\":48459:48460   */\n      0x00\n        /* \"#utility.yul\":48451:48457   */\n      dup3\n        /* \"#utility.yul\":48447:48461   */\n      add\n        /* \"#utility.yul\":48440:48477   */\n      mstore\n        /* \"#utility.yul\":48323:48484   */\n      pop\n      jump\t// out\n        /* \"#utility.yul\":48490:48856   */\n    tag_499:\n        /* \"#utility.yul\":48632:48635   */\n      0x00\n        /* \"#utility.yul\":48653:48720   */\n      tag_952\n        /* \"#utility.yul\":48717:48719   */\n      0x0b\n        /* \"#utility.yul\":48712:48715   */\n      dup4\n        /* \"#utility.yul\":48653:48720   */\n      tag_401\n      jump\t// in\n    tag_952:\n        /* \"#utility.yul\":48646:48720   */\n      swap2\n      pop\n        /* \"#utility.yul\":48729:48822   */\n      tag_953\n        /* \"#utility.yul\":48818:48821   */\n      dup3\n        /* \"#utility.yul\":48729:48822   */\n      tag_498\n      jump\t// in\n    tag_953:\n        /* \"#utility.yul\":48847:48849   */\n      0x20\n        /* \"#utility.yul\":48842:48845   */\n      dup3\n        /* \"#utility.yul\":48838:48850   */\n      add\n        /* \"#utility.yul\":48831:48850   */\n      swap1\n      pop\n        /* \"#utility.yul\":48490:48856   */\n      swap2\n      swap1\n      pop\n      jump\t// out\n        /* \"#utility.yul\":48862:49281   */\n    tag_372:\n        /* \"#utility.yul\":49028:49032   */\n      0x00\n        /* \"#utility.yul\":49066:49068   */\n      0x20\n        /* \"#utility.yul\":49055:49064   */\n      dup3\n        /* \"#utility.yul\":49051:49069   */\n      add\n        /* \"#utility.yul\":49043:49069   */\n      swap1\n      pop\n        /* \"#utility.yul\":49115:49124   */\n      dup2\n        /* \"#utility.yul\":49109:49113   */\n      dup2\n        /* \"#utility.yul\":49105:49125   */\n      sub\n        /* \"#utility.yul\":49101:49102   */\n      0x00\n        /* \"#utility.yul\":49090:49099   */\n      dup4\n        /* \"#utility.yul\":49086:49103   */\n      add\n        /* \"#utility.yul\":49079:49126   */\n      mstore\n        /* \"#utility.yul\":49143:49274   */\n      tag_955\n        /* \"#utility.yul\":49269:49273   */\n      dup2\n        /* \"#utility.yul\":49143:49274   */\n      tag_499\n      jump\t// in\n    tag_955:\n        /* \"#utility.yul\":49135:49274   */\n      swap1\n      pop\n        /* \"#utility.yul\":48862:49281   */\n      swap2\n      swap1\n      pop\n      jump\t// out\n        /* \"#utility.yul\":49287:49527   */\n    tag_500:\n        /* \"#utility.yul\":49427:49461   */\n      0x446f63746f722773206461746120697320616c7265616479206173736f636961\n        /* \"#utility.yul\":49423:49424   */\n      0x00\n        /* \"#utility.yul\":49415:49421   */\n      dup3\n        /* \"#utility.yul\":49411:49425   */\n      add\n        /* \"#utility.yul\":49404:49462   */\n      mstore\n        /* \"#utility.yul\":49496:49519   */\n      0x7465642077697468207468697320616464726573730000000000000000000000\n        /* \"#utility.yul\":49491:49493   */\n      0x20\n        /* \"#utility.yul\":49483:49489   */\n      dup3\n        /* \"#utility.yul\":49479:49494   */\n      add\n        /* \"#utility.yul\":49472:49520   */\n      mstore\n        /* \"#utility.yul\":49287:49527   */\n      pop\n      jump\t// out\n        /* \"#utility.yul\":49533:49899   */\n    tag_501:\n        /* \"#utility.yul\":49675:49678   */\n      0x00\n        /* \"#utility.yul\":49696:49763   */\n      tag_958\n        /* \"#utility.yul\":49760:49762   */\n      0x35\n        /* \"#utility.yul\":49755:49758   */\n      dup4\n        /* \"#utility.yul\":49696:49763   */\n      tag_401\n      jump\t// in\n    tag_958:\n        /* \"#utility.yul\":49689:49763   */\n      swap2\n      pop\n        /* \"#utility.yul\":49772:49865   */\n      tag_959\n        /* \"#utility.yul\":49861:49864   */\n      dup3\n        /* \"#utility.yul\":49772:49865   */\n      tag_500\n      jump\t// in\n    tag_959:\n        /* \"#utility.yul\":49890:49892   */\n      0x40\n        /* \"#utility.yul\":49885:49888   */\n      dup3\n        /* \"#utility.yul\":49881:49893   */\n      add\n        /* \"#utility.yul\":49874:49893   */\n      swap1\n      pop\n        /* \"#utility.yul\":49533:49899   */\n      swap2\n      swap1\n      pop\n      jump\t// out\n        /* \"#utility.yul\":49905:50324   */\n    tag_383:\n        /* \"#utility.yul\":50071:50075   */\n      0x00\n        /* \"#utility.yul\":50109:50111   */\n      0x20\n        /* \"#utility.yul\":50098:50107   */\n      dup3\n        /* \"#utility.yul\":50094:50112   */\n      add\n        /* \"#utility.yul\":50086:50112   */\n      swap1\n      pop\n        /* \"#utility.yul\":50158:50167   */\n      dup2\n        /* \"#utility.yul\":50152:50156   */\n      dup2\n        /* \"#utility.yul\":50148:50168   */\n      sub\n        /* \"#utility.yul\":50144:50145   */\n      0x00\n        /* \"#utility.yul\":50133:50142   */\n      dup4\n        /* \"#utility.yul\":50129:50146   */\n      add\n        /* \"#utility.yul\":50122:50169   */\n      mstore\n        /* \"#utility.yul\":50186:50317   */\n      tag_961\n        /* \"#utility.yul\":50312:50316   */\n      dup2\n        /* \"#utility.yul\":50186:50317   */\n      tag_501\n      jump\t// in\n    tag_961:\n        /* \"#utility.yul\":50178:50317   */\n      swap1\n      pop\n        /* \"#utility.yul\":49905:50324   */\n      swap2\n      swap1\n      pop\n      jump\t// out\n\n    auxdata: 0xa2646970667358221220e925d4b70f808f70942215d11461ce2efcaa8ca39343c24d8488a276f722910e64736f6c63430008120033\n}\n",
				"bytecode": {
					"linkReferences": {},
					"object": "608060405234801561001057600080fd5b506001600460003373ffffffffffffffffffffffffffffffffffffffff1673ffffffffffffffffffffffffffffffffffffffff16815260200190815260200160002060006101000a81548160ff021916908315150217905550614721806100786000396000f3fe608060405234801561001057600080fd5b50600436106101215760003560e01c8063a14d4d4d116100ad578063c140261c11610071578063c140261c14610358578063cc7fa22014610388578063dfba9ad7146103b8578063e565aca3146103d4578063ea6b47271461040457610121565b8063a14d4d4d14610290578063a211b4b7146102c0578063a3621a76146102dc578063ba7b7ba01461030c578063beb02ea31461032857610121565b8063367c1c37116100f4578063367c1c37146101dc57806336eb4a2d1461020c5780635e12fadc146102285780636e53700414610258578063715cc6751461027457610121565b8063109097a0146101265780631dfb36021461015a57806321bdd1bb146101765780632ce1bd55146101ac575b600080fd5b610140600480360381019061013b9190612df7565b610420565b604051610151959493929190612f8e565b60405180910390f35b610174600480360381019061016f9190613167565b610512565b005b610190600480360381019061018b9190613248565b61068b565b6040516101a39796959493929190613284565b60405180910390f35b6101c660048036038101906101c19190613248565b6108fa565b6040516101d39190613357565b60405180910390f35b6101f660048036038101906101f19190613372565b610a29565b60405161020391906133e1565b60405180910390f35b610226600480360381019061022191906133fc565b610d62565b005b610242600480360381019061023d919061347f565b611009565b60405161024f919061368a565b60405180910390f35b610272600480360381019061026d9190613248565b611419565b005b61028e600480360381019061028991906136ac565b611579565b005b6102aa60048036038101906102a591906136ec565b6118cc565b6040516102b79190613357565b60405180910390f35b6102da60048036038101906102d5919061372c565b6118fb565b005b6102f660048036038101906102f19190613248565b611eae565b60405161030391906138da565b60405180910390f35b61032660048036038101906103219190613248565b612109565b005b610342600480360381019061033d91906138fc565b612231565b60405161034f91906138da565b60405180910390f35b610372600480360381019061036d9190613248565b612484565b60405161037f9190613a2b565b60405180910390f35b6103a2600480360381019061039d9190612df7565b612754565b6040516103af9190613ac3565b60405180910390f35b6103d260048036038101906103cd9190613ae5565b6128bf565b005b6103ee60048036038101906103e99190613248565b612b2f565b6040516103fb9190613b38565b60405180910390f35b61041e60048036038101906104199190613b53565b612b4f565b005b600260205280600052604060002060009150905080600001805461044390613c59565b80601f016020809104026020016040519081016040528092919081815260200182805461046f90613c59565b80156104bc5780601f10610491576101008083540402835291602001916104bc565b820191906000526020600020905b81548152906001019060200180831161049f57829003601f168201915b5050505050908060010160009054906101000a900460ff16908060010160019054906101000a900460ff16908060010160029054906101000a900460ff16908060010160039054906101000a900460ff16905085565b600460003373ffffffffffffffffffffffffffffffffffffffff1673ffffffffffffffffffffffffffffffffffffffff16815260200190815260200160002060009054906101000a900460ff1661056857600080fd5b6040518060a0016040528084815260200160001515815260200183600381111561059557610594612ecf565b5b81526020018260018111156105ad576105ac612ecf565b5b8152602001600115158152506002600086815260200190815260200160002060008201518160000190816105e19190613e36565b5060208201518160010160006101000a81548160ff02191690831515021790555060408201518160010160016101000a81548160ff0219169083600381111561062d5761062c612ecf565b5b021790555060608201518160010160026101000a81548160ff0219169083600181111561065d5761065c612ecf565b5b021790555060808201518160010160036101000a81548160ff02191690831515021790555090505050505050565b60016020528060005260406000206000915090508060000180546106ae90613c59565b80601f01602080910402602001604051908101604052809291908181526020018280546106da90613c59565b80156107275780601f106106fc57610100808354040283529160200191610727565b820191906000526020600020905b81548152906001019060200180831161070a57829003601f168201915b50505050509080600101805461073c90613c59565b80601f016020809104026020016040519081016040528092919081815260200182805461076890613c59565b80156107b55780601f1061078a576101008083540402835291602001916107b5565b820191906000526020600020905b81548152906001019060200180831161079857829003601f168201915b5050505050908060020180546107ca90613c59565b80601f01602080910402602001604051908101604052809291908181526020018280546107f690613c59565b80156108435780601f1061081857610100808354040283529160200191610843565b820191906000526020600020905b81548152906001019060200180831161082657829003601f168201915b50505050509080600301805461085890613c59565b80601f016020809104026020016040519081016040528092919081815260200182805461088490613c59565b80156108d15780601f106108a6576101008083540402835291602001916108d1565b820191906000526020600020905b8154815290600101906020018083116108b457829003601f168201915b5050505050908060040154908060050154908060060160009054906101000a900460ff16905087565b600080600160008473ffffffffffffffffffffffffffffffffffffffff1673ffffffffffffffffffffffffffffffffffffffff1681526020019081526020016000206004015411610980576040517f08c379a000000000000000000000000000000000000000000000000000000000815260040161097790613f54565b60405180910390fd5b600160008373ffffffffffffffffffffffffffffffffffffffff1673ffffffffffffffffffffffffffffffffffffffff16815260200190815260200160002060040154600160008473ffffffffffffffffffffffffffffffffffffffff1673ffffffffffffffffffffffffffffffffffffffff16815260200190815260200160002060050154610a109190613fd2565b6004811115610a2257610a21612ecf565b5b9050919050565b6000826000808273ffffffffffffffffffffffffffffffffffffffff1673ffffffffffffffffffffffffffffffffffffffff16815260200190815260200160002060060160003373ffffffffffffffffffffffffffffffffffffffff1673ffffffffffffffffffffffffffffffffffffffff16815260200190815260200160002060009054906101000a900460ff16610af7576040517f08c379a0000000000000000000000000000000000000000000000000000000008152600401610aee9061404f565b60405180910390fd5b6000831480610b065750600183145b610b45576040517f08c379a0000000000000000000000000000000000000000000000000000000008152600401610b3c90614107565b60405180910390fd5b60008303610c2c576000808573ffffffffffffffffffffffffffffffffffffffff1673ffffffffffffffffffffffffffffffffffffffff168152602001908152602001600020600401604051806040016040528087815260200160006005811115610bb357610bb2612ecf565b5b81525090806001815401808255809150506001900390600052602060002090600202016000909190919091506000820151816000019081610bf49190613e36565b5060208201518160010160006101000a81548160ff02191690836005811115610c2057610c1f612ecf565b5b02179055505050610d07565b6000808573ffffffffffffffffffffffffffffffffffffffff1673ffffffffffffffffffffffffffffffffffffffff168152602001908152602001600020600401604051806040016040528087815260200160016005811115610c9257610c91612ecf565b5b81525090806001815401808255809150506001900390600052602060002090600202016000909190919091506000820151816000019081610cd39190613e36565b5060208201518160010160006101000a81548160ff02191690836005811115610cff57610cfe612ecf565b5b021790555050505b60016000808673ffffffffffffffffffffffffffffffffffffffff1673ffffffffffffffffffffffffffffffffffffffff16815260200190815260200160002060040180549050610d589190614127565b9150509392505050565b6000803373ffffffffffffffffffffffffffffffffffffffff1673ffffffffffffffffffffffffffffffffffffffff16815260200190815260200160002060080160009054906101000a900460ff1615610df1576040517f08c379a0000000000000000000000000000000000000000000000000000000008152600401610de8906141cd565b60405180910390fd5b836000803373ffffffffffffffffffffffffffffffffffffffff1673ffffffffffffffffffffffffffffffffffffffff1681526020019081526020016000206000019081610e3f9190613e36565b50826000803373ffffffffffffffffffffffffffffffffffffffff1673ffffffffffffffffffffffffffffffffffffffff16815260200190815260200160002060010181905550816000803373ffffffffffffffffffffffffffffffffffffffff1673ffffffffffffffffffffffffffffffffffffffff16815260200190815260200160002060020181905550806000803373ffffffffffffffffffffffffffffffffffffffff1673ffffffffffffffffffffffffffffffffffffffff1681526020019081526020016000206003018190555060016000803373ffffffffffffffffffffffffffffffffffffffff1673ffffffffffffffffffffffffffffffffffffffff16815260200190815260200160002060060160003373ffffffffffffffffffffffffffffffffffffffff1673ffffffffffffffffffffffffffffffffffffffff16815260200190815260200160002060006101000a81548160ff02191690831515021790555060016000803373ffffffffffffffffffffffffffffffffffffffff1673ffffffffffffffffffffffffffffffffffffffff16815260200190815260200160002060080160006101000a81548160ff02191690831515021790555050505050565b6060600160003373ffffffffffffffffffffffffffffffffffffffff1673ffffffffffffffffffffffffffffffffffffffff16815260200190815260200160002060060160009054906101000a900460ff1661109a576040517f08c379a000000000000000000000000000000000000000000000000000000000815260040161109190614239565b60405180910390fd5b826000808273ffffffffffffffffffffffffffffffffffffffff1673ffffffffffffffffffffffffffffffffffffffff16815260200190815260200160002060060160003373ffffffffffffffffffffffffffffffffffffffff1673ffffffffffffffffffffffffffffffffffffffff16815260200190815260200160002060009054906101000a900460ff16611166576040517f08c379a000000000000000000000000000000000000000000000000000000000815260040161115d9061404f565b60405180910390fd5b826040516020016111779190614295565b604051602081830303815290604052805190602001206000808673ffffffffffffffffffffffffffffffffffffffff1673ffffffffffffffffffffffffffffffffffffffff1681526020019081526020016000206000016040516020016111de919061432f565b60405160208183030381529060405280519060200120146111fe57600080fd5b6000808573ffffffffffffffffffffffffffffffffffffffff1673ffffffffffffffffffffffffffffffffffffffff16815260200190815260200160002060070160003373ffffffffffffffffffffffffffffffffffffffff1673ffffffffffffffffffffffffffffffffffffffff168152602001908152602001600020805480602002602001604051908101604052809291908181526020016000905b8282101561140c57838290600052602060002090600202016040518060a00160405290816000820180546112cf90613c59565b80601f01602080910402602001604051908101604052809291908181526020018280546112fb90613c59565b80156113485780601f1061131d57610100808354040283529160200191611348565b820191906000526020600020905b81548152906001019060200180831161132b57829003601f168201915b505050505081526020016001820160009054906101000a900460ff161515151581526020016001820160019054906101000a900460ff16600381111561139157611390612ecf565b5b60038111156113a3576113a2612ecf565b5b81526020016001820160029054906101000a900460ff1660018111156113cc576113cb612ecf565b5b60018111156113de576113dd612ecf565b5b81526020016001820160039054906101000a900460ff1615151515815250508152602001906001019061129c565b5050505091505092915050565b6000803373ffffffffffffffffffffffffffffffffffffffff1673ffffffffffffffffffffffffffffffffffffffff16815260200190815260200160002060080160009054906101000a900460ff166114a7576040517f08c379a000000000000000000000000000000000000000000000000000000000815260040161149e906143b8565b60405180910390fd5b3373ffffffffffffffffffffffffffffffffffffffff168173ffffffffffffffffffffffffffffffffffffffff16036114df57600080fd5b60008060003373ffffffffffffffffffffffffffffffffffffffff1673ffffffffffffffffffffffffffffffffffffffff16815260200190815260200160002060060160008373ffffffffffffffffffffffffffffffffffffffff1673ffffffffffffffffffffffffffffffffffffffff16815260200190815260200160002060006101000a81548160ff02191690831515021790555050565b6000803373ffffffffffffffffffffffffffffffffffffffff1673ffffffffffffffffffffffffffffffffffffffff16815260200190815260200160002060080160009054906101000a900460ff16611607576040517f08c379a00000000000000000000000000000000000000000000000000000000081526004016115fe906143b8565b60405180910390fd5b6000803373ffffffffffffffffffffffffffffffffffffffff1673ffffffffffffffffffffffffffffffffffffffff16815260200190815260200160002060060160008373ffffffffffffffffffffffffffffffffffffffff1673ffffffffffffffffffffffffffffffffffffffff16815260200190815260200160002060009054906101000a900460ff16801561174b57506000803373ffffffffffffffffffffffffffffffffffffffff1673ffffffffffffffffffffffffffffffffffffffff16815260200190815260200160002060070160008373ffffffffffffffffffffffffffffffffffffffff1673ffffffffffffffffffffffffffffffffffffffff16815260200190815260200160002060008154811061172b5761172a6143d8565b5b906000526020600020906002020160010160039054906101000a900460ff165b61175457600080fd5b6005811061176157600080fd5b80600160008473ffffffffffffffffffffffffffffffffffffffff1673ffffffffffffffffffffffffffffffffffffffff16815260200190815260200160002060050160008282546117b39190614407565b92505081905550600160008373ffffffffffffffffffffffffffffffffffffffff1673ffffffffffffffffffffffffffffffffffffffff168152602001908152602001600020600401600081548092919061180d9061443b565b919050555080600481111561182557611824612ecf565b5b600360008473ffffffffffffffffffffffffffffffffffffffff1673ffffffffffffffffffffffffffffffffffffffff16815260200190815260200160002060003373ffffffffffffffffffffffffffffffffffffffff1673ffffffffffffffffffffffffffffffffffffffff16815260200190815260200160002060006101000a81548160ff021916908360048111156118c3576118c2612ecf565b5b02179055505050565b60036020528160005260406000206020528060005260406000206000915091509054906101000a900460ff1681565b600160003373ffffffffffffffffffffffffffffffffffffffff1673ffffffffffffffffffffffffffffffffffffffff16815260200190815260200160002060060160009054906101000a900460ff1661198a576040517f08c379a000000000000000000000000000000000000000000000000000000000815260040161198190614239565b60405180910390fd5b836000808273ffffffffffffffffffffffffffffffffffffffff1673ffffffffffffffffffffffffffffffffffffffff16815260200190815260200160002060060160003373ffffffffffffffffffffffffffffffffffffffff1673ffffffffffffffffffffffffffffffffffffffff16815260200190815260200160002060009054906101000a900460ff16611a56576040517f08c379a0000000000000000000000000000000000000000000000000000000008152600401611a4d9061404f565b60405180910390fd5b6000808673ffffffffffffffffffffffffffffffffffffffff1673ffffffffffffffffffffffffffffffffffffffff16815260200190815260200160002060070160003373ffffffffffffffffffffffffffffffffffffffff1673ffffffffffffffffffffffffffffffffffffffff16815260200190815260200160002060026000868152602001908152602001600020908060018154018082558091505060019003906000526020600020906002020160009091909190915060008201816000019081611b249190614499565b506001820160009054906101000a900460ff168160010160006101000a81548160ff0219169083151502179055506001820160019054906101000a900460ff168160010160016101000a81548160ff02191690836003811115611b8a57611b89612ecf565b5b02179055506001820160029054906101000a900460ff168160010160026101000a81548160ff02191690836001811115611bc757611bc6612ecf565b5b02179055506001820160039054906101000a900460ff168160010160036101000a81548160ff0219169083151502179055505050826000808773ffffffffffffffffffffffffffffffffffffffff1673ffffffffffffffffffffffffffffffffffffffff16815260200190815260200160002060070160003373ffffffffffffffffffffffffffffffffffffffff1673ffffffffffffffffffffffffffffffffffffffff16815260200190815260200160002060016000808973ffffffffffffffffffffffffffffffffffffffff1673ffffffffffffffffffffffffffffffffffffffff16815260200190815260200160002060070160003373ffffffffffffffffffffffffffffffffffffffff1673ffffffffffffffffffffffffffffffffffffffff16815260200190815260200160002080549050611d089190614127565b81548110611d1957611d186143d8565b5b906000526020600020906002020160010160016101000a81548160ff02191690836003811115611d4c57611d4b612ecf565b5b0217905550816000808773ffffffffffffffffffffffffffffffffffffffff1673ffffffffffffffffffffffffffffffffffffffff16815260200190815260200160002060070160003373ffffffffffffffffffffffffffffffffffffffff1673ffffffffffffffffffffffffffffffffffffffff16815260200190815260200160002060016000808973ffffffffffffffffffffffffffffffffffffffff1673ffffffffffffffffffffffffffffffffffffffff16815260200190815260200160002060070160003373ffffffffffffffffffffffffffffffffffffffff1673ffffffffffffffffffffffffffffffffffffffff16815260200190815260200160002080549050611e5e9190614127565b81548110611e6f57611e6e6143d8565b5b906000526020600020906002020160010160026101000a81548160ff02191690836001811115611ea257611ea1612ecf565b5b02179055505050505050565b60606000808373ffffffffffffffffffffffffffffffffffffffff1673ffffffffffffffffffffffffffffffffffffffff1681526020019081526020016000206004018054905067ffffffffffffffff811115611f0e57611f0d612ff2565b5b604051908082528060200260200182016040528015611f4757816020015b611f34612ceb565b815260200190600190039081611f2c5790505b50905060005b6000808473ffffffffffffffffffffffffffffffffffffffff1673ffffffffffffffffffffffffffffffffffffffff16815260200190815260200160002060040180549050811015612103576000808473ffffffffffffffffffffffffffffffffffffffff1673ffffffffffffffffffffffffffffffffffffffff1681526020019081526020016000206004018181548110611fec57611feb6143d8565b5b906000526020600020906002020160405180604001604052908160008201805461201590613c59565b80601f016020809104026020016040519081016040528092919081815260200182805461204190613c59565b801561208e5780601f106120635761010080835404028352916020019161208e565b820191906000526020600020905b81548152906001019060200180831161207157829003601f168201915b505050505081526020016001820160009054906101000a900460ff1660058111156120bc576120bb612ecf565b5b60058111156120ce576120cd612ecf565b5b815250508282815181106120e5576120e46143d8565b5b602002602001018190525080806120fb9061443b565b915050611f4d565b50919050565b6000803373ffffffffffffffffffffffffffffffffffffffff1673ffffffffffffffffffffffffffffffffffffffff16815260200190815260200160002060080160009054906101000a900460ff16612197576040517f08c379a000000000000000000000000000000000000000000000000000000000815260040161218e906143b8565b60405180910390fd5b60016000803373ffffffffffffffffffffffffffffffffffffffff1673ffffffffffffffffffffffffffffffffffffffff16815260200190815260200160002060060160008373ffffffffffffffffffffffffffffffffffffffff1673ffffffffffffffffffffffffffffffffffffffff16815260200190815260200160002060006101000a81548160ff02191690831515021790555050565b6060826000808673ffffffffffffffffffffffffffffffffffffffff1673ffffffffffffffffffffffffffffffffffffffff1681526020019081526020016000206001015414801561230e57508160405160200161228f9190614295565b604051602081830303815290604052805190602001206000808673ffffffffffffffffffffffffffffffffffffffff1673ffffffffffffffffffffffffffffffffffffffff1681526020019081526020016000206000016040516020016122f6919061432f565b60405160208183030381529060405280519060200120145b61231757600080fd5b6000808573ffffffffffffffffffffffffffffffffffffffff1673ffffffffffffffffffffffffffffffffffffffff168152602001908152602001600020600401805480602002602001604051908101604052809291908181526020016000905b8282101561247757838290600052602060002090600202016040518060400160405290816000820180546123ab90613c59565b80601f01602080910402602001604051908101604052809291908181526020018280546123d790613c59565b80156124245780601f106123f957610100808354040283529160200191612424565b820191906000526020600020905b81548152906001019060200180831161240757829003601f168201915b505050505081526020016001820160009054906101000a900460ff16600581111561245257612451612ecf565b5b600581111561246457612463612ecf565b5b8152505081526020019060010190612378565b5050505090509392505050565b61248c612d17565b600160008373ffffffffffffffffffffffffffffffffffffffff1673ffffffffffffffffffffffffffffffffffffffff1681526020019081526020016000206040518060e00160405290816000820180546124e690613c59565b80601f016020809104026020016040519081016040528092919081815260200182805461251290613c59565b801561255f5780601f106125345761010080835404028352916020019161255f565b820191906000526020600020905b81548152906001019060200180831161254257829003601f168201915b5050505050815260200160018201805461257890613c59565b80601f01602080910402602001604051908101604052809291908181526020018280546125a490613c59565b80156125f15780601f106125c6576101008083540402835291602001916125f1565b820191906000526020600020905b8154815290600101906020018083116125d457829003601f168201915b5050505050815260200160028201805461260a90613c59565b80601f016020809104026020016040519081016040528092919081815260200182805461263690613c59565b80156126835780601f1061265857610100808354040283529160200191612683565b820191906000526020600020905b81548152906001019060200180831161266657829003601f168201915b5050505050815260200160038201805461269c90613c59565b80601f01602080910402602001604051908101604052809291908181526020018280546126c890613c59565b80156127155780601f106126ea57610100808354040283529160200191612715565b820191906000526020600020905b8154815290600101906020018083116126f857829003601f168201915b5050505050815260200160048201548152602001600582015481526020016006820160009054906101000a900460ff1615151515815250509050919050565b61275c612d56565b600260008381526020019081526020016000206040518060a001604052908160008201805461278a90613c59565b80601f01602080910402602001604051908101604052809291908181526020018280546127b690613c59565b80156128035780601f106127d857610100808354040283529160200191612803565b820191906000526020600020905b8154815290600101906020018083116127e657829003601f168201915b505050505081526020016001820160009054906101000a900460ff161515151581526020016001820160019054906101000a900460ff16600381111561284c5761284b612ecf565b5b600381111561285e5761285d612ecf565b5b81526020016001820160029054906101000a900460ff16600181111561288757612886612ecf565b5b600181111561289957612898612ecf565b5b81526020016001820160039054906101000a900460ff1615151515815250509050919050565b826000808273ffffffffffffffffffffffffffffffffffffffff1673ffffffffffffffffffffffffffffffffffffffff16815260200190815260200160002060060160003373ffffffffffffffffffffffffffffffffffffffff1673ffffffffffffffffffffffffffffffffffffffff16815260200190815260200160002060009054906101000a900460ff1661298b576040517f08c379a00000000000000000000000000000000000000000000000000000000081526004016129829061404f565b60405180910390fd5b600083141580156129ad57506005808111156129aa576129a9612ecf565b5b83105b6129ec576040517f08c379a00000000000000000000000000000000000000000000000000000000081526004016129e3906145cd565b60405180910390fd5b60016000808673ffffffffffffffffffffffffffffffffffffffff1673ffffffffffffffffffffffffffffffffffffffff16815260200190815260200160002060040180549050612a3d9190614127565b8211158015612a4c5750600082115b612a8b576040517f08c379a0000000000000000000000000000000000000000000000000000000008152600401612a8290614639565b60405180910390fd5b826005811115612a9e57612a9d612ecf565b5b6000808673ffffffffffffffffffffffffffffffffffffffff1673ffffffffffffffffffffffffffffffffffffffff1681526020019081526020016000206004018381548110612af157612af06143d8565b5b906000526020600020906002020160010160006101000a81548160ff02191690836005811115612b2457612b23612ecf565b5b021790555050505050565b60046020528060005260406000206000915054906101000a900460ff1681565b600160003373ffffffffffffffffffffffffffffffffffffffff1673ffffffffffffffffffffffffffffffffffffffff16815260200190815260200160002060060160009054906101000a900460ff1615612bdf576040517f08c379a0000000000000000000000000000000000000000000000000000000008152600401612bd6906146cb565b60405180910390fd5b6040518060e00160405280858152602001848152602001828152602001838152602001600081526020016000815260200160011515815250600160003373ffffffffffffffffffffffffffffffffffffffff1673ffffffffffffffffffffffffffffffffffffffff1681526020019081526020016000206000820151816000019081612c6b9190613e36565b506020820151816001019081612c819190613e36565b506040820151816002019081612c979190613e36565b506060820151816003019081612cad9190613e36565b506080820151816004015560a0820151816005015560c08201518160060160006101000a81548160ff02191690831515021790555090505050505050565b60405180604001604052806060815260200160006005811115612d1157612d10612ecf565b5b81525090565b6040518060e001604052806060815260200160608152602001606081526020016060815260200160008152602001600081526020016000151581525090565b6040518060a001604052806060815260200160001515815260200160006003811115612d8557612d84612ecf565b5b815260200160006001811115612d9e57612d9d612ecf565b5b81526020016000151581525090565b6000604051905090565b600080fd5b600080fd5b6000819050919050565b612dd481612dc1565b8114612ddf57600080fd5b50565b600081359050612df181612dcb565b92915050565b600060208284031215612e0d57612e0c612db7565b5b6000612e1b84828501612de2565b91505092915050565b600081519050919050565b600082825260208201905092915050565b60005b83811015612e5e578082015181840152602081019050612e43565b60008484015250505050565b6000601f19601f8301169050919050565b6000612e8682612e24565b612e908185612e2f565b9350612ea0818560208601612e40565b612ea981612e6a565b840191505092915050565b60008115159050919050565b612ec981612eb4565b82525050565b7f4e487b7100000000000000000000000000000000000000000000000000000000600052602160045260246000fd5b60048110612f0f57612f0e612ecf565b5b50565b6000819050612f2082612efe565b919050565b6000612f3082612f12565b9050919050565b612f4081612f25565b82525050565b60028110612f5757612f56612ecf565b5b50565b6000819050612f6882612f46565b919050565b6000612f7882612f5a565b9050919050565b612f8881612f6d565b82525050565b600060a0820190508181036000830152612fa88188612e7b565b9050612fb76020830187612ec0565b612fc46040830186612f37565b612fd16060830185612f7f565b612fde6080830184612ec0565b9695505050505050565b600080fd5b600080fd5b7f4e487b7100000000000000000000000000000000000000000000000000000000600052604160045260246000fd5b61302a82612e6a565b810181811067ffffffffffffffff8211171561304957613048612ff2565b5b80604052505050565b600061305c612dad565b90506130688282613021565b919050565b600067ffffffffffffffff82111561308857613087612ff2565b5b61309182612e6a565b9050602081019050919050565b82818337600083830152505050565b60006130c06130bb8461306d565b613052565b9050828152602081018484840111156130dc576130db612fed565b5b6130e784828561309e565b509392505050565b600082601f83011261310457613103612fe8565b5b81356131148482602086016130ad565b91505092915050565b6004811061312a57600080fd5b50565b60008135905061313c8161311d565b92915050565b6002811061314f57600080fd5b50565b60008135905061316181613142565b92915050565b6000806000806080858703121561318157613180612db7565b5b600061318f87828801612de2565b945050602085013567ffffffffffffffff8111156131b0576131af612dbc565b5b6131bc878288016130ef565b93505060406131cd8782880161312d565b92505060606131de87828801613152565b91505092959194509250565b600073ffffffffffffffffffffffffffffffffffffffff82169050919050565b6000613215826131ea565b9050919050565b6132258161320a565b811461323057600080fd5b50565b6000813590506132428161321c565b92915050565b60006020828403121561325e5761325d612db7565b5b600061326c84828501613233565b91505092915050565b61327e81612dc1565b82525050565b600060e082019050818103600083015261329e818a612e7b565b905081810360208301526132b28189612e7b565b905081810360408301526132c68188612e7b565b905081810360608301526132da8187612e7b565b90506132e96080830186613275565b6132f660a0830185613275565b61330360c0830184612ec0565b98975050505050505050565b600581106133205761331f612ecf565b5b50565b60008190506133318261330f565b919050565b600061334182613323565b9050919050565b61335181613336565b82525050565b600060208201905061336c6000830184613348565b92915050565b60008060006060848603121561338b5761338a612db7565b5b600084013567ffffffffffffffff8111156133a9576133a8612dbc565b5b6133b5868287016130ef565b93505060206133c686828701613233565b92505060406133d786828701612de2565b9150509250925092565b60006020820190506133f66000830184613275565b92915050565b6000806000806080858703121561341657613415612db7565b5b600085013567ffffffffffffffff81111561343457613433612dbc565b5b613440878288016130ef565b945050602061345187828801612de2565b935050604061346287828801612de2565b925050606061347387828801612de2565b91505092959194509250565b6000806040838503121561349657613495612db7565b5b60006134a485828601613233565b925050602083013567ffffffffffffffff8111156134c5576134c4612dbc565b5b6134d1858286016130ef565b9150509250929050565b600081519050919050565b600082825260208201905092915050565b6000819050602082019050919050565b600082825260208201905092915050565b600061352382612e24565b61352d8185613507565b935061353d818560208601612e40565b61354681612e6a565b840191505092915050565b61355a81612eb4565b82525050565b61356981612f25565b82525050565b61357881612f6d565b82525050565b600060a083016000830151848203600086015261359b8282613518565b91505060208301516135b06020860182613551565b5060408301516135c36040860182613560565b5060608301516135d6606086018261356f565b5060808301516135e96080860182613551565b508091505092915050565b6000613600838361357e565b905092915050565b6000602082019050919050565b6000613620826134db565b61362a81856134e6565b93508360208202850161363c856134f7565b8060005b85811015613678578484038952815161365985826135f4565b945061366483613608565b925060208a01995050600181019050613640565b50829750879550505050505092915050565b600060208201905081810360008301526136a48184613615565b905092915050565b600080604083850312156136c3576136c2612db7565b5b60006136d185828601613233565b92505060206136e285828601612de2565b9150509250929050565b6000806040838503121561370357613702612db7565b5b600061371185828601613233565b925050602061372285828601613233565b9150509250929050565b6000806000806080858703121561374657613745612db7565b5b600061375487828801613233565b945050602061376587828801612de2565b93505060406137768782880161312d565b925050606061378787828801613152565b91505092959194509250565b600081519050919050565b600082825260208201905092915050565b6000819050602082019050919050565b600681106137d0576137cf612ecf565b5b50565b60008190506137e1826137bf565b919050565b60006137f1826137d3565b9050919050565b613801816137e6565b82525050565b600060408301600083015184820360008601526138248282613518565b915050602083015161383960208601826137f8565b508091505092915050565b60006138508383613807565b905092915050565b6000602082019050919050565b600061387082613793565b61387a818561379e565b93508360208202850161388c856137af565b8060005b858110156138c857848403895281516138a98582613844565b94506138b483613858565b925060208a01995050600181019050613890565b50829750879550505050505092915050565b600060208201905081810360008301526138f48184613865565b905092915050565b60008060006060848603121561391557613914612db7565b5b600061392386828701613233565b935050602061393486828701612de2565b925050604084013567ffffffffffffffff81111561395557613954612dbc565b5b613961868287016130ef565b9150509250925092565b61397481612dc1565b82525050565b600060e08301600083015184820360008601526139978282613518565b915050602083015184820360208601526139b18282613518565b915050604083015184820360408601526139cb8282613518565b915050606083015184820360608601526139e58282613518565b91505060808301516139fa608086018261396b565b5060a0830151613a0d60a086018261396b565b5060c0830151613a2060c0860182613551565b508091505092915050565b60006020820190508181036000830152613a45818461397a565b905092915050565b600060a0830160008301518482036000860152613a6a8282613518565b9150506020830151613a7f6020860182613551565b506040830151613a926040860182613560565b506060830151613aa5606086018261356f565b506080830151613ab86080860182613551565b508091505092915050565b60006020820190508181036000830152613add8184613a4d565b905092915050565b600080600060608486031215613afe57613afd612db7565b5b6000613b0c86828701613233565b9350506020613b1d86828701612de2565b9250506040613b2e86828701612de2565b9150509250925092565b6000602082019050613b4d6000830184612ec0565b92915050565b60008060008060808587031215613b6d57613b6c612db7565b5b600085013567ffffffffffffffff811115613b8b57613b8a612dbc565b5b613b97878288016130ef565b945050602085013567ffffffffffffffff811115613bb857613bb7612dbc565b5b613bc4878288016130ef565b935050604085013567ffffffffffffffff811115613be557613be4612dbc565b5b613bf1878288016130ef565b925050606085013567ffffffffffffffff811115613c1257613c11612dbc565b5b613c1e878288016130ef565b91505092959194509250565b7f4e487b7100000000000000000000000000000000000000000000000000000000600052602260045260246000fd5b60006002820490506001821680613c7157607f821691505b602082108103613c8457613c83613c2a565b5b50919050565b60008190508160005260206000209050919050565b60006020601f8301049050919050565b600082821b905092915050565b600060088302613cec7fffffffffffffffffffffffffffffffffffffffffffffffffffffffffffffffff82613caf565b613cf68683613caf565b95508019841693508086168417925050509392505050565b6000819050919050565b6000613d33613d2e613d2984612dc1565b613d0e565b612dc1565b9050919050565b6000819050919050565b613d4d83613d18565b613d61613d5982613d3a565b848454613cbc565b825550505050565b600090565b613d76613d69565b613d81818484613d44565b505050565b5b81811015613da557613d9a600082613d6e565b600181019050613d87565b5050565b601f821115613dea57613dbb81613c8a565b613dc484613c9f565b81016020851015613dd3578190505b613de7613ddf85613c9f565b830182613d86565b50505b505050565b600082821c905092915050565b6000613e0d60001984600802613def565b1980831691505092915050565b6000613e268383613dfc565b9150826002028217905092915050565b613e3f82612e24565b67ffffffffffffffff811115613e5857613e57612ff2565b5b613e628254613c59565b613e6d828285613da9565b600060209050601f831160018114613ea05760008415613e8e578287015190505b613e988582613e1a565b865550613f00565b601f198416613eae86613c8a565b60005b82811015613ed657848901518255600182019150602085019450602081019050613eb1565b86831015613ef35784890151613eef601f891682613dfc565b8355505b6001600288020188555050505b505050505050565b7f4e6f207265766965777320796574000000000000000000000000000000000000600082015250565b6000613f3e600e83612e2f565b9150613f4982613f08565b602082019050919050565b60006020820190508181036000830152613f6d81613f31565b9050919050565b7f4e487b7100000000000000000000000000000000000000000000000000000000600052601260045260246000fd5b7f4e487b7100000000000000000000000000000000000000000000000000000000600052601160045260246000fd5b6000613fdd82612dc1565b9150613fe883612dc1565b925082613ff857613ff7613f74565b5b828204905092915050565b7f556e617574686f72697a65642041636365737300000000000000000000000000600082015250565b6000614039601383612e2f565b915061404482614003565b602082019050919050565b600060208201905081810360008301526140688161402c565b9050919050565b7f54726561746d656e74207374617475732073686f756c6420626520656974686560008201527f7220756e74726561746564283029206f7220756e6465722074726561746d656e60208201527f7428312900000000000000000000000000000000000000000000000000000000604082015250565b60006140f1604483612e2f565b91506140fc8261406f565b606082019050919050565b60006020820190508181036000830152614120816140e4565b9050919050565b600061413282612dc1565b915061413d83612dc1565b925082820390508181111561415557614154613fa3565b5b92915050565b7f50617469656e742773206461746120697320616c7265616479206173736f636960008201527f6174656420776974682074686973206164647265737300000000000000000000602082015250565b60006141b7603683612e2f565b91506141c28261415b565b604082019050919050565b600060208201905081810360008301526141e6816141aa565b9050919050565b7f4f6e6c7920446f63746f722063616e206368616e676500000000000000000000600082015250565b6000614223601683612e2f565b915061422e826141ed565b602082019050919050565b6000602082019050818103600083015261425281614216565b9050919050565b600081905092915050565b600061426f82612e24565b6142798185614259565b9350614289818560208601612e40565b80840191505092915050565b60006142a18284614264565b915081905092915050565b600081546142b981613c59565b6142c38186614259565b945060018216600081146142de57600181146142f357614326565b60ff1983168652811515820286019350614326565b6142fc85613c8a565b60005b8381101561431e578154818901526001820191506020810190506142ff565b838801955050505b50505092915050565b600061433b82846142ac565b915081905092915050565b7f4f6e6c79207468652070617469656e742063616e206368616e6765206279206f60008201527f776e73656c660000000000000000000000000000000000000000000000000000602082015250565b60006143a2602683612e2f565b91506143ad82614346565b604082019050919050565b600060208201905081810360008301526143d181614395565b9050919050565b7f4e487b7100000000000000000000000000000000000000000000000000000000600052603260045260246000fd5b600061441282612dc1565b915061441d83612dc1565b925082820190508082111561443557614434613fa3565b5b92915050565b600061444682612dc1565b91507fffffffffffffffffffffffffffffffffffffffffffffffffffffffffffffffff820361447857614477613fa3565b5b600182019050919050565b60008154905061449281613c59565b9050919050565b8181036144a757505061457f565b6144b082614483565b67ffffffffffffffff8111156144c9576144c8612ff2565b5b6144d38254613c59565b6144de828285613da9565b6000601f83116001811461450d57600084156144fb578287015490505b6145058582613e1a565b865550614578565b601f19841661451b87613c8a565b965061452686613c8a565b60005b8281101561454e57848901548255600182019150600185019450602081019050614529565b8683101561456b5784890154614567601f891682613dfc565b8355505b6001600288020188555050505b5050505050505b565b7f496e76616c69642074726561746d656e74207374617475730000000000000000600082015250565b60006145b7601883612e2f565b91506145c282614581565b602082019050919050565b600060208201905081810360008301526145e6816145aa565b9050919050565b7f496e646578206572726f72000000000000000000000000000000000000000000600082015250565b6000614623600b83612e2f565b915061462e826145ed565b602082019050919050565b6000602082019050818103600083015261465281614616565b9050919050565b7f446f63746f722773206461746120697320616c7265616479206173736f63696160008201527f7465642077697468207468697320616464726573730000000000000000000000602082015250565b60006146b5603583612e2f565b91506146c082614659565b604082019050919050565b600060208201905081810360008301526146e4816146a8565b905091905056fea2646970667358221220e925d4b70f808f70942215d11461ce2efcaa8ca39343c24d8488a276f722910e64736f6c63430008120033",
					"opcodes": "PUSH1 0x80 PUSH1 0x40 MSTORE CALLVALUE DUP1 ISZERO PUSH2 0x10 JUMPI PUSH1 0x0 DUP1 REVERT JUMPDEST POP PUSH1 0x1 PUSH1 0x4 PUSH1 0x0 CALLER PUSH20 0xFFFFFFFFFFFFFFFFFFFFFFFFFFFFFFFFFFFFFFFF AND PUSH20 0xFFFFFFFFFFFFFFFFFFFFFFFFFFFFFFFFFFFFFFFF AND DUP2 MSTORE PUSH1 0x20 ADD SWAP1 DUP2 MSTORE PUSH1 0x20 ADD PUSH1 0x0 KECCAK256 PUSH1 0x0 PUSH2 0x100 EXP DUP2 SLOAD DUP2 PUSH1 0xFF MUL NOT AND SWAP1 DUP4 ISZERO ISZERO MUL OR SWAP1 SSTORE POP PUSH2 0x4721 DUP1 PUSH2 0x78 PUSH1 0x0 CODECOPY PUSH1 0x0 RETURN INVALID PUSH1 0x80 PUSH1 0x40 MSTORE CALLVALUE DUP1 ISZERO PUSH2 0x10 JUMPI PUSH1 0x0 DUP1 REVERT JUMPDEST POP PUSH1 0x4 CALLDATASIZE LT PUSH2 0x121 JUMPI PUSH1 0x0 CALLDATALOAD PUSH1 0xE0 SHR DUP1 PUSH4 0xA14D4D4D GT PUSH2 0xAD JUMPI DUP1 PUSH4 0xC140261C GT PUSH2 0x71 JUMPI DUP1 PUSH4 0xC140261C EQ PUSH2 0x358 JUMPI DUP1 PUSH4 0xCC7FA220 EQ PUSH2 0x388 JUMPI DUP1 PUSH4 0xDFBA9AD7 EQ PUSH2 0x3B8 JUMPI DUP1 PUSH4 0xE565ACA3 EQ PUSH2 0x3D4 JUMPI DUP1 PUSH4 0xEA6B4727 EQ PUSH2 0x404 JUMPI PUSH2 0x121 JUMP JUMPDEST DUP1 PUSH4 0xA14D4D4D EQ PUSH2 0x290 JUMPI DUP1 PUSH4 0xA211B4B7 EQ PUSH2 0x2C0 JUMPI DUP1 PUSH4 0xA3621A76 EQ PUSH2 0x2DC JUMPI DUP1 PUSH4 0xBA7B7BA0 EQ PUSH2 0x30C JUMPI DUP1 PUSH4 0xBEB02EA3 EQ PUSH2 0x328 JUMPI PUSH2 0x121 JUMP JUMPDEST DUP1 PUSH4 0x367C1C37 GT PUSH2 0xF4 JUMPI DUP1 PUSH4 0x367C1C37 EQ PUSH2 0x1DC JUMPI DUP1 PUSH4 0x36EB4A2D EQ PUSH2 0x20C JUMPI DUP1 PUSH4 0x5E12FADC EQ PUSH2 0x228 JUMPI DUP1 PUSH4 0x6E537004 EQ PUSH2 0x258 JUMPI DUP1 PUSH4 0x715CC675 EQ PUSH2 0x274 JUMPI PUSH2 0x121 JUMP JUMPDEST DUP1 PUSH4 0x109097A0 EQ PUSH2 0x126 JUMPI DUP1 PUSH4 0x1DFB3602 EQ PUSH2 0x15A JUMPI DUP1 PUSH4 0x21BDD1BB EQ PUSH2 0x176 JUMPI DUP1 PUSH4 0x2CE1BD55 EQ PUSH2 0x1AC JUMPI JUMPDEST PUSH1 0x0 DUP1 REVERT JUMPDEST PUSH2 0x140 PUSH1 0x4 DUP1 CALLDATASIZE SUB DUP2 ADD SWAP1 PUSH2 0x13B SWAP2 SWAP1 PUSH2 0x2DF7 JUMP JUMPDEST PUSH2 0x420 JUMP JUMPDEST PUSH1 0x40 MLOAD PUSH2 0x151 SWAP6 SWAP5 SWAP4 SWAP3 SWAP2 SWAP1 PUSH2 0x2F8E JUMP JUMPDEST PUSH1 0x40 MLOAD DUP1 SWAP2 SUB SWAP1 RETURN JUMPDEST PUSH2 0x174 PUSH1 0x4 DUP1 CALLDATASIZE SUB DUP2 ADD SWAP1 PUSH2 0x16F SWAP2 SWAP1 PUSH2 0x3167 JUMP JUMPDEST PUSH2 0x512 JUMP JUMPDEST STOP JUMPDEST PUSH2 0x190 PUSH1 0x4 DUP1 CALLDATASIZE SUB DUP2 ADD SWAP1 PUSH2 0x18B SWAP2 SWAP1 PUSH2 0x3248 JUMP JUMPDEST PUSH2 0x68B JUMP JUMPDEST PUSH1 0x40 MLOAD PUSH2 0x1A3 SWAP8 SWAP7 SWAP6 SWAP5 SWAP4 SWAP3 SWAP2 SWAP1 PUSH2 0x3284 JUMP JUMPDEST PUSH1 0x40 MLOAD DUP1 SWAP2 SUB SWAP1 RETURN JUMPDEST PUSH2 0x1C6 PUSH1 0x4 DUP1 CALLDATASIZE SUB DUP2 ADD SWAP1 PUSH2 0x1C1 SWAP2 SWAP1 PUSH2 0x3248 JUMP JUMPDEST PUSH2 0x8FA JUMP JUMPDEST PUSH1 0x40 MLOAD PUSH2 0x1D3 SWAP2 SWAP1 PUSH2 0x3357 JUMP JUMPDEST PUSH1 0x40 MLOAD DUP1 SWAP2 SUB SWAP1 RETURN JUMPDEST PUSH2 0x1F6 PUSH1 0x4 DUP1 CALLDATASIZE SUB DUP2 ADD SWAP1 PUSH2 0x1F1 SWAP2 SWAP1 PUSH2 0x3372 JUMP JUMPDEST PUSH2 0xA29 JUMP JUMPDEST PUSH1 0x40 MLOAD PUSH2 0x203 SWAP2 SWAP1 PUSH2 0x33E1 JUMP JUMPDEST PUSH1 0x40 MLOAD DUP1 SWAP2 SUB SWAP1 RETURN JUMPDEST PUSH2 0x226 PUSH1 0x4 DUP1 CALLDATASIZE SUB DUP2 ADD SWAP1 PUSH2 0x221 SWAP2 SWAP1 PUSH2 0x33FC JUMP JUMPDEST PUSH2 0xD62 JUMP JUMPDEST STOP JUMPDEST PUSH2 0x242 PUSH1 0x4 DUP1 CALLDATASIZE SUB DUP2 ADD SWAP1 PUSH2 0x23D SWAP2 SWAP1 PUSH2 0x347F JUMP JUMPDEST PUSH2 0x1009 JUMP JUMPDEST PUSH1 0x40 MLOAD PUSH2 0x24F SWAP2 SWAP1 PUSH2 0x368A JUMP JUMPDEST PUSH1 0x40 MLOAD DUP1 SWAP2 SUB SWAP1 RETURN JUMPDEST PUSH2 0x272 PUSH1 0x4 DUP1 CALLDATASIZE SUB DUP2 ADD SWAP1 PUSH2 0x26D SWAP2 SWAP1 PUSH2 0x3248 JUMP JUMPDEST PUSH2 0x1419 JUMP JUMPDEST STOP JUMPDEST PUSH2 0x28E PUSH1 0x4 DUP1 CALLDATASIZE SUB DUP2 ADD SWAP1 PUSH2 0x289 SWAP2 SWAP1 PUSH2 0x36AC JUMP JUMPDEST PUSH2 0x1579 JUMP JUMPDEST STOP JUMPDEST PUSH2 0x2AA PUSH1 0x4 DUP1 CALLDATASIZE SUB DUP2 ADD SWAP1 PUSH2 0x2A5 SWAP2 SWAP1 PUSH2 0x36EC JUMP JUMPDEST PUSH2 0x18CC JUMP JUMPDEST PUSH1 0x40 MLOAD PUSH2 0x2B7 SWAP2 SWAP1 PUSH2 0x3357 JUMP JUMPDEST PUSH1 0x40 MLOAD DUP1 SWAP2 SUB SWAP1 RETURN JUMPDEST PUSH2 0x2DA PUSH1 0x4 DUP1 CALLDATASIZE SUB DUP2 ADD SWAP1 PUSH2 0x2D5 SWAP2 SWAP1 PUSH2 0x372C JUMP JUMPDEST PUSH2 0x18FB JUMP JUMPDEST STOP JUMPDEST PUSH2 0x2F6 PUSH1 0x4 DUP1 CALLDATASIZE SUB DUP2 ADD SWAP1 PUSH2 0x2F1 SWAP2 SWAP1 PUSH2 0x3248 JUMP JUMPDEST PUSH2 0x1EAE JUMP JUMPDEST PUSH1 0x40 MLOAD PUSH2 0x303 SWAP2 SWAP1 PUSH2 0x38DA JUMP JUMPDEST PUSH1 0x40 MLOAD DUP1 SWAP2 SUB SWAP1 RETURN JUMPDEST PUSH2 0x326 PUSH1 0x4 DUP1 CALLDATASIZE SUB DUP2 ADD SWAP1 PUSH2 0x321 SWAP2 SWAP1 PUSH2 0x3248 JUMP JUMPDEST PUSH2 0x2109 JUMP JUMPDEST STOP JUMPDEST PUSH2 0x342 PUSH1 0x4 DUP1 CALLDATASIZE SUB DUP2 ADD SWAP1 PUSH2 0x33D SWAP2 SWAP1 PUSH2 0x38FC JUMP JUMPDEST PUSH2 0x2231 JUMP JUMPDEST PUSH1 0x40 MLOAD PUSH2 0x34F SWAP2 SWAP1 PUSH2 0x38DA JUMP JUMPDEST PUSH1 0x40 MLOAD DUP1 SWAP2 SUB SWAP1 RETURN JUMPDEST PUSH2 0x372 PUSH1 0x4 DUP1 CALLDATASIZE SUB DUP2 ADD SWAP1 PUSH2 0x36D SWAP2 SWAP1 PUSH2 0x3248 JUMP JUMPDEST PUSH2 0x2484 JUMP JUMPDEST PUSH1 0x40 MLOAD PUSH2 0x37F SWAP2 SWAP1 PUSH2 0x3A2B JUMP JUMPDEST PUSH1 0x40 MLOAD DUP1 SWAP2 SUB SWAP1 RETURN JUMPDEST PUSH2 0x3A2 PUSH1 0x4 DUP1 CALLDATASIZE SUB DUP2 ADD SWAP1 PUSH2 0x39D SWAP2 SWAP1 PUSH2 0x2DF7 JUMP JUMPDEST PUSH2 0x2754 JUMP JUMPDEST PUSH1 0x40 MLOAD PUSH2 0x3AF SWAP2 SWAP1 PUSH2 0x3AC3 JUMP JUMPDEST PUSH1 0x40 MLOAD DUP1 SWAP2 SUB SWAP1 RETURN JUMPDEST PUSH2 0x3D2 PUSH1 0x4 DUP1 CALLDATASIZE SUB DUP2 ADD SWAP1 PUSH2 0x3CD SWAP2 SWAP1 PUSH2 0x3AE5 JUMP JUMPDEST PUSH2 0x28BF JUMP JUMPDEST STOP JUMPDEST PUSH2 0x3EE PUSH1 0x4 DUP1 CALLDATASIZE SUB DUP2 ADD SWAP1 PUSH2 0x3E9 SWAP2 SWAP1 PUSH2 0x3248 JUMP JUMPDEST PUSH2 0x2B2F JUMP JUMPDEST PUSH1 0x40 MLOAD PUSH2 0x3FB SWAP2 SWAP1 PUSH2 0x3B38 JUMP JUMPDEST PUSH1 0x40 MLOAD DUP1 SWAP2 SUB SWAP1 RETURN JUMPDEST PUSH2 0x41E PUSH1 0x4 DUP1 CALLDATASIZE SUB DUP2 ADD SWAP1 PUSH2 0x419 SWAP2 SWAP1 PUSH2 0x3B53 JUMP JUMPDEST PUSH2 0x2B4F JUMP JUMPDEST STOP JUMPDEST PUSH1 0x2 PUSH1 0x20 MSTORE DUP1 PUSH1 0x0 MSTORE PUSH1 0x40 PUSH1 0x0 KECCAK256 PUSH1 0x0 SWAP2 POP SWAP1 POP DUP1 PUSH1 0x0 ADD DUP1 SLOAD PUSH2 0x443 SWAP1 PUSH2 0x3C59 JUMP JUMPDEST DUP1 PUSH1 0x1F ADD PUSH1 0x20 DUP1 SWAP2 DIV MUL PUSH1 0x20 ADD PUSH1 0x40 MLOAD SWAP1 DUP2 ADD PUSH1 0x40 MSTORE DUP1 SWAP3 SWAP2 SWAP1 DUP2 DUP2 MSTORE PUSH1 0x20 ADD DUP3 DUP1 SLOAD PUSH2 0x46F SWAP1 PUSH2 0x3C59 JUMP JUMPDEST DUP1 ISZERO PUSH2 0x4BC JUMPI DUP1 PUSH1 0x1F LT PUSH2 0x491 JUMPI PUSH2 0x100 DUP1 DUP4 SLOAD DIV MUL DUP4 MSTORE SWAP2 PUSH1 0x20 ADD SWAP2 PUSH2 0x4BC JUMP JUMPDEST DUP3 ADD SWAP2 SWAP1 PUSH1 0x0 MSTORE PUSH1 0x20 PUSH1 0x0 KECCAK256 SWAP1 JUMPDEST DUP2 SLOAD DUP2 MSTORE SWAP1 PUSH1 0x1 ADD SWAP1 PUSH1 0x20 ADD DUP1 DUP4 GT PUSH2 0x49F JUMPI DUP3 SWAP1 SUB PUSH1 0x1F AND DUP3 ADD SWAP2 JUMPDEST POP POP POP POP POP SWAP1 DUP1 PUSH1 0x1 ADD PUSH1 0x0 SWAP1 SLOAD SWAP1 PUSH2 0x100 EXP SWAP1 DIV PUSH1 0xFF AND SWAP1 DUP1 PUSH1 0x1 ADD PUSH1 0x1 SWAP1 SLOAD SWAP1 PUSH2 0x100 EXP SWAP1 DIV PUSH1 0xFF AND SWAP1 DUP1 PUSH1 0x1 ADD PUSH1 0x2 SWAP1 SLOAD SWAP1 PUSH2 0x100 EXP SWAP1 DIV PUSH1 0xFF AND SWAP1 DUP1 PUSH1 0x1 ADD PUSH1 0x3 SWAP1 SLOAD SWAP1 PUSH2 0x100 EXP SWAP1 DIV PUSH1 0xFF AND SWAP1 POP DUP6 JUMP JUMPDEST PUSH1 0x4 PUSH1 0x0 CALLER PUSH20 0xFFFFFFFFFFFFFFFFFFFFFFFFFFFFFFFFFFFFFFFF AND PUSH20 0xFFFFFFFFFFFFFFFFFFFFFFFFFFFFFFFFFFFFFFFF AND DUP2 MSTORE PUSH1 0x20 ADD SWAP1 DUP2 MSTORE PUSH1 0x20 ADD PUSH1 0x0 KECCAK256 PUSH1 0x0 SWAP1 SLOAD SWAP1 PUSH2 0x100 EXP SWAP1 DIV PUSH1 0xFF AND PUSH2 0x568 JUMPI PUSH1 0x0 DUP1 REVERT JUMPDEST PUSH1 0x40 MLOAD DUP1 PUSH1 0xA0 ADD PUSH1 0x40 MSTORE DUP1 DUP5 DUP2 MSTORE PUSH1 0x20 ADD PUSH1 0x0 ISZERO ISZERO DUP2 MSTORE PUSH1 0x20 ADD DUP4 PUSH1 0x3 DUP2 GT ISZERO PUSH2 0x595 JUMPI PUSH2 0x594 PUSH2 0x2ECF JUMP JUMPDEST JUMPDEST DUP2 MSTORE PUSH1 0x20 ADD DUP3 PUSH1 0x1 DUP2 GT ISZERO PUSH2 0x5AD JUMPI PUSH2 0x5AC PUSH2 0x2ECF JUMP JUMPDEST JUMPDEST DUP2 MSTORE PUSH1 0x20 ADD PUSH1 0x1 ISZERO ISZERO DUP2 MSTORE POP PUSH1 0x2 PUSH1 0x0 DUP7 DUP2 MSTORE PUSH1 0x20 ADD SWAP1 DUP2 MSTORE PUSH1 0x20 ADD PUSH1 0x0 KECCAK256 PUSH1 0x0 DUP3 ADD MLOAD DUP2 PUSH1 0x0 ADD SWAP1 DUP2 PUSH2 0x5E1 SWAP2 SWAP1 PUSH2 0x3E36 JUMP JUMPDEST POP PUSH1 0x20 DUP3 ADD MLOAD DUP2 PUSH1 0x1 ADD PUSH1 0x0 PUSH2 0x100 EXP DUP2 SLOAD DUP2 PUSH1 0xFF MUL NOT AND SWAP1 DUP4 ISZERO ISZERO MUL OR SWAP1 SSTORE POP PUSH1 0x40 DUP3 ADD MLOAD DUP2 PUSH1 0x1 ADD PUSH1 0x1 PUSH2 0x100 EXP DUP2 SLOAD DUP2 PUSH1 0xFF MUL NOT AND SWAP1 DUP4 PUSH1 0x3 DUP2 GT ISZERO PUSH2 0x62D JUMPI PUSH2 0x62C PUSH2 0x2ECF JUMP JUMPDEST JUMPDEST MUL OR SWAP1 SSTORE POP PUSH1 0x60 DUP3 ADD MLOAD DUP2 PUSH1 0x1 ADD PUSH1 0x2 PUSH2 0x100 EXP DUP2 SLOAD DUP2 PUSH1 0xFF MUL NOT AND SWAP1 DUP4 PUSH1 0x1 DUP2 GT ISZERO PUSH2 0x65D JUMPI PUSH2 0x65C PUSH2 0x2ECF JUMP JUMPDEST JUMPDEST MUL OR SWAP1 SSTORE POP PUSH1 0x80 DUP3 ADD MLOAD DUP2 PUSH1 0x1 ADD PUSH1 0x3 PUSH2 0x100 EXP DUP2 SLOAD DUP2 PUSH1 0xFF MUL NOT AND SWAP1 DUP4 ISZERO ISZERO MUL OR SWAP1 SSTORE POP SWAP1 POP POP POP POP POP POP JUMP JUMPDEST PUSH1 0x1 PUSH1 0x20 MSTORE DUP1 PUSH1 0x0 MSTORE PUSH1 0x40 PUSH1 0x0 KECCAK256 PUSH1 0x0 SWAP2 POP SWAP1 POP DUP1 PUSH1 0x0 ADD DUP1 SLOAD PUSH2 0x6AE SWAP1 PUSH2 0x3C59 JUMP JUMPDEST DUP1 PUSH1 0x1F ADD PUSH1 0x20 DUP1 SWAP2 DIV MUL PUSH1 0x20 ADD PUSH1 0x40 MLOAD SWAP1 DUP2 ADD PUSH1 0x40 MSTORE DUP1 SWAP3 SWAP2 SWAP1 DUP2 DUP2 MSTORE PUSH1 0x20 ADD DUP3 DUP1 SLOAD PUSH2 0x6DA SWAP1 PUSH2 0x3C59 JUMP JUMPDEST DUP1 ISZERO PUSH2 0x727 JUMPI DUP1 PUSH1 0x1F LT PUSH2 0x6FC JUMPI PUSH2 0x100 DUP1 DUP4 SLOAD DIV MUL DUP4 MSTORE SWAP2 PUSH1 0x20 ADD SWAP2 PUSH2 0x727 JUMP JUMPDEST DUP3 ADD SWAP2 SWAP1 PUSH1 0x0 MSTORE PUSH1 0x20 PUSH1 0x0 KECCAK256 SWAP1 JUMPDEST DUP2 SLOAD DUP2 MSTORE SWAP1 PUSH1 0x1 ADD SWAP1 PUSH1 0x20 ADD DUP1 DUP4 GT PUSH2 0x70A JUMPI DUP3 SWAP1 SUB PUSH1 0x1F AND DUP3 ADD SWAP2 JUMPDEST POP POP POP POP POP SWAP1 DUP1 PUSH1 0x1 ADD DUP1 SLOAD PUSH2 0x73C SWAP1 PUSH2 0x3C59 JUMP JUMPDEST DUP1 PUSH1 0x1F ADD PUSH1 0x20 DUP1 SWAP2 DIV MUL PUSH1 0x20 ADD PUSH1 0x40 MLOAD SWAP1 DUP2 ADD PUSH1 0x40 MSTORE DUP1 SWAP3 SWAP2 SWAP1 DUP2 DUP2 MSTORE PUSH1 0x20 ADD DUP3 DUP1 SLOAD PUSH2 0x768 SWAP1 PUSH2 0x3C59 JUMP JUMPDEST DUP1 ISZERO PUSH2 0x7B5 JUMPI DUP1 PUSH1 0x1F LT PUSH2 0x78A JUMPI PUSH2 0x100 DUP1 DUP4 SLOAD DIV MUL DUP4 MSTORE SWAP2 PUSH1 0x20 ADD SWAP2 PUSH2 0x7B5 JUMP JUMPDEST DUP3 ADD SWAP2 SWAP1 PUSH1 0x0 MSTORE PUSH1 0x20 PUSH1 0x0 KECCAK256 SWAP1 JUMPDEST DUP2 SLOAD DUP2 MSTORE SWAP1 PUSH1 0x1 ADD SWAP1 PUSH1 0x20 ADD DUP1 DUP4 GT PUSH2 0x798 JUMPI DUP3 SWAP1 SUB PUSH1 0x1F AND DUP3 ADD SWAP2 JUMPDEST POP POP POP POP POP SWAP1 DUP1 PUSH1 0x2 ADD DUP1 SLOAD PUSH2 0x7CA SWAP1 PUSH2 0x3C59 JUMP JUMPDEST DUP1 PUSH1 0x1F ADD PUSH1 0x20 DUP1 SWAP2 DIV MUL PUSH1 0x20 ADD PUSH1 0x40 MLOAD SWAP1 DUP2 ADD PUSH1 0x40 MSTORE DUP1 SWAP3 SWAP2 SWAP1 DUP2 DUP2 MSTORE PUSH1 0x20 ADD DUP3 DUP1 SLOAD PUSH2 0x7F6 SWAP1 PUSH2 0x3C59 JUMP JUMPDEST DUP1 ISZERO PUSH2 0x843 JUMPI DUP1 PUSH1 0x1F LT PUSH2 0x818 JUMPI PUSH2 0x100 DUP1 DUP4 SLOAD DIV MUL DUP4 MSTORE SWAP2 PUSH1 0x20 ADD SWAP2 PUSH2 0x843 JUMP JUMPDEST DUP3 ADD SWAP2 SWAP1 PUSH1 0x0 MSTORE PUSH1 0x20 PUSH1 0x0 KECCAK256 SWAP1 JUMPDEST DUP2 SLOAD DUP2 MSTORE SWAP1 PUSH1 0x1 ADD SWAP1 PUSH1 0x20 ADD DUP1 DUP4 GT PUSH2 0x826 JUMPI DUP3 SWAP1 SUB PUSH1 0x1F AND DUP3 ADD SWAP2 JUMPDEST POP POP POP POP POP SWAP1 DUP1 PUSH1 0x3 ADD DUP1 SLOAD PUSH2 0x858 SWAP1 PUSH2 0x3C59 JUMP JUMPDEST DUP1 PUSH1 0x1F ADD PUSH1 0x20 DUP1 SWAP2 DIV MUL PUSH1 0x20 ADD PUSH1 0x40 MLOAD SWAP1 DUP2 ADD PUSH1 0x40 MSTORE DUP1 SWAP3 SWAP2 SWAP1 DUP2 DUP2 MSTORE PUSH1 0x20 ADD DUP3 DUP1 SLOAD PUSH2 0x884 SWAP1 PUSH2 0x3C59 JUMP JUMPDEST DUP1 ISZERO PUSH2 0x8D1 JUMPI DUP1 PUSH1 0x1F LT PUSH2 0x8A6 JUMPI PUSH2 0x100 DUP1 DUP4 SLOAD DIV MUL DUP4 MSTORE SWAP2 PUSH1 0x20 ADD SWAP2 PUSH2 0x8D1 JUMP JUMPDEST DUP3 ADD SWAP2 SWAP1 PUSH1 0x0 MSTORE PUSH1 0x20 PUSH1 0x0 KECCAK256 SWAP1 JUMPDEST DUP2 SLOAD DUP2 MSTORE SWAP1 PUSH1 0x1 ADD SWAP1 PUSH1 0x20 ADD DUP1 DUP4 GT PUSH2 0x8B4 JUMPI DUP3 SWAP1 SUB PUSH1 0x1F AND DUP3 ADD SWAP2 JUMPDEST POP POP POP POP POP SWAP1 DUP1 PUSH1 0x4 ADD SLOAD SWAP1 DUP1 PUSH1 0x5 ADD SLOAD SWAP1 DUP1 PUSH1 0x6 ADD PUSH1 0x0 SWAP1 SLOAD SWAP1 PUSH2 0x100 EXP SWAP1 DIV PUSH1 0xFF AND SWAP1 POP DUP8 JUMP JUMPDEST PUSH1 0x0 DUP1 PUSH1 0x1 PUSH1 0x0 DUP5 PUSH20 0xFFFFFFFFFFFFFFFFFFFFFFFFFFFFFFFFFFFFFFFF AND PUSH20 0xFFFFFFFFFFFFFFFFFFFFFFFFFFFFFFFFFFFFFFFF AND DUP2 MSTORE PUSH1 0x20 ADD SWAP1 DUP2 MSTORE PUSH1 0x20 ADD PUSH1 0x0 KECCAK256 PUSH1 0x4 ADD SLOAD GT PUSH2 0x980 JUMPI PUSH1 0x40 MLOAD PUSH32 0x8C379A000000000000000000000000000000000000000000000000000000000 DUP2 MSTORE PUSH1 0x4 ADD PUSH2 0x977 SWAP1 PUSH2 0x3F54 JUMP JUMPDEST PUSH1 0x40 MLOAD DUP1 SWAP2 SUB SWAP1 REVERT JUMPDEST PUSH1 0x1 PUSH1 0x0 DUP4 PUSH20 0xFFFFFFFFFFFFFFFFFFFFFFFFFFFFFFFFFFFFFFFF AND PUSH20 0xFFFFFFFFFFFFFFFFFFFFFFFFFFFFFFFFFFFFFFFF AND DUP2 MSTORE PUSH1 0x20 ADD SWAP1 DUP2 MSTORE PUSH1 0x20 ADD PUSH1 0x0 KECCAK256 PUSH1 0x4 ADD SLOAD PUSH1 0x1 PUSH1 0x0 DUP5 PUSH20 0xFFFFFFFFFFFFFFFFFFFFFFFFFFFFFFFFFFFFFFFF AND PUSH20 0xFFFFFFFFFFFFFFFFFFFFFFFFFFFFFFFFFFFFFFFF AND DUP2 MSTORE PUSH1 0x20 ADD SWAP1 DUP2 MSTORE PUSH1 0x20 ADD PUSH1 0x0 KECCAK256 PUSH1 0x5 ADD SLOAD PUSH2 0xA10 SWAP2 SWAP1 PUSH2 0x3FD2 JUMP JUMPDEST PUSH1 0x4 DUP2 GT ISZERO PUSH2 0xA22 JUMPI PUSH2 0xA21 PUSH2 0x2ECF JUMP JUMPDEST JUMPDEST SWAP1 POP SWAP2 SWAP1 POP JUMP JUMPDEST PUSH1 0x0 DUP3 PUSH1 0x0 DUP1 DUP3 PUSH20 0xFFFFFFFFFFFFFFFFFFFFFFFFFFFFFFFFFFFFFFFF AND PUSH20 0xFFFFFFFFFFFFFFFFFFFFFFFFFFFFFFFFFFFFFFFF AND DUP2 MSTORE PUSH1 0x20 ADD SWAP1 DUP2 MSTORE PUSH1 0x20 ADD PUSH1 0x0 KECCAK256 PUSH1 0x6 ADD PUSH1 0x0 CALLER PUSH20 0xFFFFFFFFFFFFFFFFFFFFFFFFFFFFFFFFFFFFFFFF AND PUSH20 0xFFFFFFFFFFFFFFFFFFFFFFFFFFFFFFFFFFFFFFFF AND DUP2 MSTORE PUSH1 0x20 ADD SWAP1 DUP2 MSTORE PUSH1 0x20 ADD PUSH1 0x0 KECCAK256 PUSH1 0x0 SWAP1 SLOAD SWAP1 PUSH2 0x100 EXP SWAP1 DIV PUSH1 0xFF AND PUSH2 0xAF7 JUMPI PUSH1 0x40 MLOAD PUSH32 0x8C379A000000000000000000000000000000000000000000000000000000000 DUP2 MSTORE PUSH1 0x4 ADD PUSH2 0xAEE SWAP1 PUSH2 0x404F JUMP JUMPDEST PUSH1 0x40 MLOAD DUP1 SWAP2 SUB SWAP1 REVERT JUMPDEST PUSH1 0x0 DUP4 EQ DUP1 PUSH2 0xB06 JUMPI POP PUSH1 0x1 DUP4 EQ JUMPDEST PUSH2 0xB45 JUMPI PUSH1 0x40 MLOAD PUSH32 0x8C379A000000000000000000000000000000000000000000000000000000000 DUP2 MSTORE PUSH1 0x4 ADD PUSH2 0xB3C SWAP1 PUSH2 0x4107 JUMP JUMPDEST PUSH1 0x40 MLOAD DUP1 SWAP2 SUB SWAP1 REVERT JUMPDEST PUSH1 0x0 DUP4 SUB PUSH2 0xC2C JUMPI PUSH1 0x0 DUP1 DUP6 PUSH20 0xFFFFFFFFFFFFFFFFFFFFFFFFFFFFFFFFFFFFFFFF AND PUSH20 0xFFFFFFFFFFFFFFFFFFFFFFFFFFFFFFFFFFFFFFFF AND DUP2 MSTORE PUSH1 0x20 ADD SWAP1 DUP2 MSTORE PUSH1 0x20 ADD PUSH1 0x0 KECCAK256 PUSH1 0x4 ADD PUSH1 0x40 MLOAD DUP1 PUSH1 0x40 ADD PUSH1 0x40 MSTORE DUP1 DUP8 DUP2 MSTORE PUSH1 0x20 ADD PUSH1 0x0 PUSH1 0x5 DUP2 GT ISZERO PUSH2 0xBB3 JUMPI PUSH2 0xBB2 PUSH2 0x2ECF JUMP JUMPDEST JUMPDEST DUP2 MSTORE POP SWAP1 DUP1 PUSH1 0x1 DUP2 SLOAD ADD DUP1 DUP3 SSTORE DUP1 SWAP2 POP POP PUSH1 0x1 SWAP1 SUB SWAP1 PUSH1 0x0 MSTORE PUSH1 0x20 PUSH1 0x0 KECCAK256 SWAP1 PUSH1 0x2 MUL ADD PUSH1 0x0 SWAP1 SWAP2 SWAP1 SWAP2 SWAP1 SWAP2 POP PUSH1 0x0 DUP3 ADD MLOAD DUP2 PUSH1 0x0 ADD SWAP1 DUP2 PUSH2 0xBF4 SWAP2 SWAP1 PUSH2 0x3E36 JUMP JUMPDEST POP PUSH1 0x20 DUP3 ADD MLOAD DUP2 PUSH1 0x1 ADD PUSH1 0x0 PUSH2 0x100 EXP DUP2 SLOAD DUP2 PUSH1 0xFF MUL NOT AND SWAP1 DUP4 PUSH1 0x5 DUP2 GT ISZERO PUSH2 0xC20 JUMPI PUSH2 0xC1F PUSH2 0x2ECF JUMP JUMPDEST JUMPDEST MUL OR SWAP1 SSTORE POP POP POP PUSH2 0xD07 JUMP JUMPDEST PUSH1 0x0 DUP1 DUP6 PUSH20 0xFFFFFFFFFFFFFFFFFFFFFFFFFFFFFFFFFFFFFFFF AND PUSH20 0xFFFFFFFFFFFFFFFFFFFFFFFFFFFFFFFFFFFFFFFF AND DUP2 MSTORE PUSH1 0x20 ADD SWAP1 DUP2 MSTORE PUSH1 0x20 ADD PUSH1 0x0 KECCAK256 PUSH1 0x4 ADD PUSH1 0x40 MLOAD DUP1 PUSH1 0x40 ADD PUSH1 0x40 MSTORE DUP1 DUP8 DUP2 MSTORE PUSH1 0x20 ADD PUSH1 0x1 PUSH1 0x5 DUP2 GT ISZERO PUSH2 0xC92 JUMPI PUSH2 0xC91 PUSH2 0x2ECF JUMP JUMPDEST JUMPDEST DUP2 MSTORE POP SWAP1 DUP1 PUSH1 0x1 DUP2 SLOAD ADD DUP1 DUP3 SSTORE DUP1 SWAP2 POP POP PUSH1 0x1 SWAP1 SUB SWAP1 PUSH1 0x0 MSTORE PUSH1 0x20 PUSH1 0x0 KECCAK256 SWAP1 PUSH1 0x2 MUL ADD PUSH1 0x0 SWAP1 SWAP2 SWAP1 SWAP2 SWAP1 SWAP2 POP PUSH1 0x0 DUP3 ADD MLOAD DUP2 PUSH1 0x0 ADD SWAP1 DUP2 PUSH2 0xCD3 SWAP2 SWAP1 PUSH2 0x3E36 JUMP JUMPDEST POP PUSH1 0x20 DUP3 ADD MLOAD DUP2 PUSH1 0x1 ADD PUSH1 0x0 PUSH2 0x100 EXP DUP2 SLOAD DUP2 PUSH1 0xFF MUL NOT AND SWAP1 DUP4 PUSH1 0x5 DUP2 GT ISZERO PUSH2 0xCFF JUMPI PUSH2 0xCFE PUSH2 0x2ECF JUMP JUMPDEST JUMPDEST MUL OR SWAP1 SSTORE POP POP POP JUMPDEST PUSH1 0x1 PUSH1 0x0 DUP1 DUP7 PUSH20 0xFFFFFFFFFFFFFFFFFFFFFFFFFFFFFFFFFFFFFFFF AND PUSH20 0xFFFFFFFFFFFFFFFFFFFFFFFFFFFFFFFFFFFFFFFF AND DUP2 MSTORE PUSH1 0x20 ADD SWAP1 DUP2 MSTORE PUSH1 0x20 ADD PUSH1 0x0 KECCAK256 PUSH1 0x4 ADD DUP1 SLOAD SWAP1 POP PUSH2 0xD58 SWAP2 SWAP1 PUSH2 0x4127 JUMP JUMPDEST SWAP2 POP POP SWAP4 SWAP3 POP POP POP JUMP JUMPDEST PUSH1 0x0 DUP1 CALLER PUSH20 0xFFFFFFFFFFFFFFFFFFFFFFFFFFFFFFFFFFFFFFFF AND PUSH20 0xFFFFFFFFFFFFFFFFFFFFFFFFFFFFFFFFFFFFFFFF AND DUP2 MSTORE PUSH1 0x20 ADD SWAP1 DUP2 MSTORE PUSH1 0x20 ADD PUSH1 0x0 KECCAK256 PUSH1 0x8 ADD PUSH1 0x0 SWAP1 SLOAD SWAP1 PUSH2 0x100 EXP SWAP1 DIV PUSH1 0xFF AND ISZERO PUSH2 0xDF1 JUMPI PUSH1 0x40 MLOAD PUSH32 0x8C379A000000000000000000000000000000000000000000000000000000000 DUP2 MSTORE PUSH1 0x4 ADD PUSH2 0xDE8 SWAP1 PUSH2 0x41CD JUMP JUMPDEST PUSH1 0x40 MLOAD DUP1 SWAP2 SUB SWAP1 REVERT JUMPDEST DUP4 PUSH1 0x0 DUP1 CALLER PUSH20 0xFFFFFFFFFFFFFFFFFFFFFFFFFFFFFFFFFFFFFFFF AND PUSH20 0xFFFFFFFFFFFFFFFFFFFFFFFFFFFFFFFFFFFFFFFF AND DUP2 MSTORE PUSH1 0x20 ADD SWAP1 DUP2 MSTORE PUSH1 0x20 ADD PUSH1 0x0 KECCAK256 PUSH1 0x0 ADD SWAP1 DUP2 PUSH2 0xE3F SWAP2 SWAP1 PUSH2 0x3E36 JUMP JUMPDEST POP DUP3 PUSH1 0x0 DUP1 CALLER PUSH20 0xFFFFFFFFFFFFFFFFFFFFFFFFFFFFFFFFFFFFFFFF AND PUSH20 0xFFFFFFFFFFFFFFFFFFFFFFFFFFFFFFFFFFFFFFFF AND DUP2 MSTORE PUSH1 0x20 ADD SWAP1 DUP2 MSTORE PUSH1 0x20 ADD PUSH1 0x0 KECCAK256 PUSH1 0x1 ADD DUP2 SWAP1 SSTORE POP DUP2 PUSH1 0x0 DUP1 CALLER PUSH20 0xFFFFFFFFFFFFFFFFFFFFFFFFFFFFFFFFFFFFFFFF AND PUSH20 0xFFFFFFFFFFFFFFFFFFFFFFFFFFFFFFFFFFFFFFFF AND DUP2 MSTORE PUSH1 0x20 ADD SWAP1 DUP2 MSTORE PUSH1 0x20 ADD PUSH1 0x0 KECCAK256 PUSH1 0x2 ADD DUP2 SWAP1 SSTORE POP DUP1 PUSH1 0x0 DUP1 CALLER PUSH20 0xFFFFFFFFFFFFFFFFFFFFFFFFFFFFFFFFFFFFFFFF AND PUSH20 0xFFFFFFFFFFFFFFFFFFFFFFFFFFFFFFFFFFFFFFFF AND DUP2 MSTORE PUSH1 0x20 ADD SWAP1 DUP2 MSTORE PUSH1 0x20 ADD PUSH1 0x0 KECCAK256 PUSH1 0x3 ADD DUP2 SWAP1 SSTORE POP PUSH1 0x1 PUSH1 0x0 DUP1 CALLER PUSH20 0xFFFFFFFFFFFFFFFFFFFFFFFFFFFFFFFFFFFFFFFF AND PUSH20 0xFFFFFFFFFFFFFFFFFFFFFFFFFFFFFFFFFFFFFFFF AND DUP2 MSTORE PUSH1 0x20 ADD SWAP1 DUP2 MSTORE PUSH1 0x20 ADD PUSH1 0x0 KECCAK256 PUSH1 0x6 ADD PUSH1 0x0 CALLER PUSH20 0xFFFFFFFFFFFFFFFFFFFFFFFFFFFFFFFFFFFFFFFF AND PUSH20 0xFFFFFFFFFFFFFFFFFFFFFFFFFFFFFFFFFFFFFFFF AND DUP2 MSTORE PUSH1 0x20 ADD SWAP1 DUP2 MSTORE PUSH1 0x20 ADD PUSH1 0x0 KECCAK256 PUSH1 0x0 PUSH2 0x100 EXP DUP2 SLOAD DUP2 PUSH1 0xFF MUL NOT AND SWAP1 DUP4 ISZERO ISZERO MUL OR SWAP1 SSTORE POP PUSH1 0x1 PUSH1 0x0 DUP1 CALLER PUSH20 0xFFFFFFFFFFFFFFFFFFFFFFFFFFFFFFFFFFFFFFFF AND PUSH20 0xFFFFFFFFFFFFFFFFFFFFFFFFFFFFFFFFFFFFFFFF AND DUP2 MSTORE PUSH1 0x20 ADD SWAP1 DUP2 MSTORE PUSH1 0x20 ADD PUSH1 0x0 KECCAK256 PUSH1 0x8 ADD PUSH1 0x0 PUSH2 0x100 EXP DUP2 SLOAD DUP2 PUSH1 0xFF MUL NOT AND SWAP1 DUP4 ISZERO ISZERO MUL OR SWAP1 SSTORE POP POP POP POP POP JUMP JUMPDEST PUSH1 0x60 PUSH1 0x1 PUSH1 0x0 CALLER PUSH20 0xFFFFFFFFFFFFFFFFFFFFFFFFFFFFFFFFFFFFFFFF AND PUSH20 0xFFFFFFFFFFFFFFFFFFFFFFFFFFFFFFFFFFFFFFFF AND DUP2 MSTORE PUSH1 0x20 ADD SWAP1 DUP2 MSTORE PUSH1 0x20 ADD PUSH1 0x0 KECCAK256 PUSH1 0x6 ADD PUSH1 0x0 SWAP1 SLOAD SWAP1 PUSH2 0x100 EXP SWAP1 DIV PUSH1 0xFF AND PUSH2 0x109A JUMPI PUSH1 0x40 MLOAD PUSH32 0x8C379A000000000000000000000000000000000000000000000000000000000 DUP2 MSTORE PUSH1 0x4 ADD PUSH2 0x1091 SWAP1 PUSH2 0x4239 JUMP JUMPDEST PUSH1 0x40 MLOAD DUP1 SWAP2 SUB SWAP1 REVERT JUMPDEST DUP3 PUSH1 0x0 DUP1 DUP3 PUSH20 0xFFFFFFFFFFFFFFFFFFFFFFFFFFFFFFFFFFFFFFFF AND PUSH20 0xFFFFFFFFFFFFFFFFFFFFFFFFFFFFFFFFFFFFFFFF AND DUP2 MSTORE PUSH1 0x20 ADD SWAP1 DUP2 MSTORE PUSH1 0x20 ADD PUSH1 0x0 KECCAK256 PUSH1 0x6 ADD PUSH1 0x0 CALLER PUSH20 0xFFFFFFFFFFFFFFFFFFFFFFFFFFFFFFFFFFFFFFFF AND PUSH20 0xFFFFFFFFFFFFFFFFFFFFFFFFFFFFFFFFFFFFFFFF AND DUP2 MSTORE PUSH1 0x20 ADD SWAP1 DUP2 MSTORE PUSH1 0x20 ADD PUSH1 0x0 KECCAK256 PUSH1 0x0 SWAP1 SLOAD SWAP1 PUSH2 0x100 EXP SWAP1 DIV PUSH1 0xFF AND PUSH2 0x1166 JUMPI PUSH1 0x40 MLOAD PUSH32 0x8C379A000000000000000000000000000000000000000000000000000000000 DUP2 MSTORE PUSH1 0x4 ADD PUSH2 0x115D SWAP1 PUSH2 0x404F JUMP JUMPDEST PUSH1 0x40 MLOAD DUP1 SWAP2 SUB SWAP1 REVERT JUMPDEST DUP3 PUSH1 0x40 MLOAD PUSH1 0x20 ADD PUSH2 0x1177 SWAP2 SWAP1 PUSH2 0x4295 JUMP JUMPDEST PUSH1 0x40 MLOAD PUSH1 0x20 DUP2 DUP4 SUB SUB DUP2 MSTORE SWAP1 PUSH1 0x40 MSTORE DUP1 MLOAD SWAP1 PUSH1 0x20 ADD KECCAK256 PUSH1 0x0 DUP1 DUP7 PUSH20 0xFFFFFFFFFFFFFFFFFFFFFFFFFFFFFFFFFFFFFFFF AND PUSH20 0xFFFFFFFFFFFFFFFFFFFFFFFFFFFFFFFFFFFFFFFF AND DUP2 MSTORE PUSH1 0x20 ADD SWAP1 DUP2 MSTORE PUSH1 0x20 ADD PUSH1 0x0 KECCAK256 PUSH1 0x0 ADD PUSH1 0x40 MLOAD PUSH1 0x20 ADD PUSH2 0x11DE SWAP2 SWAP1 PUSH2 0x432F JUMP JUMPDEST PUSH1 0x40 MLOAD PUSH1 0x20 DUP2 DUP4 SUB SUB DUP2 MSTORE SWAP1 PUSH1 0x40 MSTORE DUP1 MLOAD SWAP1 PUSH1 0x20 ADD KECCAK256 EQ PUSH2 0x11FE JUMPI PUSH1 0x0 DUP1 REVERT JUMPDEST PUSH1 0x0 DUP1 DUP6 PUSH20 0xFFFFFFFFFFFFFFFFFFFFFFFFFFFFFFFFFFFFFFFF AND PUSH20 0xFFFFFFFFFFFFFFFFFFFFFFFFFFFFFFFFFFFFFFFF AND DUP2 MSTORE PUSH1 0x20 ADD SWAP1 DUP2 MSTORE PUSH1 0x20 ADD PUSH1 0x0 KECCAK256 PUSH1 0x7 ADD PUSH1 0x0 CALLER PUSH20 0xFFFFFFFFFFFFFFFFFFFFFFFFFFFFFFFFFFFFFFFF AND PUSH20 0xFFFFFFFFFFFFFFFFFFFFFFFFFFFFFFFFFFFFFFFF AND DUP2 MSTORE PUSH1 0x20 ADD SWAP1 DUP2 MSTORE PUSH1 0x20 ADD PUSH1 0x0 KECCAK256 DUP1 SLOAD DUP1 PUSH1 0x20 MUL PUSH1 0x20 ADD PUSH1 0x40 MLOAD SWAP1 DUP2 ADD PUSH1 0x40 MSTORE DUP1 SWAP3 SWAP2 SWAP1 DUP2 DUP2 MSTORE PUSH1 0x20 ADD PUSH1 0x0 SWAP1 JUMPDEST DUP3 DUP3 LT ISZERO PUSH2 0x140C JUMPI DUP4 DUP3 SWAP1 PUSH1 0x0 MSTORE PUSH1 0x20 PUSH1 0x0 KECCAK256 SWAP1 PUSH1 0x2 MUL ADD PUSH1 0x40 MLOAD DUP1 PUSH1 0xA0 ADD PUSH1 0x40 MSTORE SWAP1 DUP2 PUSH1 0x0 DUP3 ADD DUP1 SLOAD PUSH2 0x12CF SWAP1 PUSH2 0x3C59 JUMP JUMPDEST DUP1 PUSH1 0x1F ADD PUSH1 0x20 DUP1 SWAP2 DIV MUL PUSH1 0x20 ADD PUSH1 0x40 MLOAD SWAP1 DUP2 ADD PUSH1 0x40 MSTORE DUP1 SWAP3 SWAP2 SWAP1 DUP2 DUP2 MSTORE PUSH1 0x20 ADD DUP3 DUP1 SLOAD PUSH2 0x12FB SWAP1 PUSH2 0x3C59 JUMP JUMPDEST DUP1 ISZERO PUSH2 0x1348 JUMPI DUP1 PUSH1 0x1F LT PUSH2 0x131D JUMPI PUSH2 0x100 DUP1 DUP4 SLOAD DIV MUL DUP4 MSTORE SWAP2 PUSH1 0x20 ADD SWAP2 PUSH2 0x1348 JUMP JUMPDEST DUP3 ADD SWAP2 SWAP1 PUSH1 0x0 MSTORE PUSH1 0x20 PUSH1 0x0 KECCAK256 SWAP1 JUMPDEST DUP2 SLOAD DUP2 MSTORE SWAP1 PUSH1 0x1 ADD SWAP1 PUSH1 0x20 ADD DUP1 DUP4 GT PUSH2 0x132B JUMPI DUP3 SWAP1 SUB PUSH1 0x1F AND DUP3 ADD SWAP2 JUMPDEST POP POP POP POP POP DUP2 MSTORE PUSH1 0x20 ADD PUSH1 0x1 DUP3 ADD PUSH1 0x0 SWAP1 SLOAD SWAP1 PUSH2 0x100 EXP SWAP1 DIV PUSH1 0xFF AND ISZERO ISZERO ISZERO ISZERO DUP2 MSTORE PUSH1 0x20 ADD PUSH1 0x1 DUP3 ADD PUSH1 0x1 SWAP1 SLOAD SWAP1 PUSH2 0x100 EXP SWAP1 DIV PUSH1 0xFF AND PUSH1 0x3 DUP2 GT ISZERO PUSH2 0x1391 JUMPI PUSH2 0x1390 PUSH2 0x2ECF JUMP JUMPDEST JUMPDEST PUSH1 0x3 DUP2 GT ISZERO PUSH2 0x13A3 JUMPI PUSH2 0x13A2 PUSH2 0x2ECF JUMP JUMPDEST JUMPDEST DUP2 MSTORE PUSH1 0x20 ADD PUSH1 0x1 DUP3 ADD PUSH1 0x2 SWAP1 SLOAD SWAP1 PUSH2 0x100 EXP SWAP1 DIV PUSH1 0xFF AND PUSH1 0x1 DUP2 GT ISZERO PUSH2 0x13CC JUMPI PUSH2 0x13CB PUSH2 0x2ECF JUMP JUMPDEST JUMPDEST PUSH1 0x1 DUP2 GT ISZERO PUSH2 0x13DE JUMPI PUSH2 0x13DD PUSH2 0x2ECF JUMP JUMPDEST JUMPDEST DUP2 MSTORE PUSH1 0x20 ADD PUSH1 0x1 DUP3 ADD PUSH1 0x3 SWAP1 SLOAD SWAP1 PUSH2 0x100 EXP SWAP1 DIV PUSH1 0xFF AND ISZERO ISZERO ISZERO ISZERO DUP2 MSTORE POP POP DUP2 MSTORE PUSH1 0x20 ADD SWAP1 PUSH1 0x1 ADD SWAP1 PUSH2 0x129C JUMP JUMPDEST POP POP POP POP SWAP2 POP POP SWAP3 SWAP2 POP POP JUMP JUMPDEST PUSH1 0x0 DUP1 CALLER PUSH20 0xFFFFFFFFFFFFFFFFFFFFFFFFFFFFFFFFFFFFFFFF AND PUSH20 0xFFFFFFFFFFFFFFFFFFFFFFFFFFFFFFFFFFFFFFFF AND DUP2 MSTORE PUSH1 0x20 ADD SWAP1 DUP2 MSTORE PUSH1 0x20 ADD PUSH1 0x0 KECCAK256 PUSH1 0x8 ADD PUSH1 0x0 SWAP1 SLOAD SWAP1 PUSH2 0x100 EXP SWAP1 DIV PUSH1 0xFF AND PUSH2 0x14A7 JUMPI PUSH1 0x40 MLOAD PUSH32 0x8C379A000000000000000000000000000000000000000000000000000000000 DUP2 MSTORE PUSH1 0x4 ADD PUSH2 0x149E SWAP1 PUSH2 0x43B8 JUMP JUMPDEST PUSH1 0x40 MLOAD DUP1 SWAP2 SUB SWAP1 REVERT JUMPDEST CALLER PUSH20 0xFFFFFFFFFFFFFFFFFFFFFFFFFFFFFFFFFFFFFFFF AND DUP2 PUSH20 0xFFFFFFFFFFFFFFFFFFFFFFFFFFFFFFFFFFFFFFFF AND SUB PUSH2 0x14DF JUMPI PUSH1 0x0 DUP1 REVERT JUMPDEST PUSH1 0x0 DUP1 PUSH1 0x0 CALLER PUSH20 0xFFFFFFFFFFFFFFFFFFFFFFFFFFFFFFFFFFFFFFFF AND PUSH20 0xFFFFFFFFFFFFFFFFFFFFFFFFFFFFFFFFFFFFFFFF AND DUP2 MSTORE PUSH1 0x20 ADD SWAP1 DUP2 MSTORE PUSH1 0x20 ADD PUSH1 0x0 KECCAK256 PUSH1 0x6 ADD PUSH1 0x0 DUP4 PUSH20 0xFFFFFFFFFFFFFFFFFFFFFFFFFFFFFFFFFFFFFFFF AND PUSH20 0xFFFFFFFFFFFFFFFFFFFFFFFFFFFFFFFFFFFFFFFF AND DUP2 MSTORE PUSH1 0x20 ADD SWAP1 DUP2 MSTORE PUSH1 0x20 ADD PUSH1 0x0 KECCAK256 PUSH1 0x0 PUSH2 0x100 EXP DUP2 SLOAD DUP2 PUSH1 0xFF MUL NOT AND SWAP1 DUP4 ISZERO ISZERO MUL OR SWAP1 SSTORE POP POP JUMP JUMPDEST PUSH1 0x0 DUP1 CALLER PUSH20 0xFFFFFFFFFFFFFFFFFFFFFFFFFFFFFFFFFFFFFFFF AND PUSH20 0xFFFFFFFFFFFFFFFFFFFFFFFFFFFFFFFFFFFFFFFF AND DUP2 MSTORE PUSH1 0x20 ADD SWAP1 DUP2 MSTORE PUSH1 0x20 ADD PUSH1 0x0 KECCAK256 PUSH1 0x8 ADD PUSH1 0x0 SWAP1 SLOAD SWAP1 PUSH2 0x100 EXP SWAP1 DIV PUSH1 0xFF AND PUSH2 0x1607 JUMPI PUSH1 0x40 MLOAD PUSH32 0x8C379A000000000000000000000000000000000000000000000000000000000 DUP2 MSTORE PUSH1 0x4 ADD PUSH2 0x15FE SWAP1 PUSH2 0x43B8 JUMP JUMPDEST PUSH1 0x40 MLOAD DUP1 SWAP2 SUB SWAP1 REVERT JUMPDEST PUSH1 0x0 DUP1 CALLER PUSH20 0xFFFFFFFFFFFFFFFFFFFFFFFFFFFFFFFFFFFFFFFF AND PUSH20 0xFFFFFFFFFFFFFFFFFFFFFFFFFFFFFFFFFFFFFFFF AND DUP2 MSTORE PUSH1 0x20 ADD SWAP1 DUP2 MSTORE PUSH1 0x20 ADD PUSH1 0x0 KECCAK256 PUSH1 0x6 ADD PUSH1 0x0 DUP4 PUSH20 0xFFFFFFFFFFFFFFFFFFFFFFFFFFFFFFFFFFFFFFFF AND PUSH20 0xFFFFFFFFFFFFFFFFFFFFFFFFFFFFFFFFFFFFFFFF AND DUP2 MSTORE PUSH1 0x20 ADD SWAP1 DUP2 MSTORE PUSH1 0x20 ADD PUSH1 0x0 KECCAK256 PUSH1 0x0 SWAP1 SLOAD SWAP1 PUSH2 0x100 EXP SWAP1 DIV PUSH1 0xFF AND DUP1 ISZERO PUSH2 0x174B JUMPI POP PUSH1 0x0 DUP1 CALLER PUSH20 0xFFFFFFFFFFFFFFFFFFFFFFFFFFFFFFFFFFFFFFFF AND PUSH20 0xFFFFFFFFFFFFFFFFFFFFFFFFFFFFFFFFFFFFFFFF AND DUP2 MSTORE PUSH1 0x20 ADD SWAP1 DUP2 MSTORE PUSH1 0x20 ADD PUSH1 0x0 KECCAK256 PUSH1 0x7 ADD PUSH1 0x0 DUP4 PUSH20 0xFFFFFFFFFFFFFFFFFFFFFFFFFFFFFFFFFFFFFFFF AND PUSH20 0xFFFFFFFFFFFFFFFFFFFFFFFFFFFFFFFFFFFFFFFF AND DUP2 MSTORE PUSH1 0x20 ADD SWAP1 DUP2 MSTORE PUSH1 0x20 ADD PUSH1 0x0 KECCAK256 PUSH1 0x0 DUP2 SLOAD DUP2 LT PUSH2 0x172B JUMPI PUSH2 0x172A PUSH2 0x43D8 JUMP JUMPDEST JUMPDEST SWAP1 PUSH1 0x0 MSTORE PUSH1 0x20 PUSH1 0x0 KECCAK256 SWAP1 PUSH1 0x2 MUL ADD PUSH1 0x1 ADD PUSH1 0x3 SWAP1 SLOAD SWAP1 PUSH2 0x100 EXP SWAP1 DIV PUSH1 0xFF AND JUMPDEST PUSH2 0x1754 JUMPI PUSH1 0x0 DUP1 REVERT JUMPDEST PUSH1 0x5 DUP2 LT PUSH2 0x1761 JUMPI PUSH1 0x0 DUP1 REVERT JUMPDEST DUP1 PUSH1 0x1 PUSH1 0x0 DUP5 PUSH20 0xFFFFFFFFFFFFFFFFFFFFFFFFFFFFFFFFFFFFFFFF AND PUSH20 0xFFFFFFFFFFFFFFFFFFFFFFFFFFFFFFFFFFFFFFFF AND DUP2 MSTORE PUSH1 0x20 ADD SWAP1 DUP2 MSTORE PUSH1 0x20 ADD PUSH1 0x0 KECCAK256 PUSH1 0x5 ADD PUSH1 0x0 DUP3 DUP3 SLOAD PUSH2 0x17B3 SWAP2 SWAP1 PUSH2 0x4407 JUMP JUMPDEST SWAP3 POP POP DUP2 SWAP1 SSTORE POP PUSH1 0x1 PUSH1 0x0 DUP4 PUSH20 0xFFFFFFFFFFFFFFFFFFFFFFFFFFFFFFFFFFFFFFFF AND PUSH20 0xFFFFFFFFFFFFFFFFFFFFFFFFFFFFFFFFFFFFFFFF AND DUP2 MSTORE PUSH1 0x20 ADD SWAP1 DUP2 MSTORE PUSH1 0x20 ADD PUSH1 0x0 KECCAK256 PUSH1 0x4 ADD PUSH1 0x0 DUP2 SLOAD DUP1 SWAP3 SWAP2 SWAP1 PUSH2 0x180D SWAP1 PUSH2 0x443B JUMP JUMPDEST SWAP2 SWAP1 POP SSTORE POP DUP1 PUSH1 0x4 DUP2 GT ISZERO PUSH2 0x1825 JUMPI PUSH2 0x1824 PUSH2 0x2ECF JUMP JUMPDEST JUMPDEST PUSH1 0x3 PUSH1 0x0 DUP5 PUSH20 0xFFFFFFFFFFFFFFFFFFFFFFFFFFFFFFFFFFFFFFFF AND PUSH20 0xFFFFFFFFFFFFFFFFFFFFFFFFFFFFFFFFFFFFFFFF AND DUP2 MSTORE PUSH1 0x20 ADD SWAP1 DUP2 MSTORE PUSH1 0x20 ADD PUSH1 0x0 KECCAK256 PUSH1 0x0 CALLER PUSH20 0xFFFFFFFFFFFFFFFFFFFFFFFFFFFFFFFFFFFFFFFF AND PUSH20 0xFFFFFFFFFFFFFFFFFFFFFFFFFFFFFFFFFFFFFFFF AND DUP2 MSTORE PUSH1 0x20 ADD SWAP1 DUP2 MSTORE PUSH1 0x20 ADD PUSH1 0x0 KECCAK256 PUSH1 0x0 PUSH2 0x100 EXP DUP2 SLOAD DUP2 PUSH1 0xFF MUL NOT AND SWAP1 DUP4 PUSH1 0x4 DUP2 GT ISZERO PUSH2 0x18C3 JUMPI PUSH2 0x18C2 PUSH2 0x2ECF JUMP JUMPDEST JUMPDEST MUL OR SWAP1 SSTORE POP POP POP JUMP JUMPDEST PUSH1 0x3 PUSH1 0x20 MSTORE DUP2 PUSH1 0x0 MSTORE PUSH1 0x40 PUSH1 0x0 KECCAK256 PUSH1 0x20 MSTORE DUP1 PUSH1 0x0 MSTORE PUSH1 0x40 PUSH1 0x0 KECCAK256 PUSH1 0x0 SWAP2 POP SWAP2 POP SWAP1 SLOAD SWAP1 PUSH2 0x100 EXP SWAP1 DIV PUSH1 0xFF AND DUP2 JUMP JUMPDEST PUSH1 0x1 PUSH1 0x0 CALLER PUSH20 0xFFFFFFFFFFFFFFFFFFFFFFFFFFFFFFFFFFFFFFFF AND PUSH20 0xFFFFFFFFFFFFFFFFFFFFFFFFFFFFFFFFFFFFFFFF AND DUP2 MSTORE PUSH1 0x20 ADD SWAP1 DUP2 MSTORE PUSH1 0x20 ADD PUSH1 0x0 KECCAK256 PUSH1 0x6 ADD PUSH1 0x0 SWAP1 SLOAD SWAP1 PUSH2 0x100 EXP SWAP1 DIV PUSH1 0xFF AND PUSH2 0x198A JUMPI PUSH1 0x40 MLOAD PUSH32 0x8C379A000000000000000000000000000000000000000000000000000000000 DUP2 MSTORE PUSH1 0x4 ADD PUSH2 0x1981 SWAP1 PUSH2 0x4239 JUMP JUMPDEST PUSH1 0x40 MLOAD DUP1 SWAP2 SUB SWAP1 REVERT JUMPDEST DUP4 PUSH1 0x0 DUP1 DUP3 PUSH20 0xFFFFFFFFFFFFFFFFFFFFFFFFFFFFFFFFFFFFFFFF AND PUSH20 0xFFFFFFFFFFFFFFFFFFFFFFFFFFFFFFFFFFFFFFFF AND DUP2 MSTORE PUSH1 0x20 ADD SWAP1 DUP2 MSTORE PUSH1 0x20 ADD PUSH1 0x0 KECCAK256 PUSH1 0x6 ADD PUSH1 0x0 CALLER PUSH20 0xFFFFFFFFFFFFFFFFFFFFFFFFFFFFFFFFFFFFFFFF AND PUSH20 0xFFFFFFFFFFFFFFFFFFFFFFFFFFFFFFFFFFFFFFFF AND DUP2 MSTORE PUSH1 0x20 ADD SWAP1 DUP2 MSTORE PUSH1 0x20 ADD PUSH1 0x0 KECCAK256 PUSH1 0x0 SWAP1 SLOAD SWAP1 PUSH2 0x100 EXP SWAP1 DIV PUSH1 0xFF AND PUSH2 0x1A56 JUMPI PUSH1 0x40 MLOAD PUSH32 0x8C379A000000000000000000000000000000000000000000000000000000000 DUP2 MSTORE PUSH1 0x4 ADD PUSH2 0x1A4D SWAP1 PUSH2 0x404F JUMP JUMPDEST PUSH1 0x40 MLOAD DUP1 SWAP2 SUB SWAP1 REVERT JUMPDEST PUSH1 0x0 DUP1 DUP7 PUSH20 0xFFFFFFFFFFFFFFFFFFFFFFFFFFFFFFFFFFFFFFFF AND PUSH20 0xFFFFFFFFFFFFFFFFFFFFFFFFFFFFFFFFFFFFFFFF AND DUP2 MSTORE PUSH1 0x20 ADD SWAP1 DUP2 MSTORE PUSH1 0x20 ADD PUSH1 0x0 KECCAK256 PUSH1 0x7 ADD PUSH1 0x0 CALLER PUSH20 0xFFFFFFFFFFFFFFFFFFFFFFFFFFFFFFFFFFFFFFFF AND PUSH20 0xFFFFFFFFFFFFFFFFFFFFFFFFFFFFFFFFFFFFFFFF AND DUP2 MSTORE PUSH1 0x20 ADD SWAP1 DUP2 MSTORE PUSH1 0x20 ADD PUSH1 0x0 KECCAK256 PUSH1 0x2 PUSH1 0x0 DUP7 DUP2 MSTORE PUSH1 0x20 ADD SWAP1 DUP2 MSTORE PUSH1 0x20 ADD PUSH1 0x0 KECCAK256 SWAP1 DUP1 PUSH1 0x1 DUP2 SLOAD ADD DUP1 DUP3 SSTORE DUP1 SWAP2 POP POP PUSH1 0x1 SWAP1 SUB SWAP1 PUSH1 0x0 MSTORE PUSH1 0x20 PUSH1 0x0 KECCAK256 SWAP1 PUSH1 0x2 MUL ADD PUSH1 0x0 SWAP1 SWAP2 SWAP1 SWAP2 SWAP1 SWAP2 POP PUSH1 0x0 DUP3 ADD DUP2 PUSH1 0x0 ADD SWAP1 DUP2 PUSH2 0x1B24 SWAP2 SWAP1 PUSH2 0x4499 JUMP JUMPDEST POP PUSH1 0x1 DUP3 ADD PUSH1 0x0 SWAP1 SLOAD SWAP1 PUSH2 0x100 EXP SWAP1 DIV PUSH1 0xFF AND DUP2 PUSH1 0x1 ADD PUSH1 0x0 PUSH2 0x100 EXP DUP2 SLOAD DUP2 PUSH1 0xFF MUL NOT AND SWAP1 DUP4 ISZERO ISZERO MUL OR SWAP1 SSTORE POP PUSH1 0x1 DUP3 ADD PUSH1 0x1 SWAP1 SLOAD SWAP1 PUSH2 0x100 EXP SWAP1 DIV PUSH1 0xFF AND DUP2 PUSH1 0x1 ADD PUSH1 0x1 PUSH2 0x100 EXP DUP2 SLOAD DUP2 PUSH1 0xFF MUL NOT AND SWAP1 DUP4 PUSH1 0x3 DUP2 GT ISZERO PUSH2 0x1B8A JUMPI PUSH2 0x1B89 PUSH2 0x2ECF JUMP JUMPDEST JUMPDEST MUL OR SWAP1 SSTORE POP PUSH1 0x1 DUP3 ADD PUSH1 0x2 SWAP1 SLOAD SWAP1 PUSH2 0x100 EXP SWAP1 DIV PUSH1 0xFF AND DUP2 PUSH1 0x1 ADD PUSH1 0x2 PUSH2 0x100 EXP DUP2 SLOAD DUP2 PUSH1 0xFF MUL NOT AND SWAP1 DUP4 PUSH1 0x1 DUP2 GT ISZERO PUSH2 0x1BC7 JUMPI PUSH2 0x1BC6 PUSH2 0x2ECF JUMP JUMPDEST JUMPDEST MUL OR SWAP1 SSTORE POP PUSH1 0x1 DUP3 ADD PUSH1 0x3 SWAP1 SLOAD SWAP1 PUSH2 0x100 EXP SWAP1 DIV PUSH1 0xFF AND DUP2 PUSH1 0x1 ADD PUSH1 0x3 PUSH2 0x100 EXP DUP2 SLOAD DUP2 PUSH1 0xFF MUL NOT AND SWAP1 DUP4 ISZERO ISZERO MUL OR SWAP1 SSTORE POP POP POP DUP3 PUSH1 0x0 DUP1 DUP8 PUSH20 0xFFFFFFFFFFFFFFFFFFFFFFFFFFFFFFFFFFFFFFFF AND PUSH20 0xFFFFFFFFFFFFFFFFFFFFFFFFFFFFFFFFFFFFFFFF AND DUP2 MSTORE PUSH1 0x20 ADD SWAP1 DUP2 MSTORE PUSH1 0x20 ADD PUSH1 0x0 KECCAK256 PUSH1 0x7 ADD PUSH1 0x0 CALLER PUSH20 0xFFFFFFFFFFFFFFFFFFFFFFFFFFFFFFFFFFFFFFFF AND PUSH20 0xFFFFFFFFFFFFFFFFFFFFFFFFFFFFFFFFFFFFFFFF AND DUP2 MSTORE PUSH1 0x20 ADD SWAP1 DUP2 MSTORE PUSH1 0x20 ADD PUSH1 0x0 KECCAK256 PUSH1 0x1 PUSH1 0x0 DUP1 DUP10 PUSH20 0xFFFFFFFFFFFFFFFFFFFFFFFFFFFFFFFFFFFFFFFF AND PUSH20 0xFFFFFFFFFFFFFFFFFFFFFFFFFFFFFFFFFFFFFFFF AND DUP2 MSTORE PUSH1 0x20 ADD SWAP1 DUP2 MSTORE PUSH1 0x20 ADD PUSH1 0x0 KECCAK256 PUSH1 0x7 ADD PUSH1 0x0 CALLER PUSH20 0xFFFFFFFFFFFFFFFFFFFFFFFFFFFFFFFFFFFFFFFF AND PUSH20 0xFFFFFFFFFFFFFFFFFFFFFFFFFFFFFFFFFFFFFFFF AND DUP2 MSTORE PUSH1 0x20 ADD SWAP1 DUP2 MSTORE PUSH1 0x20 ADD PUSH1 0x0 KECCAK256 DUP1 SLOAD SWAP1 POP PUSH2 0x1D08 SWAP2 SWAP1 PUSH2 0x4127 JUMP JUMPDEST DUP2 SLOAD DUP2 LT PUSH2 0x1D19 JUMPI PUSH2 0x1D18 PUSH2 0x43D8 JUMP JUMPDEST JUMPDEST SWAP1 PUSH1 0x0 MSTORE PUSH1 0x20 PUSH1 0x0 KECCAK256 SWAP1 PUSH1 0x2 MUL ADD PUSH1 0x1 ADD PUSH1 0x1 PUSH2 0x100 EXP DUP2 SLOAD DUP2 PUSH1 0xFF MUL NOT AND SWAP1 DUP4 PUSH1 0x3 DUP2 GT ISZERO PUSH2 0x1D4C JUMPI PUSH2 0x1D4B PUSH2 0x2ECF JUMP JUMPDEST JUMPDEST MUL OR SWAP1 SSTORE POP DUP2 PUSH1 0x0 DUP1 DUP8 PUSH20 0xFFFFFFFFFFFFFFFFFFFFFFFFFFFFFFFFFFFFFFFF AND PUSH20 0xFFFFFFFFFFFFFFFFFFFFFFFFFFFFFFFFFFFFFFFF AND DUP2 MSTORE PUSH1 0x20 ADD SWAP1 DUP2 MSTORE PUSH1 0x20 ADD PUSH1 0x0 KECCAK256 PUSH1 0x7 ADD PUSH1 0x0 CALLER PUSH20 0xFFFFFFFFFFFFFFFFFFFFFFFFFFFFFFFFFFFFFFFF AND PUSH20 0xFFFFFFFFFFFFFFFFFFFFFFFFFFFFFFFFFFFFFFFF AND DUP2 MSTORE PUSH1 0x20 ADD SWAP1 DUP2 MSTORE PUSH1 0x20 ADD PUSH1 0x0 KECCAK256 PUSH1 0x1 PUSH1 0x0 DUP1 DUP10 PUSH20 0xFFFFFFFFFFFFFFFFFFFFFFFFFFFFFFFFFFFFFFFF AND PUSH20 0xFFFFFFFFFFFFFFFFFFFFFFFFFFFFFFFFFFFFFFFF AND DUP2 MSTORE PUSH1 0x20 ADD SWAP1 DUP2 MSTORE PUSH1 0x20 ADD PUSH1 0x0 KECCAK256 PUSH1 0x7 ADD PUSH1 0x0 CALLER PUSH20 0xFFFFFFFFFFFFFFFFFFFFFFFFFFFFFFFFFFFFFFFF AND PUSH20 0xFFFFFFFFFFFFFFFFFFFFFFFFFFFFFFFFFFFFFFFF AND DUP2 MSTORE PUSH1 0x20 ADD SWAP1 DUP2 MSTORE PUSH1 0x20 ADD PUSH1 0x0 KECCAK256 DUP1 SLOAD SWAP1 POP PUSH2 0x1E5E SWAP2 SWAP1 PUSH2 0x4127 JUMP JUMPDEST DUP2 SLOAD DUP2 LT PUSH2 0x1E6F JUMPI PUSH2 0x1E6E PUSH2 0x43D8 JUMP JUMPDEST JUMPDEST SWAP1 PUSH1 0x0 MSTORE PUSH1 0x20 PUSH1 0x0 KECCAK256 SWAP1 PUSH1 0x2 MUL ADD PUSH1 0x1 ADD PUSH1 0x2 PUSH2 0x100 EXP DUP2 SLOAD DUP2 PUSH1 0xFF MUL NOT AND SWAP1 DUP4 PUSH1 0x1 DUP2 GT ISZERO PUSH2 0x1EA2 JUMPI PUSH2 0x1EA1 PUSH2 0x2ECF JUMP JUMPDEST JUMPDEST MUL OR SWAP1 SSTORE POP POP POP POP POP POP JUMP JUMPDEST PUSH1 0x60 PUSH1 0x0 DUP1 DUP4 PUSH20 0xFFFFFFFFFFFFFFFFFFFFFFFFFFFFFFFFFFFFFFFF AND PUSH20 0xFFFFFFFFFFFFFFFFFFFFFFFFFFFFFFFFFFFFFFFF AND DUP2 MSTORE PUSH1 0x20 ADD SWAP1 DUP2 MSTORE PUSH1 0x20 ADD PUSH1 0x0 KECCAK256 PUSH1 0x4 ADD DUP1 SLOAD SWAP1 POP PUSH8 0xFFFFFFFFFFFFFFFF DUP2 GT ISZERO PUSH2 0x1F0E JUMPI PUSH2 0x1F0D PUSH2 0x2FF2 JUMP JUMPDEST JUMPDEST PUSH1 0x40 MLOAD SWAP1 DUP1 DUP3 MSTORE DUP1 PUSH1 0x20 MUL PUSH1 0x20 ADD DUP3 ADD PUSH1 0x40 MSTORE DUP1 ISZERO PUSH2 0x1F47 JUMPI DUP2 PUSH1 0x20 ADD JUMPDEST PUSH2 0x1F34 PUSH2 0x2CEB JUMP JUMPDEST DUP2 MSTORE PUSH1 0x20 ADD SWAP1 PUSH1 0x1 SWAP1 SUB SWAP1 DUP2 PUSH2 0x1F2C JUMPI SWAP1 POP JUMPDEST POP SWAP1 POP PUSH1 0x0 JUMPDEST PUSH1 0x0 DUP1 DUP5 PUSH20 0xFFFFFFFFFFFFFFFFFFFFFFFFFFFFFFFFFFFFFFFF AND PUSH20 0xFFFFFFFFFFFFFFFFFFFFFFFFFFFFFFFFFFFFFFFF AND DUP2 MSTORE PUSH1 0x20 ADD SWAP1 DUP2 MSTORE PUSH1 0x20 ADD PUSH1 0x0 KECCAK256 PUSH1 0x4 ADD DUP1 SLOAD SWAP1 POP DUP2 LT ISZERO PUSH2 0x2103 JUMPI PUSH1 0x0 DUP1 DUP5 PUSH20 0xFFFFFFFFFFFFFFFFFFFFFFFFFFFFFFFFFFFFFFFF AND PUSH20 0xFFFFFFFFFFFFFFFFFFFFFFFFFFFFFFFFFFFFFFFF AND DUP2 MSTORE PUSH1 0x20 ADD SWAP1 DUP2 MSTORE PUSH1 0x20 ADD PUSH1 0x0 KECCAK256 PUSH1 0x4 ADD DUP2 DUP2 SLOAD DUP2 LT PUSH2 0x1FEC JUMPI PUSH2 0x1FEB PUSH2 0x43D8 JUMP JUMPDEST JUMPDEST SWAP1 PUSH1 0x0 MSTORE PUSH1 0x20 PUSH1 0x0 KECCAK256 SWAP1 PUSH1 0x2 MUL ADD PUSH1 0x40 MLOAD DUP1 PUSH1 0x40 ADD PUSH1 0x40 MSTORE SWAP1 DUP2 PUSH1 0x0 DUP3 ADD DUP1 SLOAD PUSH2 0x2015 SWAP1 PUSH2 0x3C59 JUMP JUMPDEST DUP1 PUSH1 0x1F ADD PUSH1 0x20 DUP1 SWAP2 DIV MUL PUSH1 0x20 ADD PUSH1 0x40 MLOAD SWAP1 DUP2 ADD PUSH1 0x40 MSTORE DUP1 SWAP3 SWAP2 SWAP1 DUP2 DUP2 MSTORE PUSH1 0x20 ADD DUP3 DUP1 SLOAD PUSH2 0x2041 SWAP1 PUSH2 0x3C59 JUMP JUMPDEST DUP1 ISZERO PUSH2 0x208E JUMPI DUP1 PUSH1 0x1F LT PUSH2 0x2063 JUMPI PUSH2 0x100 DUP1 DUP4 SLOAD DIV MUL DUP4 MSTORE SWAP2 PUSH1 0x20 ADD SWAP2 PUSH2 0x208E JUMP JUMPDEST DUP3 ADD SWAP2 SWAP1 PUSH1 0x0 MSTORE PUSH1 0x20 PUSH1 0x0 KECCAK256 SWAP1 JUMPDEST DUP2 SLOAD DUP2 MSTORE SWAP1 PUSH1 0x1 ADD SWAP1 PUSH1 0x20 ADD DUP1 DUP4 GT PUSH2 0x2071 JUMPI DUP3 SWAP1 SUB PUSH1 0x1F AND DUP3 ADD SWAP2 JUMPDEST POP POP POP POP POP DUP2 MSTORE PUSH1 0x20 ADD PUSH1 0x1 DUP3 ADD PUSH1 0x0 SWAP1 SLOAD SWAP1 PUSH2 0x100 EXP SWAP1 DIV PUSH1 0xFF AND PUSH1 0x5 DUP2 GT ISZERO PUSH2 0x20BC JUMPI PUSH2 0x20BB PUSH2 0x2ECF JUMP JUMPDEST JUMPDEST PUSH1 0x5 DUP2 GT ISZERO PUSH2 0x20CE JUMPI PUSH2 0x20CD PUSH2 0x2ECF JUMP JUMPDEST JUMPDEST DUP2 MSTORE POP POP DUP3 DUP3 DUP2 MLOAD DUP2 LT PUSH2 0x20E5 JUMPI PUSH2 0x20E4 PUSH2 0x43D8 JUMP JUMPDEST JUMPDEST PUSH1 0x20 MUL PUSH1 0x20 ADD ADD DUP2 SWAP1 MSTORE POP DUP1 DUP1 PUSH2 0x20FB SWAP1 PUSH2 0x443B JUMP JUMPDEST SWAP2 POP POP PUSH2 0x1F4D JUMP JUMPDEST POP SWAP2 SWAP1 POP JUMP JUMPDEST PUSH1 0x0 DUP1 CALLER PUSH20 0xFFFFFFFFFFFFFFFFFFFFFFFFFFFFFFFFFFFFFFFF AND PUSH20 0xFFFFFFFFFFFFFFFFFFFFFFFFFFFFFFFFFFFFFFFF AND DUP2 MSTORE PUSH1 0x20 ADD SWAP1 DUP2 MSTORE PUSH1 0x20 ADD PUSH1 0x0 KECCAK256 PUSH1 0x8 ADD PUSH1 0x0 SWAP1 SLOAD SWAP1 PUSH2 0x100 EXP SWAP1 DIV PUSH1 0xFF AND PUSH2 0x2197 JUMPI PUSH1 0x40 MLOAD PUSH32 0x8C379A000000000000000000000000000000000000000000000000000000000 DUP2 MSTORE PUSH1 0x4 ADD PUSH2 0x218E SWAP1 PUSH2 0x43B8 JUMP JUMPDEST PUSH1 0x40 MLOAD DUP1 SWAP2 SUB SWAP1 REVERT JUMPDEST PUSH1 0x1 PUSH1 0x0 DUP1 CALLER PUSH20 0xFFFFFFFFFFFFFFFFFFFFFFFFFFFFFFFFFFFFFFFF AND PUSH20 0xFFFFFFFFFFFFFFFFFFFFFFFFFFFFFFFFFFFFFFFF AND DUP2 MSTORE PUSH1 0x20 ADD SWAP1 DUP2 MSTORE PUSH1 0x20 ADD PUSH1 0x0 KECCAK256 PUSH1 0x6 ADD PUSH1 0x0 DUP4 PUSH20 0xFFFFFFFFFFFFFFFFFFFFFFFFFFFFFFFFFFFFFFFF AND PUSH20 0xFFFFFFFFFFFFFFFFFFFFFFFFFFFFFFFFFFFFFFFF AND DUP2 MSTORE PUSH1 0x20 ADD SWAP1 DUP2 MSTORE PUSH1 0x20 ADD PUSH1 0x0 KECCAK256 PUSH1 0x0 PUSH2 0x100 EXP DUP2 SLOAD DUP2 PUSH1 0xFF MUL NOT AND SWAP1 DUP4 ISZERO ISZERO MUL OR SWAP1 SSTORE POP POP JUMP JUMPDEST PUSH1 0x60 DUP3 PUSH1 0x0 DUP1 DUP7 PUSH20 0xFFFFFFFFFFFFFFFFFFFFFFFFFFFFFFFFFFFFFFFF AND PUSH20 0xFFFFFFFFFFFFFFFFFFFFFFFFFFFFFFFFFFFFFFFF AND DUP2 MSTORE PUSH1 0x20 ADD SWAP1 DUP2 MSTORE PUSH1 0x20 ADD PUSH1 0x0 KECCAK256 PUSH1 0x1 ADD SLOAD EQ DUP1 ISZERO PUSH2 0x230E JUMPI POP DUP2 PUSH1 0x40 MLOAD PUSH1 0x20 ADD PUSH2 0x228F SWAP2 SWAP1 PUSH2 0x4295 JUMP JUMPDEST PUSH1 0x40 MLOAD PUSH1 0x20 DUP2 DUP4 SUB SUB DUP2 MSTORE SWAP1 PUSH1 0x40 MSTORE DUP1 MLOAD SWAP1 PUSH1 0x20 ADD KECCAK256 PUSH1 0x0 DUP1 DUP7 PUSH20 0xFFFFFFFFFFFFFFFFFFFFFFFFFFFFFFFFFFFFFFFF AND PUSH20 0xFFFFFFFFFFFFFFFFFFFFFFFFFFFFFFFFFFFFFFFF AND DUP2 MSTORE PUSH1 0x20 ADD SWAP1 DUP2 MSTORE PUSH1 0x20 ADD PUSH1 0x0 KECCAK256 PUSH1 0x0 ADD PUSH1 0x40 MLOAD PUSH1 0x20 ADD PUSH2 0x22F6 SWAP2 SWAP1 PUSH2 0x432F JUMP JUMPDEST PUSH1 0x40 MLOAD PUSH1 0x20 DUP2 DUP4 SUB SUB DUP2 MSTORE SWAP1 PUSH1 0x40 MSTORE DUP1 MLOAD SWAP1 PUSH1 0x20 ADD KECCAK256 EQ JUMPDEST PUSH2 0x2317 JUMPI PUSH1 0x0 DUP1 REVERT JUMPDEST PUSH1 0x0 DUP1 DUP6 PUSH20 0xFFFFFFFFFFFFFFFFFFFFFFFFFFFFFFFFFFFFFFFF AND PUSH20 0xFFFFFFFFFFFFFFFFFFFFFFFFFFFFFFFFFFFFFFFF AND DUP2 MSTORE PUSH1 0x20 ADD SWAP1 DUP2 MSTORE PUSH1 0x20 ADD PUSH1 0x0 KECCAK256 PUSH1 0x4 ADD DUP1 SLOAD DUP1 PUSH1 0x20 MUL PUSH1 0x20 ADD PUSH1 0x40 MLOAD SWAP1 DUP2 ADD PUSH1 0x40 MSTORE DUP1 SWAP3 SWAP2 SWAP1 DUP2 DUP2 MSTORE PUSH1 0x20 ADD PUSH1 0x0 SWAP1 JUMPDEST DUP3 DUP3 LT ISZERO PUSH2 0x2477 JUMPI DUP4 DUP3 SWAP1 PUSH1 0x0 MSTORE PUSH1 0x20 PUSH1 0x0 KECCAK256 SWAP1 PUSH1 0x2 MUL ADD PUSH1 0x40 MLOAD DUP1 PUSH1 0x40 ADD PUSH1 0x40 MSTORE SWAP1 DUP2 PUSH1 0x0 DUP3 ADD DUP1 SLOAD PUSH2 0x23AB SWAP1 PUSH2 0x3C59 JUMP JUMPDEST DUP1 PUSH1 0x1F ADD PUSH1 0x20 DUP1 SWAP2 DIV MUL PUSH1 0x20 ADD PUSH1 0x40 MLOAD SWAP1 DUP2 ADD PUSH1 0x40 MSTORE DUP1 SWAP3 SWAP2 SWAP1 DUP2 DUP2 MSTORE PUSH1 0x20 ADD DUP3 DUP1 SLOAD PUSH2 0x23D7 SWAP1 PUSH2 0x3C59 JUMP JUMPDEST DUP1 ISZERO PUSH2 0x2424 JUMPI DUP1 PUSH1 0x1F LT PUSH2 0x23F9 JUMPI PUSH2 0x100 DUP1 DUP4 SLOAD DIV MUL DUP4 MSTORE SWAP2 PUSH1 0x20 ADD SWAP2 PUSH2 0x2424 JUMP JUMPDEST DUP3 ADD SWAP2 SWAP1 PUSH1 0x0 MSTORE PUSH1 0x20 PUSH1 0x0 KECCAK256 SWAP1 JUMPDEST DUP2 SLOAD DUP2 MSTORE SWAP1 PUSH1 0x1 ADD SWAP1 PUSH1 0x20 ADD DUP1 DUP4 GT PUSH2 0x2407 JUMPI DUP3 SWAP1 SUB PUSH1 0x1F AND DUP3 ADD SWAP2 JUMPDEST POP POP POP POP POP DUP2 MSTORE PUSH1 0x20 ADD PUSH1 0x1 DUP3 ADD PUSH1 0x0 SWAP1 SLOAD SWAP1 PUSH2 0x100 EXP SWAP1 DIV PUSH1 0xFF AND PUSH1 0x5 DUP2 GT ISZERO PUSH2 0x2452 JUMPI PUSH2 0x2451 PUSH2 0x2ECF JUMP JUMPDEST JUMPDEST PUSH1 0x5 DUP2 GT ISZERO PUSH2 0x2464 JUMPI PUSH2 0x2463 PUSH2 0x2ECF JUMP JUMPDEST JUMPDEST DUP2 MSTORE POP POP DUP2 MSTORE PUSH1 0x20 ADD SWAP1 PUSH1 0x1 ADD SWAP1 PUSH2 0x2378 JUMP JUMPDEST POP POP POP POP SWAP1 POP SWAP4 SWAP3 POP POP POP JUMP JUMPDEST PUSH2 0x248C PUSH2 0x2D17 JUMP JUMPDEST PUSH1 0x1 PUSH1 0x0 DUP4 PUSH20 0xFFFFFFFFFFFFFFFFFFFFFFFFFFFFFFFFFFFFFFFF AND PUSH20 0xFFFFFFFFFFFFFFFFFFFFFFFFFFFFFFFFFFFFFFFF AND DUP2 MSTORE PUSH1 0x20 ADD SWAP1 DUP2 MSTORE PUSH1 0x20 ADD PUSH1 0x0 KECCAK256 PUSH1 0x40 MLOAD DUP1 PUSH1 0xE0 ADD PUSH1 0x40 MSTORE SWAP1 DUP2 PUSH1 0x0 DUP3 ADD DUP1 SLOAD PUSH2 0x24E6 SWAP1 PUSH2 0x3C59 JUMP JUMPDEST DUP1 PUSH1 0x1F ADD PUSH1 0x20 DUP1 SWAP2 DIV MUL PUSH1 0x20 ADD PUSH1 0x40 MLOAD SWAP1 DUP2 ADD PUSH1 0x40 MSTORE DUP1 SWAP3 SWAP2 SWAP1 DUP2 DUP2 MSTORE PUSH1 0x20 ADD DUP3 DUP1 SLOAD PUSH2 0x2512 SWAP1 PUSH2 0x3C59 JUMP JUMPDEST DUP1 ISZERO PUSH2 0x255F JUMPI DUP1 PUSH1 0x1F LT PUSH2 0x2534 JUMPI PUSH2 0x100 DUP1 DUP4 SLOAD DIV MUL DUP4 MSTORE SWAP2 PUSH1 0x20 ADD SWAP2 PUSH2 0x255F JUMP JUMPDEST DUP3 ADD SWAP2 SWAP1 PUSH1 0x0 MSTORE PUSH1 0x20 PUSH1 0x0 KECCAK256 SWAP1 JUMPDEST DUP2 SLOAD DUP2 MSTORE SWAP1 PUSH1 0x1 ADD SWAP1 PUSH1 0x20 ADD DUP1 DUP4 GT PUSH2 0x2542 JUMPI DUP3 SWAP1 SUB PUSH1 0x1F AND DUP3 ADD SWAP2 JUMPDEST POP POP POP POP POP DUP2 MSTORE PUSH1 0x20 ADD PUSH1 0x1 DUP3 ADD DUP1 SLOAD PUSH2 0x2578 SWAP1 PUSH2 0x3C59 JUMP JUMPDEST DUP1 PUSH1 0x1F ADD PUSH1 0x20 DUP1 SWAP2 DIV MUL PUSH1 0x20 ADD PUSH1 0x40 MLOAD SWAP1 DUP2 ADD PUSH1 0x40 MSTORE DUP1 SWAP3 SWAP2 SWAP1 DUP2 DUP2 MSTORE PUSH1 0x20 ADD DUP3 DUP1 SLOAD PUSH2 0x25A4 SWAP1 PUSH2 0x3C59 JUMP JUMPDEST DUP1 ISZERO PUSH2 0x25F1 JUMPI DUP1 PUSH1 0x1F LT PUSH2 0x25C6 JUMPI PUSH2 0x100 DUP1 DUP4 SLOAD DIV MUL DUP4 MSTORE SWAP2 PUSH1 0x20 ADD SWAP2 PUSH2 0x25F1 JUMP JUMPDEST DUP3 ADD SWAP2 SWAP1 PUSH1 0x0 MSTORE PUSH1 0x20 PUSH1 0x0 KECCAK256 SWAP1 JUMPDEST DUP2 SLOAD DUP2 MSTORE SWAP1 PUSH1 0x1 ADD SWAP1 PUSH1 0x20 ADD DUP1 DUP4 GT PUSH2 0x25D4 JUMPI DUP3 SWAP1 SUB PUSH1 0x1F AND DUP3 ADD SWAP2 JUMPDEST POP POP POP POP POP DUP2 MSTORE PUSH1 0x20 ADD PUSH1 0x2 DUP3 ADD DUP1 SLOAD PUSH2 0x260A SWAP1 PUSH2 0x3C59 JUMP JUMPDEST DUP1 PUSH1 0x1F ADD PUSH1 0x20 DUP1 SWAP2 DIV MUL PUSH1 0x20 ADD PUSH1 0x40 MLOAD SWAP1 DUP2 ADD PUSH1 0x40 MSTORE DUP1 SWAP3 SWAP2 SWAP1 DUP2 DUP2 MSTORE PUSH1 0x20 ADD DUP3 DUP1 SLOAD PUSH2 0x2636 SWAP1 PUSH2 0x3C59 JUMP JUMPDEST DUP1 ISZERO PUSH2 0x2683 JUMPI DUP1 PUSH1 0x1F LT PUSH2 0x2658 JUMPI PUSH2 0x100 DUP1 DUP4 SLOAD DIV MUL DUP4 MSTORE SWAP2 PUSH1 0x20 ADD SWAP2 PUSH2 0x2683 JUMP JUMPDEST DUP3 ADD SWAP2 SWAP1 PUSH1 0x0 MSTORE PUSH1 0x20 PUSH1 0x0 KECCAK256 SWAP1 JUMPDEST DUP2 SLOAD DUP2 MSTORE SWAP1 PUSH1 0x1 ADD SWAP1 PUSH1 0x20 ADD DUP1 DUP4 GT PUSH2 0x2666 JUMPI DUP3 SWAP1 SUB PUSH1 0x1F AND DUP3 ADD SWAP2 JUMPDEST POP POP POP POP POP DUP2 MSTORE PUSH1 0x20 ADD PUSH1 0x3 DUP3 ADD DUP1 SLOAD PUSH2 0x269C SWAP1 PUSH2 0x3C59 JUMP JUMPDEST DUP1 PUSH1 0x1F ADD PUSH1 0x20 DUP1 SWAP2 DIV MUL PUSH1 0x20 ADD PUSH1 0x40 MLOAD SWAP1 DUP2 ADD PUSH1 0x40 MSTORE DUP1 SWAP3 SWAP2 SWAP1 DUP2 DUP2 MSTORE PUSH1 0x20 ADD DUP3 DUP1 SLOAD PUSH2 0x26C8 SWAP1 PUSH2 0x3C59 JUMP JUMPDEST DUP1 ISZERO PUSH2 0x2715 JUMPI DUP1 PUSH1 0x1F LT PUSH2 0x26EA JUMPI PUSH2 0x100 DUP1 DUP4 SLOAD DIV MUL DUP4 MSTORE SWAP2 PUSH1 0x20 ADD SWAP2 PUSH2 0x2715 JUMP JUMPDEST DUP3 ADD SWAP2 SWAP1 PUSH1 0x0 MSTORE PUSH1 0x20 PUSH1 0x0 KECCAK256 SWAP1 JUMPDEST DUP2 SLOAD DUP2 MSTORE SWAP1 PUSH1 0x1 ADD SWAP1 PUSH1 0x20 ADD DUP1 DUP4 GT PUSH2 0x26F8 JUMPI DUP3 SWAP1 SUB PUSH1 0x1F AND DUP3 ADD SWAP2 JUMPDEST POP POP POP POP POP DUP2 MSTORE PUSH1 0x20 ADD PUSH1 0x4 DUP3 ADD SLOAD DUP2 MSTORE PUSH1 0x20 ADD PUSH1 0x5 DUP3 ADD SLOAD DUP2 MSTORE PUSH1 0x20 ADD PUSH1 0x6 DUP3 ADD PUSH1 0x0 SWAP1 SLOAD SWAP1 PUSH2 0x100 EXP SWAP1 DIV PUSH1 0xFF AND ISZERO ISZERO ISZERO ISZERO DUP2 MSTORE POP POP SWAP1 POP SWAP2 SWAP1 POP JUMP JUMPDEST PUSH2 0x275C PUSH2 0x2D56 JUMP JUMPDEST PUSH1 0x2 PUSH1 0x0 DUP4 DUP2 MSTORE PUSH1 0x20 ADD SWAP1 DUP2 MSTORE PUSH1 0x20 ADD PUSH1 0x0 KECCAK256 PUSH1 0x40 MLOAD DUP1 PUSH1 0xA0 ADD PUSH1 0x40 MSTORE SWAP1 DUP2 PUSH1 0x0 DUP3 ADD DUP1 SLOAD PUSH2 0x278A SWAP1 PUSH2 0x3C59 JUMP JUMPDEST DUP1 PUSH1 0x1F ADD PUSH1 0x20 DUP1 SWAP2 DIV MUL PUSH1 0x20 ADD PUSH1 0x40 MLOAD SWAP1 DUP2 ADD PUSH1 0x40 MSTORE DUP1 SWAP3 SWAP2 SWAP1 DUP2 DUP2 MSTORE PUSH1 0x20 ADD DUP3 DUP1 SLOAD PUSH2 0x27B6 SWAP1 PUSH2 0x3C59 JUMP JUMPDEST DUP1 ISZERO PUSH2 0x2803 JUMPI DUP1 PUSH1 0x1F LT PUSH2 0x27D8 JUMPI PUSH2 0x100 DUP1 DUP4 SLOAD DIV MUL DUP4 MSTORE SWAP2 PUSH1 0x20 ADD SWAP2 PUSH2 0x2803 JUMP JUMPDEST DUP3 ADD SWAP2 SWAP1 PUSH1 0x0 MSTORE PUSH1 0x20 PUSH1 0x0 KECCAK256 SWAP1 JUMPDEST DUP2 SLOAD DUP2 MSTORE SWAP1 PUSH1 0x1 ADD SWAP1 PUSH1 0x20 ADD DUP1 DUP4 GT PUSH2 0x27E6 JUMPI DUP3 SWAP1 SUB PUSH1 0x1F AND DUP3 ADD SWAP2 JUMPDEST POP POP POP POP POP DUP2 MSTORE PUSH1 0x20 ADD PUSH1 0x1 DUP3 ADD PUSH1 0x0 SWAP1 SLOAD SWAP1 PUSH2 0x100 EXP SWAP1 DIV PUSH1 0xFF AND ISZERO ISZERO ISZERO ISZERO DUP2 MSTORE PUSH1 0x20 ADD PUSH1 0x1 DUP3 ADD PUSH1 0x1 SWAP1 SLOAD SWAP1 PUSH2 0x100 EXP SWAP1 DIV PUSH1 0xFF AND PUSH1 0x3 DUP2 GT ISZERO PUSH2 0x284C JUMPI PUSH2 0x284B PUSH2 0x2ECF JUMP JUMPDEST JUMPDEST PUSH1 0x3 DUP2 GT ISZERO PUSH2 0x285E JUMPI PUSH2 0x285D PUSH2 0x2ECF JUMP JUMPDEST JUMPDEST DUP2 MSTORE PUSH1 0x20 ADD PUSH1 0x1 DUP3 ADD PUSH1 0x2 SWAP1 SLOAD SWAP1 PUSH2 0x100 EXP SWAP1 DIV PUSH1 0xFF AND PUSH1 0x1 DUP2 GT ISZERO PUSH2 0x2887 JUMPI PUSH2 0x2886 PUSH2 0x2ECF JUMP JUMPDEST JUMPDEST PUSH1 0x1 DUP2 GT ISZERO PUSH2 0x2899 JUMPI PUSH2 0x2898 PUSH2 0x2ECF JUMP JUMPDEST JUMPDEST DUP2 MSTORE PUSH1 0x20 ADD PUSH1 0x1 DUP3 ADD PUSH1 0x3 SWAP1 SLOAD SWAP1 PUSH2 0x100 EXP SWAP1 DIV PUSH1 0xFF AND ISZERO ISZERO ISZERO ISZERO DUP2 MSTORE POP POP SWAP1 POP SWAP2 SWAP1 POP JUMP JUMPDEST DUP3 PUSH1 0x0 DUP1 DUP3 PUSH20 0xFFFFFFFFFFFFFFFFFFFFFFFFFFFFFFFFFFFFFFFF AND PUSH20 0xFFFFFFFFFFFFFFFFFFFFFFFFFFFFFFFFFFFFFFFF AND DUP2 MSTORE PUSH1 0x20 ADD SWAP1 DUP2 MSTORE PUSH1 0x20 ADD PUSH1 0x0 KECCAK256 PUSH1 0x6 ADD PUSH1 0x0 CALLER PUSH20 0xFFFFFFFFFFFFFFFFFFFFFFFFFFFFFFFFFFFFFFFF AND PUSH20 0xFFFFFFFFFFFFFFFFFFFFFFFFFFFFFFFFFFFFFFFF AND DUP2 MSTORE PUSH1 0x20 ADD SWAP1 DUP2 MSTORE PUSH1 0x20 ADD PUSH1 0x0 KECCAK256 PUSH1 0x0 SWAP1 SLOAD SWAP1 PUSH2 0x100 EXP SWAP1 DIV PUSH1 0xFF AND PUSH2 0x298B JUMPI PUSH1 0x40 MLOAD PUSH32 0x8C379A000000000000000000000000000000000000000000000000000000000 DUP2 MSTORE PUSH1 0x4 ADD PUSH2 0x2982 SWAP1 PUSH2 0x404F JUMP JUMPDEST PUSH1 0x40 MLOAD DUP1 SWAP2 SUB SWAP1 REVERT JUMPDEST PUSH1 0x0 DUP4 EQ ISZERO DUP1 ISZERO PUSH2 0x29AD JUMPI POP PUSH1 0x5 DUP1 DUP2 GT ISZERO PUSH2 0x29AA JUMPI PUSH2 0x29A9 PUSH2 0x2ECF JUMP JUMPDEST JUMPDEST DUP4 LT JUMPDEST PUSH2 0x29EC JUMPI PUSH1 0x40 MLOAD PUSH32 0x8C379A000000000000000000000000000000000000000000000000000000000 DUP2 MSTORE PUSH1 0x4 ADD PUSH2 0x29E3 SWAP1 PUSH2 0x45CD JUMP JUMPDEST PUSH1 0x40 MLOAD DUP1 SWAP2 SUB SWAP1 REVERT JUMPDEST PUSH1 0x1 PUSH1 0x0 DUP1 DUP7 PUSH20 0xFFFFFFFFFFFFFFFFFFFFFFFFFFFFFFFFFFFFFFFF AND PUSH20 0xFFFFFFFFFFFFFFFFFFFFFFFFFFFFFFFFFFFFFFFF AND DUP2 MSTORE PUSH1 0x20 ADD SWAP1 DUP2 MSTORE PUSH1 0x20 ADD PUSH1 0x0 KECCAK256 PUSH1 0x4 ADD DUP1 SLOAD SWAP1 POP PUSH2 0x2A3D SWAP2 SWAP1 PUSH2 0x4127 JUMP JUMPDEST DUP3 GT ISZERO DUP1 ISZERO PUSH2 0x2A4C JUMPI POP PUSH1 0x0 DUP3 GT JUMPDEST PUSH2 0x2A8B JUMPI PUSH1 0x40 MLOAD PUSH32 0x8C379A000000000000000000000000000000000000000000000000000000000 DUP2 MSTORE PUSH1 0x4 ADD PUSH2 0x2A82 SWAP1 PUSH2 0x4639 JUMP JUMPDEST PUSH1 0x40 MLOAD DUP1 SWAP2 SUB SWAP1 REVERT JUMPDEST DUP3 PUSH1 0x5 DUP2 GT ISZERO PUSH2 0x2A9E JUMPI PUSH2 0x2A9D PUSH2 0x2ECF JUMP JUMPDEST JUMPDEST PUSH1 0x0 DUP1 DUP7 PUSH20 0xFFFFFFFFFFFFFFFFFFFFFFFFFFFFFFFFFFFFFFFF AND PUSH20 0xFFFFFFFFFFFFFFFFFFFFFFFFFFFFFFFFFFFFFFFF AND DUP2 MSTORE PUSH1 0x20 ADD SWAP1 DUP2 MSTORE PUSH1 0x20 ADD PUSH1 0x0 KECCAK256 PUSH1 0x4 ADD DUP4 DUP2 SLOAD DUP2 LT PUSH2 0x2AF1 JUMPI PUSH2 0x2AF0 PUSH2 0x43D8 JUMP JUMPDEST JUMPDEST SWAP1 PUSH1 0x0 MSTORE PUSH1 0x20 PUSH1 0x0 KECCAK256 SWAP1 PUSH1 0x2 MUL ADD PUSH1 0x1 ADD PUSH1 0x0 PUSH2 0x100 EXP DUP2 SLOAD DUP2 PUSH1 0xFF MUL NOT AND SWAP1 DUP4 PUSH1 0x5 DUP2 GT ISZERO PUSH2 0x2B24 JUMPI PUSH2 0x2B23 PUSH2 0x2ECF JUMP JUMPDEST JUMPDEST MUL OR SWAP1 SSTORE POP POP POP POP POP JUMP JUMPDEST PUSH1 0x4 PUSH1 0x20 MSTORE DUP1 PUSH1 0x0 MSTORE PUSH1 0x40 PUSH1 0x0 KECCAK256 PUSH1 0x0 SWAP2 POP SLOAD SWAP1 PUSH2 0x100 EXP SWAP1 DIV PUSH1 0xFF AND DUP2 JUMP JUMPDEST PUSH1 0x1 PUSH1 0x0 CALLER PUSH20 0xFFFFFFFFFFFFFFFFFFFFFFFFFFFFFFFFFFFFFFFF AND PUSH20 0xFFFFFFFFFFFFFFFFFFFFFFFFFFFFFFFFFFFFFFFF AND DUP2 MSTORE PUSH1 0x20 ADD SWAP1 DUP2 MSTORE PUSH1 0x20 ADD PUSH1 0x0 KECCAK256 PUSH1 0x6 ADD PUSH1 0x0 SWAP1 SLOAD SWAP1 PUSH2 0x100 EXP SWAP1 DIV PUSH1 0xFF AND ISZERO PUSH2 0x2BDF JUMPI PUSH1 0x40 MLOAD PUSH32 0x8C379A000000000000000000000000000000000000000000000000000000000 DUP2 MSTORE PUSH1 0x4 ADD PUSH2 0x2BD6 SWAP1 PUSH2 0x46CB JUMP JUMPDEST PUSH1 0x40 MLOAD DUP1 SWAP2 SUB SWAP1 REVERT JUMPDEST PUSH1 0x40 MLOAD DUP1 PUSH1 0xE0 ADD PUSH1 0x40 MSTORE DUP1 DUP6 DUP2 MSTORE PUSH1 0x20 ADD DUP5 DUP2 MSTORE PUSH1 0x20 ADD DUP3 DUP2 MSTORE PUSH1 0x20 ADD DUP4 DUP2 MSTORE PUSH1 0x20 ADD PUSH1 0x0 DUP2 MSTORE PUSH1 0x20 ADD PUSH1 0x0 DUP2 MSTORE PUSH1 0x20 ADD PUSH1 0x1 ISZERO ISZERO DUP2 MSTORE POP PUSH1 0x1 PUSH1 0x0 CALLER PUSH20 0xFFFFFFFFFFFFFFFFFFFFFFFFFFFFFFFFFFFFFFFF AND PUSH20 0xFFFFFFFFFFFFFFFFFFFFFFFFFFFFFFFFFFFFFFFF AND DUP2 MSTORE PUSH1 0x20 ADD SWAP1 DUP2 MSTORE PUSH1 0x20 ADD PUSH1 0x0 KECCAK256 PUSH1 0x0 DUP3 ADD MLOAD DUP2 PUSH1 0x0 ADD SWAP1 DUP2 PUSH2 0x2C6B SWAP2 SWAP1 PUSH2 0x3E36 JUMP JUMPDEST POP PUSH1 0x20 DUP3 ADD MLOAD DUP2 PUSH1 0x1 ADD SWAP1 DUP2 PUSH2 0x2C81 SWAP2 SWAP1 PUSH2 0x3E36 JUMP JUMPDEST POP PUSH1 0x40 DUP3 ADD MLOAD DUP2 PUSH1 0x2 ADD SWAP1 DUP2 PUSH2 0x2C97 SWAP2 SWAP1 PUSH2 0x3E36 JUMP JUMPDEST POP PUSH1 0x60 DUP3 ADD MLOAD DUP2 PUSH1 0x3 ADD SWAP1 DUP2 PUSH2 0x2CAD SWAP2 SWAP1 PUSH2 0x3E36 JUMP JUMPDEST POP PUSH1 0x80 DUP3 ADD MLOAD DUP2 PUSH1 0x4 ADD SSTORE PUSH1 0xA0 DUP3 ADD MLOAD DUP2 PUSH1 0x5 ADD SSTORE PUSH1 0xC0 DUP3 ADD MLOAD DUP2 PUSH1 0x6 ADD PUSH1 0x0 PUSH2 0x100 EXP DUP2 SLOAD DUP2 PUSH1 0xFF MUL NOT AND SWAP1 DUP4 ISZERO ISZERO MUL OR SWAP1 SSTORE POP SWAP1 POP POP POP POP POP POP JUMP JUMPDEST PUSH1 0x40 MLOAD DUP1 PUSH1 0x40 ADD PUSH1 0x40 MSTORE DUP1 PUSH1 0x60 DUP2 MSTORE PUSH1 0x20 ADD PUSH1 0x0 PUSH1 0x5 DUP2 GT ISZERO PUSH2 0x2D11 JUMPI PUSH2 0x2D10 PUSH2 0x2ECF JUMP JUMPDEST JUMPDEST DUP2 MSTORE POP SWAP1 JUMP JUMPDEST PUSH1 0x40 MLOAD DUP1 PUSH1 0xE0 ADD PUSH1 0x40 MSTORE DUP1 PUSH1 0x60 DUP2 MSTORE PUSH1 0x20 ADD PUSH1 0x60 DUP2 MSTORE PUSH1 0x20 ADD PUSH1 0x60 DUP2 MSTORE PUSH1 0x20 ADD PUSH1 0x60 DUP2 MSTORE PUSH1 0x20 ADD PUSH1 0x0 DUP2 MSTORE PUSH1 0x20 ADD PUSH1 0x0 DUP2 MSTORE PUSH1 0x20 ADD PUSH1 0x0 ISZERO ISZERO DUP2 MSTORE POP SWAP1 JUMP JUMPDEST PUSH1 0x40 MLOAD DUP1 PUSH1 0xA0 ADD PUSH1 0x40 MSTORE DUP1 PUSH1 0x60 DUP2 MSTORE PUSH1 0x20 ADD PUSH1 0x0 ISZERO ISZERO DUP2 MSTORE PUSH1 0x20 ADD PUSH1 0x0 PUSH1 0x3 DUP2 GT ISZERO PUSH2 0x2D85 JUMPI PUSH2 0x2D84 PUSH2 0x2ECF JUMP JUMPDEST JUMPDEST DUP2 MSTORE PUSH1 0x20 ADD PUSH1 0x0 PUSH1 0x1 DUP2 GT ISZERO PUSH2 0x2D9E JUMPI PUSH2 0x2D9D PUSH2 0x2ECF JUMP JUMPDEST JUMPDEST DUP2 MSTORE PUSH1 0x20 ADD PUSH1 0x0 ISZERO ISZERO DUP2 MSTORE POP SWAP1 JUMP JUMPDEST PUSH1 0x0 PUSH1 0x40 MLOAD SWAP1 POP SWAP1 JUMP JUMPDEST PUSH1 0x0 DUP1 REVERT JUMPDEST PUSH1 0x0 DUP1 REVERT JUMPDEST PUSH1 0x0 DUP2 SWAP1 POP SWAP2 SWAP1 POP JUMP JUMPDEST PUSH2 0x2DD4 DUP2 PUSH2 0x2DC1 JUMP JUMPDEST DUP2 EQ PUSH2 0x2DDF JUMPI PUSH1 0x0 DUP1 REVERT JUMPDEST POP JUMP JUMPDEST PUSH1 0x0 DUP2 CALLDATALOAD SWAP1 POP PUSH2 0x2DF1 DUP2 PUSH2 0x2DCB JUMP JUMPDEST SWAP3 SWAP2 POP POP JUMP JUMPDEST PUSH1 0x0 PUSH1 0x20 DUP3 DUP5 SUB SLT ISZERO PUSH2 0x2E0D JUMPI PUSH2 0x2E0C PUSH2 0x2DB7 JUMP JUMPDEST JUMPDEST PUSH1 0x0 PUSH2 0x2E1B DUP5 DUP3 DUP6 ADD PUSH2 0x2DE2 JUMP JUMPDEST SWAP2 POP POP SWAP3 SWAP2 POP POP JUMP JUMPDEST PUSH1 0x0 DUP2 MLOAD SWAP1 POP SWAP2 SWAP1 POP JUMP JUMPDEST PUSH1 0x0 DUP3 DUP3 MSTORE PUSH1 0x20 DUP3 ADD SWAP1 POP SWAP3 SWAP2 POP POP JUMP JUMPDEST PUSH1 0x0 JUMPDEST DUP4 DUP2 LT ISZERO PUSH2 0x2E5E JUMPI DUP1 DUP3 ADD MLOAD DUP2 DUP5 ADD MSTORE PUSH1 0x20 DUP2 ADD SWAP1 POP PUSH2 0x2E43 JUMP JUMPDEST PUSH1 0x0 DUP5 DUP5 ADD MSTORE POP POP POP POP JUMP JUMPDEST PUSH1 0x0 PUSH1 0x1F NOT PUSH1 0x1F DUP4 ADD AND SWAP1 POP SWAP2 SWAP1 POP JUMP JUMPDEST PUSH1 0x0 PUSH2 0x2E86 DUP3 PUSH2 0x2E24 JUMP JUMPDEST PUSH2 0x2E90 DUP2 DUP6 PUSH2 0x2E2F JUMP JUMPDEST SWAP4 POP PUSH2 0x2EA0 DUP2 DUP6 PUSH1 0x20 DUP7 ADD PUSH2 0x2E40 JUMP JUMPDEST PUSH2 0x2EA9 DUP2 PUSH2 0x2E6A JUMP JUMPDEST DUP5 ADD SWAP2 POP POP SWAP3 SWAP2 POP POP JUMP JUMPDEST PUSH1 0x0 DUP2 ISZERO ISZERO SWAP1 POP SWAP2 SWAP1 POP JUMP JUMPDEST PUSH2 0x2EC9 DUP2 PUSH2 0x2EB4 JUMP JUMPDEST DUP3 MSTORE POP POP JUMP JUMPDEST PUSH32 0x4E487B7100000000000000000000000000000000000000000000000000000000 PUSH1 0x0 MSTORE PUSH1 0x21 PUSH1 0x4 MSTORE PUSH1 0x24 PUSH1 0x0 REVERT JUMPDEST PUSH1 0x4 DUP2 LT PUSH2 0x2F0F JUMPI PUSH2 0x2F0E PUSH2 0x2ECF JUMP JUMPDEST JUMPDEST POP JUMP JUMPDEST PUSH1 0x0 DUP2 SWAP1 POP PUSH2 0x2F20 DUP3 PUSH2 0x2EFE JUMP JUMPDEST SWAP2 SWAP1 POP JUMP JUMPDEST PUSH1 0x0 PUSH2 0x2F30 DUP3 PUSH2 0x2F12 JUMP JUMPDEST SWAP1 POP SWAP2 SWAP1 POP JUMP JUMPDEST PUSH2 0x2F40 DUP2 PUSH2 0x2F25 JUMP JUMPDEST DUP3 MSTORE POP POP JUMP JUMPDEST PUSH1 0x2 DUP2 LT PUSH2 0x2F57 JUMPI PUSH2 0x2F56 PUSH2 0x2ECF JUMP JUMPDEST JUMPDEST POP JUMP JUMPDEST PUSH1 0x0 DUP2 SWAP1 POP PUSH2 0x2F68 DUP3 PUSH2 0x2F46 JUMP JUMPDEST SWAP2 SWAP1 POP JUMP JUMPDEST PUSH1 0x0 PUSH2 0x2F78 DUP3 PUSH2 0x2F5A JUMP JUMPDEST SWAP1 POP SWAP2 SWAP1 POP JUMP JUMPDEST PUSH2 0x2F88 DUP2 PUSH2 0x2F6D JUMP JUMPDEST DUP3 MSTORE POP POP JUMP JUMPDEST PUSH1 0x0 PUSH1 0xA0 DUP3 ADD SWAP1 POP DUP2 DUP2 SUB PUSH1 0x0 DUP4 ADD MSTORE PUSH2 0x2FA8 DUP2 DUP9 PUSH2 0x2E7B JUMP JUMPDEST SWAP1 POP PUSH2 0x2FB7 PUSH1 0x20 DUP4 ADD DUP8 PUSH2 0x2EC0 JUMP JUMPDEST PUSH2 0x2FC4 PUSH1 0x40 DUP4 ADD DUP7 PUSH2 0x2F37 JUMP JUMPDEST PUSH2 0x2FD1 PUSH1 0x60 DUP4 ADD DUP6 PUSH2 0x2F7F JUMP JUMPDEST PUSH2 0x2FDE PUSH1 0x80 DUP4 ADD DUP5 PUSH2 0x2EC0 JUMP JUMPDEST SWAP7 SWAP6 POP POP POP POP POP POP JUMP JUMPDEST PUSH1 0x0 DUP1 REVERT JUMPDEST PUSH1 0x0 DUP1 REVERT JUMPDEST PUSH32 0x4E487B7100000000000000000000000000000000000000000000000000000000 PUSH1 0x0 MSTORE PUSH1 0x41 PUSH1 0x4 MSTORE PUSH1 0x24 PUSH1 0x0 REVERT JUMPDEST PUSH2 0x302A DUP3 PUSH2 0x2E6A JUMP JUMPDEST DUP2 ADD DUP2 DUP2 LT PUSH8 0xFFFFFFFFFFFFFFFF DUP3 GT OR ISZERO PUSH2 0x3049 JUMPI PUSH2 0x3048 PUSH2 0x2FF2 JUMP JUMPDEST JUMPDEST DUP1 PUSH1 0x40 MSTORE POP POP POP JUMP JUMPDEST PUSH1 0x0 PUSH2 0x305C PUSH2 0x2DAD JUMP JUMPDEST SWAP1 POP PUSH2 0x3068 DUP3 DUP3 PUSH2 0x3021 JUMP JUMPDEST SWAP2 SWAP1 POP JUMP JUMPDEST PUSH1 0x0 PUSH8 0xFFFFFFFFFFFFFFFF DUP3 GT ISZERO PUSH2 0x3088 JUMPI PUSH2 0x3087 PUSH2 0x2FF2 JUMP JUMPDEST JUMPDEST PUSH2 0x3091 DUP3 PUSH2 0x2E6A JUMP JUMPDEST SWAP1 POP PUSH1 0x20 DUP2 ADD SWAP1 POP SWAP2 SWAP1 POP JUMP JUMPDEST DUP3 DUP2 DUP4 CALLDATACOPY PUSH1 0x0 DUP4 DUP4 ADD MSTORE POP POP POP JUMP JUMPDEST PUSH1 0x0 PUSH2 0x30C0 PUSH2 0x30BB DUP5 PUSH2 0x306D JUMP JUMPDEST PUSH2 0x3052 JUMP JUMPDEST SWAP1 POP DUP3 DUP2 MSTORE PUSH1 0x20 DUP2 ADD DUP5 DUP5 DUP5 ADD GT ISZERO PUSH2 0x30DC JUMPI PUSH2 0x30DB PUSH2 0x2FED JUMP JUMPDEST JUMPDEST PUSH2 0x30E7 DUP5 DUP3 DUP6 PUSH2 0x309E JUMP JUMPDEST POP SWAP4 SWAP3 POP POP POP JUMP JUMPDEST PUSH1 0x0 DUP3 PUSH1 0x1F DUP4 ADD SLT PUSH2 0x3104 JUMPI PUSH2 0x3103 PUSH2 0x2FE8 JUMP JUMPDEST JUMPDEST DUP2 CALLDATALOAD PUSH2 0x3114 DUP5 DUP3 PUSH1 0x20 DUP7 ADD PUSH2 0x30AD JUMP JUMPDEST SWAP2 POP POP SWAP3 SWAP2 POP POP JUMP JUMPDEST PUSH1 0x4 DUP2 LT PUSH2 0x312A JUMPI PUSH1 0x0 DUP1 REVERT JUMPDEST POP JUMP JUMPDEST PUSH1 0x0 DUP2 CALLDATALOAD SWAP1 POP PUSH2 0x313C DUP2 PUSH2 0x311D JUMP JUMPDEST SWAP3 SWAP2 POP POP JUMP JUMPDEST PUSH1 0x2 DUP2 LT PUSH2 0x314F JUMPI PUSH1 0x0 DUP1 REVERT JUMPDEST POP JUMP JUMPDEST PUSH1 0x0 DUP2 CALLDATALOAD SWAP1 POP PUSH2 0x3161 DUP2 PUSH2 0x3142 JUMP JUMPDEST SWAP3 SWAP2 POP POP JUMP JUMPDEST PUSH1 0x0 DUP1 PUSH1 0x0 DUP1 PUSH1 0x80 DUP6 DUP8 SUB SLT ISZERO PUSH2 0x3181 JUMPI PUSH2 0x3180 PUSH2 0x2DB7 JUMP JUMPDEST JUMPDEST PUSH1 0x0 PUSH2 0x318F DUP8 DUP3 DUP9 ADD PUSH2 0x2DE2 JUMP JUMPDEST SWAP5 POP POP PUSH1 0x20 DUP6 ADD CALLDATALOAD PUSH8 0xFFFFFFFFFFFFFFFF DUP2 GT ISZERO PUSH2 0x31B0 JUMPI PUSH2 0x31AF PUSH2 0x2DBC JUMP JUMPDEST JUMPDEST PUSH2 0x31BC DUP8 DUP3 DUP9 ADD PUSH2 0x30EF JUMP JUMPDEST SWAP4 POP POP PUSH1 0x40 PUSH2 0x31CD DUP8 DUP3 DUP9 ADD PUSH2 0x312D JUMP JUMPDEST SWAP3 POP POP PUSH1 0x60 PUSH2 0x31DE DUP8 DUP3 DUP9 ADD PUSH2 0x3152 JUMP JUMPDEST SWAP2 POP POP SWAP3 SWAP6 SWAP2 SWAP5 POP SWAP3 POP JUMP JUMPDEST PUSH1 0x0 PUSH20 0xFFFFFFFFFFFFFFFFFFFFFFFFFFFFFFFFFFFFFFFF DUP3 AND SWAP1 POP SWAP2 SWAP1 POP JUMP JUMPDEST PUSH1 0x0 PUSH2 0x3215 DUP3 PUSH2 0x31EA JUMP JUMPDEST SWAP1 POP SWAP2 SWAP1 POP JUMP JUMPDEST PUSH2 0x3225 DUP2 PUSH2 0x320A JUMP JUMPDEST DUP2 EQ PUSH2 0x3230 JUMPI PUSH1 0x0 DUP1 REVERT JUMPDEST POP JUMP JUMPDEST PUSH1 0x0 DUP2 CALLDATALOAD SWAP1 POP PUSH2 0x3242 DUP2 PUSH2 0x321C JUMP JUMPDEST SWAP3 SWAP2 POP POP JUMP JUMPDEST PUSH1 0x0 PUSH1 0x20 DUP3 DUP5 SUB SLT ISZERO PUSH2 0x325E JUMPI PUSH2 0x325D PUSH2 0x2DB7 JUMP JUMPDEST JUMPDEST PUSH1 0x0 PUSH2 0x326C DUP5 DUP3 DUP6 ADD PUSH2 0x3233 JUMP JUMPDEST SWAP2 POP POP SWAP3 SWAP2 POP POP JUMP JUMPDEST PUSH2 0x327E DUP2 PUSH2 0x2DC1 JUMP JUMPDEST DUP3 MSTORE POP POP JUMP JUMPDEST PUSH1 0x0 PUSH1 0xE0 DUP3 ADD SWAP1 POP DUP2 DUP2 SUB PUSH1 0x0 DUP4 ADD MSTORE PUSH2 0x329E DUP2 DUP11 PUSH2 0x2E7B JUMP JUMPDEST SWAP1 POP DUP2 DUP2 SUB PUSH1 0x20 DUP4 ADD MSTORE PUSH2 0x32B2 DUP2 DUP10 PUSH2 0x2E7B JUMP JUMPDEST SWAP1 POP DUP2 DUP2 SUB PUSH1 0x40 DUP4 ADD MSTORE PUSH2 0x32C6 DUP2 DUP9 PUSH2 0x2E7B JUMP JUMPDEST SWAP1 POP DUP2 DUP2 SUB PUSH1 0x60 DUP4 ADD MSTORE PUSH2 0x32DA DUP2 DUP8 PUSH2 0x2E7B JUMP JUMPDEST SWAP1 POP PUSH2 0x32E9 PUSH1 0x80 DUP4 ADD DUP7 PUSH2 0x3275 JUMP JUMPDEST PUSH2 0x32F6 PUSH1 0xA0 DUP4 ADD DUP6 PUSH2 0x3275 JUMP JUMPDEST PUSH2 0x3303 PUSH1 0xC0 DUP4 ADD DUP5 PUSH2 0x2EC0 JUMP JUMPDEST SWAP9 SWAP8 POP POP POP POP POP POP POP POP JUMP JUMPDEST PUSH1 0x5 DUP2 LT PUSH2 0x3320 JUMPI PUSH2 0x331F PUSH2 0x2ECF JUMP JUMPDEST JUMPDEST POP JUMP JUMPDEST PUSH1 0x0 DUP2 SWAP1 POP PUSH2 0x3331 DUP3 PUSH2 0x330F JUMP JUMPDEST SWAP2 SWAP1 POP JUMP JUMPDEST PUSH1 0x0 PUSH2 0x3341 DUP3 PUSH2 0x3323 JUMP JUMPDEST SWAP1 POP SWAP2 SWAP1 POP JUMP JUMPDEST PUSH2 0x3351 DUP2 PUSH2 0x3336 JUMP JUMPDEST DUP3 MSTORE POP POP JUMP JUMPDEST PUSH1 0x0 PUSH1 0x20 DUP3 ADD SWAP1 POP PUSH2 0x336C PUSH1 0x0 DUP4 ADD DUP5 PUSH2 0x3348 JUMP JUMPDEST SWAP3 SWAP2 POP POP JUMP JUMPDEST PUSH1 0x0 DUP1 PUSH1 0x0 PUSH1 0x60 DUP5 DUP7 SUB SLT ISZERO PUSH2 0x338B JUMPI PUSH2 0x338A PUSH2 0x2DB7 JUMP JUMPDEST JUMPDEST PUSH1 0x0 DUP5 ADD CALLDATALOAD PUSH8 0xFFFFFFFFFFFFFFFF DUP2 GT ISZERO PUSH2 0x33A9 JUMPI PUSH2 0x33A8 PUSH2 0x2DBC JUMP JUMPDEST JUMPDEST PUSH2 0x33B5 DUP7 DUP3 DUP8 ADD PUSH2 0x30EF JUMP JUMPDEST SWAP4 POP POP PUSH1 0x20 PUSH2 0x33C6 DUP7 DUP3 DUP8 ADD PUSH2 0x3233 JUMP JUMPDEST SWAP3 POP POP PUSH1 0x40 PUSH2 0x33D7 DUP7 DUP3 DUP8 ADD PUSH2 0x2DE2 JUMP JUMPDEST SWAP2 POP POP SWAP3 POP SWAP3 POP SWAP3 JUMP JUMPDEST PUSH1 0x0 PUSH1 0x20 DUP3 ADD SWAP1 POP PUSH2 0x33F6 PUSH1 0x0 DUP4 ADD DUP5 PUSH2 0x3275 JUMP JUMPDEST SWAP3 SWAP2 POP POP JUMP JUMPDEST PUSH1 0x0 DUP1 PUSH1 0x0 DUP1 PUSH1 0x80 DUP6 DUP8 SUB SLT ISZERO PUSH2 0x3416 JUMPI PUSH2 0x3415 PUSH2 0x2DB7 JUMP JUMPDEST JUMPDEST PUSH1 0x0 DUP6 ADD CALLDATALOAD PUSH8 0xFFFFFFFFFFFFFFFF DUP2 GT ISZERO PUSH2 0x3434 JUMPI PUSH2 0x3433 PUSH2 0x2DBC JUMP JUMPDEST JUMPDEST PUSH2 0x3440 DUP8 DUP3 DUP9 ADD PUSH2 0x30EF JUMP JUMPDEST SWAP5 POP POP PUSH1 0x20 PUSH2 0x3451 DUP8 DUP3 DUP9 ADD PUSH2 0x2DE2 JUMP JUMPDEST SWAP4 POP POP PUSH1 0x40 PUSH2 0x3462 DUP8 DUP3 DUP9 ADD PUSH2 0x2DE2 JUMP JUMPDEST SWAP3 POP POP PUSH1 0x60 PUSH2 0x3473 DUP8 DUP3 DUP9 ADD PUSH2 0x2DE2 JUMP JUMPDEST SWAP2 POP POP SWAP3 SWAP6 SWAP2 SWAP5 POP SWAP3 POP JUMP JUMPDEST PUSH1 0x0 DUP1 PUSH1 0x40 DUP4 DUP6 SUB SLT ISZERO PUSH2 0x3496 JUMPI PUSH2 0x3495 PUSH2 0x2DB7 JUMP JUMPDEST JUMPDEST PUSH1 0x0 PUSH2 0x34A4 DUP6 DUP3 DUP7 ADD PUSH2 0x3233 JUMP JUMPDEST SWAP3 POP POP PUSH1 0x20 DUP4 ADD CALLDATALOAD PUSH8 0xFFFFFFFFFFFFFFFF DUP2 GT ISZERO PUSH2 0x34C5 JUMPI PUSH2 0x34C4 PUSH2 0x2DBC JUMP JUMPDEST JUMPDEST PUSH2 0x34D1 DUP6 DUP3 DUP7 ADD PUSH2 0x30EF JUMP JUMPDEST SWAP2 POP POP SWAP3 POP SWAP3 SWAP1 POP JUMP JUMPDEST PUSH1 0x0 DUP2 MLOAD SWAP1 POP SWAP2 SWAP1 POP JUMP JUMPDEST PUSH1 0x0 DUP3 DUP3 MSTORE PUSH1 0x20 DUP3 ADD SWAP1 POP SWAP3 SWAP2 POP POP JUMP JUMPDEST PUSH1 0x0 DUP2 SWAP1 POP PUSH1 0x20 DUP3 ADD SWAP1 POP SWAP2 SWAP1 POP JUMP JUMPDEST PUSH1 0x0 DUP3 DUP3 MSTORE PUSH1 0x20 DUP3 ADD SWAP1 POP SWAP3 SWAP2 POP POP JUMP JUMPDEST PUSH1 0x0 PUSH2 0x3523 DUP3 PUSH2 0x2E24 JUMP JUMPDEST PUSH2 0x352D DUP2 DUP6 PUSH2 0x3507 JUMP JUMPDEST SWAP4 POP PUSH2 0x353D DUP2 DUP6 PUSH1 0x20 DUP7 ADD PUSH2 0x2E40 JUMP JUMPDEST PUSH2 0x3546 DUP2 PUSH2 0x2E6A JUMP JUMPDEST DUP5 ADD SWAP2 POP POP SWAP3 SWAP2 POP POP JUMP JUMPDEST PUSH2 0x355A DUP2 PUSH2 0x2EB4 JUMP JUMPDEST DUP3 MSTORE POP POP JUMP JUMPDEST PUSH2 0x3569 DUP2 PUSH2 0x2F25 JUMP JUMPDEST DUP3 MSTORE POP POP JUMP JUMPDEST PUSH2 0x3578 DUP2 PUSH2 0x2F6D JUMP JUMPDEST DUP3 MSTORE POP POP JUMP JUMPDEST PUSH1 0x0 PUSH1 0xA0 DUP4 ADD PUSH1 0x0 DUP4 ADD MLOAD DUP5 DUP3 SUB PUSH1 0x0 DUP7 ADD MSTORE PUSH2 0x359B DUP3 DUP3 PUSH2 0x3518 JUMP JUMPDEST SWAP2 POP POP PUSH1 0x20 DUP4 ADD MLOAD PUSH2 0x35B0 PUSH1 0x20 DUP7 ADD DUP3 PUSH2 0x3551 JUMP JUMPDEST POP PUSH1 0x40 DUP4 ADD MLOAD PUSH2 0x35C3 PUSH1 0x40 DUP7 ADD DUP3 PUSH2 0x3560 JUMP JUMPDEST POP PUSH1 0x60 DUP4 ADD MLOAD PUSH2 0x35D6 PUSH1 0x60 DUP7 ADD DUP3 PUSH2 0x356F JUMP JUMPDEST POP PUSH1 0x80 DUP4 ADD MLOAD PUSH2 0x35E9 PUSH1 0x80 DUP7 ADD DUP3 PUSH2 0x3551 JUMP JUMPDEST POP DUP1 SWAP2 POP POP SWAP3 SWAP2 POP POP JUMP JUMPDEST PUSH1 0x0 PUSH2 0x3600 DUP4 DUP4 PUSH2 0x357E JUMP JUMPDEST SWAP1 POP SWAP3 SWAP2 POP POP JUMP JUMPDEST PUSH1 0x0 PUSH1 0x20 DUP3 ADD SWAP1 POP SWAP2 SWAP1 POP JUMP JUMPDEST PUSH1 0x0 PUSH2 0x3620 DUP3 PUSH2 0x34DB JUMP JUMPDEST PUSH2 0x362A DUP2 DUP6 PUSH2 0x34E6 JUMP JUMPDEST SWAP4 POP DUP4 PUSH1 0x20 DUP3 MUL DUP6 ADD PUSH2 0x363C DUP6 PUSH2 0x34F7 JUMP JUMPDEST DUP1 PUSH1 0x0 JUMPDEST DUP6 DUP2 LT ISZERO PUSH2 0x3678 JUMPI DUP5 DUP5 SUB DUP10 MSTORE DUP2 MLOAD PUSH2 0x3659 DUP6 DUP3 PUSH2 0x35F4 JUMP JUMPDEST SWAP5 POP PUSH2 0x3664 DUP4 PUSH2 0x3608 JUMP JUMPDEST SWAP3 POP PUSH1 0x20 DUP11 ADD SWAP10 POP POP PUSH1 0x1 DUP2 ADD SWAP1 POP PUSH2 0x3640 JUMP JUMPDEST POP DUP3 SWAP8 POP DUP8 SWAP6 POP POP POP POP POP POP SWAP3 SWAP2 POP POP JUMP JUMPDEST PUSH1 0x0 PUSH1 0x20 DUP3 ADD SWAP1 POP DUP2 DUP2 SUB PUSH1 0x0 DUP4 ADD MSTORE PUSH2 0x36A4 DUP2 DUP5 PUSH2 0x3615 JUMP JUMPDEST SWAP1 POP SWAP3 SWAP2 POP POP JUMP JUMPDEST PUSH1 0x0 DUP1 PUSH1 0x40 DUP4 DUP6 SUB SLT ISZERO PUSH2 0x36C3 JUMPI PUSH2 0x36C2 PUSH2 0x2DB7 JUMP JUMPDEST JUMPDEST PUSH1 0x0 PUSH2 0x36D1 DUP6 DUP3 DUP7 ADD PUSH2 0x3233 JUMP JUMPDEST SWAP3 POP POP PUSH1 0x20 PUSH2 0x36E2 DUP6 DUP3 DUP7 ADD PUSH2 0x2DE2 JUMP JUMPDEST SWAP2 POP POP SWAP3 POP SWAP3 SWAP1 POP JUMP JUMPDEST PUSH1 0x0 DUP1 PUSH1 0x40 DUP4 DUP6 SUB SLT ISZERO PUSH2 0x3703 JUMPI PUSH2 0x3702 PUSH2 0x2DB7 JUMP JUMPDEST JUMPDEST PUSH1 0x0 PUSH2 0x3711 DUP6 DUP3 DUP7 ADD PUSH2 0x3233 JUMP JUMPDEST SWAP3 POP POP PUSH1 0x20 PUSH2 0x3722 DUP6 DUP3 DUP7 ADD PUSH2 0x3233 JUMP JUMPDEST SWAP2 POP POP SWAP3 POP SWAP3 SWAP1 POP JUMP JUMPDEST PUSH1 0x0 DUP1 PUSH1 0x0 DUP1 PUSH1 0x80 DUP6 DUP8 SUB SLT ISZERO PUSH2 0x3746 JUMPI PUSH2 0x3745 PUSH2 0x2DB7 JUMP JUMPDEST JUMPDEST PUSH1 0x0 PUSH2 0x3754 DUP8 DUP3 DUP9 ADD PUSH2 0x3233 JUMP JUMPDEST SWAP5 POP POP PUSH1 0x20 PUSH2 0x3765 DUP8 DUP3 DUP9 ADD PUSH2 0x2DE2 JUMP JUMPDEST SWAP4 POP POP PUSH1 0x40 PUSH2 0x3776 DUP8 DUP3 DUP9 ADD PUSH2 0x312D JUMP JUMPDEST SWAP3 POP POP PUSH1 0x60 PUSH2 0x3787 DUP8 DUP3 DUP9 ADD PUSH2 0x3152 JUMP JUMPDEST SWAP2 POP POP SWAP3 SWAP6 SWAP2 SWAP5 POP SWAP3 POP JUMP JUMPDEST PUSH1 0x0 DUP2 MLOAD SWAP1 POP SWAP2 SWAP1 POP JUMP JUMPDEST PUSH1 0x0 DUP3 DUP3 MSTORE PUSH1 0x20 DUP3 ADD SWAP1 POP SWAP3 SWAP2 POP POP JUMP JUMPDEST PUSH1 0x0 DUP2 SWAP1 POP PUSH1 0x20 DUP3 ADD SWAP1 POP SWAP2 SWAP1 POP JUMP JUMPDEST PUSH1 0x6 DUP2 LT PUSH2 0x37D0 JUMPI PUSH2 0x37CF PUSH2 0x2ECF JUMP JUMPDEST JUMPDEST POP JUMP JUMPDEST PUSH1 0x0 DUP2 SWAP1 POP PUSH2 0x37E1 DUP3 PUSH2 0x37BF JUMP JUMPDEST SWAP2 SWAP1 POP JUMP JUMPDEST PUSH1 0x0 PUSH2 0x37F1 DUP3 PUSH2 0x37D3 JUMP JUMPDEST SWAP1 POP SWAP2 SWAP1 POP JUMP JUMPDEST PUSH2 0x3801 DUP2 PUSH2 0x37E6 JUMP JUMPDEST DUP3 MSTORE POP POP JUMP JUMPDEST PUSH1 0x0 PUSH1 0x40 DUP4 ADD PUSH1 0x0 DUP4 ADD MLOAD DUP5 DUP3 SUB PUSH1 0x0 DUP7 ADD MSTORE PUSH2 0x3824 DUP3 DUP3 PUSH2 0x3518 JUMP JUMPDEST SWAP2 POP POP PUSH1 0x20 DUP4 ADD MLOAD PUSH2 0x3839 PUSH1 0x20 DUP7 ADD DUP3 PUSH2 0x37F8 JUMP JUMPDEST POP DUP1 SWAP2 POP POP SWAP3 SWAP2 POP POP JUMP JUMPDEST PUSH1 0x0 PUSH2 0x3850 DUP4 DUP4 PUSH2 0x3807 JUMP JUMPDEST SWAP1 POP SWAP3 SWAP2 POP POP JUMP JUMPDEST PUSH1 0x0 PUSH1 0x20 DUP3 ADD SWAP1 POP SWAP2 SWAP1 POP JUMP JUMPDEST PUSH1 0x0 PUSH2 0x3870 DUP3 PUSH2 0x3793 JUMP JUMPDEST PUSH2 0x387A DUP2 DUP6 PUSH2 0x379E JUMP JUMPDEST SWAP4 POP DUP4 PUSH1 0x20 DUP3 MUL DUP6 ADD PUSH2 0x388C DUP6 PUSH2 0x37AF JUMP JUMPDEST DUP1 PUSH1 0x0 JUMPDEST DUP6 DUP2 LT ISZERO PUSH2 0x38C8 JUMPI DUP5 DUP5 SUB DUP10 MSTORE DUP2 MLOAD PUSH2 0x38A9 DUP6 DUP3 PUSH2 0x3844 JUMP JUMPDEST SWAP5 POP PUSH2 0x38B4 DUP4 PUSH2 0x3858 JUMP JUMPDEST SWAP3 POP PUSH1 0x20 DUP11 ADD SWAP10 POP POP PUSH1 0x1 DUP2 ADD SWAP1 POP PUSH2 0x3890 JUMP JUMPDEST POP DUP3 SWAP8 POP DUP8 SWAP6 POP POP POP POP POP POP SWAP3 SWAP2 POP POP JUMP JUMPDEST PUSH1 0x0 PUSH1 0x20 DUP3 ADD SWAP1 POP DUP2 DUP2 SUB PUSH1 0x0 DUP4 ADD MSTORE PUSH2 0x38F4 DUP2 DUP5 PUSH2 0x3865 JUMP JUMPDEST SWAP1 POP SWAP3 SWAP2 POP POP JUMP JUMPDEST PUSH1 0x0 DUP1 PUSH1 0x0 PUSH1 0x60 DUP5 DUP7 SUB SLT ISZERO PUSH2 0x3915 JUMPI PUSH2 0x3914 PUSH2 0x2DB7 JUMP JUMPDEST JUMPDEST PUSH1 0x0 PUSH2 0x3923 DUP7 DUP3 DUP8 ADD PUSH2 0x3233 JUMP JUMPDEST SWAP4 POP POP PUSH1 0x20 PUSH2 0x3934 DUP7 DUP3 DUP8 ADD PUSH2 0x2DE2 JUMP JUMPDEST SWAP3 POP POP PUSH1 0x40 DUP5 ADD CALLDATALOAD PUSH8 0xFFFFFFFFFFFFFFFF DUP2 GT ISZERO PUSH2 0x3955 JUMPI PUSH2 0x3954 PUSH2 0x2DBC JUMP JUMPDEST JUMPDEST PUSH2 0x3961 DUP7 DUP3 DUP8 ADD PUSH2 0x30EF JUMP JUMPDEST SWAP2 POP POP SWAP3 POP SWAP3 POP SWAP3 JUMP JUMPDEST PUSH2 0x3974 DUP2 PUSH2 0x2DC1 JUMP JUMPDEST DUP3 MSTORE POP POP JUMP JUMPDEST PUSH1 0x0 PUSH1 0xE0 DUP4 ADD PUSH1 0x0 DUP4 ADD MLOAD DUP5 DUP3 SUB PUSH1 0x0 DUP7 ADD MSTORE PUSH2 0x3997 DUP3 DUP3 PUSH2 0x3518 JUMP JUMPDEST SWAP2 POP POP PUSH1 0x20 DUP4 ADD MLOAD DUP5 DUP3 SUB PUSH1 0x20 DUP7 ADD MSTORE PUSH2 0x39B1 DUP3 DUP3 PUSH2 0x3518 JUMP JUMPDEST SWAP2 POP POP PUSH1 0x40 DUP4 ADD MLOAD DUP5 DUP3 SUB PUSH1 0x40 DUP7 ADD MSTORE PUSH2 0x39CB DUP3 DUP3 PUSH2 0x3518 JUMP JUMPDEST SWAP2 POP POP PUSH1 0x60 DUP4 ADD MLOAD DUP5 DUP3 SUB PUSH1 0x60 DUP7 ADD MSTORE PUSH2 0x39E5 DUP3 DUP3 PUSH2 0x3518 JUMP JUMPDEST SWAP2 POP POP PUSH1 0x80 DUP4 ADD MLOAD PUSH2 0x39FA PUSH1 0x80 DUP7 ADD DUP3 PUSH2 0x396B JUMP JUMPDEST POP PUSH1 0xA0 DUP4 ADD MLOAD PUSH2 0x3A0D PUSH1 0xA0 DUP7 ADD DUP3 PUSH2 0x396B JUMP JUMPDEST POP PUSH1 0xC0 DUP4 ADD MLOAD PUSH2 0x3A20 PUSH1 0xC0 DUP7 ADD DUP3 PUSH2 0x3551 JUMP JUMPDEST POP DUP1 SWAP2 POP POP SWAP3 SWAP2 POP POP JUMP JUMPDEST PUSH1 0x0 PUSH1 0x20 DUP3 ADD SWAP1 POP DUP2 DUP2 SUB PUSH1 0x0 DUP4 ADD MSTORE PUSH2 0x3A45 DUP2 DUP5 PUSH2 0x397A JUMP JUMPDEST SWAP1 POP SWAP3 SWAP2 POP POP JUMP JUMPDEST PUSH1 0x0 PUSH1 0xA0 DUP4 ADD PUSH1 0x0 DUP4 ADD MLOAD DUP5 DUP3 SUB PUSH1 0x0 DUP7 ADD MSTORE PUSH2 0x3A6A DUP3 DUP3 PUSH2 0x3518 JUMP JUMPDEST SWAP2 POP POP PUSH1 0x20 DUP4 ADD MLOAD PUSH2 0x3A7F PUSH1 0x20 DUP7 ADD DUP3 PUSH2 0x3551 JUMP JUMPDEST POP PUSH1 0x40 DUP4 ADD MLOAD PUSH2 0x3A92 PUSH1 0x40 DUP7 ADD DUP3 PUSH2 0x3560 JUMP JUMPDEST POP PUSH1 0x60 DUP4 ADD MLOAD PUSH2 0x3AA5 PUSH1 0x60 DUP7 ADD DUP3 PUSH2 0x356F JUMP JUMPDEST POP PUSH1 0x80 DUP4 ADD MLOAD PUSH2 0x3AB8 PUSH1 0x80 DUP7 ADD DUP3 PUSH2 0x3551 JUMP JUMPDEST POP DUP1 SWAP2 POP POP SWAP3 SWAP2 POP POP JUMP JUMPDEST PUSH1 0x0 PUSH1 0x20 DUP3 ADD SWAP1 POP DUP2 DUP2 SUB PUSH1 0x0 DUP4 ADD MSTORE PUSH2 0x3ADD DUP2 DUP5 PUSH2 0x3A4D JUMP JUMPDEST SWAP1 POP SWAP3 SWAP2 POP POP JUMP JUMPDEST PUSH1 0x0 DUP1 PUSH1 0x0 PUSH1 0x60 DUP5 DUP7 SUB SLT ISZERO PUSH2 0x3AFE JUMPI PUSH2 0x3AFD PUSH2 0x2DB7 JUMP JUMPDEST JUMPDEST PUSH1 0x0 PUSH2 0x3B0C DUP7 DUP3 DUP8 ADD PUSH2 0x3233 JUMP JUMPDEST SWAP4 POP POP PUSH1 0x20 PUSH2 0x3B1D DUP7 DUP3 DUP8 ADD PUSH2 0x2DE2 JUMP JUMPDEST SWAP3 POP POP PUSH1 0x40 PUSH2 0x3B2E DUP7 DUP3 DUP8 ADD PUSH2 0x2DE2 JUMP JUMPDEST SWAP2 POP POP SWAP3 POP SWAP3 POP SWAP3 JUMP JUMPDEST PUSH1 0x0 PUSH1 0x20 DUP3 ADD SWAP1 POP PUSH2 0x3B4D PUSH1 0x0 DUP4 ADD DUP5 PUSH2 0x2EC0 JUMP JUMPDEST SWAP3 SWAP2 POP POP JUMP JUMPDEST PUSH1 0x0 DUP1 PUSH1 0x0 DUP1 PUSH1 0x80 DUP6 DUP8 SUB SLT ISZERO PUSH2 0x3B6D JUMPI PUSH2 0x3B6C PUSH2 0x2DB7 JUMP JUMPDEST JUMPDEST PUSH1 0x0 DUP6 ADD CALLDATALOAD PUSH8 0xFFFFFFFFFFFFFFFF DUP2 GT ISZERO PUSH2 0x3B8B JUMPI PUSH2 0x3B8A PUSH2 0x2DBC JUMP JUMPDEST JUMPDEST PUSH2 0x3B97 DUP8 DUP3 DUP9 ADD PUSH2 0x30EF JUMP JUMPDEST SWAP5 POP POP PUSH1 0x20 DUP6 ADD CALLDATALOAD PUSH8 0xFFFFFFFFFFFFFFFF DUP2 GT ISZERO PUSH2 0x3BB8 JUMPI PUSH2 0x3BB7 PUSH2 0x2DBC JUMP JUMPDEST JUMPDEST PUSH2 0x3BC4 DUP8 DUP3 DUP9 ADD PUSH2 0x30EF JUMP JUMPDEST SWAP4 POP POP PUSH1 0x40 DUP6 ADD CALLDATALOAD PUSH8 0xFFFFFFFFFFFFFFFF DUP2 GT ISZERO PUSH2 0x3BE5 JUMPI PUSH2 0x3BE4 PUSH2 0x2DBC JUMP JUMPDEST JUMPDEST PUSH2 0x3BF1 DUP8 DUP3 DUP9 ADD PUSH2 0x30EF JUMP JUMPDEST SWAP3 POP POP PUSH1 0x60 DUP6 ADD CALLDATALOAD PUSH8 0xFFFFFFFFFFFFFFFF DUP2 GT ISZERO PUSH2 0x3C12 JUMPI PUSH2 0x3C11 PUSH2 0x2DBC JUMP JUMPDEST JUMPDEST PUSH2 0x3C1E DUP8 DUP3 DUP9 ADD PUSH2 0x30EF JUMP JUMPDEST SWAP2 POP POP SWAP3 SWAP6 SWAP2 SWAP5 POP SWAP3 POP JUMP JUMPDEST PUSH32 0x4E487B7100000000000000000000000000000000000000000000000000000000 PUSH1 0x0 MSTORE PUSH1 0x22 PUSH1 0x4 MSTORE PUSH1 0x24 PUSH1 0x0 REVERT JUMPDEST PUSH1 0x0 PUSH1 0x2 DUP3 DIV SWAP1 POP PUSH1 0x1 DUP3 AND DUP1 PUSH2 0x3C71 JUMPI PUSH1 0x7F DUP3 AND SWAP2 POP JUMPDEST PUSH1 0x20 DUP3 LT DUP2 SUB PUSH2 0x3C84 JUMPI PUSH2 0x3C83 PUSH2 0x3C2A JUMP JUMPDEST JUMPDEST POP SWAP2 SWAP1 POP JUMP JUMPDEST PUSH1 0x0 DUP2 SWAP1 POP DUP2 PUSH1 0x0 MSTORE PUSH1 0x20 PUSH1 0x0 KECCAK256 SWAP1 POP SWAP2 SWAP1 POP JUMP JUMPDEST PUSH1 0x0 PUSH1 0x20 PUSH1 0x1F DUP4 ADD DIV SWAP1 POP SWAP2 SWAP1 POP JUMP JUMPDEST PUSH1 0x0 DUP3 DUP3 SHL SWAP1 POP SWAP3 SWAP2 POP POP JUMP JUMPDEST PUSH1 0x0 PUSH1 0x8 DUP4 MUL PUSH2 0x3CEC PUSH32 0xFFFFFFFFFFFFFFFFFFFFFFFFFFFFFFFFFFFFFFFFFFFFFFFFFFFFFFFFFFFFFFFF DUP3 PUSH2 0x3CAF JUMP JUMPDEST PUSH2 0x3CF6 DUP7 DUP4 PUSH2 0x3CAF JUMP JUMPDEST SWAP6 POP DUP1 NOT DUP5 AND SWAP4 POP DUP1 DUP7 AND DUP5 OR SWAP3 POP POP POP SWAP4 SWAP3 POP POP POP JUMP JUMPDEST PUSH1 0x0 DUP2 SWAP1 POP SWAP2 SWAP1 POP JUMP JUMPDEST PUSH1 0x0 PUSH2 0x3D33 PUSH2 0x3D2E PUSH2 0x3D29 DUP5 PUSH2 0x2DC1 JUMP JUMPDEST PUSH2 0x3D0E JUMP JUMPDEST PUSH2 0x2DC1 JUMP JUMPDEST SWAP1 POP SWAP2 SWAP1 POP JUMP JUMPDEST PUSH1 0x0 DUP2 SWAP1 POP SWAP2 SWAP1 POP JUMP JUMPDEST PUSH2 0x3D4D DUP4 PUSH2 0x3D18 JUMP JUMPDEST PUSH2 0x3D61 PUSH2 0x3D59 DUP3 PUSH2 0x3D3A JUMP JUMPDEST DUP5 DUP5 SLOAD PUSH2 0x3CBC JUMP JUMPDEST DUP3 SSTORE POP POP POP POP JUMP JUMPDEST PUSH1 0x0 SWAP1 JUMP JUMPDEST PUSH2 0x3D76 PUSH2 0x3D69 JUMP JUMPDEST PUSH2 0x3D81 DUP2 DUP5 DUP5 PUSH2 0x3D44 JUMP JUMPDEST POP POP POP JUMP JUMPDEST JUMPDEST DUP2 DUP2 LT ISZERO PUSH2 0x3DA5 JUMPI PUSH2 0x3D9A PUSH1 0x0 DUP3 PUSH2 0x3D6E JUMP JUMPDEST PUSH1 0x1 DUP2 ADD SWAP1 POP PUSH2 0x3D87 JUMP JUMPDEST POP POP JUMP JUMPDEST PUSH1 0x1F DUP3 GT ISZERO PUSH2 0x3DEA JUMPI PUSH2 0x3DBB DUP2 PUSH2 0x3C8A JUMP JUMPDEST PUSH2 0x3DC4 DUP5 PUSH2 0x3C9F JUMP JUMPDEST DUP2 ADD PUSH1 0x20 DUP6 LT ISZERO PUSH2 0x3DD3 JUMPI DUP2 SWAP1 POP JUMPDEST PUSH2 0x3DE7 PUSH2 0x3DDF DUP6 PUSH2 0x3C9F JUMP JUMPDEST DUP4 ADD DUP3 PUSH2 0x3D86 JUMP JUMPDEST POP POP JUMPDEST POP POP POP JUMP JUMPDEST PUSH1 0x0 DUP3 DUP3 SHR SWAP1 POP SWAP3 SWAP2 POP POP JUMP JUMPDEST PUSH1 0x0 PUSH2 0x3E0D PUSH1 0x0 NOT DUP5 PUSH1 0x8 MUL PUSH2 0x3DEF JUMP JUMPDEST NOT DUP1 DUP4 AND SWAP2 POP POP SWAP3 SWAP2 POP POP JUMP JUMPDEST PUSH1 0x0 PUSH2 0x3E26 DUP4 DUP4 PUSH2 0x3DFC JUMP JUMPDEST SWAP2 POP DUP3 PUSH1 0x2 MUL DUP3 OR SWAP1 POP SWAP3 SWAP2 POP POP JUMP JUMPDEST PUSH2 0x3E3F DUP3 PUSH2 0x2E24 JUMP JUMPDEST PUSH8 0xFFFFFFFFFFFFFFFF DUP2 GT ISZERO PUSH2 0x3E58 JUMPI PUSH2 0x3E57 PUSH2 0x2FF2 JUMP JUMPDEST JUMPDEST PUSH2 0x3E62 DUP3 SLOAD PUSH2 0x3C59 JUMP JUMPDEST PUSH2 0x3E6D DUP3 DUP3 DUP6 PUSH2 0x3DA9 JUMP JUMPDEST PUSH1 0x0 PUSH1 0x20 SWAP1 POP PUSH1 0x1F DUP4 GT PUSH1 0x1 DUP2 EQ PUSH2 0x3EA0 JUMPI PUSH1 0x0 DUP5 ISZERO PUSH2 0x3E8E JUMPI DUP3 DUP8 ADD MLOAD SWAP1 POP JUMPDEST PUSH2 0x3E98 DUP6 DUP3 PUSH2 0x3E1A JUMP JUMPDEST DUP7 SSTORE POP PUSH2 0x3F00 JUMP JUMPDEST PUSH1 0x1F NOT DUP5 AND PUSH2 0x3EAE DUP7 PUSH2 0x3C8A JUMP JUMPDEST PUSH1 0x0 JUMPDEST DUP3 DUP2 LT ISZERO PUSH2 0x3ED6 JUMPI DUP5 DUP10 ADD MLOAD DUP3 SSTORE PUSH1 0x1 DUP3 ADD SWAP2 POP PUSH1 0x20 DUP6 ADD SWAP5 POP PUSH1 0x20 DUP2 ADD SWAP1 POP PUSH2 0x3EB1 JUMP JUMPDEST DUP7 DUP4 LT ISZERO PUSH2 0x3EF3 JUMPI DUP5 DUP10 ADD MLOAD PUSH2 0x3EEF PUSH1 0x1F DUP10 AND DUP3 PUSH2 0x3DFC JUMP JUMPDEST DUP4 SSTORE POP JUMPDEST PUSH1 0x1 PUSH1 0x2 DUP9 MUL ADD DUP9 SSTORE POP POP POP JUMPDEST POP POP POP POP POP POP JUMP JUMPDEST PUSH32 0x4E6F207265766965777320796574000000000000000000000000000000000000 PUSH1 0x0 DUP3 ADD MSTORE POP JUMP JUMPDEST PUSH1 0x0 PUSH2 0x3F3E PUSH1 0xE DUP4 PUSH2 0x2E2F JUMP JUMPDEST SWAP2 POP PUSH2 0x3F49 DUP3 PUSH2 0x3F08 JUMP JUMPDEST PUSH1 0x20 DUP3 ADD SWAP1 POP SWAP2 SWAP1 POP JUMP JUMPDEST PUSH1 0x0 PUSH1 0x20 DUP3 ADD SWAP1 POP DUP2 DUP2 SUB PUSH1 0x0 DUP4 ADD MSTORE PUSH2 0x3F6D DUP2 PUSH2 0x3F31 JUMP JUMPDEST SWAP1 POP SWAP2 SWAP1 POP JUMP JUMPDEST PUSH32 0x4E487B7100000000000000000000000000000000000000000000000000000000 PUSH1 0x0 MSTORE PUSH1 0x12 PUSH1 0x4 MSTORE PUSH1 0x24 PUSH1 0x0 REVERT JUMPDEST PUSH32 0x4E487B7100000000000000000000000000000000000000000000000000000000 PUSH1 0x0 MSTORE PUSH1 0x11 PUSH1 0x4 MSTORE PUSH1 0x24 PUSH1 0x0 REVERT JUMPDEST PUSH1 0x0 PUSH2 0x3FDD DUP3 PUSH2 0x2DC1 JUMP JUMPDEST SWAP2 POP PUSH2 0x3FE8 DUP4 PUSH2 0x2DC1 JUMP JUMPDEST SWAP3 POP DUP3 PUSH2 0x3FF8 JUMPI PUSH2 0x3FF7 PUSH2 0x3F74 JUMP JUMPDEST JUMPDEST DUP3 DUP3 DIV SWAP1 POP SWAP3 SWAP2 POP POP JUMP JUMPDEST PUSH32 0x556E617574686F72697A65642041636365737300000000000000000000000000 PUSH1 0x0 DUP3 ADD MSTORE POP JUMP JUMPDEST PUSH1 0x0 PUSH2 0x4039 PUSH1 0x13 DUP4 PUSH2 0x2E2F JUMP JUMPDEST SWAP2 POP PUSH2 0x4044 DUP3 PUSH2 0x4003 JUMP JUMPDEST PUSH1 0x20 DUP3 ADD SWAP1 POP SWAP2 SWAP1 POP JUMP JUMPDEST PUSH1 0x0 PUSH1 0x20 DUP3 ADD SWAP1 POP DUP2 DUP2 SUB PUSH1 0x0 DUP4 ADD MSTORE PUSH2 0x4068 DUP2 PUSH2 0x402C JUMP JUMPDEST SWAP1 POP SWAP2 SWAP1 POP JUMP JUMPDEST PUSH32 0x54726561746D656E74207374617475732073686F756C64206265206569746865 PUSH1 0x0 DUP3 ADD MSTORE PUSH32 0x7220756E74726561746564283029206F7220756E6465722074726561746D656E PUSH1 0x20 DUP3 ADD MSTORE PUSH32 0x7428312900000000000000000000000000000000000000000000000000000000 PUSH1 0x40 DUP3 ADD MSTORE POP JUMP JUMPDEST PUSH1 0x0 PUSH2 0x40F1 PUSH1 0x44 DUP4 PUSH2 0x2E2F JUMP JUMPDEST SWAP2 POP PUSH2 0x40FC DUP3 PUSH2 0x406F JUMP JUMPDEST PUSH1 0x60 DUP3 ADD SWAP1 POP SWAP2 SWAP1 POP JUMP JUMPDEST PUSH1 0x0 PUSH1 0x20 DUP3 ADD SWAP1 POP DUP2 DUP2 SUB PUSH1 0x0 DUP4 ADD MSTORE PUSH2 0x4120 DUP2 PUSH2 0x40E4 JUMP JUMPDEST SWAP1 POP SWAP2 SWAP1 POP JUMP JUMPDEST PUSH1 0x0 PUSH2 0x4132 DUP3 PUSH2 0x2DC1 JUMP JUMPDEST SWAP2 POP PUSH2 0x413D DUP4 PUSH2 0x2DC1 JUMP JUMPDEST SWAP3 POP DUP3 DUP3 SUB SWAP1 POP DUP2 DUP2 GT ISZERO PUSH2 0x4155 JUMPI PUSH2 0x4154 PUSH2 0x3FA3 JUMP JUMPDEST JUMPDEST SWAP3 SWAP2 POP POP JUMP JUMPDEST PUSH32 0x50617469656E742773206461746120697320616C7265616479206173736F6369 PUSH1 0x0 DUP3 ADD MSTORE PUSH32 0x6174656420776974682074686973206164647265737300000000000000000000 PUSH1 0x20 DUP3 ADD MSTORE POP JUMP JUMPDEST PUSH1 0x0 PUSH2 0x41B7 PUSH1 0x36 DUP4 PUSH2 0x2E2F JUMP JUMPDEST SWAP2 POP PUSH2 0x41C2 DUP3 PUSH2 0x415B JUMP JUMPDEST PUSH1 0x40 DUP3 ADD SWAP1 POP SWAP2 SWAP1 POP JUMP JUMPDEST PUSH1 0x0 PUSH1 0x20 DUP3 ADD SWAP1 POP DUP2 DUP2 SUB PUSH1 0x0 DUP4 ADD MSTORE PUSH2 0x41E6 DUP2 PUSH2 0x41AA JUMP JUMPDEST SWAP1 POP SWAP2 SWAP1 POP JUMP JUMPDEST PUSH32 0x4F6E6C7920446F63746F722063616E206368616E676500000000000000000000 PUSH1 0x0 DUP3 ADD MSTORE POP JUMP JUMPDEST PUSH1 0x0 PUSH2 0x4223 PUSH1 0x16 DUP4 PUSH2 0x2E2F JUMP JUMPDEST SWAP2 POP PUSH2 0x422E DUP3 PUSH2 0x41ED JUMP JUMPDEST PUSH1 0x20 DUP3 ADD SWAP1 POP SWAP2 SWAP1 POP JUMP JUMPDEST PUSH1 0x0 PUSH1 0x20 DUP3 ADD SWAP1 POP DUP2 DUP2 SUB PUSH1 0x0 DUP4 ADD MSTORE PUSH2 0x4252 DUP2 PUSH2 0x4216 JUMP JUMPDEST SWAP1 POP SWAP2 SWAP1 POP JUMP JUMPDEST PUSH1 0x0 DUP2 SWAP1 POP SWAP3 SWAP2 POP POP JUMP JUMPDEST PUSH1 0x0 PUSH2 0x426F DUP3 PUSH2 0x2E24 JUMP JUMPDEST PUSH2 0x4279 DUP2 DUP6 PUSH2 0x4259 JUMP JUMPDEST SWAP4 POP PUSH2 0x4289 DUP2 DUP6 PUSH1 0x20 DUP7 ADD PUSH2 0x2E40 JUMP JUMPDEST DUP1 DUP5 ADD SWAP2 POP POP SWAP3 SWAP2 POP POP JUMP JUMPDEST PUSH1 0x0 PUSH2 0x42A1 DUP3 DUP5 PUSH2 0x4264 JUMP JUMPDEST SWAP2 POP DUP2 SWAP1 POP SWAP3 SWAP2 POP POP JUMP JUMPDEST PUSH1 0x0 DUP2 SLOAD PUSH2 0x42B9 DUP2 PUSH2 0x3C59 JUMP JUMPDEST PUSH2 0x42C3 DUP2 DUP7 PUSH2 0x4259 JUMP JUMPDEST SWAP5 POP PUSH1 0x1 DUP3 AND PUSH1 0x0 DUP2 EQ PUSH2 0x42DE JUMPI PUSH1 0x1 DUP2 EQ PUSH2 0x42F3 JUMPI PUSH2 0x4326 JUMP JUMPDEST PUSH1 0xFF NOT DUP4 AND DUP7 MSTORE DUP2 ISZERO ISZERO DUP3 MUL DUP7 ADD SWAP4 POP PUSH2 0x4326 JUMP JUMPDEST PUSH2 0x42FC DUP6 PUSH2 0x3C8A JUMP JUMPDEST PUSH1 0x0 JUMPDEST DUP4 DUP2 LT ISZERO PUSH2 0x431E JUMPI DUP2 SLOAD DUP2 DUP10 ADD MSTORE PUSH1 0x1 DUP3 ADD SWAP2 POP PUSH1 0x20 DUP2 ADD SWAP1 POP PUSH2 0x42FF JUMP JUMPDEST DUP4 DUP9 ADD SWAP6 POP POP POP JUMPDEST POP POP POP SWAP3 SWAP2 POP POP JUMP JUMPDEST PUSH1 0x0 PUSH2 0x433B DUP3 DUP5 PUSH2 0x42AC JUMP JUMPDEST SWAP2 POP DUP2 SWAP1 POP SWAP3 SWAP2 POP POP JUMP JUMPDEST PUSH32 0x4F6E6C79207468652070617469656E742063616E206368616E6765206279206F PUSH1 0x0 DUP3 ADD MSTORE PUSH32 0x776E73656C660000000000000000000000000000000000000000000000000000 PUSH1 0x20 DUP3 ADD MSTORE POP JUMP JUMPDEST PUSH1 0x0 PUSH2 0x43A2 PUSH1 0x26 DUP4 PUSH2 0x2E2F JUMP JUMPDEST SWAP2 POP PUSH2 0x43AD DUP3 PUSH2 0x4346 JUMP JUMPDEST PUSH1 0x40 DUP3 ADD SWAP1 POP SWAP2 SWAP1 POP JUMP JUMPDEST PUSH1 0x0 PUSH1 0x20 DUP3 ADD SWAP1 POP DUP2 DUP2 SUB PUSH1 0x0 DUP4 ADD MSTORE PUSH2 0x43D1 DUP2 PUSH2 0x4395 JUMP JUMPDEST SWAP1 POP SWAP2 SWAP1 POP JUMP JUMPDEST PUSH32 0x4E487B7100000000000000000000000000000000000000000000000000000000 PUSH1 0x0 MSTORE PUSH1 0x32 PUSH1 0x4 MSTORE PUSH1 0x24 PUSH1 0x0 REVERT JUMPDEST PUSH1 0x0 PUSH2 0x4412 DUP3 PUSH2 0x2DC1 JUMP JUMPDEST SWAP2 POP PUSH2 0x441D DUP4 PUSH2 0x2DC1 JUMP JUMPDEST SWAP3 POP DUP3 DUP3 ADD SWAP1 POP DUP1 DUP3 GT ISZERO PUSH2 0x4435 JUMPI PUSH2 0x4434 PUSH2 0x3FA3 JUMP JUMPDEST JUMPDEST SWAP3 SWAP2 POP POP JUMP JUMPDEST PUSH1 0x0 PUSH2 0x4446 DUP3 PUSH2 0x2DC1 JUMP JUMPDEST SWAP2 POP PUSH32 0xFFFFFFFFFFFFFFFFFFFFFFFFFFFFFFFFFFFFFFFFFFFFFFFFFFFFFFFFFFFFFFFF DUP3 SUB PUSH2 0x4478 JUMPI PUSH2 0x4477 PUSH2 0x3FA3 JUMP JUMPDEST JUMPDEST PUSH1 0x1 DUP3 ADD SWAP1 POP SWAP2 SWAP1 POP JUMP JUMPDEST PUSH1 0x0 DUP2 SLOAD SWAP1 POP PUSH2 0x4492 DUP2 PUSH2 0x3C59 JUMP JUMPDEST SWAP1 POP SWAP2 SWAP1 POP JUMP JUMPDEST DUP2 DUP2 SUB PUSH2 0x44A7 JUMPI POP POP PUSH2 0x457F JUMP JUMPDEST PUSH2 0x44B0 DUP3 PUSH2 0x4483 JUMP JUMPDEST PUSH8 0xFFFFFFFFFFFFFFFF DUP2 GT ISZERO PUSH2 0x44C9 JUMPI PUSH2 0x44C8 PUSH2 0x2FF2 JUMP JUMPDEST JUMPDEST PUSH2 0x44D3 DUP3 SLOAD PUSH2 0x3C59 JUMP JUMPDEST PUSH2 0x44DE DUP3 DUP3 DUP6 PUSH2 0x3DA9 JUMP JUMPDEST PUSH1 0x0 PUSH1 0x1F DUP4 GT PUSH1 0x1 DUP2 EQ PUSH2 0x450D JUMPI PUSH1 0x0 DUP5 ISZERO PUSH2 0x44FB JUMPI DUP3 DUP8 ADD SLOAD SWAP1 POP JUMPDEST PUSH2 0x4505 DUP6 DUP3 PUSH2 0x3E1A JUMP JUMPDEST DUP7 SSTORE POP PUSH2 0x4578 JUMP JUMPDEST PUSH1 0x1F NOT DUP5 AND PUSH2 0x451B DUP8 PUSH2 0x3C8A JUMP JUMPDEST SWAP7 POP PUSH2 0x4526 DUP7 PUSH2 0x3C8A JUMP JUMPDEST PUSH1 0x0 JUMPDEST DUP3 DUP2 LT ISZERO PUSH2 0x454E JUMPI DUP5 DUP10 ADD SLOAD DUP3 SSTORE PUSH1 0x1 DUP3 ADD SWAP2 POP PUSH1 0x1 DUP6 ADD SWAP5 POP PUSH1 0x20 DUP2 ADD SWAP1 POP PUSH2 0x4529 JUMP JUMPDEST DUP7 DUP4 LT ISZERO PUSH2 0x456B JUMPI DUP5 DUP10 ADD SLOAD PUSH2 0x4567 PUSH1 0x1F DUP10 AND DUP3 PUSH2 0x3DFC JUMP JUMPDEST DUP4 SSTORE POP JUMPDEST PUSH1 0x1 PUSH1 0x2 DUP9 MUL ADD DUP9 SSTORE POP POP POP JUMPDEST POP POP POP POP POP POP JUMPDEST JUMP JUMPDEST PUSH32 0x496E76616C69642074726561746D656E74207374617475730000000000000000 PUSH1 0x0 DUP3 ADD MSTORE POP JUMP JUMPDEST PUSH1 0x0 PUSH2 0x45B7 PUSH1 0x18 DUP4 PUSH2 0x2E2F JUMP JUMPDEST SWAP2 POP PUSH2 0x45C2 DUP3 PUSH2 0x4581 JUMP JUMPDEST PUSH1 0x20 DUP3 ADD SWAP1 POP SWAP2 SWAP1 POP JUMP JUMPDEST PUSH1 0x0 PUSH1 0x20 DUP3 ADD SWAP1 POP DUP2 DUP2 SUB PUSH1 0x0 DUP4 ADD MSTORE PUSH2 0x45E6 DUP2 PUSH2 0x45AA JUMP JUMPDEST SWAP1 POP SWAP2 SWAP1 POP JUMP JUMPDEST PUSH32 0x496E646578206572726F72000000000000000000000000000000000000000000 PUSH1 0x0 DUP3 ADD MSTORE POP JUMP JUMPDEST PUSH1 0x0 PUSH2 0x4623 PUSH1 0xB DUP4 PUSH2 0x2E2F JUMP JUMPDEST SWAP2 POP PUSH2 0x462E DUP3 PUSH2 0x45ED JUMP JUMPDEST PUSH1 0x20 DUP3 ADD SWAP1 POP SWAP2 SWAP1 POP JUMP JUMPDEST PUSH1 0x0 PUSH1 0x20 DUP3 ADD SWAP1 POP DUP2 DUP2 SUB PUSH1 0x0 DUP4 ADD MSTORE PUSH2 0x4652 DUP2 PUSH2 0x4616 JUMP JUMPDEST SWAP1 POP SWAP2 SWAP1 POP JUMP JUMPDEST PUSH32 0x446F63746F722773206461746120697320616C7265616479206173736F636961 PUSH1 0x0 DUP3 ADD MSTORE PUSH32 0x7465642077697468207468697320616464726573730000000000000000000000 PUSH1 0x20 DUP3 ADD MSTORE POP JUMP JUMPDEST PUSH1 0x0 PUSH2 0x46B5 PUSH1 0x35 DUP4 PUSH2 0x2E2F JUMP JUMPDEST SWAP2 POP PUSH2 0x46C0 DUP3 PUSH2 0x4659 JUMP JUMPDEST PUSH1 0x40 DUP3 ADD SWAP1 POP SWAP2 SWAP1 POP JUMP JUMPDEST PUSH1 0x0 PUSH1 0x20 DUP3 ADD SWAP1 POP DUP2 DUP2 SUB PUSH1 0x0 DUP4 ADD MSTORE PUSH2 0x46E4 DUP2 PUSH2 0x46A8 JUMP JUMPDEST SWAP1 POP SWAP2 SWAP1 POP JUMP INVALID LOG2 PUSH5 0x6970667358 0x22 SLT KECCAK256 0xE9 0x25 0xD4 0xB7 0xF DUP1 DUP16 PUSH17 0x942215D11461CE2EFCAA8CA39343C24D84 DUP9 LOG2 PUSH23 0xF722910E64736F6C634300081200330000000000000000 "
				},
				"gasEstimates": {
					"creation": {
						"codeDepositCost": "3641800",
						"executionCost": "28461",
						"totalCost": "3670261"
					},
					"external": {
						"Doctor_Record(address)": "infinite",
						"Doctors_Rating(address,address)": "infinite",
						"MedRecordEditor(address)": "2933",
						"Medicine_list(uint256)": "infinite",
						"addMedicine(uint256,string,uint8,uint8)": "infinite",
						"add_Disease(string,address,uint256)": "infinite",
						"approvePatientRecordEditor(address)": "27244",
						"disapprovePatientRecordEditor(address)": "27278",
						"get_Disease_Details_Of_patient(address)": "infinite",
						"giveReviewTotheDoctor(address,uint256)": "infinite",
						"prescribeMedicine(address,uint256,uint8,uint8)": "infinite",
						"register_as_doctor(string,string,string,string)": "infinite",
						"register_as_patient(string,uint256,uint256,uint256)": "infinite",
						"update_Recovery_Status(address,uint256,uint256)": "infinite",
						"viewDoctorDetails(address)": "infinite",
						"viewDoctorRating(address)": "infinite",
						"viewMedicineDetails(uint256)": "infinite",
						"viewPatientDiseaseDetails(address,uint256,string)": "infinite",
						"viewPatientMedicationsByDoctor(address,string)": "infinite"
					}
				},
				"methodIdentifiers": {
					"Doctor_Record(address)": "21bdd1bb",
					"Doctors_Rating(address,address)": "a14d4d4d",
					"MedRecordEditor(address)": "e565aca3",
					"Medicine_list(uint256)": "109097a0",
					"addMedicine(uint256,string,uint8,uint8)": "1dfb3602",
					"add_Disease(string,address,uint256)": "367c1c37",
					"approvePatientRecordEditor(address)": "ba7b7ba0",
					"disapprovePatientRecordEditor(address)": "6e537004",
					"get_Disease_Details_Of_patient(address)": "a3621a76",
					"giveReviewTotheDoctor(address,uint256)": "715cc675",
					"prescribeMedicine(address,uint256,uint8,uint8)": "a211b4b7",
					"register_as_doctor(string,string,string,string)": "ea6b4727",
					"register_as_patient(string,uint256,uint256,uint256)": "36eb4a2d",
					"update_Recovery_Status(address,uint256,uint256)": "dfba9ad7",
					"viewDoctorDetails(address)": "c140261c",
					"viewDoctorRating(address)": "2ce1bd55",
					"viewMedicineDetails(uint256)": "cc7fa220",
					"viewPatientDiseaseDetails(address,uint256,string)": "beb02ea3",
					"viewPatientMedicationsByDoctor(address,string)": "5e12fadc"
				}
			},
			"storageLayout": {
				"storage": [
					{
						"astId": 90,
						"contract": "contracts/PatientRecordStorage.sol:patientRecordStorage",
						"label": "Patient_Record",
						"offset": 0,
						"slot": "0",
						"type": "t_mapping(t_address,t_struct(Patient)66_storage)"
					},
					{
						"astId": 95,
						"contract": "contracts/PatientRecordStorage.sol:patientRecordStorage",
						"label": "Doctor_Record",
						"offset": 0,
						"slot": "1",
						"type": "t_mapping(t_address,t_struct(Doctor)16_storage)"
					},
					{
						"astId": 100,
						"contract": "contracts/PatientRecordStorage.sol:patientRecordStorage",
						"label": "Medicine_list",
						"offset": 0,
						"slot": "2",
						"type": "t_mapping(t_uint256,t_struct(Medicine)37_storage)"
					},
					{
						"astId": 107,
						"contract": "contracts/PatientRecordStorage.sol:patientRecordStorage",
						"label": "Doctors_Rating",
						"offset": 0,
						"slot": "3",
						"type": "t_mapping(t_address,t_mapping(t_address,t_enum(reviewDoctor)85))"
					},
					{
						"astId": 111,
						"contract": "contracts/PatientRecordStorage.sol:patientRecordStorage",
						"label": "MedRecordEditor",
						"offset": 0,
						"slot": "4",
						"type": "t_mapping(t_address,t_bool)"
					}
				],
				"types": {
					"t_address": {
						"encoding": "inplace",
						"label": "address",
						"numberOfBytes": "20"
					},
					"t_array(t_struct(Disease)79_storage)dyn_storage": {
						"base": "t_struct(Disease)79_storage",
						"encoding": "dynamic_array",
						"label": "struct patientRecordStorage.Disease[]",
						"numberOfBytes": "32"
					},
					"t_array(t_struct(Medicine)37_storage)dyn_storage": {
						"base": "t_struct(Medicine)37_storage",
						"encoding": "dynamic_array",
						"label": "struct patientRecordStorage.Medicine[]",
						"numberOfBytes": "32"
					},
					"t_bool": {
						"encoding": "inplace",
						"label": "bool",
						"numberOfBytes": "1"
					},
					"t_enum(RecoveryStatus)73": {
						"encoding": "inplace",
						"label": "enum patientRecordStorage.RecoveryStatus",
						"numberOfBytes": "1"
					},
					"t_enum(medicine_dosage)21": {
						"encoding": "inplace",
						"label": "enum patientRecordStorage.medicine_dosage",
						"numberOfBytes": "1"
					},
					"t_enum(medicine_timing)24": {
						"encoding": "inplace",
						"label": "enum patientRecordStorage.medicine_timing",
						"numberOfBytes": "1"
					},
					"t_enum(reviewDoctor)85": {
						"encoding": "inplace",
						"label": "enum patientRecordStorage.reviewDoctor",
						"numberOfBytes": "1"
					},
					"t_mapping(t_address,t_array(t_struct(Medicine)37_storage)dyn_storage)": {
						"encoding": "mapping",
						"key": "t_address",
						"label": "mapping(address => struct patientRecordStorage.Medicine[])",
						"numberOfBytes": "32",
						"value": "t_array(t_struct(Medicine)37_storage)dyn_storage"
					},
					"t_mapping(t_address,t_bool)": {
						"encoding": "mapping",
						"key": "t_address",
						"label": "mapping(address => bool)",
						"numberOfBytes": "32",
						"value": "t_bool"
					},
					"t_mapping(t_address,t_enum(reviewDoctor)85)": {
						"encoding": "mapping",
						"key": "t_address",
						"label": "mapping(address => enum patientRecordStorage.reviewDoctor)",
						"numberOfBytes": "32",
						"value": "t_enum(reviewDoctor)85"
					},
					"t_mapping(t_address,t_mapping(t_address,t_enum(reviewDoctor)85))": {
						"encoding": "mapping",
						"key": "t_address",
						"label": "mapping(address => mapping(address => enum patientRecordStorage.reviewDoctor))",
						"numberOfBytes": "32",
						"value": "t_mapping(t_address,t_enum(reviewDoctor)85)"
					},
					"t_mapping(t_address,t_struct(Doctor)16_storage)": {
						"encoding": "mapping",
						"key": "t_address",
						"label": "mapping(address => struct patientRecordStorage.Doctor)",
						"numberOfBytes": "32",
						"value": "t_struct(Doctor)16_storage"
					},
					"t_mapping(t_address,t_struct(Patient)66_storage)": {
						"encoding": "mapping",
						"key": "t_address",
						"label": "mapping(address => struct patientRecordStorage.Patient)",
						"numberOfBytes": "32",
						"value": "t_struct(Patient)66_storage"
					},
					"t_mapping(t_uint256,t_struct(Medicine)37_storage)": {
						"encoding": "mapping",
						"key": "t_uint256",
						"label": "mapping(uint256 => struct patientRecordStorage.Medicine)",
						"numberOfBytes": "32",
						"value": "t_struct(Medicine)37_storage"
					},
					"t_string_storage": {
						"encoding": "bytes",
						"label": "string",
						"numberOfBytes": "32"
					},
					"t_struct(Disease)79_storage": {
						"encoding": "inplace",
						"label": "struct patientRecordStorage.Disease",
						"members": [
							{
								"astId": 75,
								"contract": "contracts/PatientRecordStorage.sol:patientRecordStorage",
								"label": "name",
								"offset": 0,
								"slot": "0",
								"type": "t_string_storage"
							},
							{
								"astId": 78,
								"contract": "contracts/PatientRecordStorage.sol:patientRecordStorage",
								"label": "recoveryStatus",
								"offset": 0,
								"slot": "1",
								"type": "t_enum(RecoveryStatus)73"
							}
						],
						"numberOfBytes": "64"
					},
					"t_struct(Doctor)16_storage": {
						"encoding": "inplace",
						"label": "struct patientRecordStorage.Doctor",
						"members": [
							{
								"astId": 3,
								"contract": "contracts/PatientRecordStorage.sol:patientRecordStorage",
								"label": "name",
								"offset": 0,
								"slot": "0",
								"type": "t_string_storage"
							},
							{
								"astId": 5,
								"contract": "contracts/PatientRecordStorage.sol:patientRecordStorage",
								"label": "qualification",
								"offset": 0,
								"slot": "1",
								"type": "t_string_storage"
							},
							{
								"astId": 7,
								"contract": "contracts/PatientRecordStorage.sol:patientRecordStorage",
								"label": "workPlace",
								"offset": 0,
								"slot": "2",
								"type": "t_string_storage"
							},
							{
								"astId": 9,
								"contract": "contracts/PatientRecordStorage.sol:patientRecordStorage",
								"label": "specialization",
								"offset": 0,
								"slot": "3",
								"type": "t_string_storage"
							},
							{
								"astId": 11,
								"contract": "contracts/PatientRecordStorage.sol:patientRecordStorage",
								"label": "reviewers",
								"offset": 0,
								"slot": "4",
								"type": "t_uint256"
							},
							{
								"astId": 13,
								"contract": "contracts/PatientRecordStorage.sol:patientRecordStorage",
								"label": "totalRatingPoints",
								"offset": 0,
								"slot": "5",
								"type": "t_uint256"
							},
							{
								"astId": 15,
								"contract": "contracts/PatientRecordStorage.sol:patientRecordStorage",
								"label": "exists",
								"offset": 0,
								"slot": "6",
								"type": "t_bool"
							}
						],
						"numberOfBytes": "224"
					},
					"t_struct(Medicine)37_storage": {
						"encoding": "inplace",
						"label": "struct patientRecordStorage.Medicine",
						"members": [
							{
								"astId": 26,
								"contract": "contracts/PatientRecordStorage.sol:patientRecordStorage",
								"label": "name",
								"offset": 0,
								"slot": "0",
								"type": "t_string_storage"
							},
							{
								"astId": 28,
								"contract": "contracts/PatientRecordStorage.sol:patientRecordStorage",
								"label": "continue_status",
								"offset": 0,
								"slot": "1",
								"type": "t_bool"
							},
							{
								"astId": 31,
								"contract": "contracts/PatientRecordStorage.sol:patientRecordStorage",
								"label": "dosage",
								"offset": 1,
								"slot": "1",
								"type": "t_enum(medicine_dosage)21"
							},
							{
								"astId": 34,
								"contract": "contracts/PatientRecordStorage.sol:patientRecordStorage",
								"label": "dosageTiming",
								"offset": 2,
								"slot": "1",
								"type": "t_enum(medicine_timing)24"
							},
							{
								"astId": 36,
								"contract": "contracts/PatientRecordStorage.sol:patientRecordStorage",
								"label": "exists",
								"offset": 3,
								"slot": "1",
								"type": "t_bool"
							}
						],
						"numberOfBytes": "64"
					},
					"t_struct(Patient)66_storage": {
						"encoding": "inplace",
						"label": "struct patientRecordStorage.Patient",
						"members": [
							{
								"astId": 39,
								"contract": "contracts/PatientRecordStorage.sol:patientRecordStorage",
								"label": "name",
								"offset": 0,
								"slot": "0",
								"type": "t_string_storage"
							},
							{
								"astId": 41,
								"contract": "contracts/PatientRecordStorage.sol:patientRecordStorage",
								"label": "dateofbirth",
								"offset": 0,
								"slot": "1",
								"type": "t_uint256"
							},
							{
								"astId": 43,
								"contract": "contracts/PatientRecordStorage.sol:patientRecordStorage",
								"label": "weight",
								"offset": 0,
								"slot": "2",
								"type": "t_uint256"
							},
							{
								"astId": 45,
								"contract": "contracts/PatientRecordStorage.sol:patientRecordStorage",
								"label": "height",
								"offset": 0,
								"slot": "3",
								"type": "t_uint256"
							},
							{
								"astId": 49,
								"contract": "contracts/PatientRecordStorage.sol:patientRecordStorage",
								"label": "disease",
								"offset": 0,
								"slot": "4",
								"type": "t_array(t_struct(Disease)79_storage)dyn_storage"
							},
							{
								"astId": 53,
								"contract": "contracts/PatientRecordStorage.sol:patientRecordStorage",
								"label": "allergic_to",
								"offset": 0,
								"slot": "5",
								"type": "t_array(t_struct(Medicine)37_storage)dyn_storage"
							},
							{
								"astId": 57,
								"contract": "contracts/PatientRecordStorage.sol:patientRecordStorage",
								"label": "approved_editors",
								"offset": 0,
								"slot": "6",
								"type": "t_mapping(t_address,t_bool)"
							},
							{
								"astId": 63,
								"contract": "contracts/PatientRecordStorage.sol:patientRecordStorage",
								"label": "current_medications",
								"offset": 0,
								"slot": "7",
								"type": "t_mapping(t_address,t_array(t_struct(Medicine)37_storage)dyn_storage)"
							},
							{
								"astId": 65,
								"contract": "contracts/PatientRecordStorage.sol:patientRecordStorage",
								"label": "exists",
								"offset": 0,
								"slot": "8",
								"type": "t_bool"
							}
						],
						"numberOfBytes": "288"
					},
					"t_uint256": {
						"encoding": "inplace",
						"label": "uint256",
						"numberOfBytes": "32"
					}
				}
			},
			"userdoc": {
				"kind": "user",
				"methods": {
					"approvePatientRecordEditor(address)": {
						"notice": "approve doctor can check patient and prescribe medicines  , approved user can change patient record"
					},
					"register_as_doctor(string,string,string,string)": {
						"notice": "This function is used to register a new doctor to the ledger"
					},
					"register_as_patient(string,uint256,uint256,uint256)": {
						"notice": "This function is used to register a new patient to the ledger"
					}
				},
				"version": 1
			}
		}
	}
}